{
  "_format": "hh-sol-artifact-1",
  "contractName": "ReferralReward",
  "sourceName": "contracts/ReferralReward.sol",
  "abi": [
    {
      "inputs": [
        {
          "internalType": "address",
          "name": "initialOwner",
          "type": "address"
        }
      ],
      "stateMutability": "nonpayable",
      "type": "constructor"
    },
    {
      "inputs": [
        {
          "internalType": "address",
          "name": "owner",
          "type": "address"
        }
      ],
      "name": "OwnableInvalidOwner",
      "type": "error"
    },
    {
      "inputs": [
        {
          "internalType": "address",
          "name": "account",
          "type": "address"
        }
      ],
      "name": "OwnableUnauthorizedAccount",
      "type": "error"
    },
    {
      "inputs": [
        {
          "internalType": "address",
          "name": "token",
          "type": "address"
        }
      ],
      "name": "SafeERC20FailedOperation",
      "type": "error"
    },
    {
      "anonymous": false,
      "inputs": [
        {
          "indexed": true,
          "internalType": "address",
          "name": "user",
          "type": "address"
        },
        {
          "indexed": true,
          "internalType": "address",
          "name": "referrer",
          "type": "address"
        }
      ],
      "name": "Bound",
      "type": "event"
    },
    {
      "anonymous": false,
      "inputs": [
        {
          "indexed": true,
          "internalType": "address",
          "name": "addr",
          "type": "address"
        }
      ],
      "name": "MiningLogicSet",
      "type": "event"
    },
    {
      "anonymous": false,
      "inputs": [
        {
          "indexed": true,
          "internalType": "address",
          "name": "previousOwner",
          "type": "address"
        },
        {
          "indexed": true,
          "internalType": "address",
          "name": "newOwner",
          "type": "address"
        }
      ],
      "name": "OwnershipTransferred",
      "type": "event"
    },
    {
      "anonymous": false,
      "inputs": [
        {
          "indexed": false,
          "internalType": "uint256[5]",
          "name": "newRates",
          "type": "uint256[5]"
        }
      ],
      "name": "RatesUpdated",
      "type": "event"
    },
    {
      "anonymous": false,
      "inputs": [
        {
          "indexed": true,
          "internalType": "address",
          "name": "earner",
          "type": "address"
        },
        {
          "indexed": true,
          "internalType": "address",
          "name": "miner",
          "type": "address"
        },
        {
          "indexed": true,
          "internalType": "address",
          "name": "token",
          "type": "address"
        },
        {
          "indexed": false,
          "internalType": "uint256",
          "name": "amount",
          "type": "uint256"
        },
        {
          "indexed": false,
          "internalType": "uint8",
          "name": "level",
          "type": "uint8"
        }
      ],
      "name": "ReferralRewarded",
      "type": "event"
    },
    {
      "inputs": [],
      "name": "MAX_LEVELS",
      "outputs": [
        {
          "internalType": "uint256",
          "name": "",
          "type": "uint256"
        }
      ],
      "stateMutability": "view",
      "type": "function"
    },
    {
      "inputs": [
        {
          "internalType": "uint256",
          "name": "",
          "type": "uint256"
        }
      ],
      "name": "RATES",
      "outputs": [
        {
          "internalType": "uint256",
          "name": "",
          "type": "uint256"
        }
      ],
      "stateMutability": "view",
      "type": "function"
    },
    {
      "inputs": [],
      "name": "RATE_BASE",
      "outputs": [
        {
          "internalType": "uint256",
          "name": "",
          "type": "uint256"
        }
      ],
      "stateMutability": "view",
      "type": "function"
    },
    {
      "inputs": [
        {
          "internalType": "address",
          "name": "_referrer",
          "type": "address"
        }
      ],
      "name": "bind",
      "outputs": [],
      "stateMutability": "nonpayable",
      "type": "function"
    },
    {
      "inputs": [
        {
          "internalType": "address",
          "name": "",
          "type": "address"
        }
      ],
      "name": "bound",
      "outputs": [
        {
          "internalType": "bool",
          "name": "",
          "type": "bool"
        }
      ],
      "stateMutability": "view",
      "type": "function"
    },
    {
      "inputs": [
        {
          "internalType": "address",
          "name": "miner",
          "type": "address"
        },
        {
          "internalType": "address",
          "name": "token",
          "type": "address"
        },
        {
          "internalType": "uint256",
          "name": "amount",
          "type": "uint256"
        }
      ],
      "name": "distributeReward",
      "outputs": [],
      "stateMutability": "nonpayable",
      "type": "function"
    },
    {
      "inputs": [
        {
          "internalType": "address",
          "name": "user",
          "type": "address"
        },
        {
          "internalType": "address",
          "name": "token",
          "type": "address"
        }
      ],
      "name": "earned",
      "outputs": [
        {
          "internalType": "uint256",
          "name": "",
          "type": "uint256"
        }
      ],
      "stateMutability": "view",
      "type": "function"
    },
    {
      "inputs": [
        {
          "internalType": "address",
          "name": "user",
          "type": "address"
        }
      ],
      "name": "getAncestors",
      "outputs": [
        {
          "internalType": "address[5]",
          "name": "ancestors",
          "type": "address[5]"
        }
      ],
      "stateMutability": "view",
      "type": "function"
    },
    {
      "inputs": [],
      "name": "getRates",
      "outputs": [
        {
          "internalType": "uint256[5]",
          "name": "",
          "type": "uint256[5]"
        }
      ],
      "stateMutability": "view",
      "type": "function"
    },
    {
      "inputs": [],
      "name": "miningLogic",
      "outputs": [
        {
          "internalType": "address",
          "name": "",
          "type": "address"
        }
      ],
      "stateMutability": "view",
      "type": "function"
    },
    {
      "inputs": [],
      "name": "owner",
      "outputs": [
        {
          "internalType": "address",
          "name": "",
          "type": "address"
        }
      ],
      "stateMutability": "view",
      "type": "function"
    },
    {
      "inputs": [
        {
          "internalType": "address",
          "name": "",
          "type": "address"
        }
      ],
      "name": "referrer",
      "outputs": [
        {
          "internalType": "address",
          "name": "",
          "type": "address"
        }
      ],
      "stateMutability": "view",
      "type": "function"
    },
    {
      "inputs": [],
      "name": "renounceOwnership",
      "outputs": [],
      "stateMutability": "nonpayable",
      "type": "function"
    },
    {
      "inputs": [
        {
          "internalType": "address",
          "name": "_mining",
          "type": "address"
        }
      ],
      "name": "setMiningLogic",
      "outputs": [],
      "stateMutability": "nonpayable",
      "type": "function"
    },
    {
      "inputs": [
        {
          "internalType": "uint256[5]",
          "name": "newRates",
          "type": "uint256[5]"
        }
      ],
      "name": "setRates",
      "outputs": [],
      "stateMutability": "nonpayable",
      "type": "function"
    },
    {
      "inputs": [
        {
          "internalType": "address",
          "name": "",
          "type": "address"
        },
        {
          "internalType": "address",
          "name": "",
          "type": "address"
        }
      ],
      "name": "totalEarned",
      "outputs": [
        {
          "internalType": "uint256",
          "name": "",
          "type": "uint256"
        }
      ],
      "stateMutability": "view",
      "type": "function"
    },
    {
      "inputs": [
        {
          "internalType": "address",
          "name": "newOwner",
          "type": "address"
        }
      ],
      "name": "transferOwnership",
      "outputs": [],
      "stateMutability": "nonpayable",
      "type": "function"
    }
  ],
  "bytecode": "0x60806040526040518060a001604052806101f461ffff16815260200161012c61ffff16815260200160c861ffff168152602001606461ffff168152602001603261ffff16815250600190600562000058929190620001df565b503480156200006657600080fd5b5060405162001f4638038062001f4683398181016040528101906200008c9190620002b3565b80600073ffffffffffffffffffffffffffffffffffffffff168173ffffffffffffffffffffffffffffffffffffffff1603620001025760006040517f1e4fbdf7000000000000000000000000000000000000000000000000000000008152600401620000f99190620002f6565b60405180910390fd5b62000113816200011b60201b60201c565b505062000313565b60008060009054906101000a900473ffffffffffffffffffffffffffffffffffffffff169050816000806101000a81548173ffffffffffffffffffffffffffffffffffffffff021916908373ffffffffffffffffffffffffffffffffffffffff1602179055508173ffffffffffffffffffffffffffffffffffffffff168173ffffffffffffffffffffffffffffffffffffffff167f8be0079c531659141344cd1fd0a4f28419497f9722a3daafe3b4186f6b6457e060405160405180910390a35050565b826005810192821562000217579160200282015b8281111562000216578251829061ffff16905591602001919060010190620001f3565b5b5090506200022691906200022a565b5090565b5b80821115620002455760008160009055506001016200022b565b5090565b600080fd5b600073ffffffffffffffffffffffffffffffffffffffff82169050919050565b60006200027b826200024e565b9050919050565b6200028d816200026e565b81146200029957600080fd5b50565b600081519050620002ad8162000282565b92915050565b600060208284031215620002cc57620002cb62000249565b5b6000620002dc848285016200029c565b91505092915050565b620002f0816200026e565b82525050565b60006020820190506200030d6000830184620002e5565b92915050565b611c2380620003236000396000f3fe608060405234801561001057600080fd5b506004361061010b5760003560e01c80638da5cb5b116100a2578063c13d6c9911610071578063c13d6c99146102a8578063e7cea7f4146102c4578063ea291942146102e0578063f2fde38b14610310578063ff747cc01461032c5761010b565b80638da5cb5b14610232578063990f3314146102505780639accab551461026c578063af626c121461028a5761010b565b806362203d74116100de57806362203d74146101be5780636702c7bf146101ee578063715018a61461020c57806381bac14f146102165761010b565b80630873c6ec14610110578063211dc32d1461012e5780632cf003c21461015e5780633e9721671461018e575b600080fd5b61011861035c565b6040516101259190611272565b60405180910390f35b610148600480360381019061014391906112f0565b610362565b6040516101559190611272565b60405180910390f35b61017860048036038101906101739190611330565b6103e9565b604051610185919061136c565b60405180910390f35b6101a860048036038101906101a391906112f0565b61041c565b6040516101b59190611272565b60405180910390f35b6101d860048036038101906101d391906113b3565b610441565b6040516101e59190611272565b60405180910390f35b6101f661045c565b6040516102039190611272565b60405180910390f35b610214610461565b005b610230600480360381019061022b9190611330565b610475565b005b61023a61075c565b604051610247919061136c565b60405180910390f35b61026a60048036038101906102659190611407565b610785565b005b610274610865565b60405161028191906114df565b60405180910390f35b6102926108b0565b60405161029f919061136c565b60405180910390f35b6102c260048036038101906102bd9190611330565b6108d6565b005b6102de60048036038101906102d991906114fa565b6109d4565b005b6102fa60048036038101906102f59190611330565b610cbc565b6040516103079190611568565b60405180910390f35b61032a60048036038101906103259190611330565b610cdc565b005b61034660048036038101906103419190611330565b610d62565b604051610353919061162e565b60405180910390f35b61271081565b6000600860008473ffffffffffffffffffffffffffffffffffffffff1673ffffffffffffffffffffffffffffffffffffffff16815260200190815260200160002060008373ffffffffffffffffffffffffffffffffffffffff1673ffffffffffffffffffffffffffffffffffffffff16815260200190815260200160002054905092915050565b60066020528060005260406000206000915054906101000a900473ffffffffffffffffffffffffffffffffffffffff1681565b6008602052816000526040600020602052806000526040600020600091509150505481565b6001816005811061045157600080fd5b016000915090505481565b600581565b610469610e88565b6104736000610f0f565b565b600760003373ffffffffffffffffffffffffffffffffffffffff1673ffffffffffffffffffffffffffffffffffffffff16815260200190815260200160002060009054906101000a900460ff1615610502576040517f08c379a00000000000000000000000000000000000000000000000000000000081526004016104f9906116a6565b60405180910390fd5b600073ffffffffffffffffffffffffffffffffffffffff168173ffffffffffffffffffffffffffffffffffffffff1603610571576040517f08c379a000000000000000000000000000000000000000000000000000000000815260040161056890611712565b60405180910390fd5b3373ffffffffffffffffffffffffffffffffffffffff168173ffffffffffffffffffffffffffffffffffffffff16036105df576040517f08c379a00000000000000000000000000000000000000000000000000000000081526004016105d69061177e565b60405180910390fd5b6105e93382610fd3565b15610629576040517f08c379a0000000000000000000000000000000000000000000000000000000008152600401610620906117ea565b60405180910390fd5b80600660003373ffffffffffffffffffffffffffffffffffffffff1673ffffffffffffffffffffffffffffffffffffffff16815260200190815260200160002060006101000a81548173ffffffffffffffffffffffffffffffffffffffff021916908373ffffffffffffffffffffffffffffffffffffffff1602179055506001600760003373ffffffffffffffffffffffffffffffffffffffff1673ffffffffffffffffffffffffffffffffffffffff16815260200190815260200160002060006101000a81548160ff0219169083151502179055508073ffffffffffffffffffffffffffffffffffffffff163373ffffffffffffffffffffffffffffffffffffffff167f0d128562eaa47ab89086803e64a0f96847c0ed3cc63c26251f29ba1aede09d4e60405160405180910390a350565b60008060009054906101000a900473ffffffffffffffffffffffffffffffffffffffff16905090565b61078d610e88565b6000805b60058110156107d2578281600581106107ad576107ac61180a565b5b6020020135826107bd9190611868565b915080806107ca9061189c565b915050610791565b506107d0811115610818576040517f08c379a000000000000000000000000000000000000000000000000000000000815260040161080f90611956565b60405180910390fd5b8160019060056108299291906111b8565b507f0946ad46d315bfe5b03d27914d54e9c241e5a9e4688edfb8ae1e1ae80f5e4f6282604051610859919061198f565b60405180910390a15050565b61086d6111f8565b60016005806020026040519081016040528092919082600580156108a6576020028201915b815481526020019060010190808311610892575b5050505050905090565b600960009054906101000a900473ffffffffffffffffffffffffffffffffffffffff1681565b6108de610e88565b600073ffffffffffffffffffffffffffffffffffffffff168173ffffffffffffffffffffffffffffffffffffffff160361094d576040517f08c379a0000000000000000000000000000000000000000000000000000000008152600401610944906119f6565b60405180910390fd5b80600960006101000a81548173ffffffffffffffffffffffffffffffffffffffff021916908373ffffffffffffffffffffffffffffffffffffffff1602179055508073ffffffffffffffffffffffffffffffffffffffff167feb3dd18086664c26342a63571e11384e87d862e260546b3cc8d4a543895bb3fd60405160405180910390a250565b600960009054906101000a900473ffffffffffffffffffffffffffffffffffffffff1673ffffffffffffffffffffffffffffffffffffffff163373ffffffffffffffffffffffffffffffffffffffff1614610a64576040517f08c379a0000000000000000000000000000000000000000000000000000000008152600401610a5b90611a88565b60405180910390fd5b600083905060005b60058160ff161015610cb5576000600660008473ffffffffffffffffffffffffffffffffffffffff1673ffffffffffffffffffffffffffffffffffffffff16815260200190815260200160002060009054906101000a900473ffffffffffffffffffffffffffffffffffffffff169050600073ffffffffffffffffffffffffffffffffffffffff168173ffffffffffffffffffffffffffffffffffffffff1603610b165750610cb5565b600061271060018460ff1660058110610b3257610b3161180a565b5b015486610b3f9190611aa8565b610b499190611b19565b90506000811115610c9d57610b7f82828873ffffffffffffffffffffffffffffffffffffffff166110f39092919063ffffffff16565b80600860008473ffffffffffffffffffffffffffffffffffffffff1673ffffffffffffffffffffffffffffffffffffffff16815260200190815260200160002060008873ffffffffffffffffffffffffffffffffffffffff1673ffffffffffffffffffffffffffffffffffffffff1681526020019081526020016000206000828254610c0b9190611868565b925050819055508573ffffffffffffffffffffffffffffffffffffffff168773ffffffffffffffffffffffffffffffffffffffff168373ffffffffffffffffffffffffffffffffffffffff167f3bdd34fc02766d681aa3efa168f40b42d388de4722aa04e2713d564ac0e31c0c84600188610c869190611b57565b604051610c94929190611b9b565b60405180910390a45b81935050508080610cad90611bc4565b915050610a6c565b5050505050565b60076020528060005260406000206000915054906101000a900460ff1681565b610ce4610e88565b600073ffffffffffffffffffffffffffffffffffffffff168173ffffffffffffffffffffffffffffffffffffffff1603610d565760006040517f1e4fbdf7000000000000000000000000000000000000000000000000000000008152600401610d4d919061136c565b60405180910390fd5b610d5f81610f0f565b50565b610d6a61121a565b600082905060005b60058160ff161015610e81576000600660008473ffffffffffffffffffffffffffffffffffffffff1673ffffffffffffffffffffffffffffffffffffffff16815260200190815260200160002060009054906101000a900473ffffffffffffffffffffffffffffffffffffffff169050600073ffffffffffffffffffffffffffffffffffffffff168173ffffffffffffffffffffffffffffffffffffffff1603610e1c5750610e81565b80848360ff1660058110610e3357610e3261180a565b5b602002019073ffffffffffffffffffffffffffffffffffffffff16908173ffffffffffffffffffffffffffffffffffffffff1681525050809250508080610e7990611bc4565b915050610d72565b5050919050565b610e90611146565b73ffffffffffffffffffffffffffffffffffffffff16610eae61075c565b73ffffffffffffffffffffffffffffffffffffffff1614610f0d57610ed1611146565b6040517f118cdaa7000000000000000000000000000000000000000000000000000000008152600401610f04919061136c565b60405180910390fd5b565b60008060009054906101000a900473ffffffffffffffffffffffffffffffffffffffff169050816000806101000a81548173ffffffffffffffffffffffffffffffffffffffff021916908373ffffffffffffffffffffffffffffffffffffffff1602179055508173ffffffffffffffffffffffffffffffffffffffff168173ffffffffffffffffffffffffffffffffffffffff167f8be0079c531659141344cd1fd0a4f28419497f9722a3daafe3b4186f6b6457e060405160405180910390a35050565b60008083905060005b60016005610fea9190611868565b8160ff1610156110e657600660008373ffffffffffffffffffffffffffffffffffffffff1673ffffffffffffffffffffffffffffffffffffffff16815260200190815260200160002060009054906101000a900473ffffffffffffffffffffffffffffffffffffffff169150600073ffffffffffffffffffffffffffffffffffffffff168273ffffffffffffffffffffffffffffffffffffffff1603611095576000925050506110ed565b8373ffffffffffffffffffffffffffffffffffffffff168273ffffffffffffffffffffffffffffffffffffffff16036110d3576001925050506110ed565b80806110de90611bc4565b915050610fdc565b5060009150505b92915050565b611100838383600161114e565b61114157826040517f5274afe7000000000000000000000000000000000000000000000000000000008152600401611138919061136c565b60405180910390fd5b505050565b600033905090565b60008063a9059cbb60e01b90506040518160005260001960601c8616600452846024526020600060446000808b5af1925060016000511483166111aa57838315161561119d573d6000823e3d81fd5b6000873b113d1516831692505b806040525050949350505050565b82600581019282156111e7579160200282015b828111156111e65782358255916020019190600101906111cb565b5b5090506111f4919061123c565b5090565b6040518060a00160405280600590602082028036833780820191505090505090565b6040518060a00160405280600590602082028036833780820191505090505090565b5b8082111561125557600081600090555060010161123d565b5090565b6000819050919050565b61126c81611259565b82525050565b60006020820190506112876000830184611263565b92915050565b600080fd5b600073ffffffffffffffffffffffffffffffffffffffff82169050919050565b60006112bd82611292565b9050919050565b6112cd816112b2565b81146112d857600080fd5b50565b6000813590506112ea816112c4565b92915050565b600080604083850312156113075761130661128d565b5b6000611315858286016112db565b9250506020611326858286016112db565b9150509250929050565b6000602082840312156113465761134561128d565b5b6000611354848285016112db565b91505092915050565b611366816112b2565b82525050565b6000602082019050611381600083018461135d565b92915050565b61139081611259565b811461139b57600080fd5b50565b6000813590506113ad81611387565b92915050565b6000602082840312156113c9576113c861128d565b5b60006113d78482850161139e565b91505092915050565b600080fd5b600081905082602060050282011115611401576114006113e0565b5b92915050565b600060a0828403121561141d5761141c61128d565b5b600061142b848285016113e5565b91505092915050565b600060059050919050565b600081905092915050565b6000819050919050565b61145d81611259565b82525050565b600061146f8383611454565b60208301905092915050565b6000602082019050919050565b61149181611434565b61149b818461143f565b92506114a68261144a565b8060005b838110156114d75781516114be8782611463565b96506114c98361147b565b9250506001810190506114aa565b505050505050565b600060a0820190506114f46000830184611488565b92915050565b6000806000606084860312156115135761151261128d565b5b6000611521868287016112db565b9350506020611532868287016112db565b92505060406115438682870161139e565b9150509250925092565b60008115159050919050565b6115628161154d565b82525050565b600060208201905061157d6000830184611559565b92915050565b600060059050919050565b600081905092915050565b6000819050919050565b6115ac816112b2565b82525050565b60006115be83836115a3565b60208301905092915050565b6000602082019050919050565b6115e081611583565b6115ea818461158e565b92506115f582611599565b8060005b8381101561162657815161160d87826115b2565b9650611618836115ca565b9250506001810190506115f9565b505050505050565b600060a08201905061164360008301846115d7565b92915050565b600082825260208201905092915050565b7f616c726561647920626f756e6400000000000000000000000000000000000000600082015250565b6000611690600d83611649565b915061169b8261165a565b602082019050919050565b600060208201905081810360008301526116bf81611683565b9050919050565b7f696e76616c696420726566657272657200000000000000000000000000000000600082015250565b60006116fc601083611649565b9150611707826116c6565b602082019050919050565b6000602082019050818103600083015261172b816116ef565b9050919050565b7f63616e6e6f7420726566657220796f757273656c660000000000000000000000600082015250565b6000611768601583611649565b915061177382611732565b602082019050919050565b600060208201905081810360008301526117978161175b565b9050919050565b7f63697263756c617220726566657272616c000000000000000000000000000000600082015250565b60006117d4601183611649565b91506117df8261179e565b602082019050919050565b60006020820190508181036000830152611803816117c7565b9050919050565b7f4e487b7100000000000000000000000000000000000000000000000000000000600052603260045260246000fd5b7f4e487b7100000000000000000000000000000000000000000000000000000000600052601160045260246000fd5b600061187382611259565b915061187e83611259565b925082820190508082111561189657611895611839565b5b92915050565b60006118a782611259565b91507fffffffffffffffffffffffffffffffffffffffffffffffffffffffffffffffff82036118d9576118d8611839565b5b600182019050919050565b7f746f74616c20726566657272616c2072617465203e203230252c20746f6f206860008201527f6967680000000000000000000000000000000000000000000000000000000000602082015250565b6000611940602383611649565b915061194b826118e4565b604082019050919050565b6000602082019050818103600083015261196f81611933565b9050919050565b82818337505050565b61198b60a08383611976565b5050565b600060a0820190506119a4600083018461197f565b92915050565b7f7a65726f20616464726573730000000000000000000000000000000000000000600082015250565b60006119e0600c83611649565b91506119eb826119aa565b602082019050919050565b60006020820190508181036000830152611a0f816119d3565b9050919050565b7f526566657272616c5265776172643a2063616c6c6572206973206e6f74204d6960008201527f6e696e674c6f6769630000000000000000000000000000000000000000000000602082015250565b6000611a72602983611649565b9150611a7d82611a16565b604082019050919050565b60006020820190508181036000830152611aa181611a65565b9050919050565b6000611ab382611259565b9150611abe83611259565b9250828202611acc81611259565b91508282048414831517611ae357611ae2611839565b5b5092915050565b7f4e487b7100000000000000000000000000000000000000000000000000000000600052601260045260246000fd5b6000611b2482611259565b9150611b2f83611259565b925082611b3f57611b3e611aea565b5b828204905092915050565b600060ff82169050919050565b6000611b6282611b4a565b9150611b6d83611b4a565b9250828201905060ff811115611b8657611b85611839565b5b92915050565b611b9581611b4a565b82525050565b6000604082019050611bb06000830185611263565b611bbd6020830184611b8c565b9392505050565b6000611bcf82611b4a565b915060ff8203611be257611be1611839565b5b60018201905091905056fea26469706673582212205a508a2419fe9290f766e419b9ebddea0a0cefbd8f71efbc0752603fd52a987064736f6c63430008140033",
  "linkReferences": {},
  "deployedLinkReferences": {}
}