{"contracts/ReferralReward.sol":{"ReferralReward":{"abi":[{"inputs":[{"internalType":"address","name":"initialOwner","type":"address"}],"stateMutability":"nonpayable","type":"constructor"},{"inputs":[{"internalType":"address","name":"owner","type":"address"}],"name":"OwnableInvalidOwner","type":"error"},{"inputs":[{"internalType":"address","name":"account","type":"address"}],"name":"OwnableUnauthorizedAccount","type":"error"},{"inputs":[{"internalType":"address","name":"token","type":"address"}],"name":"SafeERC20FailedOperation","type":"error"},{"anonymous":false,"inputs":[{"indexed":true,"internalType":"address","name":"user","type":"address"},{"indexed":true,"internalType":"address","name":"referrer","type":"address"}],"name":"Bound","type":"event"},{"anonymous":false,"inputs":[{"indexed":true,"internalType":"address","name":"addr","type":"address"}],"name":"MiningLogicSet","type":"event"},{"anonymous":false,"inputs":[{"indexed":true,"internalType":"address","name":"previousOwner","type":"address"},{"indexed":true,"internalType":"address","name":"newOwner","type":"address"}],"name":"OwnershipTransferred","type":"event"},{"anonymous":false,"inputs":[{"indexed":false,"internalType":"uint256[5]","name":"newRates","type":"uint256[5]"}],"name":"RatesUpdated","type":"event"},{"anonymous":false,"inputs":[{"indexed":true,"internalType":"address","name":"earner","type":"address"},{"indexed":true,"internalType":"address","name":"miner","type":"address"},{"indexed":true,"internalType":"address","name":"token","type":"address"},{"indexed":false,"internalType":"uint256","name":"amount","type":"uint256"},{"indexed":false,"internalType":"uint8","name":"level","type":"uint8"}],"name":"ReferralRewarded","type":"event"},{"inputs":[],"name":"MAX_LEVELS","outputs":[{"internalType":"uint256","name":"","type":"uint256"}],"stateMutability":"view","type":"function"},{"inputs":[{"internalType":"uint256","name":"","type":"uint256"}],"name":"RATES","outputs":[{"internalType":"uint256","name":"","type":"uint256"}],"stateMutability":"view","type":"function"},{"inputs":[],"name":"RATE_BASE","outputs":[{"internalType":"uint256","name":"","type":"uint256"}],"stateMutability":"view","type":"function"},{"inputs":[{"internalType":"address","name":"_referrer","type":"address"}],"name":"bind","outputs":[],"stateMutability":"nonpayable","type":"function"},{"inputs":[{"internalType":"address","name":"","type":"address"}],"name":"bound","outputs":[{"internalType":"bool","name":"","type":"bool"}],"stateMutability":"view","type":"function"},{"inputs":[{"internalType":"address","name":"miner","type":"address"},{"internalType":"address","name":"token","type":"address"},{"internalType":"uint256","name":"amount","type":"uint256"}],"name":"distributeReward","outputs":[],"stateMutability":"nonpayable","type":"function"},{"inputs":[{"internalType":"address","name":"user","type":"address"},{"internalType":"address","name":"token","type":"address"}],"name":"earned","outputs":[{"internalType":"uint256","name":"","type":"uint256"}],"stateMutability":"view","type":"function"},{"inputs":[{"internalType":"address","name":"user","type":"address"}],"name":"getAncestors","outputs":[{"internalType":"address[5]","name":"ancestors","type":"address[5]"}],"stateMutability":"view","type":"function"},{"inputs":[],"name":"getRates","outputs":[{"internalType":"uint256[5]","name":"","type":"uint256[5]"}],"stateMutability":"view","type":"function"},{"inputs":[],"name":"miningLogic","outputs":[{"internalType":"address","name":"","type":"address"}],"stateMutability":"view","type":"function"},{"inputs":[],"name":"owner","outputs":[{"internalType":"address","name":"","type":"address"}],"stateMutability":"view","type":"function"},{"inputs":[{"internalType":"address","name":"","type":"address"}],"name":"referrer","outputs":[{"internalType":"address","name":"","type":"address"}],"stateMutability":"view","type":"function"},{"inputs":[],"name":"renounceOwnership","outputs":[],"stateMutability":"nonpayable","type":"function"},{"inputs":[{"internalType":"address","name":"_mining","type":"address"}],"name":"setMiningLogic","outputs":[],"stateMutability":"nonpayable","type":"function"},{"inputs":[{"internalType":"uint256[5]","name":"newRates","type":"uint256[5]"}],"name":"setRates","outputs":[],"stateMutability":"nonpayable","type":"function"},{"inputs":[{"internalType":"address","name":"","type":"address"},{"internalType":"address","name":"","type":"address"}],"name":"totalEarned","outputs":[{"internalType":"uint256","name":"","type":"uint256"}],"stateMutability":"view","type":"function"},{"inputs":[{"internalType":"address","name":"newOwner","type":"address"}],"name":"transferOwnership","outputs":[],"stateMutability":"nonpayable","type":"function"}],"evm":{"bytecode":{"linkReferences":{},"object":"60806040526040518060a001604052806101f461ffff16815260200161012c61ffff16815260200160c861ffff168152602001606461ffff168152602001603261ffff16815250600190600562000058929190620001df565b503480156200006657600080fd5b5060405162001f4638038062001f4683398181016040528101906200008c9190620002b3565b80600073ffffffffffffffffffffffffffffffffffffffff168173ffffffffffffffffffffffffffffffffffffffff1603620001025760006040517f1e4fbdf7000000000000000000000000000000000000000000000000000000008152600401620000f99190620002f6565b60405180910390fd5b62000113816200011b60201b60201c565b505062000313565b60008060009054906101000a900473ffffffffffffffffffffffffffffffffffffffff169050816000806101000a81548173ffffffffffffffffffffffffffffffffffffffff021916908373ffffffffffffffffffffffffffffffffffffffff1602179055508173ffffffffffffffffffffffffffffffffffffffff168173ffffffffffffffffffffffffffffffffffffffff167f8be0079c531659141344cd1fd0a4f28419497f9722a3daafe3b4186f6b6457e060405160405180910390a35050565b826005810192821562000217579160200282015b8281111562000216578251829061ffff16905591602001919060010190620001f3565b5b5090506200022691906200022a565b5090565b5b80821115620002455760008160009055506001016200022b565b5090565b600080fd5b600073ffffffffffffffffffffffffffffffffffffffff82169050919050565b60006200027b826200024e565b9050919050565b6200028d816200026e565b81146200029957600080fd5b50565b600081519050620002ad8162000282565b92915050565b600060208284031215620002cc57620002cb62000249565b5b6000620002dc848285016200029c565b91505092915050565b620002f0816200026e565b82525050565b60006020820190506200030d6000830184620002e5565b92915050565b611c2380620003236000396000f3fe608060405234801561001057600080fd5b506004361061010b5760003560e01c80638da5cb5b116100a2578063c13d6c9911610071578063c13d6c99146102a8578063e7cea7f4146102c4578063ea291942146102e0578063f2fde38b14610310578063ff747cc01461032c5761010b565b80638da5cb5b14610232578063990f3314146102505780639accab551461026c578063af626c121461028a5761010b565b806362203d74116100de57806362203d74146101be5780636702c7bf146101ee578063715018a61461020c57806381bac14f146102165761010b565b80630873c6ec14610110578063211dc32d1461012e5780632cf003c21461015e5780633e9721671461018e575b600080fd5b61011861035c565b6040516101259190611272565b60405180910390f35b610148600480360381019061014391906112f0565b610362565b6040516101559190611272565b60405180910390f35b61017860048036038101906101739190611330565b6103e9565b604051610185919061136c565b60405180910390f35b6101a860048036038101906101a391906112f0565b61041c565b6040516101b59190611272565b60405180910390f35b6101d860048036038101906101d391906113b3565b610441565b6040516101e59190611272565b60405180910390f35b6101f661045c565b6040516102039190611272565b60405180910390f35b610214610461565b005b610230600480360381019061022b9190611330565b610475565b005b61023a61075c565b604051610247919061136c565b60405180910390f35b61026a60048036038101906102659190611407565b610785565b005b610274610865565b60405161028191906114df565b60405180910390f35b6102926108b0565b60405161029f919061136c565b60405180910390f35b6102c260048036038101906102bd9190611330565b6108d6565b005b6102de60048036038101906102d991906114fa565b6109d4565b005b6102fa60048036038101906102f59190611330565b610cbc565b6040516103079190611568565b60405180910390f35b61032a60048036038101906103259190611330565b610cdc565b005b61034660048036038101906103419190611330565b610d62565b604051610353919061162e565b60405180910390f35b61271081565b6000600860008473ffffffffffffffffffffffffffffffffffffffff1673ffffffffffffffffffffffffffffffffffffffff16815260200190815260200160002060008373ffffffffffffffffffffffffffffffffffffffff1673ffffffffffffffffffffffffffffffffffffffff16815260200190815260200160002054905092915050565b60066020528060005260406000206000915054906101000a900473ffffffffffffffffffffffffffffffffffffffff1681565b6008602052816000526040600020602052806000526040600020600091509150505481565b6001816005811061045157600080fd5b016000915090505481565b600581565b610469610e88565b6104736000610f0f565b565b600760003373ffffffffffffffffffffffffffffffffffffffff1673ffffffffffffffffffffffffffffffffffffffff16815260200190815260200160002060009054906101000a900460ff1615610502576040517f08c379a00000000000000000000000000000000000000000000000000000000081526004016104f9906116a6565b60405180910390fd5b600073ffffffffffffffffffffffffffffffffffffffff168173ffffffffffffffffffffffffffffffffffffffff1603610571576040517f08c379a000000000000000000000000000000000000000000000000000000000815260040161056890611712565b60405180910390fd5b3373ffffffffffffffffffffffffffffffffffffffff168173ffffffffffffffffffffffffffffffffffffffff16036105df576040517f08c379a00000000000000000000000000000000000000000000000000000000081526004016105d69061177e565b60405180910390fd5b6105e93382610fd3565b15610629576040517f08c379a0000000000000000000000000000000000000000000000000000000008152600401610620906117ea565b60405180910390fd5b80600660003373ffffffffffffffffffffffffffffffffffffffff1673ffffffffffffffffffffffffffffffffffffffff16815260200190815260200160002060006101000a81548173ffffffffffffffffffffffffffffffffffffffff021916908373ffffffffffffffffffffffffffffffffffffffff1602179055506001600760003373ffffffffffffffffffffffffffffffffffffffff1673ffffffffffffffffffffffffffffffffffffffff16815260200190815260200160002060006101000a81548160ff0219169083151502179055508073ffffffffffffffffffffffffffffffffffffffff163373ffffffffffffffffffffffffffffffffffffffff167f0d128562eaa47ab89086803e64a0f96847c0ed3cc63c26251f29ba1aede09d4e60405160405180910390a350565b60008060009054906101000a900473ffffffffffffffffffffffffffffffffffffffff16905090565b61078d610e88565b6000805b60058110156107d2578281600581106107ad576107ac61180a565b5b6020020135826107bd9190611868565b915080806107ca9061189c565b915050610791565b506107d0811115610818576040517f08c379a000000000000000000000000000000000000000000000000000000000815260040161080f90611956565b60405180910390fd5b8160019060056108299291906111b8565b507f0946ad46d315bfe5b03d27914d54e9c241e5a9e4688edfb8ae1e1ae80f5e4f6282604051610859919061198f565b60405180910390a15050565b61086d6111f8565b60016005806020026040519081016040528092919082600580156108a6576020028201915b815481526020019060010190808311610892575b5050505050905090565b600960009054906101000a900473ffffffffffffffffffffffffffffffffffffffff1681565b6108de610e88565b600073ffffffffffffffffffffffffffffffffffffffff168173ffffffffffffffffffffffffffffffffffffffff160361094d576040517f08c379a0000000000000000000000000000000000000000000000000000000008152600401610944906119f6565b60405180910390fd5b80600960006101000a81548173ffffffffffffffffffffffffffffffffffffffff021916908373ffffffffffffffffffffffffffffffffffffffff1602179055508073ffffffffffffffffffffffffffffffffffffffff167feb3dd18086664c26342a63571e11384e87d862e260546b3cc8d4a543895bb3fd60405160405180910390a250565b600960009054906101000a900473ffffffffffffffffffffffffffffffffffffffff1673ffffffffffffffffffffffffffffffffffffffff163373ffffffffffffffffffffffffffffffffffffffff1614610a64576040517f08c379a0000000000000000000000000000000000000000000000000000000008152600401610a5b90611a88565b60405180910390fd5b600083905060005b60058160ff161015610cb5576000600660008473ffffffffffffffffffffffffffffffffffffffff1673ffffffffffffffffffffffffffffffffffffffff16815260200190815260200160002060009054906101000a900473ffffffffffffffffffffffffffffffffffffffff169050600073ffffffffffffffffffffffffffffffffffffffff168173ffffffffffffffffffffffffffffffffffffffff1603610b165750610cb5565b600061271060018460ff1660058110610b3257610b3161180a565b5b015486610b3f9190611aa8565b610b499190611b19565b90506000811115610c9d57610b7f82828873ffffffffffffffffffffffffffffffffffffffff166110f39092919063ffffffff16565b80600860008473ffffffffffffffffffffffffffffffffffffffff1673ffffffffffffffffffffffffffffffffffffffff16815260200190815260200160002060008873ffffffffffffffffffffffffffffffffffffffff1673ffffffffffffffffffffffffffffffffffffffff1681526020019081526020016000206000828254610c0b9190611868565b925050819055508573ffffffffffffffffffffffffffffffffffffffff168773ffffffffffffffffffffffffffffffffffffffff168373ffffffffffffffffffffffffffffffffffffffff167f3bdd34fc02766d681aa3efa168f40b42d388de4722aa04e2713d564ac0e31c0c84600188610c869190611b57565b604051610c94929190611b9b565b60405180910390a45b81935050508080610cad90611bc4565b915050610a6c565b5050505050565b60076020528060005260406000206000915054906101000a900460ff1681565b610ce4610e88565b600073ffffffffffffffffffffffffffffffffffffffff168173ffffffffffffffffffffffffffffffffffffffff1603610d565760006040517f1e4fbdf7000000000000000000000000000000000000000000000000000000008152600401610d4d919061136c565b60405180910390fd5b610d5f81610f0f565b50565b610d6a61121a565b600082905060005b60058160ff161015610e81576000600660008473ffffffffffffffffffffffffffffffffffffffff1673ffffffffffffffffffffffffffffffffffffffff16815260200190815260200160002060009054906101000a900473ffffffffffffffffffffffffffffffffffffffff169050600073ffffffffffffffffffffffffffffffffffffffff168173ffffffffffffffffffffffffffffffffffffffff1603610e1c5750610e81565b80848360ff1660058110610e3357610e3261180a565b5b602002019073ffffffffffffffffffffffffffffffffffffffff16908173ffffffffffffffffffffffffffffffffffffffff1681525050809250508080610e7990611bc4565b915050610d72565b5050919050565b610e90611146565b73ffffffffffffffffffffffffffffffffffffffff16610eae61075c565b73ffffffffffffffffffffffffffffffffffffffff1614610f0d57610ed1611146565b6040517f118cdaa7000000000000000000000000000000000000000000000000000000008152600401610f04919061136c565b60405180910390fd5b565b60008060009054906101000a900473ffffffffffffffffffffffffffffffffffffffff169050816000806101000a81548173ffffffffffffffffffffffffffffffffffffffff021916908373ffffffffffffffffffffffffffffffffffffffff1602179055508173ffffffffffffffffffffffffffffffffffffffff168173ffffffffffffffffffffffffffffffffffffffff167f8be0079c531659141344cd1fd0a4f28419497f9722a3daafe3b4186f6b6457e060405160405180910390a35050565b60008083905060005b60016005610fea9190611868565b8160ff1610156110e657600660008373ffffffffffffffffffffffffffffffffffffffff1673ffffffffffffffffffffffffffffffffffffffff16815260200190815260200160002060009054906101000a900473ffffffffffffffffffffffffffffffffffffffff169150600073ffffffffffffffffffffffffffffffffffffffff168273ffffffffffffffffffffffffffffffffffffffff1603611095576000925050506110ed565b8373ffffffffffffffffffffffffffffffffffffffff168273ffffffffffffffffffffffffffffffffffffffff16036110d3576001925050506110ed565b80806110de90611bc4565b915050610fdc565b5060009150505b92915050565b611100838383600161114e565b61114157826040517f5274afe7000000000000000000000000000000000000000000000000000000008152600401611138919061136c565b60405180910390fd5b505050565b600033905090565b60008063a9059cbb60e01b90506040518160005260001960601c8616600452846024526020600060446000808b5af1925060016000511483166111aa57838315161561119d573d6000823e3d81fd5b6000873b113d1516831692505b806040525050949350505050565b82600581019282156111e7579160200282015b828111156111e65782358255916020019190600101906111cb565b5b5090506111f4919061123c565b5090565b6040518060a00160405280600590602082028036833780820191505090505090565b6040518060a00160405280600590602082028036833780820191505090505090565b5b8082111561125557600081600090555060010161123d565b5090565b6000819050919050565b61126c81611259565b82525050565b60006020820190506112876000830184611263565b92915050565b600080fd5b600073ffffffffffffffffffffffffffffffffffffffff82169050919050565b60006112bd82611292565b9050919050565b6112cd816112b2565b81146112d857600080fd5b50565b6000813590506112ea816112c4565b92915050565b600080604083850312156113075761130661128d565b5b6000611315858286016112db565b9250506020611326858286016112db565b9150509250929050565b6000602082840312156113465761134561128d565b5b6000611354848285016112db565b91505092915050565b611366816112b2565b82525050565b6000602082019050611381600083018461135d565b92915050565b61139081611259565b811461139b57600080fd5b50565b6000813590506113ad81611387565b92915050565b6000602082840312156113c9576113c861128d565b5b60006113d78482850161139e565b91505092915050565b600080fd5b600081905082602060050282011115611401576114006113e0565b5b92915050565b600060a0828403121561141d5761141c61128d565b5b600061142b848285016113e5565b91505092915050565b600060059050919050565b600081905092915050565b6000819050919050565b61145d81611259565b82525050565b600061146f8383611454565b60208301905092915050565b6000602082019050919050565b61149181611434565b61149b818461143f565b92506114a68261144a565b8060005b838110156114d75781516114be8782611463565b96506114c98361147b565b9250506001810190506114aa565b505050505050565b600060a0820190506114f46000830184611488565b92915050565b6000806000606084860312156115135761151261128d565b5b6000611521868287016112db565b9350506020611532868287016112db565b92505060406115438682870161139e565b9150509250925092565b60008115159050919050565b6115628161154d565b82525050565b600060208201905061157d6000830184611559565b92915050565b600060059050919050565b600081905092915050565b6000819050919050565b6115ac816112b2565b82525050565b60006115be83836115a3565b60208301905092915050565b6000602082019050919050565b6115e081611583565b6115ea818461158e565b92506115f582611599565b8060005b8381101561162657815161160d87826115b2565b9650611618836115ca565b9250506001810190506115f9565b505050505050565b600060a08201905061164360008301846115d7565b92915050565b600082825260208201905092915050565b7f616c726561647920626f756e6400000000000000000000000000000000000000600082015250565b6000611690600d83611649565b915061169b8261165a565b602082019050919050565b600060208201905081810360008301526116bf81611683565b9050919050565b7f696e76616c696420726566657272657200000000000000000000000000000000600082015250565b60006116fc601083611649565b9150611707826116c6565b602082019050919050565b6000602082019050818103600083015261172b816116ef565b9050919050565b7f63616e6e6f7420726566657220796f757273656c660000000000000000000000600082015250565b6000611768601583611649565b915061177382611732565b602082019050919050565b600060208201905081810360008301526117978161175b565b9050919050565b7f63697263756c617220726566657272616c000000000000000000000000000000600082015250565b60006117d4601183611649565b91506117df8261179e565b602082019050919050565b60006020820190508181036000830152611803816117c7565b9050919050565b7f4e487b7100000000000000000000000000000000000000000000000000000000600052603260045260246000fd5b7f4e487b7100000000000000000000000000000000000000000000000000000000600052601160045260246000fd5b600061187382611259565b915061187e83611259565b925082820190508082111561189657611895611839565b5b92915050565b60006118a782611259565b91507fffffffffffffffffffffffffffffffffffffffffffffffffffffffffffffffff82036118d9576118d8611839565b5b600182019050919050565b7f746f74616c20726566657272616c2072617465203e203230252c20746f6f206860008201527f6967680000000000000000000000000000000000000000000000000000000000602082015250565b6000611940602383611649565b915061194b826118e4565b604082019050919050565b6000602082019050818103600083015261196f81611933565b9050919050565b82818337505050565b61198b60a08383611976565b5050565b600060a0820190506119a4600083018461197f565b92915050565b7f7a65726f20616464726573730000000000000000000000000000000000000000600082015250565b60006119e0600c83611649565b91506119eb826119aa565b602082019050919050565b60006020820190508181036000830152611a0f816119d3565b9050919050565b7f526566657272616c5265776172643a2063616c6c6572206973206e6f74204d6960008201527f6e696e674c6f6769630000000000000000000000000000000000000000000000602082015250565b6000611a72602983611649565b9150611a7d82611a16565b604082019050919050565b60006020820190508181036000830152611aa181611a65565b9050919050565b6000611ab382611259565b9150611abe83611259565b9250828202611acc81611259565b91508282048414831517611ae357611ae2611839565b5b5092915050565b7f4e487b7100000000000000000000000000000000000000000000000000000000600052601260045260246000fd5b6000611b2482611259565b9150611b2f83611259565b925082611b3f57611b3e611aea565b5b828204905092915050565b600060ff82169050919050565b6000611b6282611b4a565b9150611b6d83611b4a565b9250828201905060ff811115611b8657611b85611839565b5b92915050565b611b9581611b4a565b82525050565b6000604082019050611bb06000830185611263565b611bbd6020830184611b8c565b9392505050565b6000611bcf82611b4a565b915060ff8203611be257611be1611839565b5b60018201905091905056fea26469706673582212205a508a2419fe9290f766e419b9ebddea0a0cefbd8f71efbc0752603fd52a987064736f6c63430008140033","opcodes":"PUSH1 0x80 PUSH1 0x40 MSTORE PUSH1 0x40 MLOAD DUP1 PUSH1 0xA0 ADD PUSH1 0x40 MSTORE DUP1 PUSH2 0x1F4 PUSH2 0xFFFF AND DUP2 MSTORE PUSH1 0x20 ADD PUSH2 0x12C PUSH2 0xFFFF AND DUP2 MSTORE PUSH1 0x20 ADD PUSH1 0xC8 PUSH2 0xFFFF AND DUP2 MSTORE PUSH1 0x20 ADD PUSH1 0x64 PUSH2 0xFFFF AND DUP2 MSTORE PUSH1 0x20 ADD PUSH1 0x32 PUSH2 0xFFFF AND DUP2 MSTORE POP PUSH1 0x1 SWAP1 PUSH1 0x5 PUSH3 0x58 SWAP3 SWAP2 SWAP1 PUSH3 0x1DF JUMP JUMPDEST POP CALLVALUE DUP1 ISZERO PUSH3 0x66 JUMPI PUSH1 0x0 DUP1 REVERT JUMPDEST POP PUSH1 0x40 MLOAD PUSH3 0x1F46 CODESIZE SUB DUP1 PUSH3 0x1F46 DUP4 CODECOPY DUP2 DUP2 ADD PUSH1 0x40 MSTORE DUP2 ADD SWAP1 PUSH3 0x8C SWAP2 SWAP1 PUSH3 0x2B3 JUMP JUMPDEST DUP1 PUSH1 0x0 PUSH20 0xFFFFFFFFFFFFFFFFFFFFFFFFFFFFFFFFFFFFFFFF AND DUP2 PUSH20 0xFFFFFFFFFFFFFFFFFFFFFFFFFFFFFFFFFFFFFFFF AND SUB PUSH3 0x102 JUMPI PUSH1 0x0 PUSH1 0x40 MLOAD PUSH32 0x1E4FBDF700000000000000000000000000000000000000000000000000000000 DUP2 MSTORE PUSH1 0x4 ADD PUSH3 0xF9 SWAP2 SWAP1 PUSH3 0x2F6 JUMP JUMPDEST PUSH1 0x40 MLOAD DUP1 SWAP2 SUB SWAP1 REVERT JUMPDEST PUSH3 0x113 DUP2 PUSH3 0x11B PUSH1 0x20 SHL PUSH1 0x20 SHR JUMP JUMPDEST POP POP PUSH3 0x313 JUMP JUMPDEST PUSH1 0x0 DUP1 PUSH1 0x0 SWAP1 SLOAD SWAP1 PUSH2 0x100 EXP SWAP1 DIV PUSH20 0xFFFFFFFFFFFFFFFFFFFFFFFFFFFFFFFFFFFFFFFF AND SWAP1 POP DUP2 PUSH1 0x0 DUP1 PUSH2 0x100 EXP DUP2 SLOAD DUP2 PUSH20 0xFFFFFFFFFFFFFFFFFFFFFFFFFFFFFFFFFFFFFFFF MUL NOT AND SWAP1 DUP4 PUSH20 0xFFFFFFFFFFFFFFFFFFFFFFFFFFFFFFFFFFFFFFFF AND MUL OR SWAP1 SSTORE POP DUP2 PUSH20 0xFFFFFFFFFFFFFFFFFFFFFFFFFFFFFFFFFFFFFFFF AND DUP2 PUSH20 0xFFFFFFFFFFFFFFFFFFFFFFFFFFFFFFFFFFFFFFFF AND PUSH32 0x8BE0079C531659141344CD1FD0A4F28419497F9722A3DAAFE3B4186F6B6457E0 PUSH1 0x40 MLOAD PUSH1 0x40 MLOAD DUP1 SWAP2 SUB SWAP1 LOG3 POP POP JUMP JUMPDEST DUP3 PUSH1 0x5 DUP2 ADD SWAP3 DUP3 ISZERO PUSH3 0x217 JUMPI SWAP2 PUSH1 0x20 MUL DUP3 ADD JUMPDEST DUP3 DUP2 GT ISZERO PUSH3 0x216 JUMPI DUP3 MLOAD DUP3 SWAP1 PUSH2 0xFFFF AND SWAP1 SSTORE SWAP2 PUSH1 0x20 ADD SWAP2 SWAP1 PUSH1 0x1 ADD SWAP1 PUSH3 0x1F3 JUMP JUMPDEST JUMPDEST POP SWAP1 POP PUSH3 0x226 SWAP2 SWAP1 PUSH3 0x22A JUMP JUMPDEST POP SWAP1 JUMP JUMPDEST JUMPDEST DUP1 DUP3 GT ISZERO PUSH3 0x245 JUMPI PUSH1 0x0 DUP2 PUSH1 0x0 SWAP1 SSTORE POP PUSH1 0x1 ADD PUSH3 0x22B JUMP JUMPDEST POP SWAP1 JUMP JUMPDEST PUSH1 0x0 DUP1 REVERT JUMPDEST PUSH1 0x0 PUSH20 0xFFFFFFFFFFFFFFFFFFFFFFFFFFFFFFFFFFFFFFFF DUP3 AND SWAP1 POP SWAP2 SWAP1 POP JUMP JUMPDEST PUSH1 0x0 PUSH3 0x27B DUP3 PUSH3 0x24E JUMP JUMPDEST SWAP1 POP SWAP2 SWAP1 POP JUMP JUMPDEST PUSH3 0x28D DUP2 PUSH3 0x26E JUMP JUMPDEST DUP2 EQ PUSH3 0x299 JUMPI PUSH1 0x0 DUP1 REVERT JUMPDEST POP JUMP JUMPDEST PUSH1 0x0 DUP2 MLOAD SWAP1 POP PUSH3 0x2AD DUP2 PUSH3 0x282 JUMP JUMPDEST SWAP3 SWAP2 POP POP JUMP JUMPDEST PUSH1 0x0 PUSH1 0x20 DUP3 DUP5 SUB SLT ISZERO PUSH3 0x2CC JUMPI PUSH3 0x2CB PUSH3 0x249 JUMP JUMPDEST JUMPDEST PUSH1 0x0 PUSH3 0x2DC DUP5 DUP3 DUP6 ADD PUSH3 0x29C JUMP JUMPDEST SWAP2 POP POP SWAP3 SWAP2 POP POP JUMP JUMPDEST PUSH3 0x2F0 DUP2 PUSH3 0x26E JUMP JUMPDEST DUP3 MSTORE POP POP JUMP JUMPDEST PUSH1 0x0 PUSH1 0x20 DUP3 ADD SWAP1 POP PUSH3 0x30D PUSH1 0x0 DUP4 ADD DUP5 PUSH3 0x2E5 JUMP JUMPDEST SWAP3 SWAP2 POP POP JUMP JUMPDEST PUSH2 0x1C23 DUP1 PUSH3 0x323 PUSH1 0x0 CODECOPY PUSH1 0x0 RETURN INVALID PUSH1 0x80 PUSH1 0x40 MSTORE CALLVALUE DUP1 ISZERO PUSH2 0x10 JUMPI PUSH1 0x0 DUP1 REVERT JUMPDEST POP PUSH1 0x4 CALLDATASIZE LT PUSH2 0x10B JUMPI PUSH1 0x0 CALLDATALOAD PUSH1 0xE0 SHR DUP1 PUSH4 0x8DA5CB5B GT PUSH2 0xA2 JUMPI DUP1 PUSH4 0xC13D6C99 GT PUSH2 0x71 JUMPI DUP1 PUSH4 0xC13D6C99 EQ PUSH2 0x2A8 JUMPI DUP1 PUSH4 0xE7CEA7F4 EQ PUSH2 0x2C4 JUMPI DUP1 PUSH4 0xEA291942 EQ PUSH2 0x2E0 JUMPI DUP1 PUSH4 0xF2FDE38B EQ PUSH2 0x310 JUMPI DUP1 PUSH4 0xFF747CC0 EQ PUSH2 0x32C JUMPI PUSH2 0x10B JUMP JUMPDEST DUP1 PUSH4 0x8DA5CB5B EQ PUSH2 0x232 JUMPI DUP1 PUSH4 0x990F3314 EQ PUSH2 0x250 JUMPI DUP1 PUSH4 0x9ACCAB55 EQ PUSH2 0x26C JUMPI DUP1 PUSH4 0xAF626C12 EQ PUSH2 0x28A JUMPI PUSH2 0x10B JUMP JUMPDEST DUP1 PUSH4 0x62203D74 GT PUSH2 0xDE JUMPI DUP1 PUSH4 0x62203D74 EQ PUSH2 0x1BE JUMPI DUP1 PUSH4 0x6702C7BF EQ PUSH2 0x1EE JUMPI DUP1 PUSH4 0x715018A6 EQ PUSH2 0x20C JUMPI DUP1 PUSH4 0x81BAC14F EQ PUSH2 0x216 JUMPI PUSH2 0x10B JUMP JUMPDEST DUP1 PUSH4 0x873C6EC EQ PUSH2 0x110 JUMPI DUP1 PUSH4 0x211DC32D EQ PUSH2 0x12E JUMPI DUP1 PUSH4 0x2CF003C2 EQ PUSH2 0x15E JUMPI DUP1 PUSH4 0x3E972167 EQ PUSH2 0x18E JUMPI JUMPDEST PUSH1 0x0 DUP1 REVERT JUMPDEST PUSH2 0x118 PUSH2 0x35C JUMP JUMPDEST PUSH1 0x40 MLOAD PUSH2 0x125 SWAP2 SWAP1 PUSH2 0x1272 JUMP JUMPDEST PUSH1 0x40 MLOAD DUP1 SWAP2 SUB SWAP1 RETURN JUMPDEST PUSH2 0x148 PUSH1 0x4 DUP1 CALLDATASIZE SUB DUP2 ADD SWAP1 PUSH2 0x143 SWAP2 SWAP1 PUSH2 0x12F0 JUMP JUMPDEST PUSH2 0x362 JUMP JUMPDEST PUSH1 0x40 MLOAD PUSH2 0x155 SWAP2 SWAP1 PUSH2 0x1272 JUMP JUMPDEST PUSH1 0x40 MLOAD DUP1 SWAP2 SUB SWAP1 RETURN JUMPDEST PUSH2 0x178 PUSH1 0x4 DUP1 CALLDATASIZE SUB DUP2 ADD SWAP1 PUSH2 0x173 SWAP2 SWAP1 PUSH2 0x1330 JUMP JUMPDEST PUSH2 0x3E9 JUMP JUMPDEST PUSH1 0x40 MLOAD PUSH2 0x185 SWAP2 SWAP1 PUSH2 0x136C JUMP JUMPDEST PUSH1 0x40 MLOAD DUP1 SWAP2 SUB SWAP1 RETURN JUMPDEST PUSH2 0x1A8 PUSH1 0x4 DUP1 CALLDATASIZE SUB DUP2 ADD SWAP1 PUSH2 0x1A3 SWAP2 SWAP1 PUSH2 0x12F0 JUMP JUMPDEST PUSH2 0x41C JUMP JUMPDEST PUSH1 0x40 MLOAD PUSH2 0x1B5 SWAP2 SWAP1 PUSH2 0x1272 JUMP JUMPDEST PUSH1 0x40 MLOAD DUP1 SWAP2 SUB SWAP1 RETURN JUMPDEST PUSH2 0x1D8 PUSH1 0x4 DUP1 CALLDATASIZE SUB DUP2 ADD SWAP1 PUSH2 0x1D3 SWAP2 SWAP1 PUSH2 0x13B3 JUMP JUMPDEST PUSH2 0x441 JUMP JUMPDEST PUSH1 0x40 MLOAD PUSH2 0x1E5 SWAP2 SWAP1 PUSH2 0x1272 JUMP JUMPDEST PUSH1 0x40 MLOAD DUP1 SWAP2 SUB SWAP1 RETURN JUMPDEST PUSH2 0x1F6 PUSH2 0x45C JUMP JUMPDEST PUSH1 0x40 MLOAD PUSH2 0x203 SWAP2 SWAP1 PUSH2 0x1272 JUMP JUMPDEST PUSH1 0x40 MLOAD DUP1 SWAP2 SUB SWAP1 RETURN JUMPDEST PUSH2 0x214 PUSH2 0x461 JUMP JUMPDEST STOP JUMPDEST PUSH2 0x230 PUSH1 0x4 DUP1 CALLDATASIZE SUB DUP2 ADD SWAP1 PUSH2 0x22B SWAP2 SWAP1 PUSH2 0x1330 JUMP JUMPDEST PUSH2 0x475 JUMP JUMPDEST STOP JUMPDEST PUSH2 0x23A PUSH2 0x75C JUMP JUMPDEST PUSH1 0x40 MLOAD PUSH2 0x247 SWAP2 SWAP1 PUSH2 0x136C JUMP JUMPDEST PUSH1 0x40 MLOAD DUP1 SWAP2 SUB SWAP1 RETURN JUMPDEST PUSH2 0x26A PUSH1 0x4 DUP1 CALLDATASIZE SUB DUP2 ADD SWAP1 PUSH2 0x265 SWAP2 SWAP1 PUSH2 0x1407 JUMP JUMPDEST PUSH2 0x785 JUMP JUMPDEST STOP JUMPDEST PUSH2 0x274 PUSH2 0x865 JUMP JUMPDEST PUSH1 0x40 MLOAD PUSH2 0x281 SWAP2 SWAP1 PUSH2 0x14DF JUMP JUMPDEST PUSH1 0x40 MLOAD DUP1 SWAP2 SUB SWAP1 RETURN JUMPDEST PUSH2 0x292 PUSH2 0x8B0 JUMP JUMPDEST PUSH1 0x40 MLOAD PUSH2 0x29F SWAP2 SWAP1 PUSH2 0x136C JUMP JUMPDEST PUSH1 0x40 MLOAD DUP1 SWAP2 SUB SWAP1 RETURN JUMPDEST PUSH2 0x2C2 PUSH1 0x4 DUP1 CALLDATASIZE SUB DUP2 ADD SWAP1 PUSH2 0x2BD SWAP2 SWAP1 PUSH2 0x1330 JUMP JUMPDEST PUSH2 0x8D6 JUMP JUMPDEST STOP JUMPDEST PUSH2 0x2DE PUSH1 0x4 DUP1 CALLDATASIZE SUB DUP2 ADD SWAP1 PUSH2 0x2D9 SWAP2 SWAP1 PUSH2 0x14FA JUMP JUMPDEST PUSH2 0x9D4 JUMP JUMPDEST STOP JUMPDEST PUSH2 0x2FA PUSH1 0x4 DUP1 CALLDATASIZE SUB DUP2 ADD SWAP1 PUSH2 0x2F5 SWAP2 SWAP1 PUSH2 0x1330 JUMP JUMPDEST PUSH2 0xCBC JUMP JUMPDEST PUSH1 0x40 MLOAD PUSH2 0x307 SWAP2 SWAP1 PUSH2 0x1568 JUMP JUMPDEST PUSH1 0x40 MLOAD DUP1 SWAP2 SUB SWAP1 RETURN JUMPDEST PUSH2 0x32A PUSH1 0x4 DUP1 CALLDATASIZE SUB DUP2 ADD SWAP1 PUSH2 0x325 SWAP2 SWAP1 PUSH2 0x1330 JUMP JUMPDEST PUSH2 0xCDC JUMP JUMPDEST STOP JUMPDEST PUSH2 0x346 PUSH1 0x4 DUP1 CALLDATASIZE SUB DUP2 ADD SWAP1 PUSH2 0x341 SWAP2 SWAP1 PUSH2 0x1330 JUMP JUMPDEST PUSH2 0xD62 JUMP JUMPDEST PUSH1 0x40 MLOAD PUSH2 0x353 SWAP2 SWAP1 PUSH2 0x162E JUMP JUMPDEST PUSH1 0x40 MLOAD DUP1 SWAP2 SUB SWAP1 RETURN JUMPDEST PUSH2 0x2710 DUP2 JUMP JUMPDEST PUSH1 0x0 PUSH1 0x8 PUSH1 0x0 DUP5 PUSH20 0xFFFFFFFFFFFFFFFFFFFFFFFFFFFFFFFFFFFFFFFF AND PUSH20 0xFFFFFFFFFFFFFFFFFFFFFFFFFFFFFFFFFFFFFFFF AND DUP2 MSTORE PUSH1 0x20 ADD SWAP1 DUP2 MSTORE PUSH1 0x20 ADD PUSH1 0x0 KECCAK256 PUSH1 0x0 DUP4 PUSH20 0xFFFFFFFFFFFFFFFFFFFFFFFFFFFFFFFFFFFFFFFF AND PUSH20 0xFFFFFFFFFFFFFFFFFFFFFFFFFFFFFFFFFFFFFFFF AND DUP2 MSTORE PUSH1 0x20 ADD SWAP1 DUP2 MSTORE PUSH1 0x20 ADD PUSH1 0x0 KECCAK256 SLOAD SWAP1 POP SWAP3 SWAP2 POP POP JUMP JUMPDEST PUSH1 0x6 PUSH1 0x20 MSTORE DUP1 PUSH1 0x0 MSTORE PUSH1 0x40 PUSH1 0x0 KECCAK256 PUSH1 0x0 SWAP2 POP SLOAD SWAP1 PUSH2 0x100 EXP SWAP1 DIV PUSH20 0xFFFFFFFFFFFFFFFFFFFFFFFFFFFFFFFFFFFFFFFF AND DUP2 JUMP JUMPDEST PUSH1 0x8 PUSH1 0x20 MSTORE DUP2 PUSH1 0x0 MSTORE PUSH1 0x40 PUSH1 0x0 KECCAK256 PUSH1 0x20 MSTORE DUP1 PUSH1 0x0 MSTORE PUSH1 0x40 PUSH1 0x0 KECCAK256 PUSH1 0x0 SWAP2 POP SWAP2 POP POP SLOAD DUP2 JUMP JUMPDEST PUSH1 0x1 DUP2 PUSH1 0x5 DUP2 LT PUSH2 0x451 JUMPI PUSH1 0x0 DUP1 REVERT JUMPDEST ADD PUSH1 0x0 SWAP2 POP SWAP1 POP SLOAD DUP2 JUMP JUMPDEST PUSH1 0x5 DUP2 JUMP JUMPDEST PUSH2 0x469 PUSH2 0xE88 JUMP JUMPDEST PUSH2 0x473 PUSH1 0x0 PUSH2 0xF0F JUMP JUMPDEST JUMP JUMPDEST PUSH1 0x7 PUSH1 0x0 CALLER PUSH20 0xFFFFFFFFFFFFFFFFFFFFFFFFFFFFFFFFFFFFFFFF AND PUSH20 0xFFFFFFFFFFFFFFFFFFFFFFFFFFFFFFFFFFFFFFFF AND DUP2 MSTORE PUSH1 0x20 ADD SWAP1 DUP2 MSTORE PUSH1 0x20 ADD PUSH1 0x0 KECCAK256 PUSH1 0x0 SWAP1 SLOAD SWAP1 PUSH2 0x100 EXP SWAP1 DIV PUSH1 0xFF AND ISZERO PUSH2 0x502 JUMPI PUSH1 0x40 MLOAD PUSH32 0x8C379A000000000000000000000000000000000000000000000000000000000 DUP2 MSTORE PUSH1 0x4 ADD PUSH2 0x4F9 SWAP1 PUSH2 0x16A6 JUMP JUMPDEST PUSH1 0x40 MLOAD DUP1 SWAP2 SUB SWAP1 REVERT JUMPDEST PUSH1 0x0 PUSH20 0xFFFFFFFFFFFFFFFFFFFFFFFFFFFFFFFFFFFFFFFF AND DUP2 PUSH20 0xFFFFFFFFFFFFFFFFFFFFFFFFFFFFFFFFFFFFFFFF AND SUB PUSH2 0x571 JUMPI PUSH1 0x40 MLOAD PUSH32 0x8C379A000000000000000000000000000000000000000000000000000000000 DUP2 MSTORE PUSH1 0x4 ADD PUSH2 0x568 SWAP1 PUSH2 0x1712 JUMP JUMPDEST PUSH1 0x40 MLOAD DUP1 SWAP2 SUB SWAP1 REVERT JUMPDEST CALLER PUSH20 0xFFFFFFFFFFFFFFFFFFFFFFFFFFFFFFFFFFFFFFFF AND DUP2 PUSH20 0xFFFFFFFFFFFFFFFFFFFFFFFFFFFFFFFFFFFFFFFF AND SUB PUSH2 0x5DF JUMPI PUSH1 0x40 MLOAD PUSH32 0x8C379A000000000000000000000000000000000000000000000000000000000 DUP2 MSTORE PUSH1 0x4 ADD PUSH2 0x5D6 SWAP1 PUSH2 0x177E JUMP JUMPDEST PUSH1 0x40 MLOAD DUP1 SWAP2 SUB SWAP1 REVERT JUMPDEST PUSH2 0x5E9 CALLER DUP3 PUSH2 0xFD3 JUMP JUMPDEST ISZERO PUSH2 0x629 JUMPI PUSH1 0x40 MLOAD PUSH32 0x8C379A000000000000000000000000000000000000000000000000000000000 DUP2 MSTORE PUSH1 0x4 ADD PUSH2 0x620 SWAP1 PUSH2 0x17EA JUMP JUMPDEST PUSH1 0x40 MLOAD DUP1 SWAP2 SUB SWAP1 REVERT JUMPDEST DUP1 PUSH1 0x6 PUSH1 0x0 CALLER PUSH20 0xFFFFFFFFFFFFFFFFFFFFFFFFFFFFFFFFFFFFFFFF AND PUSH20 0xFFFFFFFFFFFFFFFFFFFFFFFFFFFFFFFFFFFFFFFF AND DUP2 MSTORE PUSH1 0x20 ADD SWAP1 DUP2 MSTORE PUSH1 0x20 ADD PUSH1 0x0 KECCAK256 PUSH1 0x0 PUSH2 0x100 EXP DUP2 SLOAD DUP2 PUSH20 0xFFFFFFFFFFFFFFFFFFFFFFFFFFFFFFFFFFFFFFFF MUL NOT AND SWAP1 DUP4 PUSH20 0xFFFFFFFFFFFFFFFFFFFFFFFFFFFFFFFFFFFFFFFF AND MUL OR SWAP1 SSTORE POP PUSH1 0x1 PUSH1 0x7 PUSH1 0x0 CALLER PUSH20 0xFFFFFFFFFFFFFFFFFFFFFFFFFFFFFFFFFFFFFFFF AND PUSH20 0xFFFFFFFFFFFFFFFFFFFFFFFFFFFFFFFFFFFFFFFF AND DUP2 MSTORE PUSH1 0x20 ADD SWAP1 DUP2 MSTORE PUSH1 0x20 ADD PUSH1 0x0 KECCAK256 PUSH1 0x0 PUSH2 0x100 EXP DUP2 SLOAD DUP2 PUSH1 0xFF MUL NOT AND SWAP1 DUP4 ISZERO ISZERO MUL OR SWAP1 SSTORE POP DUP1 PUSH20 0xFFFFFFFFFFFFFFFFFFFFFFFFFFFFFFFFFFFFFFFF AND CALLER PUSH20 0xFFFFFFFFFFFFFFFFFFFFFFFFFFFFFFFFFFFFFFFF AND PUSH32 0xD128562EAA47AB89086803E64A0F96847C0ED3CC63C26251F29BA1AEDE09D4E PUSH1 0x40 MLOAD PUSH1 0x40 MLOAD DUP1 SWAP2 SUB SWAP1 LOG3 POP JUMP JUMPDEST PUSH1 0x0 DUP1 PUSH1 0x0 SWAP1 SLOAD SWAP1 PUSH2 0x100 EXP SWAP1 DIV PUSH20 0xFFFFFFFFFFFFFFFFFFFFFFFFFFFFFFFFFFFFFFFF AND SWAP1 POP SWAP1 JUMP JUMPDEST PUSH2 0x78D PUSH2 0xE88 JUMP JUMPDEST PUSH1 0x0 DUP1 JUMPDEST PUSH1 0x5 DUP2 LT ISZERO PUSH2 0x7D2 JUMPI DUP3 DUP2 PUSH1 0x5 DUP2 LT PUSH2 0x7AD JUMPI PUSH2 0x7AC PUSH2 0x180A JUMP JUMPDEST JUMPDEST PUSH1 0x20 MUL ADD CALLDATALOAD DUP3 PUSH2 0x7BD SWAP2 SWAP1 PUSH2 0x1868 JUMP JUMPDEST SWAP2 POP DUP1 DUP1 PUSH2 0x7CA SWAP1 PUSH2 0x189C JUMP JUMPDEST SWAP2 POP POP PUSH2 0x791 JUMP JUMPDEST POP PUSH2 0x7D0 DUP2 GT ISZERO PUSH2 0x818 JUMPI PUSH1 0x40 MLOAD PUSH32 0x8C379A000000000000000000000000000000000000000000000000000000000 DUP2 MSTORE PUSH1 0x4 ADD PUSH2 0x80F SWAP1 PUSH2 0x1956 JUMP JUMPDEST PUSH1 0x40 MLOAD DUP1 SWAP2 SUB SWAP1 REVERT JUMPDEST DUP2 PUSH1 0x1 SWAP1 PUSH1 0x5 PUSH2 0x829 SWAP3 SWAP2 SWAP1 PUSH2 0x11B8 JUMP JUMPDEST POP PUSH32 0x946AD46D315BFE5B03D27914D54E9C241E5A9E4688EDFB8AE1E1AE80F5E4F62 DUP3 PUSH1 0x40 MLOAD PUSH2 0x859 SWAP2 SWAP1 PUSH2 0x198F JUMP JUMPDEST PUSH1 0x40 MLOAD DUP1 SWAP2 SUB SWAP1 LOG1 POP POP JUMP JUMPDEST PUSH2 0x86D PUSH2 0x11F8 JUMP JUMPDEST PUSH1 0x1 PUSH1 0x5 DUP1 PUSH1 0x20 MUL PUSH1 0x40 MLOAD SWAP1 DUP2 ADD PUSH1 0x40 MSTORE DUP1 SWAP3 SWAP2 SWAP1 DUP3 PUSH1 0x5 DUP1 ISZERO PUSH2 0x8A6 JUMPI PUSH1 0x20 MUL DUP3 ADD SWAP2 JUMPDEST DUP2 SLOAD DUP2 MSTORE PUSH1 0x20 ADD SWAP1 PUSH1 0x1 ADD SWAP1 DUP1 DUP4 GT PUSH2 0x892 JUMPI JUMPDEST POP POP POP POP POP SWAP1 POP SWAP1 JUMP JUMPDEST PUSH1 0x9 PUSH1 0x0 SWAP1 SLOAD SWAP1 PUSH2 0x100 EXP SWAP1 DIV PUSH20 0xFFFFFFFFFFFFFFFFFFFFFFFFFFFFFFFFFFFFFFFF AND DUP2 JUMP JUMPDEST PUSH2 0x8DE PUSH2 0xE88 JUMP JUMPDEST PUSH1 0x0 PUSH20 0xFFFFFFFFFFFFFFFFFFFFFFFFFFFFFFFFFFFFFFFF AND DUP2 PUSH20 0xFFFFFFFFFFFFFFFFFFFFFFFFFFFFFFFFFFFFFFFF AND SUB PUSH2 0x94D JUMPI PUSH1 0x40 MLOAD PUSH32 0x8C379A000000000000000000000000000000000000000000000000000000000 DUP2 MSTORE PUSH1 0x4 ADD PUSH2 0x944 SWAP1 PUSH2 0x19F6 JUMP JUMPDEST PUSH1 0x40 MLOAD DUP1 SWAP2 SUB SWAP1 REVERT JUMPDEST DUP1 PUSH1 0x9 PUSH1 0x0 PUSH2 0x100 EXP DUP2 SLOAD DUP2 PUSH20 0xFFFFFFFFFFFFFFFFFFFFFFFFFFFFFFFFFFFFFFFF MUL NOT AND SWAP1 DUP4 PUSH20 0xFFFFFFFFFFFFFFFFFFFFFFFFFFFFFFFFFFFFFFFF AND MUL OR SWAP1 SSTORE POP DUP1 PUSH20 0xFFFFFFFFFFFFFFFFFFFFFFFFFFFFFFFFFFFFFFFF AND PUSH32 0xEB3DD18086664C26342A63571E11384E87D862E260546B3CC8D4A543895BB3FD PUSH1 0x40 MLOAD PUSH1 0x40 MLOAD DUP1 SWAP2 SUB SWAP1 LOG2 POP JUMP JUMPDEST PUSH1 0x9 PUSH1 0x0 SWAP1 SLOAD SWAP1 PUSH2 0x100 EXP SWAP1 DIV PUSH20 0xFFFFFFFFFFFFFFFFFFFFFFFFFFFFFFFFFFFFFFFF AND PUSH20 0xFFFFFFFFFFFFFFFFFFFFFFFFFFFFFFFFFFFFFFFF AND CALLER PUSH20 0xFFFFFFFFFFFFFFFFFFFFFFFFFFFFFFFFFFFFFFFF AND EQ PUSH2 0xA64 JUMPI PUSH1 0x40 MLOAD PUSH32 0x8C379A000000000000000000000000000000000000000000000000000000000 DUP2 MSTORE PUSH1 0x4 ADD PUSH2 0xA5B SWAP1 PUSH2 0x1A88 JUMP JUMPDEST PUSH1 0x40 MLOAD DUP1 SWAP2 SUB SWAP1 REVERT JUMPDEST PUSH1 0x0 DUP4 SWAP1 POP PUSH1 0x0 JUMPDEST PUSH1 0x5 DUP2 PUSH1 0xFF AND LT ISZERO PUSH2 0xCB5 JUMPI PUSH1 0x0 PUSH1 0x6 PUSH1 0x0 DUP5 PUSH20 0xFFFFFFFFFFFFFFFFFFFFFFFFFFFFFFFFFFFFFFFF AND PUSH20 0xFFFFFFFFFFFFFFFFFFFFFFFFFFFFFFFFFFFFFFFF AND DUP2 MSTORE PUSH1 0x20 ADD SWAP1 DUP2 MSTORE PUSH1 0x20 ADD PUSH1 0x0 KECCAK256 PUSH1 0x0 SWAP1 SLOAD SWAP1 PUSH2 0x100 EXP SWAP1 DIV PUSH20 0xFFFFFFFFFFFFFFFFFFFFFFFFFFFFFFFFFFFFFFFF AND SWAP1 POP PUSH1 0x0 PUSH20 0xFFFFFFFFFFFFFFFFFFFFFFFFFFFFFFFFFFFFFFFF AND DUP2 PUSH20 0xFFFFFFFFFFFFFFFFFFFFFFFFFFFFFFFFFFFFFFFF AND SUB PUSH2 0xB16 JUMPI POP PUSH2 0xCB5 JUMP JUMPDEST PUSH1 0x0 PUSH2 0x2710 PUSH1 0x1 DUP5 PUSH1 0xFF AND PUSH1 0x5 DUP2 LT PUSH2 0xB32 JUMPI PUSH2 0xB31 PUSH2 0x180A JUMP JUMPDEST JUMPDEST ADD SLOAD DUP7 PUSH2 0xB3F SWAP2 SWAP1 PUSH2 0x1AA8 JUMP JUMPDEST PUSH2 0xB49 SWAP2 SWAP1 PUSH2 0x1B19 JUMP JUMPDEST SWAP1 POP PUSH1 0x0 DUP2 GT ISZERO PUSH2 0xC9D JUMPI PUSH2 0xB7F DUP3 DUP3 DUP9 PUSH20 0xFFFFFFFFFFFFFFFFFFFFFFFFFFFFFFFFFFFFFFFF AND PUSH2 0x10F3 SWAP1 SWAP3 SWAP2 SWAP1 PUSH4 0xFFFFFFFF AND JUMP JUMPDEST DUP1 PUSH1 0x8 PUSH1 0x0 DUP5 PUSH20 0xFFFFFFFFFFFFFFFFFFFFFFFFFFFFFFFFFFFFFFFF AND PUSH20 0xFFFFFFFFFFFFFFFFFFFFFFFFFFFFFFFFFFFFFFFF AND DUP2 MSTORE PUSH1 0x20 ADD SWAP1 DUP2 MSTORE PUSH1 0x20 ADD PUSH1 0x0 KECCAK256 PUSH1 0x0 DUP9 PUSH20 0xFFFFFFFFFFFFFFFFFFFFFFFFFFFFFFFFFFFFFFFF AND PUSH20 0xFFFFFFFFFFFFFFFFFFFFFFFFFFFFFFFFFFFFFFFF AND DUP2 MSTORE PUSH1 0x20 ADD SWAP1 DUP2 MSTORE PUSH1 0x20 ADD PUSH1 0x0 KECCAK256 PUSH1 0x0 DUP3 DUP3 SLOAD PUSH2 0xC0B SWAP2 SWAP1 PUSH2 0x1868 JUMP JUMPDEST SWAP3 POP POP DUP2 SWAP1 SSTORE POP DUP6 PUSH20 0xFFFFFFFFFFFFFFFFFFFFFFFFFFFFFFFFFFFFFFFF AND DUP8 PUSH20 0xFFFFFFFFFFFFFFFFFFFFFFFFFFFFFFFFFFFFFFFF AND DUP4 PUSH20 0xFFFFFFFFFFFFFFFFFFFFFFFFFFFFFFFFFFFFFFFF AND PUSH32 0x3BDD34FC02766D681AA3EFA168F40B42D388DE4722AA04E2713D564AC0E31C0C DUP5 PUSH1 0x1 DUP9 PUSH2 0xC86 SWAP2 SWAP1 PUSH2 0x1B57 JUMP JUMPDEST PUSH1 0x40 MLOAD PUSH2 0xC94 SWAP3 SWAP2 SWAP1 PUSH2 0x1B9B JUMP JUMPDEST PUSH1 0x40 MLOAD DUP1 SWAP2 SUB SWAP1 LOG4 JUMPDEST DUP2 SWAP4 POP POP POP DUP1 DUP1 PUSH2 0xCAD SWAP1 PUSH2 0x1BC4 JUMP JUMPDEST SWAP2 POP POP PUSH2 0xA6C JUMP JUMPDEST POP POP POP POP POP JUMP JUMPDEST PUSH1 0x7 PUSH1 0x20 MSTORE DUP1 PUSH1 0x0 MSTORE PUSH1 0x40 PUSH1 0x0 KECCAK256 PUSH1 0x0 SWAP2 POP SLOAD SWAP1 PUSH2 0x100 EXP SWAP1 DIV PUSH1 0xFF AND DUP2 JUMP JUMPDEST PUSH2 0xCE4 PUSH2 0xE88 JUMP JUMPDEST PUSH1 0x0 PUSH20 0xFFFFFFFFFFFFFFFFFFFFFFFFFFFFFFFFFFFFFFFF AND DUP2 PUSH20 0xFFFFFFFFFFFFFFFFFFFFFFFFFFFFFFFFFFFFFFFF AND SUB PUSH2 0xD56 JUMPI PUSH1 0x0 PUSH1 0x40 MLOAD PUSH32 0x1E4FBDF700000000000000000000000000000000000000000000000000000000 DUP2 MSTORE PUSH1 0x4 ADD PUSH2 0xD4D SWAP2 SWAP1 PUSH2 0x136C JUMP JUMPDEST PUSH1 0x40 MLOAD DUP1 SWAP2 SUB SWAP1 REVERT JUMPDEST PUSH2 0xD5F DUP2 PUSH2 0xF0F JUMP JUMPDEST POP JUMP JUMPDEST PUSH2 0xD6A PUSH2 0x121A JUMP JUMPDEST PUSH1 0x0 DUP3 SWAP1 POP PUSH1 0x0 JUMPDEST PUSH1 0x5 DUP2 PUSH1 0xFF AND LT ISZERO PUSH2 0xE81 JUMPI PUSH1 0x0 PUSH1 0x6 PUSH1 0x0 DUP5 PUSH20 0xFFFFFFFFFFFFFFFFFFFFFFFFFFFFFFFFFFFFFFFF AND PUSH20 0xFFFFFFFFFFFFFFFFFFFFFFFFFFFFFFFFFFFFFFFF AND DUP2 MSTORE PUSH1 0x20 ADD SWAP1 DUP2 MSTORE PUSH1 0x20 ADD PUSH1 0x0 KECCAK256 PUSH1 0x0 SWAP1 SLOAD SWAP1 PUSH2 0x100 EXP SWAP1 DIV PUSH20 0xFFFFFFFFFFFFFFFFFFFFFFFFFFFFFFFFFFFFFFFF AND SWAP1 POP PUSH1 0x0 PUSH20 0xFFFFFFFFFFFFFFFFFFFFFFFFFFFFFFFFFFFFFFFF AND DUP2 PUSH20 0xFFFFFFFFFFFFFFFFFFFFFFFFFFFFFFFFFFFFFFFF AND SUB PUSH2 0xE1C JUMPI POP PUSH2 0xE81 JUMP JUMPDEST DUP1 DUP5 DUP4 PUSH1 0xFF AND PUSH1 0x5 DUP2 LT PUSH2 0xE33 JUMPI PUSH2 0xE32 PUSH2 0x180A JUMP JUMPDEST JUMPDEST PUSH1 0x20 MUL ADD SWAP1 PUSH20 0xFFFFFFFFFFFFFFFFFFFFFFFFFFFFFFFFFFFFFFFF AND SWAP1 DUP2 PUSH20 0xFFFFFFFFFFFFFFFFFFFFFFFFFFFFFFFFFFFFFFFF AND DUP2 MSTORE POP POP DUP1 SWAP3 POP POP DUP1 DUP1 PUSH2 0xE79 SWAP1 PUSH2 0x1BC4 JUMP JUMPDEST SWAP2 POP POP PUSH2 0xD72 JUMP JUMPDEST POP POP SWAP2 SWAP1 POP JUMP JUMPDEST PUSH2 0xE90 PUSH2 0x1146 JUMP JUMPDEST PUSH20 0xFFFFFFFFFFFFFFFFFFFFFFFFFFFFFFFFFFFFFFFF AND PUSH2 0xEAE PUSH2 0x75C JUMP JUMPDEST PUSH20 0xFFFFFFFFFFFFFFFFFFFFFFFFFFFFFFFFFFFFFFFF AND EQ PUSH2 0xF0D JUMPI PUSH2 0xED1 PUSH2 0x1146 JUMP JUMPDEST PUSH1 0x40 MLOAD PUSH32 0x118CDAA700000000000000000000000000000000000000000000000000000000 DUP2 MSTORE PUSH1 0x4 ADD PUSH2 0xF04 SWAP2 SWAP1 PUSH2 0x136C JUMP JUMPDEST PUSH1 0x40 MLOAD DUP1 SWAP2 SUB SWAP1 REVERT JUMPDEST JUMP JUMPDEST PUSH1 0x0 DUP1 PUSH1 0x0 SWAP1 SLOAD SWAP1 PUSH2 0x100 EXP SWAP1 DIV PUSH20 0xFFFFFFFFFFFFFFFFFFFFFFFFFFFFFFFFFFFFFFFF AND SWAP1 POP DUP2 PUSH1 0x0 DUP1 PUSH2 0x100 EXP DUP2 SLOAD DUP2 PUSH20 0xFFFFFFFFFFFFFFFFFFFFFFFFFFFFFFFFFFFFFFFF MUL NOT AND SWAP1 DUP4 PUSH20 0xFFFFFFFFFFFFFFFFFFFFFFFFFFFFFFFFFFFFFFFF AND MUL OR SWAP1 SSTORE POP DUP2 PUSH20 0xFFFFFFFFFFFFFFFFFFFFFFFFFFFFFFFFFFFFFFFF AND DUP2 PUSH20 0xFFFFFFFFFFFFFFFFFFFFFFFFFFFFFFFFFFFFFFFF AND PUSH32 0x8BE0079C531659141344CD1FD0A4F28419497F9722A3DAAFE3B4186F6B6457E0 PUSH1 0x40 MLOAD PUSH1 0x40 MLOAD DUP1 SWAP2 SUB SWAP1 LOG3 POP POP JUMP JUMPDEST PUSH1 0x0 DUP1 DUP4 SWAP1 POP PUSH1 0x0 JUMPDEST PUSH1 0x1 PUSH1 0x5 PUSH2 0xFEA SWAP2 SWAP1 PUSH2 0x1868 JUMP JUMPDEST DUP2 PUSH1 0xFF AND LT ISZERO PUSH2 0x10E6 JUMPI PUSH1 0x6 PUSH1 0x0 DUP4 PUSH20 0xFFFFFFFFFFFFFFFFFFFFFFFFFFFFFFFFFFFFFFFF AND PUSH20 0xFFFFFFFFFFFFFFFFFFFFFFFFFFFFFFFFFFFFFFFF AND DUP2 MSTORE PUSH1 0x20 ADD SWAP1 DUP2 MSTORE PUSH1 0x20 ADD PUSH1 0x0 KECCAK256 PUSH1 0x0 SWAP1 SLOAD SWAP1 PUSH2 0x100 EXP SWAP1 DIV PUSH20 0xFFFFFFFFFFFFFFFFFFFFFFFFFFFFFFFFFFFFFFFF AND SWAP2 POP PUSH1 0x0 PUSH20 0xFFFFFFFFFFFFFFFFFFFFFFFFFFFFFFFFFFFFFFFF AND DUP3 PUSH20 0xFFFFFFFFFFFFFFFFFFFFFFFFFFFFFFFFFFFFFFFF AND SUB PUSH2 0x1095 JUMPI PUSH1 0x0 SWAP3 POP POP POP PUSH2 0x10ED JUMP JUMPDEST DUP4 PUSH20 0xFFFFFFFFFFFFFFFFFFFFFFFFFFFFFFFFFFFFFFFF AND DUP3 PUSH20 0xFFFFFFFFFFFFFFFFFFFFFFFFFFFFFFFFFFFFFFFF AND SUB PUSH2 0x10D3 JUMPI PUSH1 0x1 SWAP3 POP POP POP PUSH2 0x10ED JUMP JUMPDEST DUP1 DUP1 PUSH2 0x10DE SWAP1 PUSH2 0x1BC4 JUMP JUMPDEST SWAP2 POP POP PUSH2 0xFDC JUMP JUMPDEST POP PUSH1 0x0 SWAP2 POP POP JUMPDEST SWAP3 SWAP2 POP POP JUMP JUMPDEST PUSH2 0x1100 DUP4 DUP4 DUP4 PUSH1 0x1 PUSH2 0x114E JUMP JUMPDEST PUSH2 0x1141 JUMPI DUP3 PUSH1 0x40 MLOAD PUSH32 0x5274AFE700000000000000000000000000000000000000000000000000000000 DUP2 MSTORE PUSH1 0x4 ADD PUSH2 0x1138 SWAP2 SWAP1 PUSH2 0x136C JUMP JUMPDEST PUSH1 0x40 MLOAD DUP1 SWAP2 SUB SWAP1 REVERT JUMPDEST POP POP POP JUMP JUMPDEST PUSH1 0x0 CALLER SWAP1 POP SWAP1 JUMP JUMPDEST PUSH1 0x0 DUP1 PUSH4 0xA9059CBB PUSH1 0xE0 SHL SWAP1 POP PUSH1 0x40 MLOAD DUP2 PUSH1 0x0 MSTORE PUSH1 0x0 NOT PUSH1 0x60 SHR DUP7 AND PUSH1 0x4 MSTORE DUP5 PUSH1 0x24 MSTORE PUSH1 0x20 PUSH1 0x0 PUSH1 0x44 PUSH1 0x0 DUP1 DUP12 GAS CALL SWAP3 POP PUSH1 0x1 PUSH1 0x0 MLOAD EQ DUP4 AND PUSH2 0x11AA JUMPI DUP4 DUP4 ISZERO AND ISZERO PUSH2 0x119D JUMPI RETURNDATASIZE PUSH1 0x0 DUP3 RETURNDATACOPY RETURNDATASIZE DUP2 REVERT JUMPDEST PUSH1 0x0 DUP8 EXTCODESIZE GT RETURNDATASIZE ISZERO AND DUP4 AND SWAP3 POP JUMPDEST DUP1 PUSH1 0x40 MSTORE POP POP SWAP5 SWAP4 POP POP POP POP JUMP JUMPDEST DUP3 PUSH1 0x5 DUP2 ADD SWAP3 DUP3 ISZERO PUSH2 0x11E7 JUMPI SWAP2 PUSH1 0x20 MUL DUP3 ADD JUMPDEST DUP3 DUP2 GT ISZERO PUSH2 0x11E6 JUMPI DUP3 CALLDATALOAD DUP3 SSTORE SWAP2 PUSH1 0x20 ADD SWAP2 SWAP1 PUSH1 0x1 ADD SWAP1 PUSH2 0x11CB JUMP JUMPDEST JUMPDEST POP SWAP1 POP PUSH2 0x11F4 SWAP2 SWAP1 PUSH2 0x123C JUMP JUMPDEST POP SWAP1 JUMP JUMPDEST PUSH1 0x40 MLOAD DUP1 PUSH1 0xA0 ADD PUSH1 0x40 MSTORE DUP1 PUSH1 0x5 SWAP1 PUSH1 0x20 DUP3 MUL DUP1 CALLDATASIZE DUP4 CALLDATACOPY DUP1 DUP3 ADD SWAP2 POP POP SWAP1 POP POP SWAP1 JUMP JUMPDEST PUSH1 0x40 MLOAD DUP1 PUSH1 0xA0 ADD PUSH1 0x40 MSTORE DUP1 PUSH1 0x5 SWAP1 PUSH1 0x20 DUP3 MUL DUP1 CALLDATASIZE DUP4 CALLDATACOPY DUP1 DUP3 ADD SWAP2 POP POP SWAP1 POP POP SWAP1 JUMP JUMPDEST JUMPDEST DUP1 DUP3 GT ISZERO PUSH2 0x1255 JUMPI PUSH1 0x0 DUP2 PUSH1 0x0 SWAP1 SSTORE POP PUSH1 0x1 ADD PUSH2 0x123D JUMP JUMPDEST POP SWAP1 JUMP JUMPDEST PUSH1 0x0 DUP2 SWAP1 POP SWAP2 SWAP1 POP JUMP JUMPDEST PUSH2 0x126C DUP2 PUSH2 0x1259 JUMP JUMPDEST DUP3 MSTORE POP POP JUMP JUMPDEST PUSH1 0x0 PUSH1 0x20 DUP3 ADD SWAP1 POP PUSH2 0x1287 PUSH1 0x0 DUP4 ADD DUP5 PUSH2 0x1263 JUMP JUMPDEST SWAP3 SWAP2 POP POP JUMP JUMPDEST PUSH1 0x0 DUP1 REVERT JUMPDEST PUSH1 0x0 PUSH20 0xFFFFFFFFFFFFFFFFFFFFFFFFFFFFFFFFFFFFFFFF DUP3 AND SWAP1 POP SWAP2 SWAP1 POP JUMP JUMPDEST PUSH1 0x0 PUSH2 0x12BD DUP3 PUSH2 0x1292 JUMP JUMPDEST SWAP1 POP SWAP2 SWAP1 POP JUMP JUMPDEST PUSH2 0x12CD DUP2 PUSH2 0x12B2 JUMP JUMPDEST DUP2 EQ PUSH2 0x12D8 JUMPI PUSH1 0x0 DUP1 REVERT JUMPDEST POP JUMP JUMPDEST PUSH1 0x0 DUP2 CALLDATALOAD SWAP1 POP PUSH2 0x12EA DUP2 PUSH2 0x12C4 JUMP JUMPDEST SWAP3 SWAP2 POP POP JUMP JUMPDEST PUSH1 0x0 DUP1 PUSH1 0x40 DUP4 DUP6 SUB SLT ISZERO PUSH2 0x1307 JUMPI PUSH2 0x1306 PUSH2 0x128D JUMP JUMPDEST JUMPDEST PUSH1 0x0 PUSH2 0x1315 DUP6 DUP3 DUP7 ADD PUSH2 0x12DB JUMP JUMPDEST SWAP3 POP POP PUSH1 0x20 PUSH2 0x1326 DUP6 DUP3 DUP7 ADD PUSH2 0x12DB JUMP JUMPDEST SWAP2 POP POP SWAP3 POP SWAP3 SWAP1 POP JUMP JUMPDEST PUSH1 0x0 PUSH1 0x20 DUP3 DUP5 SUB SLT ISZERO PUSH2 0x1346 JUMPI PUSH2 0x1345 PUSH2 0x128D JUMP JUMPDEST JUMPDEST PUSH1 0x0 PUSH2 0x1354 DUP5 DUP3 DUP6 ADD PUSH2 0x12DB JUMP JUMPDEST SWAP2 POP POP SWAP3 SWAP2 POP POP JUMP JUMPDEST PUSH2 0x1366 DUP2 PUSH2 0x12B2 JUMP JUMPDEST DUP3 MSTORE POP POP JUMP JUMPDEST PUSH1 0x0 PUSH1 0x20 DUP3 ADD SWAP1 POP PUSH2 0x1381 PUSH1 0x0 DUP4 ADD DUP5 PUSH2 0x135D JUMP JUMPDEST SWAP3 SWAP2 POP POP JUMP JUMPDEST PUSH2 0x1390 DUP2 PUSH2 0x1259 JUMP JUMPDEST DUP2 EQ PUSH2 0x139B JUMPI PUSH1 0x0 DUP1 REVERT JUMPDEST POP JUMP JUMPDEST PUSH1 0x0 DUP2 CALLDATALOAD SWAP1 POP PUSH2 0x13AD DUP2 PUSH2 0x1387 JUMP JUMPDEST SWAP3 SWAP2 POP POP JUMP JUMPDEST PUSH1 0x0 PUSH1 0x20 DUP3 DUP5 SUB SLT ISZERO PUSH2 0x13C9 JUMPI PUSH2 0x13C8 PUSH2 0x128D JUMP JUMPDEST JUMPDEST PUSH1 0x0 PUSH2 0x13D7 DUP5 DUP3 DUP6 ADD PUSH2 0x139E JUMP JUMPDEST SWAP2 POP POP SWAP3 SWAP2 POP POP JUMP JUMPDEST PUSH1 0x0 DUP1 REVERT JUMPDEST PUSH1 0x0 DUP2 SWAP1 POP DUP3 PUSH1 0x20 PUSH1 0x5 MUL DUP3 ADD GT ISZERO PUSH2 0x1401 JUMPI PUSH2 0x1400 PUSH2 0x13E0 JUMP JUMPDEST JUMPDEST SWAP3 SWAP2 POP POP JUMP JUMPDEST PUSH1 0x0 PUSH1 0xA0 DUP3 DUP5 SUB SLT ISZERO PUSH2 0x141D JUMPI PUSH2 0x141C PUSH2 0x128D JUMP JUMPDEST JUMPDEST PUSH1 0x0 PUSH2 0x142B DUP5 DUP3 DUP6 ADD PUSH2 0x13E5 JUMP JUMPDEST SWAP2 POP POP SWAP3 SWAP2 POP POP JUMP JUMPDEST PUSH1 0x0 PUSH1 0x5 SWAP1 POP SWAP2 SWAP1 POP JUMP JUMPDEST PUSH1 0x0 DUP2 SWAP1 POP SWAP3 SWAP2 POP POP JUMP JUMPDEST PUSH1 0x0 DUP2 SWAP1 POP SWAP2 SWAP1 POP JUMP JUMPDEST PUSH2 0x145D DUP2 PUSH2 0x1259 JUMP JUMPDEST DUP3 MSTORE POP POP JUMP JUMPDEST PUSH1 0x0 PUSH2 0x146F DUP4 DUP4 PUSH2 0x1454 JUMP JUMPDEST PUSH1 0x20 DUP4 ADD SWAP1 POP SWAP3 SWAP2 POP POP JUMP JUMPDEST PUSH1 0x0 PUSH1 0x20 DUP3 ADD SWAP1 POP SWAP2 SWAP1 POP JUMP JUMPDEST PUSH2 0x1491 DUP2 PUSH2 0x1434 JUMP JUMPDEST PUSH2 0x149B DUP2 DUP5 PUSH2 0x143F JUMP JUMPDEST SWAP3 POP PUSH2 0x14A6 DUP3 PUSH2 0x144A JUMP JUMPDEST DUP1 PUSH1 0x0 JUMPDEST DUP4 DUP2 LT ISZERO PUSH2 0x14D7 JUMPI DUP2 MLOAD PUSH2 0x14BE DUP8 DUP3 PUSH2 0x1463 JUMP JUMPDEST SWAP7 POP PUSH2 0x14C9 DUP4 PUSH2 0x147B JUMP JUMPDEST SWAP3 POP POP PUSH1 0x1 DUP2 ADD SWAP1 POP PUSH2 0x14AA JUMP JUMPDEST POP POP POP POP POP POP JUMP JUMPDEST PUSH1 0x0 PUSH1 0xA0 DUP3 ADD SWAP1 POP PUSH2 0x14F4 PUSH1 0x0 DUP4 ADD DUP5 PUSH2 0x1488 JUMP JUMPDEST SWAP3 SWAP2 POP POP JUMP JUMPDEST PUSH1 0x0 DUP1 PUSH1 0x0 PUSH1 0x60 DUP5 DUP7 SUB SLT ISZERO PUSH2 0x1513 JUMPI PUSH2 0x1512 PUSH2 0x128D JUMP JUMPDEST JUMPDEST PUSH1 0x0 PUSH2 0x1521 DUP7 DUP3 DUP8 ADD PUSH2 0x12DB JUMP JUMPDEST SWAP4 POP POP PUSH1 0x20 PUSH2 0x1532 DUP7 DUP3 DUP8 ADD PUSH2 0x12DB JUMP JUMPDEST SWAP3 POP POP PUSH1 0x40 PUSH2 0x1543 DUP7 DUP3 DUP8 ADD PUSH2 0x139E JUMP JUMPDEST SWAP2 POP POP SWAP3 POP SWAP3 POP SWAP3 JUMP JUMPDEST PUSH1 0x0 DUP2 ISZERO ISZERO SWAP1 POP SWAP2 SWAP1 POP JUMP JUMPDEST PUSH2 0x1562 DUP2 PUSH2 0x154D JUMP JUMPDEST DUP3 MSTORE POP POP JUMP JUMPDEST PUSH1 0x0 PUSH1 0x20 DUP3 ADD SWAP1 POP PUSH2 0x157D PUSH1 0x0 DUP4 ADD DUP5 PUSH2 0x1559 JUMP JUMPDEST SWAP3 SWAP2 POP POP JUMP JUMPDEST PUSH1 0x0 PUSH1 0x5 SWAP1 POP SWAP2 SWAP1 POP JUMP JUMPDEST PUSH1 0x0 DUP2 SWAP1 POP SWAP3 SWAP2 POP POP JUMP JUMPDEST PUSH1 0x0 DUP2 SWAP1 POP SWAP2 SWAP1 POP JUMP JUMPDEST PUSH2 0x15AC DUP2 PUSH2 0x12B2 JUMP JUMPDEST DUP3 MSTORE POP POP JUMP JUMPDEST PUSH1 0x0 PUSH2 0x15BE DUP4 DUP4 PUSH2 0x15A3 JUMP JUMPDEST PUSH1 0x20 DUP4 ADD SWAP1 POP SWAP3 SWAP2 POP POP JUMP JUMPDEST PUSH1 0x0 PUSH1 0x20 DUP3 ADD SWAP1 POP SWAP2 SWAP1 POP JUMP JUMPDEST PUSH2 0x15E0 DUP2 PUSH2 0x1583 JUMP JUMPDEST PUSH2 0x15EA DUP2 DUP5 PUSH2 0x158E JUMP JUMPDEST SWAP3 POP PUSH2 0x15F5 DUP3 PUSH2 0x1599 JUMP JUMPDEST DUP1 PUSH1 0x0 JUMPDEST DUP4 DUP2 LT ISZERO PUSH2 0x1626 JUMPI DUP2 MLOAD PUSH2 0x160D DUP8 DUP3 PUSH2 0x15B2 JUMP JUMPDEST SWAP7 POP PUSH2 0x1618 DUP4 PUSH2 0x15CA JUMP JUMPDEST SWAP3 POP POP PUSH1 0x1 DUP2 ADD SWAP1 POP PUSH2 0x15F9 JUMP JUMPDEST POP POP POP POP POP POP JUMP JUMPDEST PUSH1 0x0 PUSH1 0xA0 DUP3 ADD SWAP1 POP PUSH2 0x1643 PUSH1 0x0 DUP4 ADD DUP5 PUSH2 0x15D7 JUMP JUMPDEST SWAP3 SWAP2 POP POP JUMP JUMPDEST PUSH1 0x0 DUP3 DUP3 MSTORE PUSH1 0x20 DUP3 ADD SWAP1 POP SWAP3 SWAP2 POP POP JUMP JUMPDEST PUSH32 0x616C726561647920626F756E6400000000000000000000000000000000000000 PUSH1 0x0 DUP3 ADD MSTORE POP JUMP JUMPDEST PUSH1 0x0 PUSH2 0x1690 PUSH1 0xD DUP4 PUSH2 0x1649 JUMP JUMPDEST SWAP2 POP PUSH2 0x169B DUP3 PUSH2 0x165A JUMP JUMPDEST PUSH1 0x20 DUP3 ADD SWAP1 POP SWAP2 SWAP1 POP JUMP JUMPDEST PUSH1 0x0 PUSH1 0x20 DUP3 ADD SWAP1 POP DUP2 DUP2 SUB PUSH1 0x0 DUP4 ADD MSTORE PUSH2 0x16BF DUP2 PUSH2 0x1683 JUMP JUMPDEST SWAP1 POP SWAP2 SWAP1 POP JUMP JUMPDEST PUSH32 0x696E76616C696420726566657272657200000000000000000000000000000000 PUSH1 0x0 DUP3 ADD MSTORE POP JUMP JUMPDEST PUSH1 0x0 PUSH2 0x16FC PUSH1 0x10 DUP4 PUSH2 0x1649 JUMP JUMPDEST SWAP2 POP PUSH2 0x1707 DUP3 PUSH2 0x16C6 JUMP JUMPDEST PUSH1 0x20 DUP3 ADD SWAP1 POP SWAP2 SWAP1 POP JUMP JUMPDEST PUSH1 0x0 PUSH1 0x20 DUP3 ADD SWAP1 POP DUP2 DUP2 SUB PUSH1 0x0 DUP4 ADD MSTORE PUSH2 0x172B DUP2 PUSH2 0x16EF JUMP JUMPDEST SWAP1 POP SWAP2 SWAP1 POP JUMP JUMPDEST PUSH32 0x63616E6E6F7420726566657220796F757273656C660000000000000000000000 PUSH1 0x0 DUP3 ADD MSTORE POP JUMP JUMPDEST PUSH1 0x0 PUSH2 0x1768 PUSH1 0x15 DUP4 PUSH2 0x1649 JUMP JUMPDEST SWAP2 POP PUSH2 0x1773 DUP3 PUSH2 0x1732 JUMP JUMPDEST PUSH1 0x20 DUP3 ADD SWAP1 POP SWAP2 SWAP1 POP JUMP JUMPDEST PUSH1 0x0 PUSH1 0x20 DUP3 ADD SWAP1 POP DUP2 DUP2 SUB PUSH1 0x0 DUP4 ADD MSTORE PUSH2 0x1797 DUP2 PUSH2 0x175B JUMP JUMPDEST SWAP1 POP SWAP2 SWAP1 POP JUMP JUMPDEST PUSH32 0x63697263756C617220726566657272616C000000000000000000000000000000 PUSH1 0x0 DUP3 ADD MSTORE POP JUMP JUMPDEST PUSH1 0x0 PUSH2 0x17D4 PUSH1 0x11 DUP4 PUSH2 0x1649 JUMP JUMPDEST SWAP2 POP PUSH2 0x17DF DUP3 PUSH2 0x179E JUMP JUMPDEST PUSH1 0x20 DUP3 ADD SWAP1 POP SWAP2 SWAP1 POP JUMP JUMPDEST PUSH1 0x0 PUSH1 0x20 DUP3 ADD SWAP1 POP DUP2 DUP2 SUB PUSH1 0x0 DUP4 ADD MSTORE PUSH2 0x1803 DUP2 PUSH2 0x17C7 JUMP JUMPDEST SWAP1 POP SWAP2 SWAP1 POP JUMP JUMPDEST PUSH32 0x4E487B7100000000000000000000000000000000000000000000000000000000 PUSH1 0x0 MSTORE PUSH1 0x32 PUSH1 0x4 MSTORE PUSH1 0x24 PUSH1 0x0 REVERT JUMPDEST PUSH32 0x4E487B7100000000000000000000000000000000000000000000000000000000 PUSH1 0x0 MSTORE PUSH1 0x11 PUSH1 0x4 MSTORE PUSH1 0x24 PUSH1 0x0 REVERT JUMPDEST PUSH1 0x0 PUSH2 0x1873 DUP3 PUSH2 0x1259 JUMP JUMPDEST SWAP2 POP PUSH2 0x187E DUP4 PUSH2 0x1259 JUMP JUMPDEST SWAP3 POP DUP3 DUP3 ADD SWAP1 POP DUP1 DUP3 GT ISZERO PUSH2 0x1896 JUMPI PUSH2 0x1895 PUSH2 0x1839 JUMP JUMPDEST JUMPDEST SWAP3 SWAP2 POP POP JUMP JUMPDEST PUSH1 0x0 PUSH2 0x18A7 DUP3 PUSH2 0x1259 JUMP JUMPDEST SWAP2 POP PUSH32 0xFFFFFFFFFFFFFFFFFFFFFFFFFFFFFFFFFFFFFFFFFFFFFFFFFFFFFFFFFFFFFFFF DUP3 SUB PUSH2 0x18D9 JUMPI PUSH2 0x18D8 PUSH2 0x1839 JUMP JUMPDEST JUMPDEST PUSH1 0x1 DUP3 ADD SWAP1 POP SWAP2 SWAP1 POP JUMP JUMPDEST PUSH32 0x746F74616C20726566657272616C2072617465203E203230252C20746F6F2068 PUSH1 0x0 DUP3 ADD MSTORE PUSH32 0x6967680000000000000000000000000000000000000000000000000000000000 PUSH1 0x20 DUP3 ADD MSTORE POP JUMP JUMPDEST PUSH1 0x0 PUSH2 0x1940 PUSH1 0x23 DUP4 PUSH2 0x1649 JUMP JUMPDEST SWAP2 POP PUSH2 0x194B DUP3 PUSH2 0x18E4 JUMP JUMPDEST PUSH1 0x40 DUP3 ADD SWAP1 POP SWAP2 SWAP1 POP JUMP JUMPDEST PUSH1 0x0 PUSH1 0x20 DUP3 ADD SWAP1 POP DUP2 DUP2 SUB PUSH1 0x0 DUP4 ADD MSTORE PUSH2 0x196F DUP2 PUSH2 0x1933 JUMP JUMPDEST SWAP1 POP SWAP2 SWAP1 POP JUMP JUMPDEST DUP3 DUP2 DUP4 CALLDATACOPY POP POP POP JUMP JUMPDEST PUSH2 0x198B PUSH1 0xA0 DUP4 DUP4 PUSH2 0x1976 JUMP JUMPDEST POP POP JUMP JUMPDEST PUSH1 0x0 PUSH1 0xA0 DUP3 ADD SWAP1 POP PUSH2 0x19A4 PUSH1 0x0 DUP4 ADD DUP5 PUSH2 0x197F JUMP JUMPDEST SWAP3 SWAP2 POP POP JUMP JUMPDEST PUSH32 0x7A65726F20616464726573730000000000000000000000000000000000000000 PUSH1 0x0 DUP3 ADD MSTORE POP JUMP JUMPDEST PUSH1 0x0 PUSH2 0x19E0 PUSH1 0xC DUP4 PUSH2 0x1649 JUMP JUMPDEST SWAP2 POP PUSH2 0x19EB DUP3 PUSH2 0x19AA JUMP JUMPDEST PUSH1 0x20 DUP3 ADD SWAP1 POP SWAP2 SWAP1 POP JUMP JUMPDEST PUSH1 0x0 PUSH1 0x20 DUP3 ADD SWAP1 POP DUP2 DUP2 SUB PUSH1 0x0 DUP4 ADD MSTORE PUSH2 0x1A0F DUP2 PUSH2 0x19D3 JUMP JUMPDEST SWAP1 POP SWAP2 SWAP1 POP JUMP JUMPDEST PUSH32 0x526566657272616C5265776172643A2063616C6C6572206973206E6F74204D69 PUSH1 0x0 DUP3 ADD MSTORE PUSH32 0x6E696E674C6F6769630000000000000000000000000000000000000000000000 PUSH1 0x20 DUP3 ADD MSTORE POP JUMP JUMPDEST PUSH1 0x0 PUSH2 0x1A72 PUSH1 0x29 DUP4 PUSH2 0x1649 JUMP JUMPDEST SWAP2 POP PUSH2 0x1A7D DUP3 PUSH2 0x1A16 JUMP JUMPDEST PUSH1 0x40 DUP3 ADD SWAP1 POP SWAP2 SWAP1 POP JUMP JUMPDEST PUSH1 0x0 PUSH1 0x20 DUP3 ADD SWAP1 POP DUP2 DUP2 SUB PUSH1 0x0 DUP4 ADD MSTORE PUSH2 0x1AA1 DUP2 PUSH2 0x1A65 JUMP JUMPDEST SWAP1 POP SWAP2 SWAP1 POP JUMP JUMPDEST PUSH1 0x0 PUSH2 0x1AB3 DUP3 PUSH2 0x1259 JUMP JUMPDEST SWAP2 POP PUSH2 0x1ABE DUP4 PUSH2 0x1259 JUMP JUMPDEST SWAP3 POP DUP3 DUP3 MUL PUSH2 0x1ACC DUP2 PUSH2 0x1259 JUMP JUMPDEST SWAP2 POP DUP3 DUP3 DIV DUP5 EQ DUP4 ISZERO OR PUSH2 0x1AE3 JUMPI PUSH2 0x1AE2 PUSH2 0x1839 JUMP JUMPDEST JUMPDEST POP SWAP3 SWAP2 POP POP JUMP JUMPDEST PUSH32 0x4E487B7100000000000000000000000000000000000000000000000000000000 PUSH1 0x0 MSTORE PUSH1 0x12 PUSH1 0x4 MSTORE PUSH1 0x24 PUSH1 0x0 REVERT JUMPDEST PUSH1 0x0 PUSH2 0x1B24 DUP3 PUSH2 0x1259 JUMP JUMPDEST SWAP2 POP PUSH2 0x1B2F DUP4 PUSH2 0x1259 JUMP JUMPDEST SWAP3 POP DUP3 PUSH2 0x1B3F JUMPI PUSH2 0x1B3E PUSH2 0x1AEA JUMP JUMPDEST JUMPDEST DUP3 DUP3 DIV SWAP1 POP SWAP3 SWAP2 POP POP JUMP JUMPDEST PUSH1 0x0 PUSH1 0xFF DUP3 AND SWAP1 POP SWAP2 SWAP1 POP JUMP JUMPDEST PUSH1 0x0 PUSH2 0x1B62 DUP3 PUSH2 0x1B4A JUMP JUMPDEST SWAP2 POP PUSH2 0x1B6D DUP4 PUSH2 0x1B4A JUMP JUMPDEST SWAP3 POP DUP3 DUP3 ADD SWAP1 POP PUSH1 0xFF DUP2 GT ISZERO PUSH2 0x1B86 JUMPI PUSH2 0x1B85 PUSH2 0x1839 JUMP JUMPDEST JUMPDEST SWAP3 SWAP2 POP POP JUMP JUMPDEST PUSH2 0x1B95 DUP2 PUSH2 0x1B4A JUMP JUMPDEST DUP3 MSTORE POP POP JUMP JUMPDEST PUSH1 0x0 PUSH1 0x40 DUP3 ADD SWAP1 POP PUSH2 0x1BB0 PUSH1 0x0 DUP4 ADD DUP6 PUSH2 0x1263 JUMP JUMPDEST PUSH2 0x1BBD PUSH1 0x20 DUP4 ADD DUP5 PUSH2 0x1B8C JUMP JUMPDEST SWAP4 SWAP3 POP POP POP JUMP JUMPDEST PUSH1 0x0 PUSH2 0x1BCF DUP3 PUSH2 0x1B4A JUMP JUMPDEST SWAP2 POP PUSH1 0xFF DUP3 SUB PUSH2 0x1BE2 JUMPI PUSH2 0x1BE1 PUSH2 0x1839 JUMP JUMPDEST JUMPDEST PUSH1 0x1 DUP3 ADD SWAP1 POP SWAP2 SWAP1 POP JUMP INVALID LOG2 PUSH5 0x6970667358 0x22 SLT KECCAK256 GAS POP DUP11 0x24 NOT INVALID SWAP3 SWAP1 0xF7 PUSH7 0xE419B9EBDDEA0A 0xC 0xEF 0xBD DUP16 PUSH18 0xEFBC0752603FD52A987064736F6C63430008 EQ STOP CALLER "},"methodIdentifiers":{"MAX_LEVELS()":"6702c7bf","RATES(uint256)":"62203d74","RATE_BASE()":"0873c6ec","bind(address)":"81bac14f","bound(address)":"ea291942","distributeReward(address,address,uint256)":"e7cea7f4","earned(address,address)":"211dc32d","getAncestors(address)":"ff747cc0","getRates()":"9accab55","miningLogic()":"af626c12","owner()":"8da5cb5b","referrer(address)":"2cf003c2","renounceOwnership()":"715018a6","setMiningLogic(address)":"c13d6c99","setRates(uint256[5])":"990f3314","totalEarned(address,address)":"3e972167","transferOwnership(address)":"f2fde38b"}}}}}