{"contracts/NFTAuction.sol":{"NFTAuction":{"abi":[{"inputs":[{"internalType":"address","name":"_ring","type":"address"}],"stateMutability":"nonpayable","type":"constructor"},{"anonymous":false,"inputs":[{"indexed":true,"internalType":"address","name":"nft","type":"address"},{"indexed":true,"internalType":"uint256","name":"id","type":"uint256"}],"name":"AuctionCancelled","type":"event"},{"anonymous":false,"inputs":[{"indexed":true,"internalType":"address","name":"nft","type":"address"},{"indexed":true,"internalType":"uint256","name":"id","type":"uint256"},{"indexed":false,"internalType":"address","name":"seller","type":"address"},{"indexed":false,"internalType":"uint128","name":"start","type":"uint128"},{"indexed":false,"internalType":"uint128","name":"end","type":"uint128"},{"indexed":false,"internalType":"uint64","name":"dur","type":"uint64"}],"name":"AuctionCreated","type":"event"},{"anonymous":false,"inputs":[{"indexed":true,"internalType":"address","name":"nft","type":"address"},{"indexed":true,"internalType":"uint256","name":"id","type":"uint256"},{"indexed":false,"internalType":"address","name":"buyer","type":"address"},{"indexed":false,"internalType":"uint256","name":"price","type":"uint256"}],"name":"AuctionWon","type":"event"},{"inputs":[],"name":"BPS","outputs":[{"internalType":"uint256","name":"","type":"uint256"}],"stateMutability":"view","type":"function"},{"inputs":[],"name":"FEE_BPS","outputs":[{"internalType":"uint256","name":"","type":"uint256"}],"stateMutability":"view","type":"function"},{"inputs":[{"internalType":"bytes32","name":"","type":"bytes32"}],"name":"auctionMap","outputs":[{"internalType":"address","name":"nftContract","type":"address"},{"internalType":"address","name":"seller","type":"address"},{"internalType":"uint128","name":"startPrice","type":"uint128"},{"internalType":"uint128","name":"endPrice","type":"uint128"},{"internalType":"uint64","name":"duration","type":"uint64"},{"internalType":"uint64","name":"startedAt","type":"uint64"}],"stateMutability":"view","type":"function"},{"inputs":[{"internalType":"address","name":"nft","type":"address"},{"internalType":"uint256","name":"id","type":"uint256"},{"internalType":"uint256","name":"maxPay","type":"uint256"}],"name":"bid","outputs":[],"stateMutability":"nonpayable","type":"function"},{"inputs":[{"internalType":"address","name":"nft","type":"address"},{"internalType":"uint256","name":"id","type":"uint256"}],"name":"cancelAuction","outputs":[],"stateMutability":"nonpayable","type":"function"},{"inputs":[{"internalType":"address","name":"nft","type":"address"},{"internalType":"uint256","name":"id","type":"uint256"},{"internalType":"uint128","name":"sp","type":"uint128"},{"internalType":"uint128","name":"ep","type":"uint128"},{"internalType":"uint64","name":"dur","type":"uint64"}],"name":"createAuction","outputs":[],"stateMutability":"nonpayable","type":"function"},{"inputs":[{"internalType":"address","name":"nft","type":"address"},{"internalType":"uint256","name":"id","type":"uint256"}],"name":"currentPrice","outputs":[{"internalType":"uint256","name":"","type":"uint256"}],"stateMutability":"view","type":"function"},{"inputs":[{"internalType":"address","name":"nft","type":"address"},{"internalType":"uint256","name":"id","type":"uint256"}],"name":"getAuction","outputs":[{"components":[{"internalType":"address","name":"nftContract","type":"address"},{"internalType":"address","name":"seller","type":"address"},{"internalType":"uint128","name":"startPrice","type":"uint128"},{"internalType":"uint128","name":"endPrice","type":"uint128"},{"internalType":"uint64","name":"duration","type":"uint64"},{"internalType":"uint64","name":"startedAt","type":"uint64"}],"internalType":"struct NFTAuction.Auction","name":"","type":"tuple"}],"stateMutability":"view","type":"function"},{"inputs":[{"internalType":"address","name":"","type":"address"},{"internalType":"address","name":"","type":"address"},{"internalType":"uint256","name":"","type":"uint256"},{"internalType":"bytes","name":"","type":"bytes"}],"name":"onERC721Received","outputs":[{"internalType":"bytes4","name":"","type":"bytes4"}],"stateMutability":"pure","type":"function"},{"inputs":[],"name":"owner","outputs":[{"internalType":"address","name":"","type":"address"}],"stateMutability":"view","type":"function"},{"inputs":[],"name":"ring","outputs":[{"internalType":"address","name":"","type":"address"}],"stateMutability":"view","type":"function"}],"evm":{"bytecode":{"linkReferences":{},"object":"60806040523480156200001157600080fd5b50604051620023de380380620023de833981810160405281019062000037919062000129565b336000806101000a81548173ffffffffffffffffffffffffffffffffffffffff021916908373ffffffffffffffffffffffffffffffffffffffff16021790555080600160006101000a81548173ffffffffffffffffffffffffffffffffffffffff021916908373ffffffffffffffffffffffffffffffffffffffff160217905550506200015b565b600080fd5b600073ffffffffffffffffffffffffffffffffffffffff82169050919050565b6000620000f182620000c4565b9050919050565b6200010381620000e4565b81146200010f57600080fd5b50565b6000815190506200012381620000f8565b92915050565b600060208284031215620001425762000141620000bf565b5b6000620001528482850162000112565b91505092915050565b612273806200016b6000396000f3fe608060405234801561001057600080fd5b50600436106100a95760003560e01c8063762a66a211610071578063762a66a21461017d5780638360c185146101ad578063859b97fe146101cb5780638da5cb5b146101e7578063bf333f2c14610205578063d1a6add614610223576100a9565b80630f41ba4b146100ae578063150b7a02146100ca578063249d39e9146100fa5780632fb3905a14610118578063671d181714610148575b600080fd5b6100c860048036038101906100c39190611714565b61023f565b005b6100e460048036038101906100df91906117cc565b610772565b6040516100f1919061188f565b60405180910390f35b610102610787565b60405161010f91906118b9565b60405180910390f35b610132600480360381019061012d91906118d4565b61078d565b60405161013f91906118b9565b60405180910390f35b610162600480360381019061015d919061194a565b61099a565b604051610174969594939291906119d4565b60405180910390f35b610197600480360381019061019291906118d4565b610a76565b6040516101a49190611add565b60405180910390f35b6101b5610c51565b6040516101c29190611af8565b60405180910390f35b6101e560048036038101906101e091906118d4565b610c77565b005b6101ef61105f565b6040516101fc9190611af8565b60405180910390f35b61020d611083565b60405161021a91906118b9565b60405180910390f35b61023d60048036038101906102389190611b6b565b611089565b005b600360009054906101000a900460ff161561028f576040517f08c379a000000000000000000000000000000000000000000000000000000000815260040161028690611c43565b60405180910390fd5b6001600360006101000a81548160ff0219169083151502179055506000600260006102ba86866115a9565b8152602001908152602001600020905060008160030160089054906101000a900467ffffffffffffffff1667ffffffffffffffff161161032f576040517f08c379a000000000000000000000000000000000000000000000000000000000815260040161032690611caf565b60405180910390fd5b600061033b858561078d565b905080831015610380576040517f08c379a000000000000000000000000000000000000000000000000000000000815260040161037790611d1b565b60405180910390fd5b6000612710610190836103939190611d6a565b61039d9190611ddb565b9050600160009054906101000a900473ffffffffffffffffffffffffffffffffffffffff1673ffffffffffffffffffffffffffffffffffffffff166323b872dd338560010160009054906101000a900473ffffffffffffffffffffffffffffffffffffffff16848661040f9190611e0c565b6040518463ffffffff1660e01b815260040161042d93929190611e40565b6020604051808303816000875af115801561044c573d6000803e3d6000fd5b505050506040513d601f19601f820116820180604052508101906104709190611eaf565b6104af576040517f08c379a00000000000000000000000000000000000000000000000000000000081526004016104a690611f28565b60405180910390fd5b600081111561057c57600160009054906101000a900473ffffffffffffffffffffffffffffffffffffffff1673ffffffffffffffffffffffffffffffffffffffff166323b872dd3360008054906101000a900473ffffffffffffffffffffffffffffffffffffffff16846040518463ffffffff1660e01b815260040161053793929190611e40565b6020604051808303816000875af1158015610556573d6000803e3d6000fd5b505050506040513d601f19601f8201168201806040525081019061057a9190611eaf565b505b60008360000160009054906101000a900473ffffffffffffffffffffffffffffffffffffffff169050600260006105b389896115a9565b8152602001908152602001600020600080820160006101000a81549073ffffffffffffffffffffffffffffffffffffffff02191690556001820160006101000a81549073ffffffffffffffffffffffffffffffffffffffff02191690556002820160006101000a8154906fffffffffffffffffffffffffffffffff02191690556002820160106101000a8154906fffffffffffffffffffffffffffffffff02191690556003820160006101000a81549067ffffffffffffffff02191690556003820160086101000a81549067ffffffffffffffff021916905550508073ffffffffffffffffffffffffffffffffffffffff166323b872dd3033896040518463ffffffff1660e01b81526004016106cb93929190611e40565b600060405180830381600087803b1580156106e557600080fd5b505af11580156106f9573d6000803e3d6000fd5b50505050858773ffffffffffffffffffffffffffffffffffffffff167f57897076b3b4da1e5b44291d2afa77158945c16a6bb3033421ebd9331d0c6fe43386604051610746929190611f48565b60405180910390a3505050506000600360006101000a81548160ff021916908315150217905550505050565b600063150b7a0260e01b905095945050505050565b61271081565b6000806002600061079e86866115a9565b8152602001908152602001600020905060008160030160089054906101000a900467ffffffffffffffff1667ffffffffffffffff1611610813576040517f08c379a000000000000000000000000000000000000000000000000000000000815260040161080a90611caf565b60405180910390fd5b60008160030160089054906101000a900467ffffffffffffffff1667ffffffffffffffff16426108439190611e0c565b90508160030160009054906101000a900467ffffffffffffffff1667ffffffffffffffff1681106108aa578160020160109054906101000a90046fffffffffffffffffffffffffffffffff166fffffffffffffffffffffffffffffffff1692505050610994565b8160030160009054906101000a900467ffffffffffffffff1667ffffffffffffffff16818360020160109054906101000a90046fffffffffffffffffffffffffffffffff166fffffffffffffffffffffffffffffffff168460020160009054906101000a90046fffffffffffffffffffffffffffffffff166fffffffffffffffffffffffffffffffff1661093e9190611e0c565b6109489190611d6a565b6109529190611ddb565b8260020160009054906101000a90046fffffffffffffffffffffffffffffffff166fffffffffffffffffffffffffffffffff1661098f9190611e0c565b925050505b92915050565b60026020528060005260406000206000915090508060000160009054906101000a900473ffffffffffffffffffffffffffffffffffffffff16908060010160009054906101000a900473ffffffffffffffffffffffffffffffffffffffff16908060020160009054906101000a90046fffffffffffffffffffffffffffffffff16908060020160109054906101000a90046fffffffffffffffffffffffffffffffff16908060030160009054906101000a900467ffffffffffffffff16908060030160089054906101000a900467ffffffffffffffff16905086565b610a7e6115dc565b60026000610a8c85856115a9565b81526020019081526020016000206040518060c00160405290816000820160009054906101000a900473ffffffffffffffffffffffffffffffffffffffff1673ffffffffffffffffffffffffffffffffffffffff1673ffffffffffffffffffffffffffffffffffffffff1681526020016001820160009054906101000a900473ffffffffffffffffffffffffffffffffffffffff1673ffffffffffffffffffffffffffffffffffffffff1673ffffffffffffffffffffffffffffffffffffffff1681526020016002820160009054906101000a90046fffffffffffffffffffffffffffffffff166fffffffffffffffffffffffffffffffff166fffffffffffffffffffffffffffffffff1681526020016002820160109054906101000a90046fffffffffffffffffffffffffffffffff166fffffffffffffffffffffffffffffffff166fffffffffffffffffffffffffffffffff1681526020016003820160009054906101000a900467ffffffffffffffff1667ffffffffffffffff1667ffffffffffffffff1681526020016003820160089054906101000a900467ffffffffffffffff1667ffffffffffffffff1667ffffffffffffffff1681525050905092915050565b600160009054906101000a900473ffffffffffffffffffffffffffffffffffffffff1681565b600360009054906101000a900460ff1615610cc7576040517f08c379a0000000000000000000000000000000000000000000000000000000008152600401610cbe90611c43565b60405180910390fd5b6001600360006101000a81548160ff021916908315150217905550600060026000610cf285856115a9565b8152602001908152602001600020905060008160030160089054906101000a900467ffffffffffffffff1667ffffffffffffffff1611610d67576040517f08c379a0000000000000000000000000000000000000000000000000000000008152600401610d5e90611caf565b60405180910390fd5b3373ffffffffffffffffffffffffffffffffffffffff168160010160009054906101000a900473ffffffffffffffffffffffffffffffffffffffff1673ffffffffffffffffffffffffffffffffffffffff161480610e10575060008054906101000a900473ffffffffffffffffffffffffffffffffffffffff1673ffffffffffffffffffffffffffffffffffffffff163373ffffffffffffffffffffffffffffffffffffffff16145b610e4f576040517f08c379a0000000000000000000000000000000000000000000000000000000008152600401610e4690611fbd565b60405180910390fd5b60008160010160009054906101000a900473ffffffffffffffffffffffffffffffffffffffff16905060008260000160009054906101000a900473ffffffffffffffffffffffffffffffffffffffff16905060026000610eaf87876115a9565b8152602001908152602001600020600080820160006101000a81549073ffffffffffffffffffffffffffffffffffffffff02191690556001820160006101000a81549073ffffffffffffffffffffffffffffffffffffffff02191690556002820160006101000a8154906fffffffffffffffffffffffffffffffff02191690556002820160106101000a8154906fffffffffffffffffffffffffffffffff02191690556003820160006101000a81549067ffffffffffffffff02191690556003820160086101000a81549067ffffffffffffffff021916905550508073ffffffffffffffffffffffffffffffffffffffff166323b872dd3084876040518463ffffffff1660e01b8152600401610fc793929190611e40565b600060405180830381600087803b158015610fe157600080fd5b505af1158015610ff5573d6000803e3d6000fd5b50505050838573ffffffffffffffffffffffffffffffffffffffff167f018b64b6242d32aa550e95d78985b938d71af5b3f10827b0683f55da1639304860405160405180910390a35050506000600360006101000a81548160ff0219169083151502179055505050565b60008054906101000a900473ffffffffffffffffffffffffffffffffffffffff1681565b61019081565b600360009054906101000a900460ff16156110d9576040517f08c379a00000000000000000000000000000000000000000000000000000000081526004016110d090611c43565b60405180910390fd5b6001600360006101000a81548160ff0219169083151502179055503373ffffffffffffffffffffffffffffffffffffffff168573ffffffffffffffffffffffffffffffffffffffff16636352211e866040518263ffffffff1660e01b815260040161114491906118b9565b602060405180830381865afa158015611161573d6000803e3d6000fd5b505050506040513d601f19601f820116820180604052508101906111859190611ff2565b73ffffffffffffffffffffffffffffffffffffffff16146111db576040517f08c379a00000000000000000000000000000000000000000000000000000000081526004016111d29061206b565b60405180910390fd5b603c8167ffffffffffffffff1610158015611203575062278d008167ffffffffffffffff1611155b611242576040517f08c379a0000000000000000000000000000000000000000000000000000000008152600401611239906120d7565b60405180910390fd5b816fffffffffffffffffffffffffffffffff16836fffffffffffffffffffffffffffffffff1610156112a9576040517f08c379a00000000000000000000000000000000000000000000000000000000081526004016112a090612143565b60405180910390fd5b8473ffffffffffffffffffffffffffffffffffffffff166323b872dd3330876040518463ffffffff1660e01b81526004016112e693929190611e40565b600060405180830381600087803b15801561130057600080fd5b505af1158015611314573d6000803e3d6000fd5b505050506040518060c001604052808673ffffffffffffffffffffffffffffffffffffffff1681526020013373ffffffffffffffffffffffffffffffffffffffff168152602001846fffffffffffffffffffffffffffffffff168152602001836fffffffffffffffffffffffffffffffff1681526020018267ffffffffffffffff1681526020014267ffffffffffffffff16815250600260006113b788886115a9565b815260200190815260200160002060008201518160000160006101000a81548173ffffffffffffffffffffffffffffffffffffffff021916908373ffffffffffffffffffffffffffffffffffffffff16021790555060208201518160010160006101000a81548173ffffffffffffffffffffffffffffffffffffffff021916908373ffffffffffffffffffffffffffffffffffffffff16021790555060408201518160020160006101000a8154816fffffffffffffffffffffffffffffffff02191690836fffffffffffffffffffffffffffffffff16021790555060608201518160020160106101000a8154816fffffffffffffffffffffffffffffffff02191690836fffffffffffffffffffffffffffffffff16021790555060808201518160030160006101000a81548167ffffffffffffffff021916908367ffffffffffffffff16021790555060a08201518160030160086101000a81548167ffffffffffffffff021916908367ffffffffffffffff160217905550905050838573ffffffffffffffffffffffffffffffffffffffff167f8c4ccdae66f6bd029aa7def8df304854941c4067ad2f54516a5418fcee42f9513386868660405161157f9493929190612163565b60405180910390a36000600360006101000a81548160ff0219169083151502179055505050505050565b600082826040516020016115be929190612211565b60405160208183030381529060405280519060200120905092915050565b6040518060c00160405280600073ffffffffffffffffffffffffffffffffffffffff168152602001600073ffffffffffffffffffffffffffffffffffffffff16815260200160006fffffffffffffffffffffffffffffffff16815260200160006fffffffffffffffffffffffffffffffff168152602001600067ffffffffffffffff168152602001600067ffffffffffffffff1681525090565b600080fd5b600080fd5b600073ffffffffffffffffffffffffffffffffffffffff82169050919050565b60006116ab82611680565b9050919050565b6116bb816116a0565b81146116c657600080fd5b50565b6000813590506116d8816116b2565b92915050565b6000819050919050565b6116f1816116de565b81146116fc57600080fd5b50565b60008135905061170e816116e8565b92915050565b60008060006060848603121561172d5761172c611676565b5b600061173b868287016116c9565b935050602061174c868287016116ff565b925050604061175d868287016116ff565b9150509250925092565b600080fd5b600080fd5b600080fd5b60008083601f84011261178c5761178b611767565b5b8235905067ffffffffffffffff8111156117a9576117a861176c565b5b6020830191508360018202830111156117c5576117c4611771565b5b9250929050565b6000806000806000608086880312156117e8576117e7611676565b5b60006117f6888289016116c9565b9550506020611807888289016116c9565b9450506040611818888289016116ff565b935050606086013567ffffffffffffffff8111156118395761183861167b565b5b61184588828901611776565b92509250509295509295909350565b60007fffffffff0000000000000000000000000000000000000000000000000000000082169050919050565b61188981611854565b82525050565b60006020820190506118a46000830184611880565b92915050565b6118b3816116de565b82525050565b60006020820190506118ce60008301846118aa565b92915050565b600080604083850312156118eb576118ea611676565b5b60006118f9858286016116c9565b925050602061190a858286016116ff565b9150509250929050565b6000819050919050565b61192781611914565b811461193257600080fd5b50565b6000813590506119448161191e565b92915050565b6000602082840312156119605761195f611676565b5b600061196e84828501611935565b91505092915050565b611980816116a0565b82525050565b60006fffffffffffffffffffffffffffffffff82169050919050565b6119ab81611986565b82525050565b600067ffffffffffffffff82169050919050565b6119ce816119b1565b82525050565b600060c0820190506119e96000830189611977565b6119f66020830188611977565b611a0360408301876119a2565b611a1060608301866119a2565b611a1d60808301856119c5565b611a2a60a08301846119c5565b979650505050505050565b611a3e816116a0565b82525050565b611a4d81611986565b82525050565b611a5c816119b1565b82525050565b60c082016000820151611a786000850182611a35565b506020820151611a8b6020850182611a35565b506040820151611a9e6040850182611a44565b506060820151611ab16060850182611a44565b506080820151611ac46080850182611a53565b5060a0820151611ad760a0850182611a53565b50505050565b600060c082019050611af26000830184611a62565b92915050565b6000602082019050611b0d6000830184611977565b92915050565b611b1c81611986565b8114611b2757600080fd5b50565b600081359050611b3981611b13565b92915050565b611b48816119b1565b8114611b5357600080fd5b50565b600081359050611b6581611b3f565b92915050565b600080600080600060a08688031215611b8757611b86611676565b5b6000611b95888289016116c9565b9550506020611ba6888289016116ff565b9450506040611bb788828901611b2a565b9350506060611bc888828901611b2a565b9250506080611bd988828901611b56565b9150509295509295909350565b600082825260208201905092915050565b7f7265656e7472616e740000000000000000000000000000000000000000000000600082015250565b6000611c2d600983611be6565b9150611c3882611bf7565b602082019050919050565b60006020820190508181036000830152611c5c81611c20565b9050919050565b7f6e6f2061756374696f6e00000000000000000000000000000000000000000000600082015250565b6000611c99600a83611be6565b9150611ca482611c63565b602082019050919050565b60006020820190508181036000830152611cc881611c8c565b9050919050565b7f746f6f206c6f7700000000000000000000000000000000000000000000000000600082015250565b6000611d05600783611be6565b9150611d1082611ccf565b602082019050919050565b60006020820190508181036000830152611d3481611cf8565b9050919050565b7f4e487b7100000000000000000000000000000000000000000000000000000000600052601160045260246000fd5b6000611d75826116de565b9150611d80836116de565b9250828202611d8e816116de565b91508282048414831517611da557611da4611d3b565b5b5092915050565b7f4e487b7100000000000000000000000000000000000000000000000000000000600052601260045260246000fd5b6000611de6826116de565b9150611df1836116de565b925082611e0157611e00611dac565b5b828204905092915050565b6000611e17826116de565b9150611e22836116de565b9250828203905081811115611e3a57611e39611d3b565b5b92915050565b6000606082019050611e556000830186611977565b611e626020830185611977565b611e6f60408301846118aa565b949350505050565b60008115159050919050565b611e8c81611e77565b8114611e9757600080fd5b50565b600081519050611ea981611e83565b92915050565b600060208284031215611ec557611ec4611676565b5b6000611ed384828501611e9a565b91505092915050565b7f72696e6700000000000000000000000000000000000000000000000000000000600082015250565b6000611f12600483611be6565b9150611f1d82611edc565b602082019050919050565b60006020820190508181036000830152611f4181611f05565b9050919050565b6000604082019050611f5d6000830185611977565b611f6a60208301846118aa565b9392505050565b7f2161757468000000000000000000000000000000000000000000000000000000600082015250565b6000611fa7600583611be6565b9150611fb282611f71565b602082019050919050565b60006020820190508181036000830152611fd681611f9a565b9050919050565b600081519050611fec816116b2565b92915050565b60006020828403121561200857612007611676565b5b600061201684828501611fdd565b91505092915050565b7f216f776e65720000000000000000000000000000000000000000000000000000600082015250565b6000612055600683611be6565b91506120608261201f565b602082019050919050565b6000602082019050818103600083015261208481612048565b9050919050565b7f6261642064757200000000000000000000000000000000000000000000000000600082015250565b60006120c1600783611be6565b91506120cc8261208b565b602082019050919050565b600060208201905081810360008301526120f0816120b4565b9050919050565b7f73703c6570000000000000000000000000000000000000000000000000000000600082015250565b600061212d600583611be6565b9150612138826120f7565b602082019050919050565b6000602082019050818103600083015261215c81612120565b9050919050565b60006080820190506121786000830187611977565b61218560208301866119a2565b61219260408301856119a2565b61219f60608301846119c5565b95945050505050565b60008160601b9050919050565b60006121c0826121a8565b9050919050565b60006121d2826121b5565b9050919050565b6121ea6121e5826116a0565b6121c7565b82525050565b6000819050919050565b61220b612206826116de565b6121f0565b82525050565b600061221d82856121d9565b60148201915061222d82846121fa565b602082019150819050939250505056fea2646970667358221220c5464090c9fff7646d7a329651830d26e7347566bdc895bdbdc0f1e54df5a2a064736f6c63430008140033","opcodes":"PUSH1 0x80 PUSH1 0x40 MSTORE CALLVALUE DUP1 ISZERO PUSH3 0x11 JUMPI PUSH1 0x0 DUP1 REVERT JUMPDEST POP PUSH1 0x40 MLOAD PUSH3 0x23DE CODESIZE SUB DUP1 PUSH3 0x23DE DUP4 CODECOPY DUP2 DUP2 ADD PUSH1 0x40 MSTORE DUP2 ADD SWAP1 PUSH3 0x37 SWAP2 SWAP1 PUSH3 0x129 JUMP JUMPDEST CALLER PUSH1 0x0 DUP1 PUSH2 0x100 EXP DUP2 SLOAD DUP2 PUSH20 0xFFFFFFFFFFFFFFFFFFFFFFFFFFFFFFFFFFFFFFFF MUL NOT AND SWAP1 DUP4 PUSH20 0xFFFFFFFFFFFFFFFFFFFFFFFFFFFFFFFFFFFFFFFF AND MUL OR SWAP1 SSTORE POP DUP1 PUSH1 0x1 PUSH1 0x0 PUSH2 0x100 EXP DUP2 SLOAD DUP2 PUSH20 0xFFFFFFFFFFFFFFFFFFFFFFFFFFFFFFFFFFFFFFFF MUL NOT AND SWAP1 DUP4 PUSH20 0xFFFFFFFFFFFFFFFFFFFFFFFFFFFFFFFFFFFFFFFF AND MUL OR SWAP1 SSTORE POP POP PUSH3 0x15B JUMP JUMPDEST PUSH1 0x0 DUP1 REVERT JUMPDEST PUSH1 0x0 PUSH20 0xFFFFFFFFFFFFFFFFFFFFFFFFFFFFFFFFFFFFFFFF DUP3 AND SWAP1 POP SWAP2 SWAP1 POP JUMP JUMPDEST PUSH1 0x0 PUSH3 0xF1 DUP3 PUSH3 0xC4 JUMP JUMPDEST SWAP1 POP SWAP2 SWAP1 POP JUMP JUMPDEST PUSH3 0x103 DUP2 PUSH3 0xE4 JUMP JUMPDEST DUP2 EQ PUSH3 0x10F JUMPI PUSH1 0x0 DUP1 REVERT JUMPDEST POP JUMP JUMPDEST PUSH1 0x0 DUP2 MLOAD SWAP1 POP PUSH3 0x123 DUP2 PUSH3 0xF8 JUMP JUMPDEST SWAP3 SWAP2 POP POP JUMP JUMPDEST PUSH1 0x0 PUSH1 0x20 DUP3 DUP5 SUB SLT ISZERO PUSH3 0x142 JUMPI PUSH3 0x141 PUSH3 0xBF JUMP JUMPDEST JUMPDEST PUSH1 0x0 PUSH3 0x152 DUP5 DUP3 DUP6 ADD PUSH3 0x112 JUMP JUMPDEST SWAP2 POP POP SWAP3 SWAP2 POP POP JUMP JUMPDEST PUSH2 0x2273 DUP1 PUSH3 0x16B PUSH1 0x0 CODECOPY PUSH1 0x0 RETURN INVALID PUSH1 0x80 PUSH1 0x40 MSTORE CALLVALUE DUP1 ISZERO PUSH2 0x10 JUMPI PUSH1 0x0 DUP1 REVERT JUMPDEST POP PUSH1 0x4 CALLDATASIZE LT PUSH2 0xA9 JUMPI PUSH1 0x0 CALLDATALOAD PUSH1 0xE0 SHR DUP1 PUSH4 0x762A66A2 GT PUSH2 0x71 JUMPI DUP1 PUSH4 0x762A66A2 EQ PUSH2 0x17D JUMPI DUP1 PUSH4 0x8360C185 EQ PUSH2 0x1AD JUMPI DUP1 PUSH4 0x859B97FE EQ PUSH2 0x1CB JUMPI DUP1 PUSH4 0x8DA5CB5B EQ PUSH2 0x1E7 JUMPI DUP1 PUSH4 0xBF333F2C EQ PUSH2 0x205 JUMPI DUP1 PUSH4 0xD1A6ADD6 EQ PUSH2 0x223 JUMPI PUSH2 0xA9 JUMP JUMPDEST DUP1 PUSH4 0xF41BA4B EQ PUSH2 0xAE JUMPI DUP1 PUSH4 0x150B7A02 EQ PUSH2 0xCA JUMPI DUP1 PUSH4 0x249D39E9 EQ PUSH2 0xFA JUMPI DUP1 PUSH4 0x2FB3905A EQ PUSH2 0x118 JUMPI DUP1 PUSH4 0x671D1817 EQ PUSH2 0x148 JUMPI JUMPDEST PUSH1 0x0 DUP1 REVERT JUMPDEST PUSH2 0xC8 PUSH1 0x4 DUP1 CALLDATASIZE SUB DUP2 ADD SWAP1 PUSH2 0xC3 SWAP2 SWAP1 PUSH2 0x1714 JUMP JUMPDEST PUSH2 0x23F JUMP JUMPDEST STOP JUMPDEST PUSH2 0xE4 PUSH1 0x4 DUP1 CALLDATASIZE SUB DUP2 ADD SWAP1 PUSH2 0xDF SWAP2 SWAP1 PUSH2 0x17CC JUMP JUMPDEST PUSH2 0x772 JUMP JUMPDEST PUSH1 0x40 MLOAD PUSH2 0xF1 SWAP2 SWAP1 PUSH2 0x188F JUMP JUMPDEST PUSH1 0x40 MLOAD DUP1 SWAP2 SUB SWAP1 RETURN JUMPDEST PUSH2 0x102 PUSH2 0x787 JUMP JUMPDEST PUSH1 0x40 MLOAD PUSH2 0x10F SWAP2 SWAP1 PUSH2 0x18B9 JUMP JUMPDEST PUSH1 0x40 MLOAD DUP1 SWAP2 SUB SWAP1 RETURN JUMPDEST PUSH2 0x132 PUSH1 0x4 DUP1 CALLDATASIZE SUB DUP2 ADD SWAP1 PUSH2 0x12D SWAP2 SWAP1 PUSH2 0x18D4 JUMP JUMPDEST PUSH2 0x78D JUMP JUMPDEST PUSH1 0x40 MLOAD PUSH2 0x13F SWAP2 SWAP1 PUSH2 0x18B9 JUMP JUMPDEST PUSH1 0x40 MLOAD DUP1 SWAP2 SUB SWAP1 RETURN JUMPDEST PUSH2 0x162 PUSH1 0x4 DUP1 CALLDATASIZE SUB DUP2 ADD SWAP1 PUSH2 0x15D SWAP2 SWAP1 PUSH2 0x194A JUMP JUMPDEST PUSH2 0x99A JUMP JUMPDEST PUSH1 0x40 MLOAD PUSH2 0x174 SWAP7 SWAP6 SWAP5 SWAP4 SWAP3 SWAP2 SWAP1 PUSH2 0x19D4 JUMP JUMPDEST PUSH1 0x40 MLOAD DUP1 SWAP2 SUB SWAP1 RETURN JUMPDEST PUSH2 0x197 PUSH1 0x4 DUP1 CALLDATASIZE SUB DUP2 ADD SWAP1 PUSH2 0x192 SWAP2 SWAP1 PUSH2 0x18D4 JUMP JUMPDEST PUSH2 0xA76 JUMP JUMPDEST PUSH1 0x40 MLOAD PUSH2 0x1A4 SWAP2 SWAP1 PUSH2 0x1ADD JUMP JUMPDEST PUSH1 0x40 MLOAD DUP1 SWAP2 SUB SWAP1 RETURN JUMPDEST PUSH2 0x1B5 PUSH2 0xC51 JUMP JUMPDEST PUSH1 0x40 MLOAD PUSH2 0x1C2 SWAP2 SWAP1 PUSH2 0x1AF8 JUMP JUMPDEST PUSH1 0x40 MLOAD DUP1 SWAP2 SUB SWAP1 RETURN JUMPDEST PUSH2 0x1E5 PUSH1 0x4 DUP1 CALLDATASIZE SUB DUP2 ADD SWAP1 PUSH2 0x1E0 SWAP2 SWAP1 PUSH2 0x18D4 JUMP JUMPDEST PUSH2 0xC77 JUMP JUMPDEST STOP JUMPDEST PUSH2 0x1EF PUSH2 0x105F JUMP JUMPDEST PUSH1 0x40 MLOAD PUSH2 0x1FC SWAP2 SWAP1 PUSH2 0x1AF8 JUMP JUMPDEST PUSH1 0x40 MLOAD DUP1 SWAP2 SUB SWAP1 RETURN JUMPDEST PUSH2 0x20D PUSH2 0x1083 JUMP JUMPDEST PUSH1 0x40 MLOAD PUSH2 0x21A SWAP2 SWAP1 PUSH2 0x18B9 JUMP JUMPDEST PUSH1 0x40 MLOAD DUP1 SWAP2 SUB SWAP1 RETURN JUMPDEST PUSH2 0x23D PUSH1 0x4 DUP1 CALLDATASIZE SUB DUP2 ADD SWAP1 PUSH2 0x238 SWAP2 SWAP1 PUSH2 0x1B6B JUMP JUMPDEST PUSH2 0x1089 JUMP JUMPDEST STOP JUMPDEST PUSH1 0x3 PUSH1 0x0 SWAP1 SLOAD SWAP1 PUSH2 0x100 EXP SWAP1 DIV PUSH1 0xFF AND ISZERO PUSH2 0x28F JUMPI PUSH1 0x40 MLOAD PUSH32 0x8C379A000000000000000000000000000000000000000000000000000000000 DUP2 MSTORE PUSH1 0x4 ADD PUSH2 0x286 SWAP1 PUSH2 0x1C43 JUMP JUMPDEST PUSH1 0x40 MLOAD DUP1 SWAP2 SUB SWAP1 REVERT JUMPDEST PUSH1 0x1 PUSH1 0x3 PUSH1 0x0 PUSH2 0x100 EXP DUP2 SLOAD DUP2 PUSH1 0xFF MUL NOT AND SWAP1 DUP4 ISZERO ISZERO MUL OR SWAP1 SSTORE POP PUSH1 0x0 PUSH1 0x2 PUSH1 0x0 PUSH2 0x2BA DUP7 DUP7 PUSH2 0x15A9 JUMP JUMPDEST DUP2 MSTORE PUSH1 0x20 ADD SWAP1 DUP2 MSTORE PUSH1 0x20 ADD PUSH1 0x0 KECCAK256 SWAP1 POP PUSH1 0x0 DUP2 PUSH1 0x3 ADD PUSH1 0x8 SWAP1 SLOAD SWAP1 PUSH2 0x100 EXP SWAP1 DIV PUSH8 0xFFFFFFFFFFFFFFFF AND PUSH8 0xFFFFFFFFFFFFFFFF AND GT PUSH2 0x32F JUMPI PUSH1 0x40 MLOAD PUSH32 0x8C379A000000000000000000000000000000000000000000000000000000000 DUP2 MSTORE PUSH1 0x4 ADD PUSH2 0x326 SWAP1 PUSH2 0x1CAF JUMP JUMPDEST PUSH1 0x40 MLOAD DUP1 SWAP2 SUB SWAP1 REVERT JUMPDEST PUSH1 0x0 PUSH2 0x33B DUP6 DUP6 PUSH2 0x78D JUMP JUMPDEST SWAP1 POP DUP1 DUP4 LT ISZERO PUSH2 0x380 JUMPI PUSH1 0x40 MLOAD PUSH32 0x8C379A000000000000000000000000000000000000000000000000000000000 DUP2 MSTORE PUSH1 0x4 ADD PUSH2 0x377 SWAP1 PUSH2 0x1D1B JUMP JUMPDEST PUSH1 0x40 MLOAD DUP1 SWAP2 SUB SWAP1 REVERT JUMPDEST PUSH1 0x0 PUSH2 0x2710 PUSH2 0x190 DUP4 PUSH2 0x393 SWAP2 SWAP1 PUSH2 0x1D6A JUMP JUMPDEST PUSH2 0x39D SWAP2 SWAP1 PUSH2 0x1DDB JUMP JUMPDEST SWAP1 POP PUSH1 0x1 PUSH1 0x0 SWAP1 SLOAD SWAP1 PUSH2 0x100 EXP SWAP1 DIV PUSH20 0xFFFFFFFFFFFFFFFFFFFFFFFFFFFFFFFFFFFFFFFF AND PUSH20 0xFFFFFFFFFFFFFFFFFFFFFFFFFFFFFFFFFFFFFFFF AND PUSH4 0x23B872DD CALLER DUP6 PUSH1 0x1 ADD PUSH1 0x0 SWAP1 SLOAD SWAP1 PUSH2 0x100 EXP SWAP1 DIV PUSH20 0xFFFFFFFFFFFFFFFFFFFFFFFFFFFFFFFFFFFFFFFF AND DUP5 DUP7 PUSH2 0x40F SWAP2 SWAP1 PUSH2 0x1E0C JUMP JUMPDEST PUSH1 0x40 MLOAD DUP5 PUSH4 0xFFFFFFFF AND PUSH1 0xE0 SHL DUP2 MSTORE PUSH1 0x4 ADD PUSH2 0x42D SWAP4 SWAP3 SWAP2 SWAP1 PUSH2 0x1E40 JUMP JUMPDEST PUSH1 0x20 PUSH1 0x40 MLOAD DUP1 DUP4 SUB DUP2 PUSH1 0x0 DUP8 GAS CALL ISZERO DUP1 ISZERO PUSH2 0x44C JUMPI RETURNDATASIZE PUSH1 0x0 DUP1 RETURNDATACOPY RETURNDATASIZE PUSH1 0x0 REVERT JUMPDEST POP POP POP POP PUSH1 0x40 MLOAD RETURNDATASIZE PUSH1 0x1F NOT PUSH1 0x1F DUP3 ADD AND DUP3 ADD DUP1 PUSH1 0x40 MSTORE POP DUP2 ADD SWAP1 PUSH2 0x470 SWAP2 SWAP1 PUSH2 0x1EAF JUMP JUMPDEST PUSH2 0x4AF JUMPI PUSH1 0x40 MLOAD PUSH32 0x8C379A000000000000000000000000000000000000000000000000000000000 DUP2 MSTORE PUSH1 0x4 ADD PUSH2 0x4A6 SWAP1 PUSH2 0x1F28 JUMP JUMPDEST PUSH1 0x40 MLOAD DUP1 SWAP2 SUB SWAP1 REVERT JUMPDEST PUSH1 0x0 DUP2 GT ISZERO PUSH2 0x57C JUMPI PUSH1 0x1 PUSH1 0x0 SWAP1 SLOAD SWAP1 PUSH2 0x100 EXP SWAP1 DIV PUSH20 0xFFFFFFFFFFFFFFFFFFFFFFFFFFFFFFFFFFFFFFFF AND PUSH20 0xFFFFFFFFFFFFFFFFFFFFFFFFFFFFFFFFFFFFFFFF AND PUSH4 0x23B872DD CALLER PUSH1 0x0 DUP1 SLOAD SWAP1 PUSH2 0x100 EXP SWAP1 DIV PUSH20 0xFFFFFFFFFFFFFFFFFFFFFFFFFFFFFFFFFFFFFFFF AND DUP5 PUSH1 0x40 MLOAD DUP5 PUSH4 0xFFFFFFFF AND PUSH1 0xE0 SHL DUP2 MSTORE PUSH1 0x4 ADD PUSH2 0x537 SWAP4 SWAP3 SWAP2 SWAP1 PUSH2 0x1E40 JUMP JUMPDEST PUSH1 0x20 PUSH1 0x40 MLOAD DUP1 DUP4 SUB DUP2 PUSH1 0x0 DUP8 GAS CALL ISZERO DUP1 ISZERO PUSH2 0x556 JUMPI RETURNDATASIZE PUSH1 0x0 DUP1 RETURNDATACOPY RETURNDATASIZE PUSH1 0x0 REVERT JUMPDEST POP POP POP POP PUSH1 0x40 MLOAD RETURNDATASIZE PUSH1 0x1F NOT PUSH1 0x1F DUP3 ADD AND DUP3 ADD DUP1 PUSH1 0x40 MSTORE POP DUP2 ADD SWAP1 PUSH2 0x57A SWAP2 SWAP1 PUSH2 0x1EAF JUMP JUMPDEST POP JUMPDEST PUSH1 0x0 DUP4 PUSH1 0x0 ADD PUSH1 0x0 SWAP1 SLOAD SWAP1 PUSH2 0x100 EXP SWAP1 DIV PUSH20 0xFFFFFFFFFFFFFFFFFFFFFFFFFFFFFFFFFFFFFFFF AND SWAP1 POP PUSH1 0x2 PUSH1 0x0 PUSH2 0x5B3 DUP10 DUP10 PUSH2 0x15A9 JUMP JUMPDEST DUP2 MSTORE PUSH1 0x20 ADD SWAP1 DUP2 MSTORE PUSH1 0x20 ADD PUSH1 0x0 KECCAK256 PUSH1 0x0 DUP1 DUP3 ADD PUSH1 0x0 PUSH2 0x100 EXP DUP2 SLOAD SWAP1 PUSH20 0xFFFFFFFFFFFFFFFFFFFFFFFFFFFFFFFFFFFFFFFF MUL NOT AND SWAP1 SSTORE PUSH1 0x1 DUP3 ADD PUSH1 0x0 PUSH2 0x100 EXP DUP2 SLOAD SWAP1 PUSH20 0xFFFFFFFFFFFFFFFFFFFFFFFFFFFFFFFFFFFFFFFF MUL NOT AND SWAP1 SSTORE PUSH1 0x2 DUP3 ADD PUSH1 0x0 PUSH2 0x100 EXP DUP2 SLOAD SWAP1 PUSH16 0xFFFFFFFFFFFFFFFFFFFFFFFFFFFFFFFF MUL NOT AND SWAP1 SSTORE PUSH1 0x2 DUP3 ADD PUSH1 0x10 PUSH2 0x100 EXP DUP2 SLOAD SWAP1 PUSH16 0xFFFFFFFFFFFFFFFFFFFFFFFFFFFFFFFF MUL NOT AND SWAP1 SSTORE PUSH1 0x3 DUP3 ADD PUSH1 0x0 PUSH2 0x100 EXP DUP2 SLOAD SWAP1 PUSH8 0xFFFFFFFFFFFFFFFF MUL NOT AND SWAP1 SSTORE PUSH1 0x3 DUP3 ADD PUSH1 0x8 PUSH2 0x100 EXP DUP2 SLOAD SWAP1 PUSH8 0xFFFFFFFFFFFFFFFF MUL NOT AND SWAP1 SSTORE POP POP DUP1 PUSH20 0xFFFFFFFFFFFFFFFFFFFFFFFFFFFFFFFFFFFFFFFF AND PUSH4 0x23B872DD ADDRESS CALLER DUP10 PUSH1 0x40 MLOAD DUP5 PUSH4 0xFFFFFFFF AND PUSH1 0xE0 SHL DUP2 MSTORE PUSH1 0x4 ADD PUSH2 0x6CB SWAP4 SWAP3 SWAP2 SWAP1 PUSH2 0x1E40 JUMP JUMPDEST PUSH1 0x0 PUSH1 0x40 MLOAD DUP1 DUP4 SUB DUP2 PUSH1 0x0 DUP8 DUP1 EXTCODESIZE ISZERO DUP1 ISZERO PUSH2 0x6E5 JUMPI PUSH1 0x0 DUP1 REVERT JUMPDEST POP GAS CALL ISZERO DUP1 ISZERO PUSH2 0x6F9 JUMPI RETURNDATASIZE PUSH1 0x0 DUP1 RETURNDATACOPY RETURNDATASIZE PUSH1 0x0 REVERT JUMPDEST POP POP POP POP DUP6 DUP8 PUSH20 0xFFFFFFFFFFFFFFFFFFFFFFFFFFFFFFFFFFFFFFFF AND PUSH32 0x57897076B3B4DA1E5B44291D2AFA77158945C16A6BB3033421EBD9331D0C6FE4 CALLER DUP7 PUSH1 0x40 MLOAD PUSH2 0x746 SWAP3 SWAP2 SWAP1 PUSH2 0x1F48 JUMP JUMPDEST PUSH1 0x40 MLOAD DUP1 SWAP2 SUB SWAP1 LOG3 POP POP POP POP PUSH1 0x0 PUSH1 0x3 PUSH1 0x0 PUSH2 0x100 EXP DUP2 SLOAD DUP2 PUSH1 0xFF MUL NOT AND SWAP1 DUP4 ISZERO ISZERO MUL OR SWAP1 SSTORE POP POP POP POP JUMP JUMPDEST PUSH1 0x0 PUSH4 0x150B7A02 PUSH1 0xE0 SHL SWAP1 POP SWAP6 SWAP5 POP POP POP POP POP JUMP JUMPDEST PUSH2 0x2710 DUP2 JUMP JUMPDEST PUSH1 0x0 DUP1 PUSH1 0x2 PUSH1 0x0 PUSH2 0x79E DUP7 DUP7 PUSH2 0x15A9 JUMP JUMPDEST DUP2 MSTORE PUSH1 0x20 ADD SWAP1 DUP2 MSTORE PUSH1 0x20 ADD PUSH1 0x0 KECCAK256 SWAP1 POP PUSH1 0x0 DUP2 PUSH1 0x3 ADD PUSH1 0x8 SWAP1 SLOAD SWAP1 PUSH2 0x100 EXP SWAP1 DIV PUSH8 0xFFFFFFFFFFFFFFFF AND PUSH8 0xFFFFFFFFFFFFFFFF AND GT PUSH2 0x813 JUMPI PUSH1 0x40 MLOAD PUSH32 0x8C379A000000000000000000000000000000000000000000000000000000000 DUP2 MSTORE PUSH1 0x4 ADD PUSH2 0x80A SWAP1 PUSH2 0x1CAF JUMP JUMPDEST PUSH1 0x40 MLOAD DUP1 SWAP2 SUB SWAP1 REVERT JUMPDEST PUSH1 0x0 DUP2 PUSH1 0x3 ADD PUSH1 0x8 SWAP1 SLOAD SWAP1 PUSH2 0x100 EXP SWAP1 DIV PUSH8 0xFFFFFFFFFFFFFFFF AND PUSH8 0xFFFFFFFFFFFFFFFF AND TIMESTAMP PUSH2 0x843 SWAP2 SWAP1 PUSH2 0x1E0C JUMP JUMPDEST SWAP1 POP DUP2 PUSH1 0x3 ADD PUSH1 0x0 SWAP1 SLOAD SWAP1 PUSH2 0x100 EXP SWAP1 DIV PUSH8 0xFFFFFFFFFFFFFFFF AND PUSH8 0xFFFFFFFFFFFFFFFF AND DUP2 LT PUSH2 0x8AA JUMPI DUP2 PUSH1 0x2 ADD PUSH1 0x10 SWAP1 SLOAD SWAP1 PUSH2 0x100 EXP SWAP1 DIV PUSH16 0xFFFFFFFFFFFFFFFFFFFFFFFFFFFFFFFF AND PUSH16 0xFFFFFFFFFFFFFFFFFFFFFFFFFFFFFFFF AND SWAP3 POP POP POP PUSH2 0x994 JUMP JUMPDEST DUP2 PUSH1 0x3 ADD PUSH1 0x0 SWAP1 SLOAD SWAP1 PUSH2 0x100 EXP SWAP1 DIV PUSH8 0xFFFFFFFFFFFFFFFF AND PUSH8 0xFFFFFFFFFFFFFFFF AND DUP2 DUP4 PUSH1 0x2 ADD PUSH1 0x10 SWAP1 SLOAD SWAP1 PUSH2 0x100 EXP SWAP1 DIV PUSH16 0xFFFFFFFFFFFFFFFFFFFFFFFFFFFFFFFF AND PUSH16 0xFFFFFFFFFFFFFFFFFFFFFFFFFFFFFFFF AND DUP5 PUSH1 0x2 ADD PUSH1 0x0 SWAP1 SLOAD SWAP1 PUSH2 0x100 EXP SWAP1 DIV PUSH16 0xFFFFFFFFFFFFFFFFFFFFFFFFFFFFFFFF AND PUSH16 0xFFFFFFFFFFFFFFFFFFFFFFFFFFFFFFFF AND PUSH2 0x93E SWAP2 SWAP1 PUSH2 0x1E0C JUMP JUMPDEST PUSH2 0x948 SWAP2 SWAP1 PUSH2 0x1D6A JUMP JUMPDEST PUSH2 0x952 SWAP2 SWAP1 PUSH2 0x1DDB JUMP JUMPDEST DUP3 PUSH1 0x2 ADD PUSH1 0x0 SWAP1 SLOAD SWAP1 PUSH2 0x100 EXP SWAP1 DIV PUSH16 0xFFFFFFFFFFFFFFFFFFFFFFFFFFFFFFFF AND PUSH16 0xFFFFFFFFFFFFFFFFFFFFFFFFFFFFFFFF AND PUSH2 0x98F SWAP2 SWAP1 PUSH2 0x1E0C JUMP JUMPDEST SWAP3 POP POP POP JUMPDEST SWAP3 SWAP2 POP POP JUMP JUMPDEST PUSH1 0x2 PUSH1 0x20 MSTORE DUP1 PUSH1 0x0 MSTORE PUSH1 0x40 PUSH1 0x0 KECCAK256 PUSH1 0x0 SWAP2 POP SWAP1 POP DUP1 PUSH1 0x0 ADD PUSH1 0x0 SWAP1 SLOAD SWAP1 PUSH2 0x100 EXP SWAP1 DIV PUSH20 0xFFFFFFFFFFFFFFFFFFFFFFFFFFFFFFFFFFFFFFFF AND SWAP1 DUP1 PUSH1 0x1 ADD PUSH1 0x0 SWAP1 SLOAD SWAP1 PUSH2 0x100 EXP SWAP1 DIV PUSH20 0xFFFFFFFFFFFFFFFFFFFFFFFFFFFFFFFFFFFFFFFF AND SWAP1 DUP1 PUSH1 0x2 ADD PUSH1 0x0 SWAP1 SLOAD SWAP1 PUSH2 0x100 EXP SWAP1 DIV PUSH16 0xFFFFFFFFFFFFFFFFFFFFFFFFFFFFFFFF AND SWAP1 DUP1 PUSH1 0x2 ADD PUSH1 0x10 SWAP1 SLOAD SWAP1 PUSH2 0x100 EXP SWAP1 DIV PUSH16 0xFFFFFFFFFFFFFFFFFFFFFFFFFFFFFFFF AND SWAP1 DUP1 PUSH1 0x3 ADD PUSH1 0x0 SWAP1 SLOAD SWAP1 PUSH2 0x100 EXP SWAP1 DIV PUSH8 0xFFFFFFFFFFFFFFFF AND SWAP1 DUP1 PUSH1 0x3 ADD PUSH1 0x8 SWAP1 SLOAD SWAP1 PUSH2 0x100 EXP SWAP1 DIV PUSH8 0xFFFFFFFFFFFFFFFF AND SWAP1 POP DUP7 JUMP JUMPDEST PUSH2 0xA7E PUSH2 0x15DC JUMP JUMPDEST PUSH1 0x2 PUSH1 0x0 PUSH2 0xA8C DUP6 DUP6 PUSH2 0x15A9 JUMP JUMPDEST DUP2 MSTORE PUSH1 0x20 ADD SWAP1 DUP2 MSTORE PUSH1 0x20 ADD PUSH1 0x0 KECCAK256 PUSH1 0x40 MLOAD DUP1 PUSH1 0xC0 ADD PUSH1 0x40 MSTORE SWAP1 DUP2 PUSH1 0x0 DUP3 ADD PUSH1 0x0 SWAP1 SLOAD SWAP1 PUSH2 0x100 EXP SWAP1 DIV PUSH20 0xFFFFFFFFFFFFFFFFFFFFFFFFFFFFFFFFFFFFFFFF AND PUSH20 0xFFFFFFFFFFFFFFFFFFFFFFFFFFFFFFFFFFFFFFFF AND PUSH20 0xFFFFFFFFFFFFFFFFFFFFFFFFFFFFFFFFFFFFFFFF AND DUP2 MSTORE PUSH1 0x20 ADD PUSH1 0x1 DUP3 ADD PUSH1 0x0 SWAP1 SLOAD SWAP1 PUSH2 0x100 EXP SWAP1 DIV PUSH20 0xFFFFFFFFFFFFFFFFFFFFFFFFFFFFFFFFFFFFFFFF AND PUSH20 0xFFFFFFFFFFFFFFFFFFFFFFFFFFFFFFFFFFFFFFFF AND PUSH20 0xFFFFFFFFFFFFFFFFFFFFFFFFFFFFFFFFFFFFFFFF AND DUP2 MSTORE PUSH1 0x20 ADD PUSH1 0x2 DUP3 ADD PUSH1 0x0 SWAP1 SLOAD SWAP1 PUSH2 0x100 EXP SWAP1 DIV PUSH16 0xFFFFFFFFFFFFFFFFFFFFFFFFFFFFFFFF AND PUSH16 0xFFFFFFFFFFFFFFFFFFFFFFFFFFFFFFFF AND PUSH16 0xFFFFFFFFFFFFFFFFFFFFFFFFFFFFFFFF AND DUP2 MSTORE PUSH1 0x20 ADD PUSH1 0x2 DUP3 ADD PUSH1 0x10 SWAP1 SLOAD SWAP1 PUSH2 0x100 EXP SWAP1 DIV PUSH16 0xFFFFFFFFFFFFFFFFFFFFFFFFFFFFFFFF AND PUSH16 0xFFFFFFFFFFFFFFFFFFFFFFFFFFFFFFFF AND PUSH16 0xFFFFFFFFFFFFFFFFFFFFFFFFFFFFFFFF AND DUP2 MSTORE PUSH1 0x20 ADD PUSH1 0x3 DUP3 ADD PUSH1 0x0 SWAP1 SLOAD SWAP1 PUSH2 0x100 EXP SWAP1 DIV PUSH8 0xFFFFFFFFFFFFFFFF AND PUSH8 0xFFFFFFFFFFFFFFFF AND PUSH8 0xFFFFFFFFFFFFFFFF AND DUP2 MSTORE PUSH1 0x20 ADD PUSH1 0x3 DUP3 ADD PUSH1 0x8 SWAP1 SLOAD SWAP1 PUSH2 0x100 EXP SWAP1 DIV PUSH8 0xFFFFFFFFFFFFFFFF AND PUSH8 0xFFFFFFFFFFFFFFFF AND PUSH8 0xFFFFFFFFFFFFFFFF AND DUP2 MSTORE POP POP SWAP1 POP SWAP3 SWAP2 POP POP JUMP JUMPDEST PUSH1 0x1 PUSH1 0x0 SWAP1 SLOAD SWAP1 PUSH2 0x100 EXP SWAP1 DIV PUSH20 0xFFFFFFFFFFFFFFFFFFFFFFFFFFFFFFFFFFFFFFFF AND DUP2 JUMP JUMPDEST PUSH1 0x3 PUSH1 0x0 SWAP1 SLOAD SWAP1 PUSH2 0x100 EXP SWAP1 DIV PUSH1 0xFF AND ISZERO PUSH2 0xCC7 JUMPI PUSH1 0x40 MLOAD PUSH32 0x8C379A000000000000000000000000000000000000000000000000000000000 DUP2 MSTORE PUSH1 0x4 ADD PUSH2 0xCBE SWAP1 PUSH2 0x1C43 JUMP JUMPDEST PUSH1 0x40 MLOAD DUP1 SWAP2 SUB SWAP1 REVERT JUMPDEST PUSH1 0x1 PUSH1 0x3 PUSH1 0x0 PUSH2 0x100 EXP DUP2 SLOAD DUP2 PUSH1 0xFF MUL NOT AND SWAP1 DUP4 ISZERO ISZERO MUL OR SWAP1 SSTORE POP PUSH1 0x0 PUSH1 0x2 PUSH1 0x0 PUSH2 0xCF2 DUP6 DUP6 PUSH2 0x15A9 JUMP JUMPDEST DUP2 MSTORE PUSH1 0x20 ADD SWAP1 DUP2 MSTORE PUSH1 0x20 ADD PUSH1 0x0 KECCAK256 SWAP1 POP PUSH1 0x0 DUP2 PUSH1 0x3 ADD PUSH1 0x8 SWAP1 SLOAD SWAP1 PUSH2 0x100 EXP SWAP1 DIV PUSH8 0xFFFFFFFFFFFFFFFF AND PUSH8 0xFFFFFFFFFFFFFFFF AND GT PUSH2 0xD67 JUMPI PUSH1 0x40 MLOAD PUSH32 0x8C379A000000000000000000000000000000000000000000000000000000000 DUP2 MSTORE PUSH1 0x4 ADD PUSH2 0xD5E SWAP1 PUSH2 0x1CAF JUMP JUMPDEST PUSH1 0x40 MLOAD DUP1 SWAP2 SUB SWAP1 REVERT JUMPDEST CALLER PUSH20 0xFFFFFFFFFFFFFFFFFFFFFFFFFFFFFFFFFFFFFFFF AND DUP2 PUSH1 0x1 ADD PUSH1 0x0 SWAP1 SLOAD SWAP1 PUSH2 0x100 EXP SWAP1 DIV PUSH20 0xFFFFFFFFFFFFFFFFFFFFFFFFFFFFFFFFFFFFFFFF AND PUSH20 0xFFFFFFFFFFFFFFFFFFFFFFFFFFFFFFFFFFFFFFFF AND EQ DUP1 PUSH2 0xE10 JUMPI POP PUSH1 0x0 DUP1 SLOAD SWAP1 PUSH2 0x100 EXP SWAP1 DIV PUSH20 0xFFFFFFFFFFFFFFFFFFFFFFFFFFFFFFFFFFFFFFFF AND PUSH20 0xFFFFFFFFFFFFFFFFFFFFFFFFFFFFFFFFFFFFFFFF AND CALLER PUSH20 0xFFFFFFFFFFFFFFFFFFFFFFFFFFFFFFFFFFFFFFFF AND EQ JUMPDEST PUSH2 0xE4F JUMPI PUSH1 0x40 MLOAD PUSH32 0x8C379A000000000000000000000000000000000000000000000000000000000 DUP2 MSTORE PUSH1 0x4 ADD PUSH2 0xE46 SWAP1 PUSH2 0x1FBD JUMP JUMPDEST PUSH1 0x40 MLOAD DUP1 SWAP2 SUB SWAP1 REVERT JUMPDEST PUSH1 0x0 DUP2 PUSH1 0x1 ADD PUSH1 0x0 SWAP1 SLOAD SWAP1 PUSH2 0x100 EXP SWAP1 DIV PUSH20 0xFFFFFFFFFFFFFFFFFFFFFFFFFFFFFFFFFFFFFFFF AND SWAP1 POP PUSH1 0x0 DUP3 PUSH1 0x0 ADD PUSH1 0x0 SWAP1 SLOAD SWAP1 PUSH2 0x100 EXP SWAP1 DIV PUSH20 0xFFFFFFFFFFFFFFFFFFFFFFFFFFFFFFFFFFFFFFFF AND SWAP1 POP PUSH1 0x2 PUSH1 0x0 PUSH2 0xEAF DUP8 DUP8 PUSH2 0x15A9 JUMP JUMPDEST DUP2 MSTORE PUSH1 0x20 ADD SWAP1 DUP2 MSTORE PUSH1 0x20 ADD PUSH1 0x0 KECCAK256 PUSH1 0x0 DUP1 DUP3 ADD PUSH1 0x0 PUSH2 0x100 EXP DUP2 SLOAD SWAP1 PUSH20 0xFFFFFFFFFFFFFFFFFFFFFFFFFFFFFFFFFFFFFFFF MUL NOT AND SWAP1 SSTORE PUSH1 0x1 DUP3 ADD PUSH1 0x0 PUSH2 0x100 EXP DUP2 SLOAD SWAP1 PUSH20 0xFFFFFFFFFFFFFFFFFFFFFFFFFFFFFFFFFFFFFFFF MUL NOT AND SWAP1 SSTORE PUSH1 0x2 DUP3 ADD PUSH1 0x0 PUSH2 0x100 EXP DUP2 SLOAD SWAP1 PUSH16 0xFFFFFFFFFFFFFFFFFFFFFFFFFFFFFFFF MUL NOT AND SWAP1 SSTORE PUSH1 0x2 DUP3 ADD PUSH1 0x10 PUSH2 0x100 EXP DUP2 SLOAD SWAP1 PUSH16 0xFFFFFFFFFFFFFFFFFFFFFFFFFFFFFFFF MUL NOT AND SWAP1 SSTORE PUSH1 0x3 DUP3 ADD PUSH1 0x0 PUSH2 0x100 EXP DUP2 SLOAD SWAP1 PUSH8 0xFFFFFFFFFFFFFFFF MUL NOT AND SWAP1 SSTORE PUSH1 0x3 DUP3 ADD PUSH1 0x8 PUSH2 0x100 EXP DUP2 SLOAD SWAP1 PUSH8 0xFFFFFFFFFFFFFFFF MUL NOT AND SWAP1 SSTORE POP POP DUP1 PUSH20 0xFFFFFFFFFFFFFFFFFFFFFFFFFFFFFFFFFFFFFFFF AND PUSH4 0x23B872DD ADDRESS DUP5 DUP8 PUSH1 0x40 MLOAD DUP5 PUSH4 0xFFFFFFFF AND PUSH1 0xE0 SHL DUP2 MSTORE PUSH1 0x4 ADD PUSH2 0xFC7 SWAP4 SWAP3 SWAP2 SWAP1 PUSH2 0x1E40 JUMP JUMPDEST PUSH1 0x0 PUSH1 0x40 MLOAD DUP1 DUP4 SUB DUP2 PUSH1 0x0 DUP8 DUP1 EXTCODESIZE ISZERO DUP1 ISZERO PUSH2 0xFE1 JUMPI PUSH1 0x0 DUP1 REVERT JUMPDEST POP GAS CALL ISZERO DUP1 ISZERO PUSH2 0xFF5 JUMPI RETURNDATASIZE PUSH1 0x0 DUP1 RETURNDATACOPY RETURNDATASIZE PUSH1 0x0 REVERT JUMPDEST POP POP POP POP DUP4 DUP6 PUSH20 0xFFFFFFFFFFFFFFFFFFFFFFFFFFFFFFFFFFFFFFFF AND PUSH32 0x18B64B6242D32AA550E95D78985B938D71AF5B3F10827B0683F55DA16393048 PUSH1 0x40 MLOAD PUSH1 0x40 MLOAD DUP1 SWAP2 SUB SWAP1 LOG3 POP POP POP PUSH1 0x0 PUSH1 0x3 PUSH1 0x0 PUSH2 0x100 EXP DUP2 SLOAD DUP2 PUSH1 0xFF MUL NOT AND SWAP1 DUP4 ISZERO ISZERO MUL OR SWAP1 SSTORE POP POP POP JUMP JUMPDEST PUSH1 0x0 DUP1 SLOAD SWAP1 PUSH2 0x100 EXP SWAP1 DIV PUSH20 0xFFFFFFFFFFFFFFFFFFFFFFFFFFFFFFFFFFFFFFFF AND DUP2 JUMP JUMPDEST PUSH2 0x190 DUP2 JUMP JUMPDEST PUSH1 0x3 PUSH1 0x0 SWAP1 SLOAD SWAP1 PUSH2 0x100 EXP SWAP1 DIV PUSH1 0xFF AND ISZERO PUSH2 0x10D9 JUMPI PUSH1 0x40 MLOAD PUSH32 0x8C379A000000000000000000000000000000000000000000000000000000000 DUP2 MSTORE PUSH1 0x4 ADD PUSH2 0x10D0 SWAP1 PUSH2 0x1C43 JUMP JUMPDEST PUSH1 0x40 MLOAD DUP1 SWAP2 SUB SWAP1 REVERT JUMPDEST PUSH1 0x1 PUSH1 0x3 PUSH1 0x0 PUSH2 0x100 EXP DUP2 SLOAD DUP2 PUSH1 0xFF MUL NOT AND SWAP1 DUP4 ISZERO ISZERO MUL OR SWAP1 SSTORE POP CALLER PUSH20 0xFFFFFFFFFFFFFFFFFFFFFFFFFFFFFFFFFFFFFFFF AND DUP6 PUSH20 0xFFFFFFFFFFFFFFFFFFFFFFFFFFFFFFFFFFFFFFFF AND PUSH4 0x6352211E DUP7 PUSH1 0x40 MLOAD DUP3 PUSH4 0xFFFFFFFF AND PUSH1 0xE0 SHL DUP2 MSTORE PUSH1 0x4 ADD PUSH2 0x1144 SWAP2 SWAP1 PUSH2 0x18B9 JUMP JUMPDEST PUSH1 0x20 PUSH1 0x40 MLOAD DUP1 DUP4 SUB DUP2 DUP7 GAS STATICCALL ISZERO DUP1 ISZERO PUSH2 0x1161 JUMPI RETURNDATASIZE PUSH1 0x0 DUP1 RETURNDATACOPY RETURNDATASIZE PUSH1 0x0 REVERT JUMPDEST POP POP POP POP PUSH1 0x40 MLOAD RETURNDATASIZE PUSH1 0x1F NOT PUSH1 0x1F DUP3 ADD AND DUP3 ADD DUP1 PUSH1 0x40 MSTORE POP DUP2 ADD SWAP1 PUSH2 0x1185 SWAP2 SWAP1 PUSH2 0x1FF2 JUMP JUMPDEST PUSH20 0xFFFFFFFFFFFFFFFFFFFFFFFFFFFFFFFFFFFFFFFF AND EQ PUSH2 0x11DB JUMPI PUSH1 0x40 MLOAD PUSH32 0x8C379A000000000000000000000000000000000000000000000000000000000 DUP2 MSTORE PUSH1 0x4 ADD PUSH2 0x11D2 SWAP1 PUSH2 0x206B JUMP JUMPDEST PUSH1 0x40 MLOAD DUP1 SWAP2 SUB SWAP1 REVERT JUMPDEST PUSH1 0x3C DUP2 PUSH8 0xFFFFFFFFFFFFFFFF AND LT ISZERO DUP1 ISZERO PUSH2 0x1203 JUMPI POP PUSH3 0x278D00 DUP2 PUSH8 0xFFFFFFFFFFFFFFFF AND GT ISZERO JUMPDEST PUSH2 0x1242 JUMPI PUSH1 0x40 MLOAD PUSH32 0x8C379A000000000000000000000000000000000000000000000000000000000 DUP2 MSTORE PUSH1 0x4 ADD PUSH2 0x1239 SWAP1 PUSH2 0x20D7 JUMP JUMPDEST PUSH1 0x40 MLOAD DUP1 SWAP2 SUB SWAP1 REVERT JUMPDEST DUP2 PUSH16 0xFFFFFFFFFFFFFFFFFFFFFFFFFFFFFFFF AND DUP4 PUSH16 0xFFFFFFFFFFFFFFFFFFFFFFFFFFFFFFFF AND LT ISZERO PUSH2 0x12A9 JUMPI PUSH1 0x40 MLOAD PUSH32 0x8C379A000000000000000000000000000000000000000000000000000000000 DUP2 MSTORE PUSH1 0x4 ADD PUSH2 0x12A0 SWAP1 PUSH2 0x2143 JUMP JUMPDEST PUSH1 0x40 MLOAD DUP1 SWAP2 SUB SWAP1 REVERT JUMPDEST DUP5 PUSH20 0xFFFFFFFFFFFFFFFFFFFFFFFFFFFFFFFFFFFFFFFF AND PUSH4 0x23B872DD CALLER ADDRESS DUP8 PUSH1 0x40 MLOAD DUP5 PUSH4 0xFFFFFFFF AND PUSH1 0xE0 SHL DUP2 MSTORE PUSH1 0x4 ADD PUSH2 0x12E6 SWAP4 SWAP3 SWAP2 SWAP1 PUSH2 0x1E40 JUMP JUMPDEST PUSH1 0x0 PUSH1 0x40 MLOAD DUP1 DUP4 SUB DUP2 PUSH1 0x0 DUP8 DUP1 EXTCODESIZE ISZERO DUP1 ISZERO PUSH2 0x1300 JUMPI PUSH1 0x0 DUP1 REVERT JUMPDEST POP GAS CALL ISZERO DUP1 ISZERO PUSH2 0x1314 JUMPI RETURNDATASIZE PUSH1 0x0 DUP1 RETURNDATACOPY RETURNDATASIZE PUSH1 0x0 REVERT JUMPDEST POP POP POP POP PUSH1 0x40 MLOAD DUP1 PUSH1 0xC0 ADD PUSH1 0x40 MSTORE DUP1 DUP7 PUSH20 0xFFFFFFFFFFFFFFFFFFFFFFFFFFFFFFFFFFFFFFFF AND DUP2 MSTORE PUSH1 0x20 ADD CALLER PUSH20 0xFFFFFFFFFFFFFFFFFFFFFFFFFFFFFFFFFFFFFFFF AND DUP2 MSTORE PUSH1 0x20 ADD DUP5 PUSH16 0xFFFFFFFFFFFFFFFFFFFFFFFFFFFFFFFF AND DUP2 MSTORE PUSH1 0x20 ADD DUP4 PUSH16 0xFFFFFFFFFFFFFFFFFFFFFFFFFFFFFFFF AND DUP2 MSTORE PUSH1 0x20 ADD DUP3 PUSH8 0xFFFFFFFFFFFFFFFF AND DUP2 MSTORE PUSH1 0x20 ADD TIMESTAMP PUSH8 0xFFFFFFFFFFFFFFFF AND DUP2 MSTORE POP PUSH1 0x2 PUSH1 0x0 PUSH2 0x13B7 DUP9 DUP9 PUSH2 0x15A9 JUMP JUMPDEST DUP2 MSTORE PUSH1 0x20 ADD SWAP1 DUP2 MSTORE PUSH1 0x20 ADD PUSH1 0x0 KECCAK256 PUSH1 0x0 DUP3 ADD MLOAD DUP2 PUSH1 0x0 ADD PUSH1 0x0 PUSH2 0x100 EXP DUP2 SLOAD DUP2 PUSH20 0xFFFFFFFFFFFFFFFFFFFFFFFFFFFFFFFFFFFFFFFF MUL NOT AND SWAP1 DUP4 PUSH20 0xFFFFFFFFFFFFFFFFFFFFFFFFFFFFFFFFFFFFFFFF AND MUL OR SWAP1 SSTORE POP PUSH1 0x20 DUP3 ADD MLOAD DUP2 PUSH1 0x1 ADD PUSH1 0x0 PUSH2 0x100 EXP DUP2 SLOAD DUP2 PUSH20 0xFFFFFFFFFFFFFFFFFFFFFFFFFFFFFFFFFFFFFFFF MUL NOT AND SWAP1 DUP4 PUSH20 0xFFFFFFFFFFFFFFFFFFFFFFFFFFFFFFFFFFFFFFFF AND MUL OR SWAP1 SSTORE POP PUSH1 0x40 DUP3 ADD MLOAD DUP2 PUSH1 0x2 ADD PUSH1 0x0 PUSH2 0x100 EXP DUP2 SLOAD DUP2 PUSH16 0xFFFFFFFFFFFFFFFFFFFFFFFFFFFFFFFF MUL NOT AND SWAP1 DUP4 PUSH16 0xFFFFFFFFFFFFFFFFFFFFFFFFFFFFFFFF AND MUL OR SWAP1 SSTORE POP PUSH1 0x60 DUP3 ADD MLOAD DUP2 PUSH1 0x2 ADD PUSH1 0x10 PUSH2 0x100 EXP DUP2 SLOAD DUP2 PUSH16 0xFFFFFFFFFFFFFFFFFFFFFFFFFFFFFFFF MUL NOT AND SWAP1 DUP4 PUSH16 0xFFFFFFFFFFFFFFFFFFFFFFFFFFFFFFFF AND MUL OR SWAP1 SSTORE POP PUSH1 0x80 DUP3 ADD MLOAD DUP2 PUSH1 0x3 ADD PUSH1 0x0 PUSH2 0x100 EXP DUP2 SLOAD DUP2 PUSH8 0xFFFFFFFFFFFFFFFF MUL NOT AND SWAP1 DUP4 PUSH8 0xFFFFFFFFFFFFFFFF AND MUL OR SWAP1 SSTORE POP PUSH1 0xA0 DUP3 ADD MLOAD DUP2 PUSH1 0x3 ADD PUSH1 0x8 PUSH2 0x100 EXP DUP2 SLOAD DUP2 PUSH8 0xFFFFFFFFFFFFFFFF MUL NOT AND SWAP1 DUP4 PUSH8 0xFFFFFFFFFFFFFFFF AND MUL OR SWAP1 SSTORE POP SWAP1 POP POP DUP4 DUP6 PUSH20 0xFFFFFFFFFFFFFFFFFFFFFFFFFFFFFFFFFFFFFFFF AND PUSH32 0x8C4CCDAE66F6BD029AA7DEF8DF304854941C4067AD2F54516A5418FCEE42F951 CALLER DUP7 DUP7 DUP7 PUSH1 0x40 MLOAD PUSH2 0x157F SWAP5 SWAP4 SWAP3 SWAP2 SWAP1 PUSH2 0x2163 JUMP JUMPDEST PUSH1 0x40 MLOAD DUP1 SWAP2 SUB SWAP1 LOG3 PUSH1 0x0 PUSH1 0x3 PUSH1 0x0 PUSH2 0x100 EXP DUP2 SLOAD DUP2 PUSH1 0xFF MUL NOT AND SWAP1 DUP4 ISZERO ISZERO MUL OR SWAP1 SSTORE POP POP POP POP POP POP JUMP JUMPDEST PUSH1 0x0 DUP3 DUP3 PUSH1 0x40 MLOAD PUSH1 0x20 ADD PUSH2 0x15BE SWAP3 SWAP2 SWAP1 PUSH2 0x2211 JUMP JUMPDEST PUSH1 0x40 MLOAD PUSH1 0x20 DUP2 DUP4 SUB SUB DUP2 MSTORE SWAP1 PUSH1 0x40 MSTORE DUP1 MLOAD SWAP1 PUSH1 0x20 ADD KECCAK256 SWAP1 POP SWAP3 SWAP2 POP POP JUMP JUMPDEST PUSH1 0x40 MLOAD DUP1 PUSH1 0xC0 ADD PUSH1 0x40 MSTORE DUP1 PUSH1 0x0 PUSH20 0xFFFFFFFFFFFFFFFFFFFFFFFFFFFFFFFFFFFFFFFF AND DUP2 MSTORE PUSH1 0x20 ADD PUSH1 0x0 PUSH20 0xFFFFFFFFFFFFFFFFFFFFFFFFFFFFFFFFFFFFFFFF AND DUP2 MSTORE PUSH1 0x20 ADD PUSH1 0x0 PUSH16 0xFFFFFFFFFFFFFFFFFFFFFFFFFFFFFFFF AND DUP2 MSTORE PUSH1 0x20 ADD PUSH1 0x0 PUSH16 0xFFFFFFFFFFFFFFFFFFFFFFFFFFFFFFFF AND DUP2 MSTORE PUSH1 0x20 ADD PUSH1 0x0 PUSH8 0xFFFFFFFFFFFFFFFF AND DUP2 MSTORE PUSH1 0x20 ADD PUSH1 0x0 PUSH8 0xFFFFFFFFFFFFFFFF AND DUP2 MSTORE POP SWAP1 JUMP JUMPDEST PUSH1 0x0 DUP1 REVERT JUMPDEST PUSH1 0x0 DUP1 REVERT JUMPDEST PUSH1 0x0 PUSH20 0xFFFFFFFFFFFFFFFFFFFFFFFFFFFFFFFFFFFFFFFF DUP3 AND SWAP1 POP SWAP2 SWAP1 POP JUMP JUMPDEST PUSH1 0x0 PUSH2 0x16AB DUP3 PUSH2 0x1680 JUMP JUMPDEST SWAP1 POP SWAP2 SWAP1 POP JUMP JUMPDEST PUSH2 0x16BB DUP2 PUSH2 0x16A0 JUMP JUMPDEST DUP2 EQ PUSH2 0x16C6 JUMPI PUSH1 0x0 DUP1 REVERT JUMPDEST POP JUMP JUMPDEST PUSH1 0x0 DUP2 CALLDATALOAD SWAP1 POP PUSH2 0x16D8 DUP2 PUSH2 0x16B2 JUMP JUMPDEST SWAP3 SWAP2 POP POP JUMP JUMPDEST PUSH1 0x0 DUP2 SWAP1 POP SWAP2 SWAP1 POP JUMP JUMPDEST PUSH2 0x16F1 DUP2 PUSH2 0x16DE JUMP JUMPDEST DUP2 EQ PUSH2 0x16FC JUMPI PUSH1 0x0 DUP1 REVERT JUMPDEST POP JUMP JUMPDEST PUSH1 0x0 DUP2 CALLDATALOAD SWAP1 POP PUSH2 0x170E DUP2 PUSH2 0x16E8 JUMP JUMPDEST SWAP3 SWAP2 POP POP JUMP JUMPDEST PUSH1 0x0 DUP1 PUSH1 0x0 PUSH1 0x60 DUP5 DUP7 SUB SLT ISZERO PUSH2 0x172D JUMPI PUSH2 0x172C PUSH2 0x1676 JUMP JUMPDEST JUMPDEST PUSH1 0x0 PUSH2 0x173B DUP7 DUP3 DUP8 ADD PUSH2 0x16C9 JUMP JUMPDEST SWAP4 POP POP PUSH1 0x20 PUSH2 0x174C DUP7 DUP3 DUP8 ADD PUSH2 0x16FF JUMP JUMPDEST SWAP3 POP POP PUSH1 0x40 PUSH2 0x175D DUP7 DUP3 DUP8 ADD PUSH2 0x16FF JUMP JUMPDEST SWAP2 POP POP SWAP3 POP SWAP3 POP SWAP3 JUMP JUMPDEST PUSH1 0x0 DUP1 REVERT JUMPDEST PUSH1 0x0 DUP1 REVERT JUMPDEST PUSH1 0x0 DUP1 REVERT JUMPDEST PUSH1 0x0 DUP1 DUP4 PUSH1 0x1F DUP5 ADD SLT PUSH2 0x178C JUMPI PUSH2 0x178B PUSH2 0x1767 JUMP JUMPDEST JUMPDEST DUP3 CALLDATALOAD SWAP1 POP PUSH8 0xFFFFFFFFFFFFFFFF DUP2 GT ISZERO PUSH2 0x17A9 JUMPI PUSH2 0x17A8 PUSH2 0x176C JUMP JUMPDEST JUMPDEST PUSH1 0x20 DUP4 ADD SWAP2 POP DUP4 PUSH1 0x1 DUP3 MUL DUP4 ADD GT ISZERO PUSH2 0x17C5 JUMPI PUSH2 0x17C4 PUSH2 0x1771 JUMP JUMPDEST JUMPDEST SWAP3 POP SWAP3 SWAP1 POP JUMP JUMPDEST PUSH1 0x0 DUP1 PUSH1 0x0 DUP1 PUSH1 0x0 PUSH1 0x80 DUP7 DUP9 SUB SLT ISZERO PUSH2 0x17E8 JUMPI PUSH2 0x17E7 PUSH2 0x1676 JUMP JUMPDEST JUMPDEST PUSH1 0x0 PUSH2 0x17F6 DUP9 DUP3 DUP10 ADD PUSH2 0x16C9 JUMP JUMPDEST SWAP6 POP POP PUSH1 0x20 PUSH2 0x1807 DUP9 DUP3 DUP10 ADD PUSH2 0x16C9 JUMP JUMPDEST SWAP5 POP POP PUSH1 0x40 PUSH2 0x1818 DUP9 DUP3 DUP10 ADD PUSH2 0x16FF JUMP JUMPDEST SWAP4 POP POP PUSH1 0x60 DUP7 ADD CALLDATALOAD PUSH8 0xFFFFFFFFFFFFFFFF DUP2 GT ISZERO PUSH2 0x1839 JUMPI PUSH2 0x1838 PUSH2 0x167B JUMP JUMPDEST JUMPDEST PUSH2 0x1845 DUP9 DUP3 DUP10 ADD PUSH2 0x1776 JUMP JUMPDEST SWAP3 POP SWAP3 POP POP SWAP3 SWAP6 POP SWAP3 SWAP6 SWAP1 SWAP4 POP JUMP JUMPDEST PUSH1 0x0 PUSH32 0xFFFFFFFF00000000000000000000000000000000000000000000000000000000 DUP3 AND SWAP1 POP SWAP2 SWAP1 POP JUMP JUMPDEST PUSH2 0x1889 DUP2 PUSH2 0x1854 JUMP JUMPDEST DUP3 MSTORE POP POP JUMP JUMPDEST PUSH1 0x0 PUSH1 0x20 DUP3 ADD SWAP1 POP PUSH2 0x18A4 PUSH1 0x0 DUP4 ADD DUP5 PUSH2 0x1880 JUMP JUMPDEST SWAP3 SWAP2 POP POP JUMP JUMPDEST PUSH2 0x18B3 DUP2 PUSH2 0x16DE JUMP JUMPDEST DUP3 MSTORE POP POP JUMP JUMPDEST PUSH1 0x0 PUSH1 0x20 DUP3 ADD SWAP1 POP PUSH2 0x18CE PUSH1 0x0 DUP4 ADD DUP5 PUSH2 0x18AA JUMP JUMPDEST SWAP3 SWAP2 POP POP JUMP JUMPDEST PUSH1 0x0 DUP1 PUSH1 0x40 DUP4 DUP6 SUB SLT ISZERO PUSH2 0x18EB JUMPI PUSH2 0x18EA PUSH2 0x1676 JUMP JUMPDEST JUMPDEST PUSH1 0x0 PUSH2 0x18F9 DUP6 DUP3 DUP7 ADD PUSH2 0x16C9 JUMP JUMPDEST SWAP3 POP POP PUSH1 0x20 PUSH2 0x190A DUP6 DUP3 DUP7 ADD PUSH2 0x16FF JUMP JUMPDEST SWAP2 POP POP SWAP3 POP SWAP3 SWAP1 POP JUMP JUMPDEST PUSH1 0x0 DUP2 SWAP1 POP SWAP2 SWAP1 POP JUMP JUMPDEST PUSH2 0x1927 DUP2 PUSH2 0x1914 JUMP JUMPDEST DUP2 EQ PUSH2 0x1932 JUMPI PUSH1 0x0 DUP1 REVERT JUMPDEST POP JUMP JUMPDEST PUSH1 0x0 DUP2 CALLDATALOAD SWAP1 POP PUSH2 0x1944 DUP2 PUSH2 0x191E JUMP JUMPDEST SWAP3 SWAP2 POP POP JUMP JUMPDEST PUSH1 0x0 PUSH1 0x20 DUP3 DUP5 SUB SLT ISZERO PUSH2 0x1960 JUMPI PUSH2 0x195F PUSH2 0x1676 JUMP JUMPDEST JUMPDEST PUSH1 0x0 PUSH2 0x196E DUP5 DUP3 DUP6 ADD PUSH2 0x1935 JUMP JUMPDEST SWAP2 POP POP SWAP3 SWAP2 POP POP JUMP JUMPDEST PUSH2 0x1980 DUP2 PUSH2 0x16A0 JUMP JUMPDEST DUP3 MSTORE POP POP JUMP JUMPDEST PUSH1 0x0 PUSH16 0xFFFFFFFFFFFFFFFFFFFFFFFFFFFFFFFF DUP3 AND SWAP1 POP SWAP2 SWAP1 POP JUMP JUMPDEST PUSH2 0x19AB DUP2 PUSH2 0x1986 JUMP JUMPDEST DUP3 MSTORE POP POP JUMP JUMPDEST PUSH1 0x0 PUSH8 0xFFFFFFFFFFFFFFFF DUP3 AND SWAP1 POP SWAP2 SWAP1 POP JUMP JUMPDEST PUSH2 0x19CE DUP2 PUSH2 0x19B1 JUMP JUMPDEST DUP3 MSTORE POP POP JUMP JUMPDEST PUSH1 0x0 PUSH1 0xC0 DUP3 ADD SWAP1 POP PUSH2 0x19E9 PUSH1 0x0 DUP4 ADD DUP10 PUSH2 0x1977 JUMP JUMPDEST PUSH2 0x19F6 PUSH1 0x20 DUP4 ADD DUP9 PUSH2 0x1977 JUMP JUMPDEST PUSH2 0x1A03 PUSH1 0x40 DUP4 ADD DUP8 PUSH2 0x19A2 JUMP JUMPDEST PUSH2 0x1A10 PUSH1 0x60 DUP4 ADD DUP7 PUSH2 0x19A2 JUMP JUMPDEST PUSH2 0x1A1D PUSH1 0x80 DUP4 ADD DUP6 PUSH2 0x19C5 JUMP JUMPDEST PUSH2 0x1A2A PUSH1 0xA0 DUP4 ADD DUP5 PUSH2 0x19C5 JUMP JUMPDEST SWAP8 SWAP7 POP POP POP POP POP POP POP JUMP JUMPDEST PUSH2 0x1A3E DUP2 PUSH2 0x16A0 JUMP JUMPDEST DUP3 MSTORE POP POP JUMP JUMPDEST PUSH2 0x1A4D DUP2 PUSH2 0x1986 JUMP JUMPDEST DUP3 MSTORE POP POP JUMP JUMPDEST PUSH2 0x1A5C DUP2 PUSH2 0x19B1 JUMP JUMPDEST DUP3 MSTORE POP POP JUMP JUMPDEST PUSH1 0xC0 DUP3 ADD PUSH1 0x0 DUP3 ADD MLOAD PUSH2 0x1A78 PUSH1 0x0 DUP6 ADD DUP3 PUSH2 0x1A35 JUMP JUMPDEST POP PUSH1 0x20 DUP3 ADD MLOAD PUSH2 0x1A8B PUSH1 0x20 DUP6 ADD DUP3 PUSH2 0x1A35 JUMP JUMPDEST POP PUSH1 0x40 DUP3 ADD MLOAD PUSH2 0x1A9E PUSH1 0x40 DUP6 ADD DUP3 PUSH2 0x1A44 JUMP JUMPDEST POP PUSH1 0x60 DUP3 ADD MLOAD PUSH2 0x1AB1 PUSH1 0x60 DUP6 ADD DUP3 PUSH2 0x1A44 JUMP JUMPDEST POP PUSH1 0x80 DUP3 ADD MLOAD PUSH2 0x1AC4 PUSH1 0x80 DUP6 ADD DUP3 PUSH2 0x1A53 JUMP JUMPDEST POP PUSH1 0xA0 DUP3 ADD MLOAD PUSH2 0x1AD7 PUSH1 0xA0 DUP6 ADD DUP3 PUSH2 0x1A53 JUMP JUMPDEST POP POP POP POP JUMP JUMPDEST PUSH1 0x0 PUSH1 0xC0 DUP3 ADD SWAP1 POP PUSH2 0x1AF2 PUSH1 0x0 DUP4 ADD DUP5 PUSH2 0x1A62 JUMP JUMPDEST SWAP3 SWAP2 POP POP JUMP JUMPDEST PUSH1 0x0 PUSH1 0x20 DUP3 ADD SWAP1 POP PUSH2 0x1B0D PUSH1 0x0 DUP4 ADD DUP5 PUSH2 0x1977 JUMP JUMPDEST SWAP3 SWAP2 POP POP JUMP JUMPDEST PUSH2 0x1B1C DUP2 PUSH2 0x1986 JUMP JUMPDEST DUP2 EQ PUSH2 0x1B27 JUMPI PUSH1 0x0 DUP1 REVERT JUMPDEST POP JUMP JUMPDEST PUSH1 0x0 DUP2 CALLDATALOAD SWAP1 POP PUSH2 0x1B39 DUP2 PUSH2 0x1B13 JUMP JUMPDEST SWAP3 SWAP2 POP POP JUMP JUMPDEST PUSH2 0x1B48 DUP2 PUSH2 0x19B1 JUMP JUMPDEST DUP2 EQ PUSH2 0x1B53 JUMPI PUSH1 0x0 DUP1 REVERT JUMPDEST POP JUMP JUMPDEST PUSH1 0x0 DUP2 CALLDATALOAD SWAP1 POP PUSH2 0x1B65 DUP2 PUSH2 0x1B3F JUMP JUMPDEST SWAP3 SWAP2 POP POP JUMP JUMPDEST PUSH1 0x0 DUP1 PUSH1 0x0 DUP1 PUSH1 0x0 PUSH1 0xA0 DUP7 DUP9 SUB SLT ISZERO PUSH2 0x1B87 JUMPI PUSH2 0x1B86 PUSH2 0x1676 JUMP JUMPDEST JUMPDEST PUSH1 0x0 PUSH2 0x1B95 DUP9 DUP3 DUP10 ADD PUSH2 0x16C9 JUMP JUMPDEST SWAP6 POP POP PUSH1 0x20 PUSH2 0x1BA6 DUP9 DUP3 DUP10 ADD PUSH2 0x16FF JUMP JUMPDEST SWAP5 POP POP PUSH1 0x40 PUSH2 0x1BB7 DUP9 DUP3 DUP10 ADD PUSH2 0x1B2A JUMP JUMPDEST SWAP4 POP POP PUSH1 0x60 PUSH2 0x1BC8 DUP9 DUP3 DUP10 ADD PUSH2 0x1B2A JUMP JUMPDEST SWAP3 POP POP PUSH1 0x80 PUSH2 0x1BD9 DUP9 DUP3 DUP10 ADD PUSH2 0x1B56 JUMP JUMPDEST SWAP2 POP POP SWAP3 SWAP6 POP SWAP3 SWAP6 SWAP1 SWAP4 POP JUMP JUMPDEST PUSH1 0x0 DUP3 DUP3 MSTORE PUSH1 0x20 DUP3 ADD SWAP1 POP SWAP3 SWAP2 POP POP JUMP JUMPDEST PUSH32 0x7265656E7472616E740000000000000000000000000000000000000000000000 PUSH1 0x0 DUP3 ADD MSTORE POP JUMP JUMPDEST PUSH1 0x0 PUSH2 0x1C2D PUSH1 0x9 DUP4 PUSH2 0x1BE6 JUMP JUMPDEST SWAP2 POP PUSH2 0x1C38 DUP3 PUSH2 0x1BF7 JUMP JUMPDEST PUSH1 0x20 DUP3 ADD SWAP1 POP SWAP2 SWAP1 POP JUMP JUMPDEST PUSH1 0x0 PUSH1 0x20 DUP3 ADD SWAP1 POP DUP2 DUP2 SUB PUSH1 0x0 DUP4 ADD MSTORE PUSH2 0x1C5C DUP2 PUSH2 0x1C20 JUMP JUMPDEST SWAP1 POP SWAP2 SWAP1 POP JUMP JUMPDEST PUSH32 0x6E6F2061756374696F6E00000000000000000000000000000000000000000000 PUSH1 0x0 DUP3 ADD MSTORE POP JUMP JUMPDEST PUSH1 0x0 PUSH2 0x1C99 PUSH1 0xA DUP4 PUSH2 0x1BE6 JUMP JUMPDEST SWAP2 POP PUSH2 0x1CA4 DUP3 PUSH2 0x1C63 JUMP JUMPDEST PUSH1 0x20 DUP3 ADD SWAP1 POP SWAP2 SWAP1 POP JUMP JUMPDEST PUSH1 0x0 PUSH1 0x20 DUP3 ADD SWAP1 POP DUP2 DUP2 SUB PUSH1 0x0 DUP4 ADD MSTORE PUSH2 0x1CC8 DUP2 PUSH2 0x1C8C JUMP JUMPDEST SWAP1 POP SWAP2 SWAP1 POP JUMP JUMPDEST PUSH32 0x746F6F206C6F7700000000000000000000000000000000000000000000000000 PUSH1 0x0 DUP3 ADD MSTORE POP JUMP JUMPDEST PUSH1 0x0 PUSH2 0x1D05 PUSH1 0x7 DUP4 PUSH2 0x1BE6 JUMP JUMPDEST SWAP2 POP PUSH2 0x1D10 DUP3 PUSH2 0x1CCF JUMP JUMPDEST PUSH1 0x20 DUP3 ADD SWAP1 POP SWAP2 SWAP1 POP JUMP JUMPDEST PUSH1 0x0 PUSH1 0x20 DUP3 ADD SWAP1 POP DUP2 DUP2 SUB PUSH1 0x0 DUP4 ADD MSTORE PUSH2 0x1D34 DUP2 PUSH2 0x1CF8 JUMP JUMPDEST SWAP1 POP SWAP2 SWAP1 POP JUMP JUMPDEST PUSH32 0x4E487B7100000000000000000000000000000000000000000000000000000000 PUSH1 0x0 MSTORE PUSH1 0x11 PUSH1 0x4 MSTORE PUSH1 0x24 PUSH1 0x0 REVERT JUMPDEST PUSH1 0x0 PUSH2 0x1D75 DUP3 PUSH2 0x16DE JUMP JUMPDEST SWAP2 POP PUSH2 0x1D80 DUP4 PUSH2 0x16DE JUMP JUMPDEST SWAP3 POP DUP3 DUP3 MUL PUSH2 0x1D8E DUP2 PUSH2 0x16DE JUMP JUMPDEST SWAP2 POP DUP3 DUP3 DIV DUP5 EQ DUP4 ISZERO OR PUSH2 0x1DA5 JUMPI PUSH2 0x1DA4 PUSH2 0x1D3B JUMP JUMPDEST JUMPDEST POP SWAP3 SWAP2 POP POP JUMP JUMPDEST PUSH32 0x4E487B7100000000000000000000000000000000000000000000000000000000 PUSH1 0x0 MSTORE PUSH1 0x12 PUSH1 0x4 MSTORE PUSH1 0x24 PUSH1 0x0 REVERT JUMPDEST PUSH1 0x0 PUSH2 0x1DE6 DUP3 PUSH2 0x16DE JUMP JUMPDEST SWAP2 POP PUSH2 0x1DF1 DUP4 PUSH2 0x16DE JUMP JUMPDEST SWAP3 POP DUP3 PUSH2 0x1E01 JUMPI PUSH2 0x1E00 PUSH2 0x1DAC JUMP JUMPDEST JUMPDEST DUP3 DUP3 DIV SWAP1 POP SWAP3 SWAP2 POP POP JUMP JUMPDEST PUSH1 0x0 PUSH2 0x1E17 DUP3 PUSH2 0x16DE JUMP JUMPDEST SWAP2 POP PUSH2 0x1E22 DUP4 PUSH2 0x16DE JUMP JUMPDEST SWAP3 POP DUP3 DUP3 SUB SWAP1 POP DUP2 DUP2 GT ISZERO PUSH2 0x1E3A JUMPI PUSH2 0x1E39 PUSH2 0x1D3B JUMP JUMPDEST JUMPDEST SWAP3 SWAP2 POP POP JUMP JUMPDEST PUSH1 0x0 PUSH1 0x60 DUP3 ADD SWAP1 POP PUSH2 0x1E55 PUSH1 0x0 DUP4 ADD DUP7 PUSH2 0x1977 JUMP JUMPDEST PUSH2 0x1E62 PUSH1 0x20 DUP4 ADD DUP6 PUSH2 0x1977 JUMP JUMPDEST PUSH2 0x1E6F PUSH1 0x40 DUP4 ADD DUP5 PUSH2 0x18AA JUMP JUMPDEST SWAP5 SWAP4 POP POP POP POP JUMP JUMPDEST PUSH1 0x0 DUP2 ISZERO ISZERO SWAP1 POP SWAP2 SWAP1 POP JUMP JUMPDEST PUSH2 0x1E8C DUP2 PUSH2 0x1E77 JUMP JUMPDEST DUP2 EQ PUSH2 0x1E97 JUMPI PUSH1 0x0 DUP1 REVERT JUMPDEST POP JUMP JUMPDEST PUSH1 0x0 DUP2 MLOAD SWAP1 POP PUSH2 0x1EA9 DUP2 PUSH2 0x1E83 JUMP JUMPDEST SWAP3 SWAP2 POP POP JUMP JUMPDEST PUSH1 0x0 PUSH1 0x20 DUP3 DUP5 SUB SLT ISZERO PUSH2 0x1EC5 JUMPI PUSH2 0x1EC4 PUSH2 0x1676 JUMP JUMPDEST JUMPDEST PUSH1 0x0 PUSH2 0x1ED3 DUP5 DUP3 DUP6 ADD PUSH2 0x1E9A JUMP JUMPDEST SWAP2 POP POP SWAP3 SWAP2 POP POP JUMP JUMPDEST PUSH32 0x72696E6700000000000000000000000000000000000000000000000000000000 PUSH1 0x0 DUP3 ADD MSTORE POP JUMP JUMPDEST PUSH1 0x0 PUSH2 0x1F12 PUSH1 0x4 DUP4 PUSH2 0x1BE6 JUMP JUMPDEST SWAP2 POP PUSH2 0x1F1D DUP3 PUSH2 0x1EDC JUMP JUMPDEST PUSH1 0x20 DUP3 ADD SWAP1 POP SWAP2 SWAP1 POP JUMP JUMPDEST PUSH1 0x0 PUSH1 0x20 DUP3 ADD SWAP1 POP DUP2 DUP2 SUB PUSH1 0x0 DUP4 ADD MSTORE PUSH2 0x1F41 DUP2 PUSH2 0x1F05 JUMP JUMPDEST SWAP1 POP SWAP2 SWAP1 POP JUMP JUMPDEST PUSH1 0x0 PUSH1 0x40 DUP3 ADD SWAP1 POP PUSH2 0x1F5D PUSH1 0x0 DUP4 ADD DUP6 PUSH2 0x1977 JUMP JUMPDEST PUSH2 0x1F6A PUSH1 0x20 DUP4 ADD DUP5 PUSH2 0x18AA JUMP JUMPDEST SWAP4 SWAP3 POP POP POP JUMP JUMPDEST PUSH32 0x2161757468000000000000000000000000000000000000000000000000000000 PUSH1 0x0 DUP3 ADD MSTORE POP JUMP JUMPDEST PUSH1 0x0 PUSH2 0x1FA7 PUSH1 0x5 DUP4 PUSH2 0x1BE6 JUMP JUMPDEST SWAP2 POP PUSH2 0x1FB2 DUP3 PUSH2 0x1F71 JUMP JUMPDEST PUSH1 0x20 DUP3 ADD SWAP1 POP SWAP2 SWAP1 POP JUMP JUMPDEST PUSH1 0x0 PUSH1 0x20 DUP3 ADD SWAP1 POP DUP2 DUP2 SUB PUSH1 0x0 DUP4 ADD MSTORE PUSH2 0x1FD6 DUP2 PUSH2 0x1F9A JUMP JUMPDEST SWAP1 POP SWAP2 SWAP1 POP JUMP JUMPDEST PUSH1 0x0 DUP2 MLOAD SWAP1 POP PUSH2 0x1FEC DUP2 PUSH2 0x16B2 JUMP JUMPDEST SWAP3 SWAP2 POP POP JUMP JUMPDEST PUSH1 0x0 PUSH1 0x20 DUP3 DUP5 SUB SLT ISZERO PUSH2 0x2008 JUMPI PUSH2 0x2007 PUSH2 0x1676 JUMP JUMPDEST JUMPDEST PUSH1 0x0 PUSH2 0x2016 DUP5 DUP3 DUP6 ADD PUSH2 0x1FDD JUMP JUMPDEST SWAP2 POP POP SWAP3 SWAP2 POP POP JUMP JUMPDEST PUSH32 0x216F776E65720000000000000000000000000000000000000000000000000000 PUSH1 0x0 DUP3 ADD MSTORE POP JUMP JUMPDEST PUSH1 0x0 PUSH2 0x2055 PUSH1 0x6 DUP4 PUSH2 0x1BE6 JUMP JUMPDEST SWAP2 POP PUSH2 0x2060 DUP3 PUSH2 0x201F JUMP JUMPDEST PUSH1 0x20 DUP3 ADD SWAP1 POP SWAP2 SWAP1 POP JUMP JUMPDEST PUSH1 0x0 PUSH1 0x20 DUP3 ADD SWAP1 POP DUP2 DUP2 SUB PUSH1 0x0 DUP4 ADD MSTORE PUSH2 0x2084 DUP2 PUSH2 0x2048 JUMP JUMPDEST SWAP1 POP SWAP2 SWAP1 POP JUMP JUMPDEST PUSH32 0x6261642064757200000000000000000000000000000000000000000000000000 PUSH1 0x0 DUP3 ADD MSTORE POP JUMP JUMPDEST PUSH1 0x0 PUSH2 0x20C1 PUSH1 0x7 DUP4 PUSH2 0x1BE6 JUMP JUMPDEST SWAP2 POP PUSH2 0x20CC DUP3 PUSH2 0x208B JUMP JUMPDEST PUSH1 0x20 DUP3 ADD SWAP1 POP SWAP2 SWAP1 POP JUMP JUMPDEST PUSH1 0x0 PUSH1 0x20 DUP3 ADD SWAP1 POP DUP2 DUP2 SUB PUSH1 0x0 DUP4 ADD MSTORE PUSH2 0x20F0 DUP2 PUSH2 0x20B4 JUMP JUMPDEST SWAP1 POP SWAP2 SWAP1 POP JUMP JUMPDEST PUSH32 0x73703C6570000000000000000000000000000000000000000000000000000000 PUSH1 0x0 DUP3 ADD MSTORE POP JUMP JUMPDEST PUSH1 0x0 PUSH2 0x212D PUSH1 0x5 DUP4 PUSH2 0x1BE6 JUMP JUMPDEST SWAP2 POP PUSH2 0x2138 DUP3 PUSH2 0x20F7 JUMP JUMPDEST PUSH1 0x20 DUP3 ADD SWAP1 POP SWAP2 SWAP1 POP JUMP JUMPDEST PUSH1 0x0 PUSH1 0x20 DUP3 ADD SWAP1 POP DUP2 DUP2 SUB PUSH1 0x0 DUP4 ADD MSTORE PUSH2 0x215C DUP2 PUSH2 0x2120 JUMP JUMPDEST SWAP1 POP SWAP2 SWAP1 POP JUMP JUMPDEST PUSH1 0x0 PUSH1 0x80 DUP3 ADD SWAP1 POP PUSH2 0x2178 PUSH1 0x0 DUP4 ADD DUP8 PUSH2 0x1977 JUMP JUMPDEST PUSH2 0x2185 PUSH1 0x20 DUP4 ADD DUP7 PUSH2 0x19A2 JUMP JUMPDEST PUSH2 0x2192 PUSH1 0x40 DUP4 ADD DUP6 PUSH2 0x19A2 JUMP JUMPDEST PUSH2 0x219F PUSH1 0x60 DUP4 ADD DUP5 PUSH2 0x19C5 JUMP JUMPDEST SWAP6 SWAP5 POP POP POP POP POP JUMP JUMPDEST PUSH1 0x0 DUP2 PUSH1 0x60 SHL SWAP1 POP SWAP2 SWAP1 POP JUMP JUMPDEST PUSH1 0x0 PUSH2 0x21C0 DUP3 PUSH2 0x21A8 JUMP JUMPDEST SWAP1 POP SWAP2 SWAP1 POP JUMP JUMPDEST PUSH1 0x0 PUSH2 0x21D2 DUP3 PUSH2 0x21B5 JUMP JUMPDEST SWAP1 POP SWAP2 SWAP1 POP JUMP JUMPDEST PUSH2 0x21EA PUSH2 0x21E5 DUP3 PUSH2 0x16A0 JUMP JUMPDEST PUSH2 0x21C7 JUMP JUMPDEST DUP3 MSTORE POP POP JUMP JUMPDEST PUSH1 0x0 DUP2 SWAP1 POP SWAP2 SWAP1 POP JUMP JUMPDEST PUSH2 0x220B PUSH2 0x2206 DUP3 PUSH2 0x16DE JUMP JUMPDEST PUSH2 0x21F0 JUMP JUMPDEST DUP3 MSTORE POP POP JUMP JUMPDEST PUSH1 0x0 PUSH2 0x221D DUP3 DUP6 PUSH2 0x21D9 JUMP JUMPDEST PUSH1 0x14 DUP3 ADD SWAP2 POP PUSH2 0x222D DUP3 DUP5 PUSH2 0x21FA JUMP JUMPDEST PUSH1 0x20 DUP3 ADD SWAP2 POP DUP2 SWAP1 POP SWAP4 SWAP3 POP POP POP JUMP INVALID LOG2 PUSH5 0x6970667358 0x22 SLT KECCAK256 0xC5 CHAINID BLOCKHASH SWAP1 0xC9 SELFDESTRUCT 0xF7 PUSH5 0x6D7A329651 DUP4 0xD 0x26 0xE7 CALLVALUE PUSH22 0x66BDC895BDBDC0F1E54DF5A2A064736F6C6343000814 STOP CALLER "},"methodIdentifiers":{"BPS()":"249d39e9","FEE_BPS()":"bf333f2c","auctionMap(bytes32)":"671d1817","bid(address,uint256,uint256)":"0f41ba4b","cancelAuction(address,uint256)":"859b97fe","createAuction(address,uint256,uint128,uint128,uint64)":"d1a6add6","currentPrice(address,uint256)":"2fb3905a","getAuction(address,uint256)":"762a66a2","onERC721Received(address,address,uint256,bytes)":"150b7a02","owner()":"8da5cb5b","ring()":"8360c185"}}}}}