{
  "_format": "hh-sol-artifact-1",
  "contractName": "LandMeta",
  "sourceName": "contracts/LandMeta.sol",
  "abi": [
    {
      "inputs": [
        {
          "internalType": "address",
          "name": "_land",
          "type": "address"
        }
      ],
      "stateMutability": "nonpayable",
      "type": "constructor"
    },
    {
      "anonymous": false,
      "inputs": [
        {
          "indexed": true,
          "internalType": "uint256",
          "name": "landId",
          "type": "uint256"
        },
        {
          "indexed": true,
          "internalType": "address",
          "name": "owner",
          "type": "address"
        },
        {
          "indexed": false,
          "internalType": "string",
          "name": "avatarUrl",
          "type": "string"
        },
        {
          "indexed": false,
          "internalType": "string",
          "name": "description",
          "type": "string"
        }
      ],
      "name": "MetaUpdated",
      "type": "event"
    },
    {
      "inputs": [
        {
          "internalType": "uint256[]",
          "name": "landIds",
          "type": "uint256[]"
        }
      ],
      "name": "getMetaBatch",
      "outputs": [
        {
          "components": [
            {
              "internalType": "string",
              "name": "avatarUrl",
              "type": "string"
            },
            {
              "internalType": "string",
              "name": "description",
              "type": "string"
            },
            {
              "internalType": "uint64",
              "name": "updatedAt",
              "type": "uint64"
            }
          ],
          "internalType": "struct LandMeta.Meta[]",
          "name": "result",
          "type": "tuple[]"
        }
      ],
      "stateMutability": "view",
      "type": "function"
    },
    {
      "inputs": [],
      "name": "land",
      "outputs": [
        {
          "internalType": "contract ILandNFT",
          "name": "",
          "type": "address"
        }
      ],
      "stateMutability": "view",
      "type": "function"
    },
    {
      "inputs": [
        {
          "internalType": "uint256",
          "name": "",
          "type": "uint256"
        }
      ],
      "name": "metas",
      "outputs": [
        {
          "internalType": "string",
          "name": "avatarUrl",
          "type": "string"
        },
        {
          "internalType": "string",
          "name": "description",
          "type": "string"
        },
        {
          "internalType": "uint64",
          "name": "updatedAt",
          "type": "uint64"
        }
      ],
      "stateMutability": "view",
      "type": "function"
    },
    {
      "inputs": [
        {
          "internalType": "uint256",
          "name": "landId",
          "type": "uint256"
        },
        {
          "internalType": "string",
          "name": "avatarUrl",
          "type": "string"
        },
        {
          "internalType": "string",
          "name": "description",
          "type": "string"
        }
      ],
      "name": "setMeta",
      "outputs": [],
      "stateMutability": "nonpayable",
      "type": "function"
    }
  ],
  "bytecode": "0x60a06040523480156200001157600080fd5b5060405162001457380380620014578339818101604052810190620000379190620000dc565b8073ffffffffffffffffffffffffffffffffffffffff1660808173ffffffffffffffffffffffffffffffffffffffff1681525050506200010e565b600080fd5b600073ffffffffffffffffffffffffffffffffffffffff82169050919050565b6000620000a48262000077565b9050919050565b620000b68162000097565b8114620000c257600080fd5b50565b600081519050620000d681620000ab565b92915050565b600060208284031215620000f557620000f462000072565b5b60006200010584828501620000c5565b91505092915050565b6080516113266200013160003960008181610481015261077a01526113266000f3fe608060405234801561001057600080fd5b506004361061004c5760003560e01c8063277ecfbb14610051578063442d445c146100835780637ad7b107146100b35780638c980129146100cf575b600080fd5b61006b60048036038101906100669190610807565b6100ed565b60405161007a939291906108e7565b60405180910390f35b61009d60048036038101906100989190610991565b61023b565b6040516100aa9190610b50565b60405180910390f35b6100cd60048036038101906100c89190610bc8565b610468565b005b6100d7610778565b6040516100e49190610cdc565b60405180910390f35b600060205280600052604060002060009150905080600001805461011090610d26565b80601f016020809104026020016040519081016040528092919081815260200182805461013c90610d26565b80156101895780601f1061015e57610100808354040283529160200191610189565b820191906000526020600020905b81548152906001019060200180831161016c57829003601f168201915b50505050509080600101805461019e90610d26565b80601f01602080910402602001604051908101604052809291908181526020018280546101ca90610d26565b80156102175780601f106101ec57610100808354040283529160200191610217565b820191906000526020600020905b8154815290600101906020018083116101fa57829003601f168201915b5050505050908060020160009054906101000a900467ffffffffffffffff16905083565b60608282905067ffffffffffffffff81111561025a57610259610d57565b5b60405190808252806020026020018201604052801561029357816020015b61028061079c565b8152602001906001900390816102785790505b50905060005b83839050811015610461576000808585848181106102ba576102b9610d86565b5b9050602002013581526020019081526020016000206040518060600160405290816000820180546102ea90610d26565b80601f016020809104026020016040519081016040528092919081815260200182805461031690610d26565b80156103635780601f1061033857610100808354040283529160200191610363565b820191906000526020600020905b81548152906001019060200180831161034657829003601f168201915b5050505050815260200160018201805461037c90610d26565b80601f01602080910402602001604051908101604052809291908181526020018280546103a890610d26565b80156103f55780601f106103ca576101008083540402835291602001916103f5565b820191906000526020600020905b8154815290600101906020018083116103d857829003601f168201915b505050505081526020016002820160009054906101000a900467ffffffffffffffff1667ffffffffffffffff1667ffffffffffffffff168152505082828151811061044357610442610d86565b5b6020026020010181905250808061045990610de4565b915050610299565b5092915050565b3373ffffffffffffffffffffffffffffffffffffffff167f000000000000000000000000000000000000000000000000000000000000000073ffffffffffffffffffffffffffffffffffffffff16636352211e876040518263ffffffff1660e01b81526004016104d89190610e3b565b602060405180830381865afa1580156104f5573d6000803e3d6000fd5b505050506040513d601f19601f820116820180604052508101906105199190610e94565b73ffffffffffffffffffffffffffffffffffffffff161461056f576040517f08c379a000000000000000000000000000000000000000000000000000000000815260040161056690610f0d565b60405180910390fd5b6101008484905011156105b7576040517f08c379a00000000000000000000000000000000000000000000000000000000081526004016105ae90610f79565b60405180910390fd5b6103e88282905011156105ff576040517f08c379a00000000000000000000000000000000000000000000000000000000081526004016105f690610fe5565b60405180910390fd5b604051806060016040528085858080601f016020809104026020016040519081016040528093929190818152602001838380828437600081840152601f19601f82011690508083019250505050505050815260200183838080601f016020809104026020016040519081016040528093929190818152602001838380828437600081840152601f19601f8201169050808301925050505050505081526020014267ffffffffffffffff1681525060008087815260200190815260200160002060008201518160000190816106d391906111a7565b5060208201518160010190816106e991906111a7565b5060408201518160020160006101000a81548167ffffffffffffffff021916908367ffffffffffffffff1602179055509050503373ffffffffffffffffffffffffffffffffffffffff16857f7029fbaf7e90689131e9f7a5f0b6d30ab6afa56c56350b42ec99eb63ca66bb728686868660405161076994939291906112b5565b60405180910390a35050505050565b7f000000000000000000000000000000000000000000000000000000000000000081565b60405180606001604052806060815260200160608152602001600067ffffffffffffffff1681525090565b600080fd5b600080fd5b6000819050919050565b6107e4816107d1565b81146107ef57600080fd5b50565b600081359050610801816107db565b92915050565b60006020828403121561081d5761081c6107c7565b5b600061082b848285016107f2565b91505092915050565b600081519050919050565b600082825260208201905092915050565b60005b8381101561086e578082015181840152602081019050610853565b60008484015250505050565b6000601f19601f8301169050919050565b600061089682610834565b6108a0818561083f565b93506108b0818560208601610850565b6108b98161087a565b840191505092915050565b600067ffffffffffffffff82169050919050565b6108e1816108c4565b82525050565b60006060820190508181036000830152610901818661088b565b90508181036020830152610915818561088b565b905061092460408301846108d8565b949350505050565b600080fd5b600080fd5b600080fd5b60008083601f8401126109515761095061092c565b5b8235905067ffffffffffffffff81111561096e5761096d610931565b5b60208301915083602082028301111561098a57610989610936565b5b9250929050565b600080602083850312156109a8576109a76107c7565b5b600083013567ffffffffffffffff8111156109c6576109c56107cc565b5b6109d28582860161093b565b92509250509250929050565b600081519050919050565b600082825260208201905092915050565b6000819050602082019050919050565b600082825260208201905092915050565b6000610a2682610834565b610a308185610a0a565b9350610a40818560208601610850565b610a498161087a565b840191505092915050565b610a5d816108c4565b82525050565b60006060830160008301518482036000860152610a808282610a1b565b91505060208301518482036020860152610a9a8282610a1b565b9150506040830151610aaf6040860182610a54565b508091505092915050565b6000610ac68383610a63565b905092915050565b6000602082019050919050565b6000610ae6826109de565b610af081856109e9565b935083602082028501610b02856109fa565b8060005b85811015610b3e5784840389528151610b1f8582610aba565b9450610b2a83610ace565b925060208a01995050600181019050610b06565b50829750879550505050505092915050565b60006020820190508181036000830152610b6a8184610adb565b905092915050565b60008083601f840112610b8857610b8761092c565b5b8235905067ffffffffffffffff811115610ba557610ba4610931565b5b602083019150836001820283011115610bc157610bc0610936565b5b9250929050565b600080600080600060608688031215610be457610be36107c7565b5b6000610bf2888289016107f2565b955050602086013567ffffffffffffffff811115610c1357610c126107cc565b5b610c1f88828901610b72565b9450945050604086013567ffffffffffffffff811115610c4257610c416107cc565b5b610c4e88828901610b72565b92509250509295509295909350565b600073ffffffffffffffffffffffffffffffffffffffff82169050919050565b6000819050919050565b6000610ca2610c9d610c9884610c5d565b610c7d565b610c5d565b9050919050565b6000610cb482610c87565b9050919050565b6000610cc682610ca9565b9050919050565b610cd681610cbb565b82525050565b6000602082019050610cf16000830184610ccd565b92915050565b7f4e487b7100000000000000000000000000000000000000000000000000000000600052602260045260246000fd5b60006002820490506001821680610d3e57607f821691505b602082108103610d5157610d50610cf7565b5b50919050565b7f4e487b7100000000000000000000000000000000000000000000000000000000600052604160045260246000fd5b7f4e487b7100000000000000000000000000000000000000000000000000000000600052603260045260246000fd5b7f4e487b7100000000000000000000000000000000000000000000000000000000600052601160045260246000fd5b6000610def826107d1565b91507fffffffffffffffffffffffffffffffffffffffffffffffffffffffffffffffff8203610e2157610e20610db5565b5b600182019050919050565b610e35816107d1565b82525050565b6000602082019050610e506000830184610e2c565b92915050565b6000610e6182610c5d565b9050919050565b610e7181610e56565b8114610e7c57600080fd5b50565b600081519050610e8e81610e68565b92915050565b600060208284031215610eaa57610ea96107c7565b5b6000610eb884828501610e7f565b91505092915050565b7f216f776e65720000000000000000000000000000000000000000000000000000600082015250565b6000610ef760068361083f565b9150610f0282610ec1565b602082019050919050565b60006020820190508181036000830152610f2681610eea565b9050919050565b7f61766174617255726c20746f6f206c6f6e670000000000000000000000000000600082015250565b6000610f6360128361083f565b9150610f6e82610f2d565b602082019050919050565b60006020820190508181036000830152610f9281610f56565b9050919050565b7f6465736372697074696f6e20746f6f206c6f6e67000000000000000000000000600082015250565b6000610fcf60148361083f565b9150610fda82610f99565b602082019050919050565b60006020820190508181036000830152610ffe81610fc2565b9050919050565b60008190508160005260206000209050919050565b60006020601f8301049050919050565b600082821b905092915050565b6000600883026110677fffffffffffffffffffffffffffffffffffffffffffffffffffffffffffffffff8261102a565b611071868361102a565b95508019841693508086168417925050509392505050565b60006110a461109f61109a846107d1565b610c7d565b6107d1565b9050919050565b6000819050919050565b6110be83611089565b6110d26110ca826110ab565b848454611037565b825550505050565b600090565b6110e76110da565b6110f28184846110b5565b505050565b5b818110156111165761110b6000826110df565b6001810190506110f8565b5050565b601f82111561115b5761112c81611005565b6111358461101a565b81016020851015611144578190505b6111586111508561101a565b8301826110f7565b50505b505050565b600082821c905092915050565b600061117e60001984600802611160565b1980831691505092915050565b6000611197838361116d565b9150826002028217905092915050565b6111b082610834565b67ffffffffffffffff8111156111c9576111c8610d57565b5b6111d38254610d26565b6111de82828561111a565b600060209050601f83116001811461121157600084156111ff578287015190505b611209858261118b565b865550611271565b601f19841661121f86611005565b60005b8281101561124757848901518255600182019150602085019450602081019050611222565b868310156112645784890151611260601f89168261116d565b8355505b6001600288020188555050505b505050505050565b82818337600083830152505050565b6000611294838561083f565b93506112a1838584611279565b6112aa8361087a565b840190509392505050565b600060408201905081810360008301526112d0818688611288565b905081810360208301526112e5818486611288565b90509594505050505056fea26469706673582212209a6a1c65bf5b5d497e95ff21dcf5cad7fb3b8d9b79f64e4cd77413b992c0f76364736f6c63430008140033",
  "linkReferences": {},
  "deployedLinkReferences": {}
}