{
  "_format": "hh-sol-artifact-1",
  "contractName": "MiningSystemV3",
  "sourceName": "contracts/MiningV2.sol",
  "abi": [
    {
      "inputs": [
        {
          "internalType": "address",
          "name": "_land",
          "type": "address"
        },
        {
          "internalType": "address",
          "name": "_drill",
          "type": "address"
        },
        {
          "internalType": "address",
          "name": "_apostle",
          "type": "address"
        },
        {
          "internalType": "address[5]",
          "name": "_resources",
          "type": "address[5]"
        }
      ],
      "stateMutability": "nonpayable",
      "type": "constructor"
    },
    {
      "anonymous": false,
      "inputs": [
        {
          "indexed": true,
          "internalType": "uint256",
          "name": "landId",
          "type": "uint256"
        },
        {
          "indexed": true,
          "internalType": "address",
          "name": "claimer",
          "type": "address"
        },
        {
          "indexed": false,
          "internalType": "uint256[5]",
          "name": "amounts",
          "type": "uint256[5]"
        }
      ],
      "name": "Claimed",
      "type": "event"
    },
    {
      "anonymous": false,
      "inputs": [
        {
          "indexed": false,
          "internalType": "uint256",
          "name": "newBps",
          "type": "uint256"
        }
      ],
      "name": "LandFeeBpsUpdated",
      "type": "event"
    },
    {
      "anonymous": false,
      "inputs": [
        {
          "indexed": true,
          "internalType": "uint256",
          "name": "landId",
          "type": "uint256"
        },
        {
          "indexed": true,
          "internalType": "address",
          "name": "miner",
          "type": "address"
        },
        {
          "indexed": false,
          "internalType": "uint256[5]",
          "name": "amounts",
          "type": "uint256[5]"
        }
      ],
      "name": "MinerClaimed",
      "type": "event"
    },
    {
      "anonymous": false,
      "inputs": [
        {
          "indexed": true,
          "internalType": "uint256",
          "name": "landId",
          "type": "uint256"
        },
        {
          "indexed": false,
          "internalType": "uint256",
          "name": "apostleId",
          "type": "uint256"
        },
        {
          "indexed": false,
          "internalType": "uint256",
          "name": "drillId",
          "type": "uint256"
        },
        {
          "indexed": false,
          "internalType": "address",
          "name": "placer",
          "type": "address"
        },
        {
          "indexed": false,
          "internalType": "bool",
          "name": "isOwnerSlot",
          "type": "bool"
        }
      ],
      "name": "MiningStarted",
      "type": "event"
    },
    {
      "anonymous": false,
      "inputs": [
        {
          "indexed": true,
          "internalType": "uint256",
          "name": "landId",
          "type": "uint256"
        },
        {
          "indexed": false,
          "internalType": "uint256",
          "name": "apostleId",
          "type": "uint256"
        },
        {
          "indexed": false,
          "internalType": "address",
          "name": "to",
          "type": "address"
        }
      ],
      "name": "MiningStopped",
      "type": "event"
    },
    {
      "inputs": [],
      "name": "BPS",
      "outputs": [
        {
          "internalType": "uint256",
          "name": "",
          "type": "uint256"
        }
      ],
      "stateMutability": "view",
      "type": "function"
    },
    {
      "inputs": [],
      "name": "MAX_APOSTLES_PER_LAND",
      "outputs": [
        {
          "internalType": "uint256",
          "name": "",
          "type": "uint256"
        }
      ],
      "stateMutability": "view",
      "type": "function"
    },
    {
      "inputs": [
        {
          "internalType": "uint256",
          "name": "landId",
          "type": "uint256"
        },
        {
          "internalType": "uint256",
          "name": "apostleId",
          "type": "uint256"
        },
        {
          "internalType": "address",
          "name": "to",
          "type": "address"
        }
      ],
      "name": "adminStop",
      "outputs": [],
      "stateMutability": "nonpayable",
      "type": "function"
    },
    {
      "inputs": [],
      "name": "apostle",
      "outputs": [
        {
          "internalType": "contract IApostleNFT",
          "name": "",
          "type": "address"
        }
      ],
      "stateMutability": "view",
      "type": "function"
    },
    {
      "inputs": [
        {
          "internalType": "uint256",
          "name": "",
          "type": "uint256"
        }
      ],
      "name": "apostleOnLand",
      "outputs": [
        {
          "internalType": "uint256",
          "name": "",
          "type": "uint256"
        }
      ],
      "stateMutability": "view",
      "type": "function"
    },
    {
      "inputs": [
        {
          "internalType": "uint256",
          "name": "landId",
          "type": "uint256"
        }
      ],
      "name": "claim",
      "outputs": [],
      "stateMutability": "nonpayable",
      "type": "function"
    },
    {
      "inputs": [
        {
          "internalType": "uint256",
          "name": "landId",
          "type": "uint256"
        }
      ],
      "name": "claimMiner",
      "outputs": [],
      "stateMutability": "nonpayable",
      "type": "function"
    },
    {
      "inputs": [],
      "name": "drill",
      "outputs": [
        {
          "internalType": "contract IDrillNFT",
          "name": "",
          "type": "address"
        }
      ],
      "stateMutability": "view",
      "type": "function"
    },
    {
      "inputs": [
        {
          "internalType": "uint256",
          "name": "",
          "type": "uint256"
        }
      ],
      "name": "drillOnLand",
      "outputs": [
        {
          "internalType": "uint256",
          "name": "",
          "type": "uint256"
        }
      ],
      "stateMutability": "view",
      "type": "function"
    },
    {
      "inputs": [],
      "name": "land",
      "outputs": [
        {
          "internalType": "contract ILandNFT",
          "name": "",
          "type": "address"
        }
      ],
      "stateMutability": "view",
      "type": "function"
    },
    {
      "inputs": [],
      "name": "landFeeBps",
      "outputs": [
        {
          "internalType": "uint256",
          "name": "",
          "type": "uint256"
        }
      ],
      "stateMutability": "view",
      "type": "function"
    },
    {
      "inputs": [
        {
          "internalType": "uint256",
          "name": "",
          "type": "uint256"
        },
        {
          "internalType": "uint256",
          "name": "",
          "type": "uint256"
        }
      ],
      "name": "landFeePending",
      "outputs": [
        {
          "internalType": "uint256",
          "name": "",
          "type": "uint256"
        }
      ],
      "stateMutability": "view",
      "type": "function"
    },
    {
      "inputs": [
        {
          "internalType": "address",
          "name": "",
          "type": "address"
        },
        {
          "internalType": "uint256",
          "name": "",
          "type": "uint256"
        },
        {
          "internalType": "uint256",
          "name": "",
          "type": "uint256"
        }
      ],
      "name": "minerPending",
      "outputs": [
        {
          "internalType": "uint256",
          "name": "",
          "type": "uint256"
        }
      ],
      "stateMutability": "view",
      "type": "function"
    },
    {
      "inputs": [
        {
          "internalType": "address",
          "name": "",
          "type": "address"
        },
        {
          "internalType": "address",
          "name": "",
          "type": "address"
        },
        {
          "internalType": "uint256",
          "name": "",
          "type": "uint256"
        },
        {
          "internalType": "bytes",
          "name": "",
          "type": "bytes"
        }
      ],
      "name": "onERC721Received",
      "outputs": [
        {
          "internalType": "bytes4",
          "name": "",
          "type": "bytes4"
        }
      ],
      "stateMutability": "pure",
      "type": "function"
    },
    {
      "inputs": [],
      "name": "owner",
      "outputs": [
        {
          "internalType": "address",
          "name": "",
          "type": "address"
        }
      ],
      "stateMutability": "view",
      "type": "function"
    },
    {
      "inputs": [
        {
          "internalType": "uint256",
          "name": "",
          "type": "uint256"
        },
        {
          "internalType": "uint256",
          "name": "",
          "type": "uint256"
        }
      ],
      "name": "pending",
      "outputs": [
        {
          "internalType": "uint256",
          "name": "",
          "type": "uint256"
        }
      ],
      "stateMutability": "view",
      "type": "function"
    },
    {
      "inputs": [
        {
          "internalType": "address",
          "name": "miner",
          "type": "address"
        },
        {
          "internalType": "uint256",
          "name": "landId",
          "type": "uint256"
        }
      ],
      "name": "pendingMinerRewards",
      "outputs": [
        {
          "internalType": "uint256[5]",
          "name": "res",
          "type": "uint256[5]"
        }
      ],
      "stateMutability": "view",
      "type": "function"
    },
    {
      "inputs": [
        {
          "internalType": "uint256",
          "name": "landId",
          "type": "uint256"
        }
      ],
      "name": "pendingRewards",
      "outputs": [
        {
          "internalType": "uint256[5]",
          "name": "res",
          "type": "uint256[5]"
        }
      ],
      "stateMutability": "view",
      "type": "function"
    },
    {
      "inputs": [
        {
          "internalType": "uint256",
          "name": "",
          "type": "uint256"
        }
      ],
      "name": "resources",
      "outputs": [
        {
          "internalType": "address",
          "name": "",
          "type": "address"
        }
      ],
      "stateMutability": "view",
      "type": "function"
    },
    {
      "inputs": [
        {
          "internalType": "uint256",
          "name": "bps",
          "type": "uint256"
        }
      ],
      "name": "setLandFeeBps",
      "outputs": [],
      "stateMutability": "nonpayable",
      "type": "function"
    },
    {
      "inputs": [
        {
          "internalType": "uint256",
          "name": "",
          "type": "uint256"
        }
      ],
      "name": "slotCount",
      "outputs": [
        {
          "internalType": "uint256",
          "name": "",
          "type": "uint256"
        }
      ],
      "stateMutability": "view",
      "type": "function"
    },
    {
      "inputs": [
        {
          "internalType": "uint256",
          "name": "",
          "type": "uint256"
        },
        {
          "internalType": "uint256",
          "name": "",
          "type": "uint256"
        }
      ],
      "name": "slots",
      "outputs": [
        {
          "internalType": "uint256",
          "name": "apostleId",
          "type": "uint256"
        },
        {
          "internalType": "uint256",
          "name": "drillId",
          "type": "uint256"
        },
        {
          "internalType": "uint256",
          "name": "startTime",
          "type": "uint256"
        },
        {
          "internalType": "address",
          "name": "placer",
          "type": "address"
        },
        {
          "internalType": "bool",
          "name": "isOwnerSlot",
          "type": "bool"
        }
      ],
      "stateMutability": "view",
      "type": "function"
    },
    {
      "inputs": [
        {
          "internalType": "uint256",
          "name": "landId",
          "type": "uint256"
        },
        {
          "internalType": "uint256",
          "name": "apostleId",
          "type": "uint256"
        },
        {
          "internalType": "uint256",
          "name": "drillId",
          "type": "uint256"
        }
      ],
      "name": "startMining",
      "outputs": [],
      "stateMutability": "nonpayable",
      "type": "function"
    },
    {
      "inputs": [
        {
          "internalType": "uint256",
          "name": "landId",
          "type": "uint256"
        },
        {
          "internalType": "uint256",
          "name": "apostleId",
          "type": "uint256"
        }
      ],
      "name": "stopMining",
      "outputs": [],
      "stateMutability": "nonpayable",
      "type": "function"
    },
    {
      "inputs": [
        {
          "internalType": "address",
          "name": "a",
          "type": "address"
        }
      ],
      "name": "transferOwnership",
      "outputs": [],
      "stateMutability": "nonpayable",
      "type": "function"
    }
  ],
  "bytecode": "0x60806040526103e86001553480156200001757600080fd5b506040516200450c3803806200450c83398181016040528101906200003d9190620003d6565b336000806101000a81548173ffffffffffffffffffffffffffffffffffffffff021916908373ffffffffffffffffffffffffffffffffffffffff16021790555083600260006101000a81548173ffffffffffffffffffffffffffffffffffffffff021916908373ffffffffffffffffffffffffffffffffffffffff16021790555082600360006101000a81548173ffffffffffffffffffffffffffffffffffffffff021916908373ffffffffffffffffffffffffffffffffffffffff16021790555081600460006101000a81548173ffffffffffffffffffffffffffffffffffffffff021916908373ffffffffffffffffffffffffffffffffffffffff160217905550806005906005620001539291906200015e565b505050505062000449565b8260058101928215620001cd579160200282015b82811115620001cc5782518260006101000a81548173ffffffffffffffffffffffffffffffffffffffff021916908373ffffffffffffffffffffffffffffffffffffffff1602179055509160200191906001019062000172565b5b509050620001dc9190620001e0565b5090565b5b80821115620001fb576000816000905550600101620001e1565b5090565b6000604051905090565b600080fd5b600073ffffffffffffffffffffffffffffffffffffffff82169050919050565b60006200023b826200020e565b9050919050565b6200024d816200022e565b81146200025957600080fd5b50565b6000815190506200026d8162000242565b92915050565b600080fd5b6000601f19601f8301169050919050565b7f4e487b7100000000000000000000000000000000000000000000000000000000600052604160045260246000fd5b620002c38262000278565b810181811067ffffffffffffffff82111715620002e557620002e462000289565b5b80604052505050565b6000620002fa620001ff565b9050620003088282620002b8565b919050565b600067ffffffffffffffff8211156200032b576200032a62000289565b5b602082029050919050565b600080fd5b6000620003526200034c846200030d565b620002ee565b905080602084028301858111156200036f576200036e62000336565b5b835b818110156200039c57806200038788826200025c565b84526020840193505060208101905062000371565b5050509392505050565b600082601f830112620003be57620003bd62000273565b5b6005620003cd8482856200033b565b91505092915050565b6000806000806101008587031215620003f457620003f362000209565b5b600062000404878288016200025c565b945050602062000417878288016200025c565b93505060406200042a878288016200025c565b92505060606200043d87828801620003a6565b91505092959194509250565b6140b380620004596000396000f3fe608060405234801561001057600080fd5b50600436106101735760003560e01c80638c980129116100de578063dd5bc96f11610097578063ec823b6d11610071578063ec823b6d14610498578063f0b466f5146104cc578063f2fde38b146104ea578063fbf8bdc91461050657610173565b8063dd5bc96f14610408578063e6d44c4514610438578063eb86ee3d1461046857610173565b80638c980129146103325780638da5cb5b14610350578063953cc9f91461036e578063a30a71711461038c578063c7ab2d21146103bc578063d2b966ce146103ec57610173565b8063249d39e911610130578063249d39e91461025c578063379607f51461027a578063525d9de01461029657806352977eea146102b45780636b213ea1146102e45780637dcb2abf1461030257610173565b806307f12b0d146101785780630a9733f0146101a8578063150b7a02146101c45780632236162f146101f457806323fc6fef14610210578063244d6daa1461022c575b600080fd5b610192600480360381019061018d919061316d565b610522565b60405161019f91906131a9565b60405180910390f35b6101c260048036038101906101bd9190613222565b61053a565b005b6101de60048036038101906101d991906132da565b6105d8565b6040516101eb919061339d565b60405180910390f35b61020e6004803603810190610209919061316d565b6105ed565b005b61022a600480360381019061022591906133b8565b61081b565b005b6102466004803603810190610241919061316d565b61082a565b6040516102539190613407565b60405180910390f35b610264610860565b60405161027191906131a9565b60405180910390f35b610294600480360381019061028f919061316d565b610866565b005b61029e610bee565b6040516102ab9190613481565b60405180910390f35b6102ce60048036038101906102c9919061349c565b610c14565b6040516102db91906131a9565b60405180910390f35b6102ec610c49565b6040516102f991906131a9565b60405180910390f35b61031c6004803603810190610317919061316d565b610c4f565b604051610329919061359a565b60405180910390f35b61033a610f38565b60405161034791906135d6565b60405180910390f35b610358610f5e565b6040516103659190613407565b60405180910390f35b610376610f82565b60405161038391906131a9565b60405180910390f35b6103a660048036038101906103a191906133b8565b610f87565b6040516103b391906131a9565b60405180910390f35b6103d660048036038101906103d191906133b8565b610faf565b6040516103e391906131a9565b60405180910390f35b6104066004803603810190610401919061316d565b610fd7565b005b610422600480360381019061041d919061316d565b6110eb565b60405161042f91906131a9565b60405180910390f35b610452600480360381019061044d919061316d565b611103565b60405161045f91906131a9565b60405180910390f35b610482600480360381019061047d91906135f1565b61111b565b60405161048f919061359a565b60405180910390f35b6104b260048036038101906104ad91906133b8565b611369565b6040516104c395949392919061364c565b60405180910390f35b6104d46113df565b6040516104e191906136c0565b60405180910390f35b61050460048036038101906104ff91906136db565b611405565b005b610520600480360381019061051b9190613708565b61150f565b005b600d6020528060005260406000206000915090505481565b60008054906101000a900473ffffffffffffffffffffffffffffffffffffffff1673ffffffffffffffffffffffffffffffffffffffff163373ffffffffffffffffffffffffffffffffffffffff16146105c8576040517f08c379a00000000000000000000000000000000000000000000000000000000081526004016105bf906137b8565b60405180910390fd5b6105d38383836124b0565b505050565b600063150b7a0260e01b905095945050505050565b6105f681612b40565b6105fe61310b565b60005b60058160ff1610156107c7576000600f60003373ffffffffffffffffffffffffffffffffffffffff1673ffffffffffffffffffffffffffffffffffffffff16815260200190815260200160002060008581526020019081526020016000208260ff1660058110610674576106736137d8565b5b0154905060008111156107b3576000600f60003373ffffffffffffffffffffffffffffffffffffffff1673ffffffffffffffffffffffffffffffffffffffff16815260200190815260200160002060008681526020019081526020016000208360ff16600581106106e8576106e76137d8565b5b018190555080838360ff1660058110610704576107036137d8565b5b60200201818152505060058260ff1660058110610724576107236137d8565b5b0160009054906101000a900473ffffffffffffffffffffffffffffffffffffffff1673ffffffffffffffffffffffffffffffffffffffff166340c10f1933836040518363ffffffff1660e01b8152600401610780929190613807565b600060405180830381600087803b15801561079a57600080fd5b505af11580156107ae573d6000803e3d6000fd5b505050505b5080806107bf9061386c565b915050610601565b503373ffffffffffffffffffffffffffffffffffffffff16827f1b63035bfcb309b1bf8feb5e332fbd97c4382ff7e07f3295d434a22aba9dbf808360405161080f919061359a565b60405180910390a35050565b6108268282336124b0565b5050565b6005816005811061083a57600080fd5b016000915054906101000a900473ffffffffffffffffffffffffffffffffffffffff1681565b61271081565b61086f81612b40565b6000600260009054906101000a900473ffffffffffffffffffffffffffffffffffffffff1673ffffffffffffffffffffffffffffffffffffffff16636352211e836040518263ffffffff1660e01b81526004016108cc91906131a9565b602060405180830381865afa1580156108e9573d6000803e3d6000fd5b505050506040513d601f19601f8201168201806040525081019061090d91906138aa565b90508073ffffffffffffffffffffffffffffffffffffffff163373ffffffffffffffffffffffffffffffffffffffff161480610994575060008054906101000a900473ffffffffffffffffffffffffffffffffffffffff1673ffffffffffffffffffffffffffffffffffffffff163373ffffffffffffffffffffffffffffffffffffffff16145b6109d3576040517f08c379a00000000000000000000000000000000000000000000000000000000081526004016109ca90613923565b60405180910390fd5b6109db61310b565b60005b60058160ff161015610b99576000600e60008681526020019081526020016000208260ff1660058110610a1457610a136137d8565b5b015490506000601060008781526020019081526020016000208360ff1660058110610a4257610a416137d8565b5b0154905060008183610a549190613943565b90506000811115610b83576000600e60008981526020019081526020016000208560ff1660058110610a8957610a886137d8565b5b01819055506000601060008981526020019081526020016000208560ff1660058110610ab857610ab76137d8565b5b018190555080858560ff1660058110610ad457610ad36137d8565b5b60200201818152505060058460ff1660058110610af457610af36137d8565b5b0160009054906101000a900473ffffffffffffffffffffffffffffffffffffffff1673ffffffffffffffffffffffffffffffffffffffff166340c10f1987836040518363ffffffff1660e01b8152600401610b50929190613807565b600060405180830381600087803b158015610b6a57600080fd5b505af1158015610b7e573d6000803e3d6000fd5b505050505b5050508080610b919061386c565b9150506109de565b508173ffffffffffffffffffffffffffffffffffffffff16837ff893fcdebf2dbfd23aecbfa6a517db14a56f01ab3dee4742f04eac4ef4b6372283604051610be1919061359a565b60405180910390a3505050565b600360009054906101000a900473ffffffffffffffffffffffffffffffffffffffff1681565b600f6020528260005260406000206020528160005260406000208160058110610c3c57600080fd5b0160009250925050505481565b60015481565b610c5761310b565b60005b60058160ff161015610cf657601060008481526020019081526020016000208160ff1660058110610c8e57610c8d6137d8565b5b0154600e60008581526020019081526020016000208260ff1660058110610cb857610cb76137d8565b5b0154610cc49190613943565b828260ff1660058110610cda57610cd96137d8565b5b6020020181815250508080610cee9061386c565b915050610c5a565b506000600b60008481526020019081526020016000205490506000600260009054906101000a900473ffffffffffffffffffffffffffffffffffffffff1673ffffffffffffffffffffffffffffffffffffffff16636352211e856040518263ffffffff1660e01b8152600401610d6c91906131a9565b602060405180830381865afa925050508015610da657506040513d601f19601f82011682018060405250810190610da391906138aa565b60015b15610db057809150505b60005b82811015610f30576000600a60008781526020019081526020016000208260058110610de257610de16137d8565b5b6004020190506000816002015442610dfa9190613977565b90506000610e09888484612b85565b90508260030160149054906101000a900460ff1615610e935760005b60058160ff161015610e8d57818160ff1660058110610e4757610e466137d8565b5b6020020151888260ff1660058110610e6257610e616137d8565b5b60200201818151610e739190613943565b915081815250508080610e859061386c565b915050610e25565b50610f1a565b60005b60058160ff161015610f1857612710600154838360ff1660058110610ebe57610ebd6137d8565b5b6020020151610ecd91906139ab565b610ed79190613a1c565b888260ff1660058110610eed57610eec6137d8565b5b60200201818151610efe9190613943565b915081815250508080610f109061386c565b915050610e96565b505b5050508080610f2890613a4d565b915050610db3565b505050919050565b600260009054906101000a900473ffffffffffffffffffffffffffffffffffffffff1681565b60008054906101000a900473ffffffffffffffffffffffffffffffffffffffff1681565b600581565b600e6020528160005260406000208160058110610fa357600080fd5b01600091509150505481565b60106020528160005260406000208160058110610fcb57600080fd5b01600091509150505481565b60008054906101000a900473ffffffffffffffffffffffffffffffffffffffff1673ffffffffffffffffffffffffffffffffffffffff163373ffffffffffffffffffffffffffffffffffffffff1614611065576040517f08c379a000000000000000000000000000000000000000000000000000000000815260040161105c906137b8565b60405180910390fd5b610bb88111156110aa576040517f08c379a00000000000000000000000000000000000000000000000000000000081526004016110a190613ae1565b60405180910390fd5b806001819055507fc1f211dddc76076a6a2bf502b57898f7ec49f875ffe5aaffc67d863a994098f5816040516110e091906131a9565b60405180910390a150565b600b6020528060005260406000206000915090505481565b600c6020528060005260406000206000915090505481565b61112361310b565b60005b60058160ff1610156111cb57600f60008573ffffffffffffffffffffffffffffffffffffffff1673ffffffffffffffffffffffffffffffffffffffff16815260200190815260200160002060008481526020019081526020016000208160ff1660058110611197576111966137d8565b5b0154828260ff16600581106111af576111ae6137d8565b5b60200201818152505080806111c39061386c565b915050611126565b506000600b600084815260200190815260200160002054905060005b81811015611361576000600a60008681526020019081526020016000208260058110611216576112156137d8565b5b6004020190508573ffffffffffffffffffffffffffffffffffffffff168160030160009054906101000a900473ffffffffffffffffffffffffffffffffffffffff1673ffffffffffffffffffffffffffffffffffffffff1614158061128957508060030160149054906101000a900460ff165b15611294575061134e565b60008160020154426112a69190613977565b905060006112b5878484612b85565b905060005b60058160ff161015611349576127106001546127106112d99190613977565b838360ff16600581106112ef576112ee6137d8565b5b60200201516112fe91906139ab565b6113089190613a1c565b878260ff166005811061131e5761131d6137d8565b5b6020020181815161132f9190613943565b9150818152505080806113419061386c565b9150506112ba565b505050505b808061135990613a4d565b9150506111e7565b505092915050565b600a602052816000526040600020816005811061138557600080fd5b60040201600091509150508060000154908060010154908060020154908060030160009054906101000a900473ffffffffffffffffffffffffffffffffffffffff16908060030160149054906101000a900460ff16905085565b600460009054906101000a900473ffffffffffffffffffffffffffffffffffffffff1681565b60008054906101000a900473ffffffffffffffffffffffffffffffffffffffff1673ffffffffffffffffffffffffffffffffffffffff163373ffffffffffffffffffffffffffffffffffffffff1614611493576040517f08c379a000000000000000000000000000000000000000000000000000000000815260040161148a906137b8565b60405180910390fd5b600073ffffffffffffffffffffffffffffffffffffffff168173ffffffffffffffffffffffffffffffffffffffff16036114cc57600080fd5b806000806101000a81548173ffffffffffffffffffffffffffffffffffffffff021916908373ffffffffffffffffffffffffffffffffffffffff16021790555050565b3373ffffffffffffffffffffffffffffffffffffffff16600460009054906101000a900473ffffffffffffffffffffffffffffffffffffffff1673ffffffffffffffffffffffffffffffffffffffff16636352211e846040518263ffffffff1660e01b815260040161158191906131a9565b602060405180830381865afa15801561159e573d6000803e3d6000fd5b505050506040513d601f19601f820116820180604052508101906115c291906138aa565b73ffffffffffffffffffffffffffffffffffffffff1614611618576040517f08c379a000000000000000000000000000000000000000000000000000000000815260040161160f90613b4d565b60405180910390fd5b6000600c6000848152602001908152602001600020541461166e576040517f08c379a000000000000000000000000000000000000000000000000000000000815260040161166590613bb9565b60405180910390fd5b6000600260009054906101000a900473ffffffffffffffffffffffffffffffffffffffff1673ffffffffffffffffffffffffffffffffffffffff16636352211e856040518263ffffffff1660e01b81526004016116cb91906131a9565b602060405180830381865afa92505050801561170557506040513d601f19601f8201168201806040525081019061170291906138aa565b60015b1561170f57809150505b600073ffffffffffffffffffffffffffffffffffffffff168173ffffffffffffffffffffffffffffffffffffffff160361177e576040517f08c379a000000000000000000000000000000000000000000000000000000000815260040161177590613c25565b60405180910390fd5b60008173ffffffffffffffffffffffffffffffffffffffff163373ffffffffffffffffffffffffffffffffffffffff161490506000600b60008781526020019081526020016000205490506005811061209b576000600460009054906101000a900473ffffffffffffffffffffffffffffffffffffffff1673ffffffffffffffffffffffffffffffffffffffff16639ebd36f3876040518263ffffffff1660e01b815260040161182e91906131a9565b6040805180830381865afa15801561184a573d6000803e3d6000fd5b505050506040513d601f19601f8201168201806040525081019061186e9190613c71565b50905060007fffffffffffffffffffffffffffffffffffffffffffffffffffffffffffffffff9050600060ff905060005b848110156119f0576000600a60008c815260200190815260200160002082600581106118ce576118cd6137d8565b5b6004020190508060030160149054906101000a900460ff1680156118f0575086155b156118fb57506119dd565b86801561191657508060030160149054906101000a900460ff165b1561192157506119dd565b6000600460009054906101000a900473ffffffffffffffffffffffffffffffffffffffff1673ffffffffffffffffffffffffffffffffffffffff16639ebd36f383600001546040518263ffffffff1660e01b815260040161198291906131a9565b6040805180830381865afa15801561199e573d6000803e3d6000fd5b505050506040513d601f19601f820116820180604052508101906119c29190613c71565b5090508360ff168160ff1610156119da578093508294505b50505b80806119e890613a4d565b91505061189f565b507fffffffffffffffffffffffffffffffffffffffffffffffffffffffffffffffff8203611a53576040517f08c379a0000000000000000000000000000000000000000000000000000000008152600401611a4a90613cfd565b60405180910390fd5b8060ff168360ff1611611a9b576040517f08c379a0000000000000000000000000000000000000000000000000000000008152600401611a9290613d69565b60405180910390fd5b611aa58983612e74565b6000600a60008b81526020019081526020016000208360058110611acc57611acb6137d8565b5b60040201905060008160000154905060008260010154905060008360030160009054906101000a900473ffffffffffffffffffffffffffffffffffffffff169050600460009054906101000a900473ffffffffffffffffffffffffffffffffffffffff1673ffffffffffffffffffffffffffffffffffffffff166323b872dd3083866040518463ffffffff1660e01b8152600401611b6c93929190613d89565b600060405180830381600087803b158015611b8657600080fd5b505af1158015611b9a573d6000803e3d6000fd5b505050506000600c60008581526020019081526020016000208190555060008214611c6a57600360009054906101000a900473ffffffffffffffffffffffffffffffffffffffff1673ffffffffffffffffffffffffffffffffffffffff166323b872dd3083856040518463ffffffff1660e01b8152600401611c1e93929190613d89565b600060405180830381600087803b158015611c3857600080fd5b505af1158015611c4c573d6000803e3d6000fd5b505050506000600d6000848152602001908152602001600020819055505b8c7f81d6fe176c03497c3f83f73b855570067d3bfec20217d1f6f74679c27b60d3258483604051611c9c929190613dc0565b60405180910390a260008b14611eb5573373ffffffffffffffffffffffffffffffffffffffff16600360009054906101000a900473ffffffffffffffffffffffffffffffffffffffff1673ffffffffffffffffffffffffffffffffffffffff16636352211e8d6040518263ffffffff1660e01b8152600401611d1e91906131a9565b602060405180830381865afa158015611d3b573d6000803e3d6000fd5b505050506040513d601f19601f82011682018060405250810190611d5f91906138aa565b73ffffffffffffffffffffffffffffffffffffffff1614611db5576040517f08c379a0000000000000000000000000000000000000000000000000000000008152600401611dac90613e35565b60405180910390fd5b6000600d60008d81526020019081526020016000205414611e0b576040517f08c379a0000000000000000000000000000000000000000000000000000000008152600401611e0290613ea1565b60405180910390fd5b600360009054906101000a900473ffffffffffffffffffffffffffffffffffffffff1673ffffffffffffffffffffffffffffffffffffffff166323b872dd33308e6040518463ffffffff1660e01b8152600401611e6a93929190613d89565b600060405180830381600087803b158015611e8457600080fd5b505af1158015611e98573d6000803e3d6000fd5b505050508c600d60008d8152602001908152602001600020819055505b600460009054906101000a900473ffffffffffffffffffffffffffffffffffffffff1673ffffffffffffffffffffffffffffffffffffffff166323b872dd33308f6040518463ffffffff1660e01b8152600401611f1493929190613d89565b600060405180830381600087803b158015611f2e57600080fd5b505af1158015611f42573d6000803e3d6000fd5b505050508c600c60008e8152602001908152602001600020819055506040518060a001604052808d81526020018c81526020014281526020013373ffffffffffffffffffffffffffffffffffffffff1681526020018a1515815250600a60008f81526020019081526020016000208760058110611fc257611fc16137d8565b5b6004020160008201518160000155602082015181600101556040820151816002015560608201518160030160006101000a81548173ffffffffffffffffffffffffffffffffffffffff021916908373ffffffffffffffffffffffffffffffffffffffff16021790555060808201518160030160146101000a81548160ff0219169083151502179055509050508c7f9df404c6bf256a891d8fd929317ba4ff6865557ba78847b568dca4e532bd1b178d8d338d6040516120849493929190613ec1565b60405180910390a2505050505050505050506124ab565b600084146122ac573373ffffffffffffffffffffffffffffffffffffffff16600360009054906101000a900473ffffffffffffffffffffffffffffffffffffffff1673ffffffffffffffffffffffffffffffffffffffff16636352211e866040518263ffffffff1660e01b815260040161211591906131a9565b602060405180830381865afa158015612132573d6000803e3d6000fd5b505050506040513d601f19601f8201168201806040525081019061215691906138aa565b73ffffffffffffffffffffffffffffffffffffffff16146121ac576040517f08c379a00000000000000000000000000000000000000000000000000000000081526004016121a390613e35565b60405180910390fd5b6000600d60008681526020019081526020016000205414612202576040517f08c379a00000000000000000000000000000000000000000000000000000000081526004016121f990613ea1565b60405180910390fd5b600360009054906101000a900473ffffffffffffffffffffffffffffffffffffffff1673ffffffffffffffffffffffffffffffffffffffff166323b872dd3330876040518463ffffffff1660e01b815260040161226193929190613d89565b600060405180830381600087803b15801561227b57600080fd5b505af115801561228f573d6000803e3d6000fd5b5050505085600d6000868152602001908152602001600020819055505b600460009054906101000a900473ffffffffffffffffffffffffffffffffffffffff1673ffffffffffffffffffffffffffffffffffffffff166323b872dd3330886040518463ffffffff1660e01b815260040161230b93929190613d89565b600060405180830381600087803b15801561232557600080fd5b505af1158015612339573d6000803e3d6000fd5b5050505085600c6000878152602001908152602001600020819055506040518060a001604052808681526020018581526020014281526020013373ffffffffffffffffffffffffffffffffffffffff168152602001831515815250600a600088815260200190815260200160002082600581106123b9576123b86137d8565b5b6004020160008201518160000155602082015181600101556040820151816002015560608201518160030160006101000a81548173ffffffffffffffffffffffffffffffffffffffff021916908373ffffffffffffffffffffffffffffffffffffffff16021790555060808201518160030160146101000a81548160ff0219169083151502179055509050506001816124529190613943565b600b600088815260200190815260200160002081905550857f9df404c6bf256a891d8fd929317ba4ff6865557ba78847b568dca4e532bd1b178686338660405161249f9493929190613ec1565b60405180910390a25050505b505050565b6000600b600085815260200190815260200160002054905060005b81811015612aff5783600a600087815260200190815260200160002082600581106124f9576124f86137d8565b5b600402016000015403612aec576000600a6000878152602001908152602001600020826005811061252d5761252c6137d8565b5b6004020160030160009054906101000a900473ffffffffffffffffffffffffffffffffffffffff1690506000600a6000888152602001908152602001600020836005811061257e5761257d6137d8565b5b6004020160030160149054906101000a900460ff1690506000600260009054906101000a900473ffffffffffffffffffffffffffffffffffffffff1673ffffffffffffffffffffffffffffffffffffffff16636352211e896040518263ffffffff1660e01b81526004016125f291906131a9565b602060405180830381865afa92505050801561262c57506040513d601f19601f8201168201806040525081019061262991906138aa565b60015b1561263657809150505b60008373ffffffffffffffffffffffffffffffffffffffff163373ffffffffffffffffffffffffffffffffffffffff1614905060008273ffffffffffffffffffffffffffffffffffffffff163373ffffffffffffffffffffffffffffffffffffffff161480156126a4575083155b905060008060009054906101000a900473ffffffffffffffffffffffffffffffffffffffff1673ffffffffffffffffffffffffffffffffffffffff163373ffffffffffffffffffffffffffffffffffffffff1614905082806127035750815b8061270b5750805b61274a576040517f08c379a000000000000000000000000000000000000000000000000000000000815260040161274190613f52565b60405180910390fd5b6127548b88612e74565b6000600a60008d8152602001908152602001600020886005811061277b5761277a6137d8565b5b60040201600101549050600460009054906101000a900473ffffffffffffffffffffffffffffffffffffffff1673ffffffffffffffffffffffffffffffffffffffff166323b872dd308c8e6040518463ffffffff1660e01b81526004016127e493929190613d89565b600060405180830381600087803b1580156127fe57600080fd5b505af1158015612812573d6000803e3d6000fd5b505050506000600c60008d815260200190815260200160002081905550600081146128e257600360009054906101000a900473ffffffffffffffffffffffffffffffffffffffff1673ffffffffffffffffffffffffffffffffffffffff166323b872dd308c846040518463ffffffff1660e01b815260040161289693929190613d89565b600060405180830381600087803b1580156128b057600080fd5b505af11580156128c4573d6000803e3d6000fd5b505050506000600d6000838152602001908152602001600020819055505b600a60008d815260200190815260200160002060018a6129029190613977565b60058110612913576129126137d8565b5b60040201600a60008e8152602001908152602001600020896005811061293c5761293b6137d8565b5b600402016000820154816000015560018201548160010155600282015481600201556003820160009054906101000a900473ffffffffffffffffffffffffffffffffffffffff168160030160006101000a81548173ffffffffffffffffffffffffffffffffffffffff021916908373ffffffffffffffffffffffffffffffffffffffff1602179055506003820160149054906101000a900460ff168160030160146101000a81548160ff021916908315150217905550905050600a60008d815260200190815260200160002060018a612a159190613977565b60058110612a2657612a256137d8565b5b60040201600080820160009055600182016000905560028201600090556003820160006101000a81549073ffffffffffffffffffffffffffffffffffffffff02191690556003820160146101000a81549060ff02191690555050600189612a8d9190613977565b600b60008e8152602001908152602001600020819055508b7f81d6fe176c03497c3f83f73b855570067d3bfec20217d1f6f74679c27b60d3258c8c604051612ad6929190613dc0565b60405180910390a2505050505050505050612b3b565b8080612af790613a4d565b9150506124cb565b506040517f08c379a0000000000000000000000000000000000000000000000000000000008152600401612b3290613fbe565b60405180910390fd5b505050565b6000600b600083815260200190815260200160002054905060005b81811015612b8057612b6d8382612e74565b8080612b7890613a4d565b915050612b5b565b505050565b612b8d61310b565b6000600460009054906101000a900473ffffffffffffffffffffffffffffffffffffffff1673ffffffffffffffffffffffffffffffffffffffff16639ebd36f385600001546040518263ffffffff1660e01b8152600401612bee91906131a9565b6040805180830381865afa158015612c0a573d6000803e3d6000fd5b505050506040513d601f19601f82011682018060405250810190612c2e9190613c71565b5090506000806000808760010154141590508015612cee57600360009054906101000a900473ffffffffffffffffffffffffffffffffffffffff1673ffffffffffffffffffffffffffffffffffffffff16639ebd36f388600101546040518263ffffffff1660e01b8152600401612ca591906131a9565b6040805180830381865afa158015612cc1573d6000803e3d6000fd5b505050506040513d601f19601f82011682018060405250810190612ce59190613c71565b80935081945050505b60005b60058160ff161015612e68576000600260009054906101000a900473ffffffffffffffffffffffffffffffffffffffff1673ffffffffffffffffffffffffffffffffffffffff1663c6a68dbf8b846040518363ffffffff1660e01b8152600401612d5c929190613fed565b602060405180830381865afa158015612d79573d6000803e3d6000fd5b505050506040513d601f19601f82011682018060405250810190612d9d9190614050565b61ffff16905060008103612db15750612e55565b600060649050838015612dc957508260ff168560ff16145b15612dec5760148660ff16612dde91906139ab565b81612de99190613943565b90505b6319bfcc0089828960ff16670de0b6b3a764000086612e0b91906139ab565b612e1591906139ab565b612e1f91906139ab565b612e2991906139ab565b612e339190613a1c565b888460ff1660058110612e4957612e486137d8565b5b60200201818152505050505b8080612e609061386c565b915050612cf1565b50505050509392505050565b6000600a60008481526020019081526020016000208260058110612e9b57612e9a6137d8565b5b6004020190506000816002015442612eb39190613977565b905060008103612ec4575050613107565b6000612ed1858484612b85565b90508260030160149054906101000a900460ff1615612f6c5760005b60058160ff161015612f6657818160ff1660058110612f0f57612f0e6137d8565b5b6020020151600e60008881526020019081526020016000208260ff1660058110612f3c57612f3b6137d8565b5b016000828254612f4c9190613943565b925050819055508080612f5e9061386c565b915050612eed565b506130fa565b60005b60058160ff1610156130f8576000828260ff1660058110612f9357612f926137d8565b5b602002015103156130e5576000612710600154848460ff1660058110612fbc57612fbb6137d8565b5b6020020151612fcb91906139ab565b612fd59190613a1c565b9050600081848460ff1660058110612ff057612fef6137d8565b5b6020020151612fff9190613977565b905081601060008a81526020019081526020016000208460ff166005811061302a576130296137d8565b5b01600082825461303a9190613943565b9250508190555080600f60008860030160009054906101000a900473ffffffffffffffffffffffffffffffffffffffff1673ffffffffffffffffffffffffffffffffffffffff1673ffffffffffffffffffffffffffffffffffffffff16815260200190815260200160002060008a81526020019081526020016000208460ff16600581106130cb576130ca6137d8565b5b0160008282546130db9190613943565b9250508190555050505b80806130f09061386c565b915050612f6f565b505b4283600201819055505050505b5050565b6040518060a00160405280600590602082028036833780820191505090505090565b600080fd5b600080fd5b6000819050919050565b61314a81613137565b811461315557600080fd5b50565b60008135905061316781613141565b92915050565b6000602082840312156131835761318261312d565b5b600061319184828501613158565b91505092915050565b6131a381613137565b82525050565b60006020820190506131be600083018461319a565b92915050565b600073ffffffffffffffffffffffffffffffffffffffff82169050919050565b60006131ef826131c4565b9050919050565b6131ff816131e4565b811461320a57600080fd5b50565b60008135905061321c816131f6565b92915050565b60008060006060848603121561323b5761323a61312d565b5b600061324986828701613158565b935050602061325a86828701613158565b925050604061326b8682870161320d565b9150509250925092565b600080fd5b600080fd5b600080fd5b60008083601f84011261329a57613299613275565b5b8235905067ffffffffffffffff8111156132b7576132b661327a565b5b6020830191508360018202830111156132d3576132d261327f565b5b9250929050565b6000806000806000608086880312156132f6576132f561312d565b5b60006133048882890161320d565b95505060206133158882890161320d565b945050604061332688828901613158565b935050606086013567ffffffffffffffff81111561334757613346613132565b5b61335388828901613284565b92509250509295509295909350565b60007fffffffff0000000000000000000000000000000000000000000000000000000082169050919050565b61339781613362565b82525050565b60006020820190506133b2600083018461338e565b92915050565b600080604083850312156133cf576133ce61312d565b5b60006133dd85828601613158565b92505060206133ee85828601613158565b9150509250929050565b613401816131e4565b82525050565b600060208201905061341c60008301846133f8565b92915050565b6000819050919050565b600061344761344261343d846131c4565b613422565b6131c4565b9050919050565b60006134598261342c565b9050919050565b600061346b8261344e565b9050919050565b61347b81613460565b82525050565b60006020820190506134966000830184613472565b92915050565b6000806000606084860312156134b5576134b461312d565b5b60006134c38682870161320d565b93505060206134d486828701613158565b92505060406134e586828701613158565b9150509250925092565b600060059050919050565b600081905092915050565b6000819050919050565b61351881613137565b82525050565b600061352a838361350f565b60208301905092915050565b6000602082019050919050565b61354c816134ef565b61355681846134fa565b925061356182613505565b8060005b83811015613592578151613579878261351e565b965061358483613536565b925050600181019050613565565b505050505050565b600060a0820190506135af6000830184613543565b92915050565b60006135c08261344e565b9050919050565b6135d0816135b5565b82525050565b60006020820190506135eb60008301846135c7565b92915050565b600080604083850312156136085761360761312d565b5b60006136168582860161320d565b925050602061362785828601613158565b9150509250929050565b60008115159050919050565b61364681613631565b82525050565b600060a082019050613661600083018861319a565b61366e602083018761319a565b61367b604083018661319a565b61368860608301856133f8565b613695608083018461363d565b9695505050505050565b60006136aa8261344e565b9050919050565b6136ba8161369f565b82525050565b60006020820190506136d560008301846136b1565b92915050565b6000602082840312156136f1576136f061312d565b5b60006136ff8482850161320d565b91505092915050565b6000806000606084860312156137215761372061312d565b5b600061372f86828701613158565b935050602061374086828701613158565b925050604061375186828701613158565b9150509250925092565b600082825260208201905092915050565b7f216f776e65720000000000000000000000000000000000000000000000000000600082015250565b60006137a260068361375b565b91506137ad8261376c565b602082019050919050565b600060208201905081810360008301526137d181613795565b9050919050565b7f4e487b7100000000000000000000000000000000000000000000000000000000600052603260045260246000fd5b600060408201905061381c60008301856133f8565b613829602083018461319a565b9392505050565b7f4e487b7100000000000000000000000000000000000000000000000000000000600052601160045260246000fd5b600060ff82169050919050565b60006138778261385f565b915060ff820361388a57613889613830565b5b600182019050919050565b6000815190506138a4816131f6565b92915050565b6000602082840312156138c0576138bf61312d565b5b60006138ce84828501613895565b91505092915050565b7f216c616e64206f776e6572000000000000000000000000000000000000000000600082015250565b600061390d600b8361375b565b9150613918826138d7565b602082019050919050565b6000602082019050818103600083015261393c81613900565b9050919050565b600061394e82613137565b915061395983613137565b925082820190508082111561397157613970613830565b5b92915050565b600061398282613137565b915061398d83613137565b92508282039050818111156139a5576139a4613830565b5b92915050565b60006139b682613137565b91506139c183613137565b92508282026139cf81613137565b915082820484148315176139e6576139e5613830565b5b5092915050565b7f4e487b7100000000000000000000000000000000000000000000000000000000600052601260045260246000fd5b6000613a2782613137565b9150613a3283613137565b925082613a4257613a416139ed565b5b828204905092915050565b6000613a5882613137565b91507fffffffffffffffffffffffffffffffffffffffffffffffffffffffffffffffff8203613a8a57613a89613830565b5b600182019050919050565b7f6d61782033302500000000000000000000000000000000000000000000000000600082015250565b6000613acb60078361375b565b9150613ad682613a95565b602082019050919050565b60006020820190508181036000830152613afa81613abe565b9050919050565b7f2161706f73746c65206f776e6572000000000000000000000000000000000000600082015250565b6000613b37600e8361375b565b9150613b4282613b01565b602082019050919050565b60006020820190508181036000830152613b6681613b2a565b9050919050565b7f61706f73746c6520627573790000000000000000000000000000000000000000600082015250565b6000613ba3600c8361375b565b9150613bae82613b6d565b602082019050919050565b60006020820190508181036000830152613bd281613b96565b9050919050565b7f6c616e64206e6f74206d696e7465640000000000000000000000000000000000600082015250565b6000613c0f600f8361375b565b9150613c1a82613bd9565b602082019050919050565b60006020820190508181036000830152613c3e81613c02565b9050919050565b613c4e8161385f565b8114613c5957600080fd5b50565b600081519050613c6b81613c45565b92915050565b60008060408385031215613c8857613c8761312d565b5b6000613c9685828601613c5c565b9250506020613ca785828601613c5c565b9150509250929050565b7f6c616e642066756c6c3a206e6f20657669637461626c6520736c6f7400000000600082015250565b6000613ce7601c8361375b565b9150613cf282613cb1565b602082019050919050565b60006020820190508181036000830152613d1681613cda565b9050919050565b7f737472656e67746820746f6f206c6f7720746f20657669637400000000000000600082015250565b6000613d5360198361375b565b9150613d5e82613d1d565b602082019050919050565b60006020820190508181036000830152613d8281613d46565b9050919050565b6000606082019050613d9e60008301866133f8565b613dab60208301856133f8565b613db8604083018461319a565b949350505050565b6000604082019050613dd5600083018561319a565b613de260208301846133f8565b9392505050565b7f216472696c6c206f776e65720000000000000000000000000000000000000000600082015250565b6000613e1f600c8361375b565b9150613e2a82613de9565b602082019050919050565b60006020820190508181036000830152613e4e81613e12565b9050919050565b7f6472696c6c206275737900000000000000000000000000000000000000000000600082015250565b6000613e8b600a8361375b565b9150613e9682613e55565b602082019050919050565b60006020820190508181036000830152613eba81613e7e565b9050919050565b6000608082019050613ed6600083018761319a565b613ee3602083018661319a565b613ef060408301856133f8565b613efd606083018461363d565b95945050505050565b7f21617574686f72697a6564000000000000000000000000000000000000000000600082015250565b6000613f3c600b8361375b565b9150613f4782613f06565b602082019050919050565b60006020820190508181036000830152613f6b81613f2f565b9050919050565b7f61706f73746c65206e6f74206865726500000000000000000000000000000000600082015250565b6000613fa860108361375b565b9150613fb382613f72565b602082019050919050565b60006020820190508181036000830152613fd781613f9b565b9050919050565b613fe78161385f565b82525050565b6000604082019050614002600083018561319a565b61400f6020830184613fde565b9392505050565b600061ffff82169050919050565b61402d81614016565b811461403857600080fd5b50565b60008151905061404a81614024565b92915050565b6000602082840312156140665761406561312d565b5b60006140748482850161403b565b9150509291505056fea264697066735822122052e98b59b8eea06d262c3e9d5e2eaf502c08f0448f088c399a7169f9809e3a1b64736f6c63430008140033",
  "linkReferences": {},
  "deployedLinkReferences": {}
}