{
  "_format": "hh-sol-artifact-1",
  "contractName": "MiningSystemV2",
  "sourceName": "contracts/MiningV2.sol",
  "abi": [
    {
      "inputs": [
        {
          "internalType": "address",
          "name": "_land",
          "type": "address"
        },
        {
          "internalType": "address",
          "name": "_drill",
          "type": "address"
        },
        {
          "internalType": "address",
          "name": "_apostle",
          "type": "address"
        },
        {
          "internalType": "address[5]",
          "name": "_resources",
          "type": "address[5]"
        }
      ],
      "stateMutability": "nonpayable",
      "type": "constructor"
    },
    {
      "anonymous": false,
      "inputs": [
        {
          "indexed": true,
          "internalType": "uint256",
          "name": "landId",
          "type": "uint256"
        },
        {
          "indexed": true,
          "internalType": "address",
          "name": "owner",
          "type": "address"
        },
        {
          "indexed": false,
          "internalType": "uint256[5]",
          "name": "amounts",
          "type": "uint256[5]"
        }
      ],
      "name": "Claimed",
      "type": "event"
    },
    {
      "anonymous": false,
      "inputs": [
        {
          "indexed": true,
          "internalType": "uint256",
          "name": "landId",
          "type": "uint256"
        },
        {
          "indexed": false,
          "internalType": "uint256",
          "name": "apostleId",
          "type": "uint256"
        },
        {
          "indexed": false,
          "internalType": "uint256",
          "name": "drillId",
          "type": "uint256"
        }
      ],
      "name": "MiningStarted",
      "type": "event"
    },
    {
      "anonymous": false,
      "inputs": [
        {
          "indexed": true,
          "internalType": "uint256",
          "name": "landId",
          "type": "uint256"
        },
        {
          "indexed": false,
          "internalType": "uint256",
          "name": "apostleId",
          "type": "uint256"
        },
        {
          "indexed": false,
          "internalType": "address",
          "name": "to",
          "type": "address"
        }
      ],
      "name": "MiningStopped",
      "type": "event"
    },
    {
      "inputs": [],
      "name": "MAX_APOSTLES_PER_LAND",
      "outputs": [
        {
          "internalType": "uint256",
          "name": "",
          "type": "uint256"
        }
      ],
      "stateMutability": "view",
      "type": "function"
    },
    {
      "inputs": [
        {
          "internalType": "uint256",
          "name": "landId",
          "type": "uint256"
        },
        {
          "internalType": "uint256",
          "name": "apostleId",
          "type": "uint256"
        },
        {
          "internalType": "address",
          "name": "to",
          "type": "address"
        }
      ],
      "name": "adminStop",
      "outputs": [],
      "stateMutability": "nonpayable",
      "type": "function"
    },
    {
      "inputs": [],
      "name": "apostle",
      "outputs": [
        {
          "internalType": "contract IApostleNFT",
          "name": "",
          "type": "address"
        }
      ],
      "stateMutability": "view",
      "type": "function"
    },
    {
      "inputs": [
        {
          "internalType": "uint256",
          "name": "",
          "type": "uint256"
        }
      ],
      "name": "apostleOnLand",
      "outputs": [
        {
          "internalType": "uint256",
          "name": "",
          "type": "uint256"
        }
      ],
      "stateMutability": "view",
      "type": "function"
    },
    {
      "inputs": [
        {
          "internalType": "uint256",
          "name": "landId",
          "type": "uint256"
        }
      ],
      "name": "claim",
      "outputs": [],
      "stateMutability": "nonpayable",
      "type": "function"
    },
    {
      "inputs": [],
      "name": "drill",
      "outputs": [
        {
          "internalType": "contract IDrillNFT",
          "name": "",
          "type": "address"
        }
      ],
      "stateMutability": "view",
      "type": "function"
    },
    {
      "inputs": [
        {
          "internalType": "uint256",
          "name": "",
          "type": "uint256"
        }
      ],
      "name": "drillOnLand",
      "outputs": [
        {
          "internalType": "uint256",
          "name": "",
          "type": "uint256"
        }
      ],
      "stateMutability": "view",
      "type": "function"
    },
    {
      "inputs": [],
      "name": "land",
      "outputs": [
        {
          "internalType": "contract ILandNFT",
          "name": "",
          "type": "address"
        }
      ],
      "stateMutability": "view",
      "type": "function"
    },
    {
      "inputs": [
        {
          "internalType": "address",
          "name": "",
          "type": "address"
        },
        {
          "internalType": "address",
          "name": "",
          "type": "address"
        },
        {
          "internalType": "uint256",
          "name": "",
          "type": "uint256"
        },
        {
          "internalType": "bytes",
          "name": "",
          "type": "bytes"
        }
      ],
      "name": "onERC721Received",
      "outputs": [
        {
          "internalType": "bytes4",
          "name": "",
          "type": "bytes4"
        }
      ],
      "stateMutability": "pure",
      "type": "function"
    },
    {
      "inputs": [],
      "name": "owner",
      "outputs": [
        {
          "internalType": "address",
          "name": "",
          "type": "address"
        }
      ],
      "stateMutability": "view",
      "type": "function"
    },
    {
      "inputs": [
        {
          "internalType": "uint256",
          "name": "",
          "type": "uint256"
        },
        {
          "internalType": "uint256",
          "name": "",
          "type": "uint256"
        }
      ],
      "name": "pending",
      "outputs": [
        {
          "internalType": "uint256",
          "name": "",
          "type": "uint256"
        }
      ],
      "stateMutability": "view",
      "type": "function"
    },
    {
      "inputs": [
        {
          "internalType": "uint256",
          "name": "landId",
          "type": "uint256"
        }
      ],
      "name": "pendingRewards",
      "outputs": [
        {
          "internalType": "uint256[5]",
          "name": "res",
          "type": "uint256[5]"
        }
      ],
      "stateMutability": "view",
      "type": "function"
    },
    {
      "inputs": [
        {
          "internalType": "uint256",
          "name": "",
          "type": "uint256"
        }
      ],
      "name": "resources",
      "outputs": [
        {
          "internalType": "address",
          "name": "",
          "type": "address"
        }
      ],
      "stateMutability": "view",
      "type": "function"
    },
    {
      "inputs": [
        {
          "internalType": "uint256",
          "name": "",
          "type": "uint256"
        }
      ],
      "name": "slotCount",
      "outputs": [
        {
          "internalType": "uint256",
          "name": "",
          "type": "uint256"
        }
      ],
      "stateMutability": "view",
      "type": "function"
    },
    {
      "inputs": [
        {
          "internalType": "uint256",
          "name": "",
          "type": "uint256"
        },
        {
          "internalType": "uint256",
          "name": "",
          "type": "uint256"
        }
      ],
      "name": "slots",
      "outputs": [
        {
          "internalType": "uint256",
          "name": "apostleId",
          "type": "uint256"
        },
        {
          "internalType": "uint256",
          "name": "drillId",
          "type": "uint256"
        },
        {
          "internalType": "uint256",
          "name": "startTime",
          "type": "uint256"
        },
        {
          "internalType": "address",
          "name": "placer",
          "type": "address"
        }
      ],
      "stateMutability": "view",
      "type": "function"
    },
    {
      "inputs": [
        {
          "internalType": "uint256",
          "name": "landId",
          "type": "uint256"
        },
        {
          "internalType": "uint256",
          "name": "apostleId",
          "type": "uint256"
        },
        {
          "internalType": "uint256",
          "name": "drillId",
          "type": "uint256"
        }
      ],
      "name": "startMining",
      "outputs": [],
      "stateMutability": "nonpayable",
      "type": "function"
    },
    {
      "inputs": [
        {
          "internalType": "uint256",
          "name": "landId",
          "type": "uint256"
        },
        {
          "internalType": "uint256",
          "name": "apostleId",
          "type": "uint256"
        }
      ],
      "name": "stopMining",
      "outputs": [],
      "stateMutability": "nonpayable",
      "type": "function"
    },
    {
      "inputs": [
        {
          "internalType": "address",
          "name": "a",
          "type": "address"
        }
      ],
      "name": "transferOwnership",
      "outputs": [],
      "stateMutability": "nonpayable",
      "type": "function"
    }
  ],
  "bytecode": "0x60806040523480156200001157600080fd5b5060405162002c0d38038062002c0d8339818101604052810190620000379190620003d0565b336000806101000a81548173ffffffffffffffffffffffffffffffffffffffff021916908373ffffffffffffffffffffffffffffffffffffffff16021790555083600160006101000a81548173ffffffffffffffffffffffffffffffffffffffff021916908373ffffffffffffffffffffffffffffffffffffffff16021790555082600260006101000a81548173ffffffffffffffffffffffffffffffffffffffff021916908373ffffffffffffffffffffffffffffffffffffffff16021790555081600360006101000a81548173ffffffffffffffffffffffffffffffffffffffff021916908373ffffffffffffffffffffffffffffffffffffffff1602179055508060049060056200014d92919062000158565b505050505062000443565b8260058101928215620001c7579160200282015b82811115620001c65782518260006101000a81548173ffffffffffffffffffffffffffffffffffffffff021916908373ffffffffffffffffffffffffffffffffffffffff160217905550916020019190600101906200016c565b5b509050620001d69190620001da565b5090565b5b80821115620001f5576000816000905550600101620001db565b5090565b6000604051905090565b600080fd5b600073ffffffffffffffffffffffffffffffffffffffff82169050919050565b6000620002358262000208565b9050919050565b620002478162000228565b81146200025357600080fd5b50565b60008151905062000267816200023c565b92915050565b600080fd5b6000601f19601f8301169050919050565b7f4e487b7100000000000000000000000000000000000000000000000000000000600052604160045260246000fd5b620002bd8262000272565b810181811067ffffffffffffffff82111715620002df57620002de62000283565b5b80604052505050565b6000620002f4620001f9565b9050620003028282620002b2565b919050565b600067ffffffffffffffff82111562000325576200032462000283565b5b602082029050919050565b600080fd5b60006200034c620003468462000307565b620002e8565b9050806020840283018581111562000369576200036862000330565b5b835b8181101562000396578062000381888262000256565b8452602084019350506020810190506200036b565b5050509392505050565b600082601f830112620003b857620003b76200026d565b5b6005620003c784828562000335565b91505092915050565b6000806000806101008587031215620003ee57620003ed62000203565b5b6000620003fe8782880162000256565b9450506020620004118782880162000256565b9350506040620004248782880162000256565b92505060606200043787828801620003a0565b91505092959194509250565b6127ba80620004536000396000f3fe608060405234801561001057600080fd5b50600436106101165760003560e01c80638da5cb5b116100a2578063e6d44c4511610071578063e6d44c4514610307578063ec823b6d14610337578063f0b466f51461036a578063f2fde38b14610388578063fbf8bdc9146103a457610116565b80638da5cb5b1461026b578063953cc9f914610289578063a30a7171146102a7578063dd5bc96f146102d757610116565b8063244d6daa116100e9578063244d6daa146101b3578063379607f5146101e3578063525d9de0146101ff5780637dcb2abf1461021d5780638c9801291461024d57610116565b806307f12b0d1461011b5780630a9733f01461014b578063150b7a021461016757806323fc6fef14610197575b600080fd5b61013560048036038101906101309190611afc565b6103c0565b6040516101429190611b38565b60405180910390f35b61016560048036038101906101609190611bb1565b6103d8565b005b610181600480360381019061017c9190611c69565b610476565b60405161018e9190611d2c565b60405180910390f35b6101b160048036038101906101ac9190611d47565b61048b565b005b6101cd60048036038101906101c89190611afc565b61049a565b6040516101da9190611d96565b60405180910390f35b6101fd60048036038101906101f89190611afc565b6104d0565b005b610207610725565b6040516102149190611e10565b60405180910390f35b61023760048036038101906102329190611afc565b61074b565b6040516102449190611ed6565b60405180910390f35b6102556108bb565b6040516102629190611f12565b60405180910390f35b6102736108e1565b6040516102809190611d96565b60405180910390f35b610291610905565b60405161029e9190611b38565b60405180910390f35b6102c160048036038101906102bc9190611d47565b61090a565b6040516102ce9190611b38565b60405180910390f35b6102f160048036038101906102ec9190611afc565b610932565b6040516102fe9190611b38565b60405180910390f35b610321600480360381019061031c9190611afc565b61094a565b60405161032e9190611b38565b60405180910390f35b610351600480360381019061034c9190611d47565b610962565b6040516103619493929190611f2d565b60405180910390f35b6103726109c5565b60405161037f9190611f93565b60405180910390f35b6103a2600480360381019061039d9190611fae565b6109eb565b005b6103be60048036038101906103b99190611fdb565b610af5565b005b600c6020528060005260406000206000915090505481565b60008054906101000a900473ffffffffffffffffffffffffffffffffffffffff1673ffffffffffffffffffffffffffffffffffffffff163373ffffffffffffffffffffffffffffffffffffffff1614610466576040517f08c379a000000000000000000000000000000000000000000000000000000000815260040161045d9061208b565b60405180910390fd5b610471838383611095565b505050565b600063150b7a0260e01b905095945050505050565b610496828233611095565b5050565b600481600581106104aa57600080fd5b016000915054906101000a900473ffffffffffffffffffffffffffffffffffffffff1681565b6104d981611687565b6000600160009054906101000a900473ffffffffffffffffffffffffffffffffffffffff1673ffffffffffffffffffffffffffffffffffffffff16636352211e836040518263ffffffff1660e01b81526004016105369190611b38565b602060405180830381865afa158015610553573d6000803e3d6000fd5b505050506040513d601f19601f8201168201806040525081019061057791906120c0565b9050610581611a9a565b60005b60058160ff1610156106d0576000600d60008681526020019081526020016000208260ff16600581106105ba576105b96120ed565b5b0154905060008111156106bc576000600d60008781526020019081526020016000208360ff16600581106105f1576105f06120ed565b5b018190555080838360ff166005811061060d5761060c6120ed565b5b60200201818152505060048260ff166005811061062d5761062c6120ed565b5b0160009054906101000a900473ffffffffffffffffffffffffffffffffffffffff1673ffffffffffffffffffffffffffffffffffffffff166340c10f1985836040518363ffffffff1660e01b815260040161068992919061211c565b600060405180830381600087803b1580156106a357600080fd5b505af11580156106b7573d6000803e3d6000fd5b505050505b5080806106c890612181565b915050610584565b508173ffffffffffffffffffffffffffffffffffffffff16837ff893fcdebf2dbfd23aecbfa6a517db14a56f01ab3dee4742f04eac4ef4b63722836040516107189190611ed6565b60405180910390a3505050565b600260009054906101000a900473ffffffffffffffffffffffffffffffffffffffff1681565b610753611a9a565b60005b60058160ff1610156107be57600d60008481526020019081526020016000208160ff166005811061078a576107896120ed565b5b0154828260ff16600581106107a2576107a16120ed565b5b60200201818152505080806107b690612181565b915050610756565b506000600a600084815260200190815260200160002054905060005b818110156108b4576000600960008681526020019081526020016000208260058110610809576108086120ed565b5b600402019050600081600201544261082191906121aa565b905060006108308784846117ab565b905060005b60058160ff16101561089d57818160ff1660058110610857576108566120ed565b5b6020020151878260ff1660058110610872576108716120ed565b5b6020020181815161088391906121de565b91508181525050808061089590612181565b915050610835565b5050505080806108ac90612212565b9150506107da565b5050919050565b600160009054906101000a900473ffffffffffffffffffffffffffffffffffffffff1681565b60008054906101000a900473ffffffffffffffffffffffffffffffffffffffff1681565b600581565b600d602052816000526040600020816005811061092657600080fd5b01600091509150505481565b600a6020528060005260406000206000915090505481565b600b6020528060005260406000206000915090505481565b6009602052816000526040600020816005811061097e57600080fd5b60040201600091509150508060000154908060010154908060020154908060030160009054906101000a900473ffffffffffffffffffffffffffffffffffffffff16905084565b600360009054906101000a900473ffffffffffffffffffffffffffffffffffffffff1681565b60008054906101000a900473ffffffffffffffffffffffffffffffffffffffff1673ffffffffffffffffffffffffffffffffffffffff163373ffffffffffffffffffffffffffffffffffffffff1614610a79576040517f08c379a0000000000000000000000000000000000000000000000000000000008152600401610a709061208b565b60405180910390fd5b600073ffffffffffffffffffffffffffffffffffffffff168173ffffffffffffffffffffffffffffffffffffffff1603610ab257600080fd5b806000806101000a81548173ffffffffffffffffffffffffffffffffffffffff021916908373ffffffffffffffffffffffffffffffffffffffff16021790555050565b3373ffffffffffffffffffffffffffffffffffffffff16600360009054906101000a900473ffffffffffffffffffffffffffffffffffffffff1673ffffffffffffffffffffffffffffffffffffffff16636352211e846040518263ffffffff1660e01b8152600401610b679190611b38565b602060405180830381865afa158015610b84573d6000803e3d6000fd5b505050506040513d601f19601f82011682018060405250810190610ba891906120c0565b73ffffffffffffffffffffffffffffffffffffffff1614610bfe576040517f08c379a0000000000000000000000000000000000000000000000000000000008152600401610bf5906122a6565b60405180910390fd5b6000600b60008481526020019081526020016000205414610c54576040517f08c379a0000000000000000000000000000000000000000000000000000000008152600401610c4b90612312565b60405180910390fd5b6000600a600085815260200190815260200160002054905060058110610caf576040517f08c379a0000000000000000000000000000000000000000000000000000000008152600401610ca69061237e565b60405180910390fd5b60008214610ec0573373ffffffffffffffffffffffffffffffffffffffff16600260009054906101000a900473ffffffffffffffffffffffffffffffffffffffff1673ffffffffffffffffffffffffffffffffffffffff16636352211e846040518263ffffffff1660e01b8152600401610d299190611b38565b602060405180830381865afa158015610d46573d6000803e3d6000fd5b505050506040513d601f19601f82011682018060405250810190610d6a91906120c0565b73ffffffffffffffffffffffffffffffffffffffff1614610dc0576040517f08c379a0000000000000000000000000000000000000000000000000000000008152600401610db7906123ea565b60405180910390fd5b6000600c60008481526020019081526020016000205414610e16576040517f08c379a0000000000000000000000000000000000000000000000000000000008152600401610e0d90612456565b60405180910390fd5b600260009054906101000a900473ffffffffffffffffffffffffffffffffffffffff1673ffffffffffffffffffffffffffffffffffffffff166323b872dd3330856040518463ffffffff1660e01b8152600401610e7593929190612476565b600060405180830381600087803b158015610e8f57600080fd5b505af1158015610ea3573d6000803e3d6000fd5b5050505083600c6000848152602001908152602001600020819055505b600360009054906101000a900473ffffffffffffffffffffffffffffffffffffffff1673ffffffffffffffffffffffffffffffffffffffff166323b872dd3330866040518463ffffffff1660e01b8152600401610f1f93929190612476565b600060405180830381600087803b158015610f3957600080fd5b505af1158015610f4d573d6000803e3d6000fd5b5050505083600b60008581526020019081526020016000208190555060405180608001604052808481526020018381526020014281526020013373ffffffffffffffffffffffffffffffffffffffff16815250600960008681526020019081526020016000208260058110610fc557610fc46120ed565b5b6004020160008201518160000155602082015181600101556040820151816002015560608201518160030160006101000a81548173ffffffffffffffffffffffffffffffffffffffff021916908373ffffffffffffffffffffffffffffffffffffffff16021790555090505060018161103e91906121de565b600a600086815260200190815260200160002081905550837f151ffc4d7c265e5cd92a14f89d5f0ecd054c25af1f9e945597be09479467cd7c84846040516110879291906124ad565b60405180910390a250505050565b61109e83611687565b6000600a600085815260200190815260200160002054905060005b8181101561164657836009600087815260200190815260200160002082600581106110e7576110e66120ed565b5b60040201600001540361163357600060096000878152602001908152602001600020826005811061111b5761111a6120ed565b5b6004020160030160009054906101000a900473ffffffffffffffffffffffffffffffffffffffff1690506000600160009054906101000a900473ffffffffffffffffffffffffffffffffffffffff1673ffffffffffffffffffffffffffffffffffffffff16636352211e886040518263ffffffff1660e01b81526004016111a29190611b38565b602060405180830381865afa9250505080156111dc57506040513d601f19601f820116820180604052508101906111d991906120c0565b60015b156111e657809150505b8173ffffffffffffffffffffffffffffffffffffffff163373ffffffffffffffffffffffffffffffffffffffff16148061124b57508073ffffffffffffffffffffffffffffffffffffffff163373ffffffffffffffffffffffffffffffffffffffff16145b806112a1575060008054906101000a900473ffffffffffffffffffffffffffffffffffffffff1673ffffffffffffffffffffffffffffffffffffffff163373ffffffffffffffffffffffffffffffffffffffff16145b6112e0576040517f08c379a00000000000000000000000000000000000000000000000000000000081526004016112d790612522565b60405180910390fd5b6000600960008981526020019081526020016000208460058110611307576113066120ed565b5b60040201600101549050600360009054906101000a900473ffffffffffffffffffffffffffffffffffffffff1673ffffffffffffffffffffffffffffffffffffffff166323b872dd30888a6040518463ffffffff1660e01b815260040161137093929190612476565b600060405180830381600087803b15801561138a57600080fd5b505af115801561139e573d6000803e3d6000fd5b505050506000600b6000898152602001908152602001600020819055506000811461146e57600260009054906101000a900473ffffffffffffffffffffffffffffffffffffffff1673ffffffffffffffffffffffffffffffffffffffff166323b872dd3088846040518463ffffffff1660e01b815260040161142293929190612476565b600060405180830381600087803b15801561143c57600080fd5b505af1158015611450573d6000803e3d6000fd5b505050506000600c6000838152602001908152602001600020819055505b6009600089815260200190815260200160002060018661148e91906121aa565b6005811061149f5761149e6120ed565b5b60040201600960008a815260200190815260200160002085600581106114c8576114c76120ed565b5b600402016000820154816000015560018201548160010155600282015481600201556003820160009054906101000a900473ffffffffffffffffffffffffffffffffffffffff168160030160006101000a81548173ffffffffffffffffffffffffffffffffffffffff021916908373ffffffffffffffffffffffffffffffffffffffff1602179055509050506009600089815260200190815260200160002060018661157491906121aa565b60058110611585576115846120ed565b5b60040201600080820160009055600182016000905560028201600090556003820160006101000a81549073ffffffffffffffffffffffffffffffffffffffff021916905550506001856115d891906121aa565b600a60008a815260200190815260200160002081905550877f81d6fe176c03497c3f83f73b855570067d3bfec20217d1f6f74679c27b60d3258888604051611621929190612542565b60405180910390a25050505050611682565b808061163e90612212565b9150506110b9565b506040517f08c379a0000000000000000000000000000000000000000000000000000000008152600401611679906125b7565b60405180910390fd5b505050565b6000600a600083815260200190815260200160002054905060005b818110156117a65760006009600085815260200190815260200160002082600581106116d1576116d06120ed565b5b60040201905060008160020154426116e991906121aa565b9050600081036116fa575050611793565b60006117078684846117ab565b905060005b60058160ff16101561178557818160ff166005811061172e5761172d6120ed565b5b6020020151600d60008981526020019081526020016000208260ff166005811061175b5761175a6120ed565b5b01600082825461176b91906121de565b92505081905550808061177d90612181565b91505061170c565b504283600201819055505050505b808061179e90612212565b9150506116a2565b505050565b6117b3611a9a565b6000600360009054906101000a900473ffffffffffffffffffffffffffffffffffffffff1673ffffffffffffffffffffffffffffffffffffffff16639ebd36f385600001546040518263ffffffff1660e01b81526004016118149190611b38565b6040805180830381865afa158015611830573d6000803e3d6000fd5b505050506040513d601f19601f820116820180604052508101906118549190612603565b509050600080600080876001015414159050801561191457600260009054906101000a900473ffffffffffffffffffffffffffffffffffffffff1673ffffffffffffffffffffffffffffffffffffffff16639ebd36f388600101546040518263ffffffff1660e01b81526004016118cb9190611b38565b6040805180830381865afa1580156118e7573d6000803e3d6000fd5b505050506040513d601f19601f8201168201806040525081019061190b9190612603565b80935081945050505b60005b60058160ff161015611a8e576000600160009054906101000a900473ffffffffffffffffffffffffffffffffffffffff1673ffffffffffffffffffffffffffffffffffffffff1663c6a68dbf8b846040518363ffffffff1660e01b8152600401611982929190612652565b602060405180830381865afa15801561199f573d6000803e3d6000fd5b505050506040513d601f19601f820116820180604052508101906119c391906126b5565b61ffff169050600081036119d75750611a7b565b6000606490508380156119ef57508260ff168560ff16145b15611a125760148660ff16611a0491906126e2565b81611a0f91906121de565b90505b6319bfcc0089828960ff16670de0b6b3a764000086611a3191906126e2565b611a3b91906126e2565b611a4591906126e2565b611a4f91906126e2565b611a599190612753565b888460ff1660058110611a6f57611a6e6120ed565b5b60200201818152505050505b8080611a8690612181565b915050611917565b50505050509392505050565b6040518060a00160405280600590602082028036833780820191505090505090565b600080fd5b600080fd5b6000819050919050565b611ad981611ac6565b8114611ae457600080fd5b50565b600081359050611af681611ad0565b92915050565b600060208284031215611b1257611b11611abc565b5b6000611b2084828501611ae7565b91505092915050565b611b3281611ac6565b82525050565b6000602082019050611b4d6000830184611b29565b92915050565b600073ffffffffffffffffffffffffffffffffffffffff82169050919050565b6000611b7e82611b53565b9050919050565b611b8e81611b73565b8114611b9957600080fd5b50565b600081359050611bab81611b85565b92915050565b600080600060608486031215611bca57611bc9611abc565b5b6000611bd886828701611ae7565b9350506020611be986828701611ae7565b9250506040611bfa86828701611b9c565b9150509250925092565b600080fd5b600080fd5b600080fd5b60008083601f840112611c2957611c28611c04565b5b8235905067ffffffffffffffff811115611c4657611c45611c09565b5b602083019150836001820283011115611c6257611c61611c0e565b5b9250929050565b600080600080600060808688031215611c8557611c84611abc565b5b6000611c9388828901611b9c565b9550506020611ca488828901611b9c565b9450506040611cb588828901611ae7565b935050606086013567ffffffffffffffff811115611cd657611cd5611ac1565b5b611ce288828901611c13565b92509250509295509295909350565b60007fffffffff0000000000000000000000000000000000000000000000000000000082169050919050565b611d2681611cf1565b82525050565b6000602082019050611d416000830184611d1d565b92915050565b60008060408385031215611d5e57611d5d611abc565b5b6000611d6c85828601611ae7565b9250506020611d7d85828601611ae7565b9150509250929050565b611d9081611b73565b82525050565b6000602082019050611dab6000830184611d87565b92915050565b6000819050919050565b6000611dd6611dd1611dcc84611b53565b611db1565b611b53565b9050919050565b6000611de882611dbb565b9050919050565b6000611dfa82611ddd565b9050919050565b611e0a81611def565b82525050565b6000602082019050611e256000830184611e01565b92915050565b600060059050919050565b600081905092915050565b6000819050919050565b611e5481611ac6565b82525050565b6000611e668383611e4b565b60208301905092915050565b6000602082019050919050565b611e8881611e2b565b611e928184611e36565b9250611e9d82611e41565b8060005b83811015611ece578151611eb58782611e5a565b9650611ec083611e72565b925050600181019050611ea1565b505050505050565b600060a082019050611eeb6000830184611e7f565b92915050565b6000611efc82611ddd565b9050919050565b611f0c81611ef1565b82525050565b6000602082019050611f276000830184611f03565b92915050565b6000608082019050611f426000830187611b29565b611f4f6020830186611b29565b611f5c6040830185611b29565b611f696060830184611d87565b95945050505050565b6000611f7d82611ddd565b9050919050565b611f8d81611f72565b82525050565b6000602082019050611fa86000830184611f84565b92915050565b600060208284031215611fc457611fc3611abc565b5b6000611fd284828501611b9c565b91505092915050565b600080600060608486031215611ff457611ff3611abc565b5b600061200286828701611ae7565b935050602061201386828701611ae7565b925050604061202486828701611ae7565b9150509250925092565b600082825260208201905092915050565b7f216f776e65720000000000000000000000000000000000000000000000000000600082015250565b600061207560068361202e565b91506120808261203f565b602082019050919050565b600060208201905081810360008301526120a481612068565b9050919050565b6000815190506120ba81611b85565b92915050565b6000602082840312156120d6576120d5611abc565b5b60006120e4848285016120ab565b91505092915050565b7f4e487b7100000000000000000000000000000000000000000000000000000000600052603260045260246000fd5b60006040820190506121316000830185611d87565b61213e6020830184611b29565b9392505050565b7f4e487b7100000000000000000000000000000000000000000000000000000000600052601160045260246000fd5b600060ff82169050919050565b600061218c82612174565b915060ff820361219f5761219e612145565b5b600182019050919050565b60006121b582611ac6565b91506121c083611ac6565b92508282039050818111156121d8576121d7612145565b5b92915050565b60006121e982611ac6565b91506121f483611ac6565b925082820190508082111561220c5761220b612145565b5b92915050565b600061221d82611ac6565b91507fffffffffffffffffffffffffffffffffffffffffffffffffffffffffffffffff820361224f5761224e612145565b5b600182019050919050565b7f2161706f73746c65206f776e6572000000000000000000000000000000000000600082015250565b6000612290600e8361202e565b915061229b8261225a565b602082019050919050565b600060208201905081810360008301526122bf81612283565b9050919050565b7f61706f73746c6520627573790000000000000000000000000000000000000000600082015250565b60006122fc600c8361202e565b9150612307826122c6565b602082019050919050565b6000602082019050818103600083015261232b816122ef565b9050919050565b7f6c616e642066756c6c0000000000000000000000000000000000000000000000600082015250565b600061236860098361202e565b915061237382612332565b602082019050919050565b600060208201905081810360008301526123978161235b565b9050919050565b7f216472696c6c206f776e65720000000000000000000000000000000000000000600082015250565b60006123d4600c8361202e565b91506123df8261239e565b602082019050919050565b60006020820190508181036000830152612403816123c7565b9050919050565b7f6472696c6c206275737900000000000000000000000000000000000000000000600082015250565b6000612440600a8361202e565b915061244b8261240a565b602082019050919050565b6000602082019050818103600083015261246f81612433565b9050919050565b600060608201905061248b6000830186611d87565b6124986020830185611d87565b6124a56040830184611b29565b949350505050565b60006040820190506124c26000830185611b29565b6124cf6020830184611b29565b9392505050565b7f21617574686f72697a6564000000000000000000000000000000000000000000600082015250565b600061250c600b8361202e565b9150612517826124d6565b602082019050919050565b6000602082019050818103600083015261253b816124ff565b9050919050565b60006040820190506125576000830185611b29565b6125646020830184611d87565b9392505050565b7f61706f73746c65206e6f74206865726500000000000000000000000000000000600082015250565b60006125a160108361202e565b91506125ac8261256b565b602082019050919050565b600060208201905081810360008301526125d081612594565b9050919050565b6125e081612174565b81146125eb57600080fd5b50565b6000815190506125fd816125d7565b92915050565b6000806040838503121561261a57612619611abc565b5b6000612628858286016125ee565b9250506020612639858286016125ee565b9150509250929050565b61264c81612174565b82525050565b60006040820190506126676000830185611b29565b6126746020830184612643565b9392505050565b600061ffff82169050919050565b6126928161267b565b811461269d57600080fd5b50565b6000815190506126af81612689565b92915050565b6000602082840312156126cb576126ca611abc565b5b60006126d9848285016126a0565b91505092915050565b60006126ed82611ac6565b91506126f883611ac6565b925082820261270681611ac6565b9150828204841483151761271d5761271c612145565b5b5092915050565b7f4e487b7100000000000000000000000000000000000000000000000000000000600052601260045260246000fd5b600061275e82611ac6565b915061276983611ac6565b92508261277957612778612724565b5b82820490509291505056fea2646970667358221220ee68dd3b21eeaf91adf1b8fea4e665f6105f26aeaab26b6d9c79564f9934c4b564736f6c63430008140033",
  "linkReferences": {},
  "deployedLinkReferences": {}
}