{
  "_format": "hh-sol-artifact-1",
  "contractName": "ApostleV2",
  "sourceName": "contracts/ApostleV2.sol",
  "abi": [
    {
      "inputs": [
        {
          "internalType": "address",
          "name": "_ring",
          "type": "address"
        }
      ],
      "stateMutability": "nonpayable",
      "type": "constructor"
    },
    {
      "anonymous": false,
      "inputs": [
        {
          "indexed": true,
          "internalType": "uint256",
          "name": "childId",
          "type": "uint256"
        },
        {
          "indexed": false,
          "internalType": "uint256",
          "name": "motherId",
          "type": "uint256"
        },
        {
          "indexed": false,
          "internalType": "uint256",
          "name": "fatherId",
          "type": "uint256"
        },
        {
          "indexed": false,
          "internalType": "address",
          "name": "to",
          "type": "address"
        }
      ],
      "name": "ApostleBred",
      "type": "event"
    },
    {
      "anonymous": false,
      "inputs": [
        {
          "indexed": true,
          "internalType": "uint256",
          "name": "id",
          "type": "uint256"
        },
        {
          "indexed": false,
          "internalType": "address",
          "name": "to",
          "type": "address"
        },
        {
          "indexed": false,
          "internalType": "uint8",
          "name": "strength",
          "type": "uint8"
        },
        {
          "indexed": false,
          "internalType": "uint8",
          "name": "element",
          "type": "uint8"
        },
        {
          "indexed": false,
          "internalType": "uint8",
          "name": "gender",
          "type": "uint8"
        },
        {
          "indexed": false,
          "internalType": "uint16",
          "name": "gen",
          "type": "uint16"
        }
      ],
      "name": "ApostleMinted",
      "type": "event"
    },
    {
      "anonymous": false,
      "inputs": [
        {
          "indexed": true,
          "internalType": "address",
          "name": "o",
          "type": "address"
        },
        {
          "indexed": true,
          "internalType": "address",
          "name": "a",
          "type": "address"
        },
        {
          "indexed": true,
          "internalType": "uint256",
          "name": "id",
          "type": "uint256"
        }
      ],
      "name": "Approval",
      "type": "event"
    },
    {
      "anonymous": false,
      "inputs": [
        {
          "indexed": true,
          "internalType": "address",
          "name": "o",
          "type": "address"
        },
        {
          "indexed": true,
          "internalType": "address",
          "name": "op",
          "type": "address"
        },
        {
          "indexed": false,
          "internalType": "bool",
          "name": "v",
          "type": "bool"
        }
      ],
      "name": "ApprovalForAll",
      "type": "event"
    },
    {
      "anonymous": false,
      "inputs": [
        {
          "indexed": true,
          "internalType": "address",
          "name": "f",
          "type": "address"
        },
        {
          "indexed": true,
          "internalType": "address",
          "name": "t",
          "type": "address"
        },
        {
          "indexed": true,
          "internalType": "uint256",
          "name": "id",
          "type": "uint256"
        }
      ],
      "name": "Transfer",
      "type": "event"
    },
    {
      "inputs": [],
      "name": "BREED_COOLDOWN_BASE",
      "outputs": [
        {
          "internalType": "uint256",
          "name": "",
          "type": "uint256"
        }
      ],
      "stateMutability": "view",
      "type": "function"
    },
    {
      "inputs": [],
      "name": "GROWTH_TIME",
      "outputs": [
        {
          "internalType": "uint256",
          "name": "",
          "type": "uint256"
        }
      ],
      "stateMutability": "view",
      "type": "function"
    },
    {
      "inputs": [
        {
          "internalType": "address",
          "name": "a",
          "type": "address"
        },
        {
          "internalType": "uint256",
          "name": "id",
          "type": "uint256"
        }
      ],
      "name": "approve",
      "outputs": [],
      "stateMutability": "nonpayable",
      "type": "function"
    },
    {
      "inputs": [
        {
          "internalType": "uint256",
          "name": "",
          "type": "uint256"
        }
      ],
      "name": "attrs",
      "outputs": [
        {
          "internalType": "uint8",
          "name": "strength",
          "type": "uint8"
        },
        {
          "internalType": "uint8",
          "name": "element",
          "type": "uint8"
        },
        {
          "internalType": "uint8",
          "name": "gender",
          "type": "uint8"
        },
        {
          "internalType": "uint16",
          "name": "gen",
          "type": "uint16"
        },
        {
          "internalType": "uint64",
          "name": "genes",
          "type": "uint64"
        },
        {
          "internalType": "uint64",
          "name": "birthTime",
          "type": "uint64"
        },
        {
          "internalType": "uint64",
          "name": "cooldown",
          "type": "uint64"
        },
        {
          "internalType": "uint32",
          "name": "motherId",
          "type": "uint32"
        },
        {
          "internalType": "uint32",
          "name": "fatherId",
          "type": "uint32"
        }
      ],
      "stateMutability": "view",
      "type": "function"
    },
    {
      "inputs": [
        {
          "internalType": "address",
          "name": "",
          "type": "address"
        }
      ],
      "name": "balanceOf",
      "outputs": [
        {
          "internalType": "uint256",
          "name": "",
          "type": "uint256"
        }
      ],
      "stateMutability": "view",
      "type": "function"
    },
    {
      "inputs": [
        {
          "internalType": "uint256",
          "name": "maleId",
          "type": "uint256"
        },
        {
          "internalType": "uint256",
          "name": "femaleId",
          "type": "uint256"
        }
      ],
      "name": "breed",
      "outputs": [
        {
          "internalType": "uint256",
          "name": "childId",
          "type": "uint256"
        }
      ],
      "stateMutability": "nonpayable",
      "type": "function"
    },
    {
      "inputs": [],
      "name": "breedFee",
      "outputs": [
        {
          "internalType": "uint256",
          "name": "",
          "type": "uint256"
        }
      ],
      "stateMutability": "view",
      "type": "function"
    },
    {
      "inputs": [
        {
          "internalType": "uint256",
          "name": "",
          "type": "uint256"
        }
      ],
      "name": "getApproved",
      "outputs": [
        {
          "internalType": "address",
          "name": "",
          "type": "address"
        }
      ],
      "stateMutability": "view",
      "type": "function"
    },
    {
      "inputs": [
        {
          "internalType": "uint256",
          "name": "id",
          "type": "uint256"
        }
      ],
      "name": "growthProgress",
      "outputs": [
        {
          "internalType": "uint8",
          "name": "",
          "type": "uint8"
        }
      ],
      "stateMutability": "view",
      "type": "function"
    },
    {
      "inputs": [
        {
          "internalType": "uint256",
          "name": "id",
          "type": "uint256"
        }
      ],
      "name": "isAdult",
      "outputs": [
        {
          "internalType": "bool",
          "name": "",
          "type": "bool"
        }
      ],
      "stateMutability": "view",
      "type": "function"
    },
    {
      "inputs": [
        {
          "internalType": "address",
          "name": "",
          "type": "address"
        },
        {
          "internalType": "address",
          "name": "",
          "type": "address"
        }
      ],
      "name": "isApprovedForAll",
      "outputs": [
        {
          "internalType": "bool",
          "name": "",
          "type": "bool"
        }
      ],
      "stateMutability": "view",
      "type": "function"
    },
    {
      "inputs": [
        {
          "internalType": "address",
          "name": "to",
          "type": "address"
        },
        {
          "internalType": "uint8",
          "name": "strength",
          "type": "uint8"
        },
        {
          "internalType": "uint8",
          "name": "element",
          "type": "uint8"
        }
      ],
      "name": "mint",
      "outputs": [
        {
          "internalType": "uint256",
          "name": "id",
          "type": "uint256"
        }
      ],
      "stateMutability": "nonpayable",
      "type": "function"
    },
    {
      "inputs": [],
      "name": "name",
      "outputs": [
        {
          "internalType": "string",
          "name": "",
          "type": "string"
        }
      ],
      "stateMutability": "view",
      "type": "function"
    },
    {
      "inputs": [],
      "name": "nextId",
      "outputs": [
        {
          "internalType": "uint256",
          "name": "",
          "type": "uint256"
        }
      ],
      "stateMutability": "view",
      "type": "function"
    },
    {
      "inputs": [
        {
          "internalType": "address",
          "name": "",
          "type": "address"
        },
        {
          "internalType": "address",
          "name": "",
          "type": "address"
        },
        {
          "internalType": "uint256",
          "name": "",
          "type": "uint256"
        },
        {
          "internalType": "bytes",
          "name": "",
          "type": "bytes"
        }
      ],
      "name": "onERC721Received",
      "outputs": [
        {
          "internalType": "bytes4",
          "name": "",
          "type": "bytes4"
        }
      ],
      "stateMutability": "pure",
      "type": "function"
    },
    {
      "inputs": [
        {
          "internalType": "address",
          "name": "",
          "type": "address"
        }
      ],
      "name": "operators",
      "outputs": [
        {
          "internalType": "bool",
          "name": "",
          "type": "bool"
        }
      ],
      "stateMutability": "view",
      "type": "function"
    },
    {
      "inputs": [],
      "name": "owner",
      "outputs": [
        {
          "internalType": "address",
          "name": "",
          "type": "address"
        }
      ],
      "stateMutability": "view",
      "type": "function"
    },
    {
      "inputs": [
        {
          "internalType": "uint256",
          "name": "",
          "type": "uint256"
        }
      ],
      "name": "ownerOf",
      "outputs": [
        {
          "internalType": "address",
          "name": "",
          "type": "address"
        }
      ],
      "stateMutability": "view",
      "type": "function"
    },
    {
      "inputs": [],
      "name": "ringToken",
      "outputs": [
        {
          "internalType": "address",
          "name": "",
          "type": "address"
        }
      ],
      "stateMutability": "view",
      "type": "function"
    },
    {
      "inputs": [
        {
          "internalType": "address",
          "name": "f",
          "type": "address"
        },
        {
          "internalType": "address",
          "name": "t",
          "type": "address"
        },
        {
          "internalType": "uint256",
          "name": "id",
          "type": "uint256"
        }
      ],
      "name": "safeTransferFrom",
      "outputs": [],
      "stateMutability": "nonpayable",
      "type": "function"
    },
    {
      "inputs": [
        {
          "internalType": "address",
          "name": "f",
          "type": "address"
        },
        {
          "internalType": "address",
          "name": "t",
          "type": "address"
        },
        {
          "internalType": "uint256",
          "name": "id",
          "type": "uint256"
        },
        {
          "internalType": "bytes",
          "name": "d",
          "type": "bytes"
        }
      ],
      "name": "safeTransferFrom",
      "outputs": [],
      "stateMutability": "nonpayable",
      "type": "function"
    },
    {
      "inputs": [
        {
          "internalType": "address",
          "name": "op",
          "type": "address"
        },
        {
          "internalType": "bool",
          "name": "v",
          "type": "bool"
        }
      ],
      "name": "setApprovalForAll",
      "outputs": [],
      "stateMutability": "nonpayable",
      "type": "function"
    },
    {
      "inputs": [
        {
          "internalType": "uint256",
          "name": "fee",
          "type": "uint256"
        }
      ],
      "name": "setBreedFee",
      "outputs": [],
      "stateMutability": "nonpayable",
      "type": "function"
    },
    {
      "inputs": [
        {
          "internalType": "address",
          "name": "a",
          "type": "address"
        },
        {
          "internalType": "bool",
          "name": "v",
          "type": "bool"
        }
      ],
      "name": "setOperator",
      "outputs": [],
      "stateMutability": "nonpayable",
      "type": "function"
    },
    {
      "inputs": [
        {
          "internalType": "bytes4",
          "name": "id",
          "type": "bytes4"
        }
      ],
      "name": "supportsInterface",
      "outputs": [
        {
          "internalType": "bool",
          "name": "",
          "type": "bool"
        }
      ],
      "stateMutability": "pure",
      "type": "function"
    },
    {
      "inputs": [],
      "name": "symbol",
      "outputs": [
        {
          "internalType": "string",
          "name": "",
          "type": "string"
        }
      ],
      "stateMutability": "view",
      "type": "function"
    },
    {
      "inputs": [
        {
          "internalType": "address",
          "name": "f",
          "type": "address"
        },
        {
          "internalType": "address",
          "name": "t",
          "type": "address"
        },
        {
          "internalType": "uint256",
          "name": "id",
          "type": "uint256"
        }
      ],
      "name": "transferFrom",
      "outputs": [],
      "stateMutability": "nonpayable",
      "type": "function"
    },
    {
      "inputs": [
        {
          "internalType": "address",
          "name": "a",
          "type": "address"
        }
      ],
      "name": "transferOwnership",
      "outputs": [],
      "stateMutability": "nonpayable",
      "type": "function"
    }
  ],
  "bytecode": "0x60806040526001600755670de0b6b3a7640000600b553480156200002257600080fd5b5060405162004010380380620040108339818101604052810190620000489190620001cc565b6040518060400160405280601281526020017f45766f4c616e642041706f73746c6520563200000000000000000000000000008152506040518060400160405280600381526020017f41504f0000000000000000000000000000000000000000000000000000000000815250336000806101000a81548173ffffffffffffffffffffffffffffffffffffffff021916908373ffffffffffffffffffffffffffffffffffffffff160217905550816001908162000105919062000478565b50806002908162000117919062000478565b50505080600a60006101000a81548173ffffffffffffffffffffffffffffffffffffffff021916908373ffffffffffffffffffffffffffffffffffffffff160217905550506200055f565b600080fd5b600073ffffffffffffffffffffffffffffffffffffffff82169050919050565b6000620001948262000167565b9050919050565b620001a68162000187565b8114620001b257600080fd5b50565b600081519050620001c6816200019b565b92915050565b600060208284031215620001e557620001e462000162565b5b6000620001f584828501620001b5565b91505092915050565b600081519050919050565b7f4e487b7100000000000000000000000000000000000000000000000000000000600052604160045260246000fd5b7f4e487b7100000000000000000000000000000000000000000000000000000000600052602260045260246000fd5b600060028204905060018216806200028057607f821691505b60208210810362000296576200029562000238565b5b50919050565b60008190508160005260206000209050919050565b60006020601f8301049050919050565b600082821b905092915050565b600060088302620003007fffffffffffffffffffffffffffffffffffffffffffffffffffffffffffffffff82620002c1565b6200030c8683620002c1565b95508019841693508086168417925050509392505050565b6000819050919050565b6000819050919050565b600062000359620003536200034d8462000324565b6200032e565b62000324565b9050919050565b6000819050919050565b620003758362000338565b6200038d620003848262000360565b848454620002ce565b825550505050565b600090565b620003a462000395565b620003b18184846200036a565b505050565b5b81811015620003d957620003cd6000826200039a565b600181019050620003b7565b5050565b601f8211156200042857620003f2816200029c565b620003fd84620002b1565b810160208510156200040d578190505b620004256200041c85620002b1565b830182620003b6565b50505b505050565b600082821c905092915050565b60006200044d600019846008026200042d565b1980831691505092915050565b60006200046883836200043a565b9150826002028217905092915050565b6200048382620001fe565b67ffffffffffffffff8111156200049f576200049e62000209565b5b620004ab825462000267565b620004b8828285620003dd565b600060209050601f831160018114620004f05760008415620004db578287015190505b620004e785826200045a565b86555062000557565b601f19841662000500866200029c565b60005b828110156200052a5784890151825560018201915060208501945060208101905062000503565b868310156200054a578489015162000546601f8916826200043a565b8355505b6001600288020188555050505b505050505050565b613aa1806200056f6000396000f3fe608060405234801561001057600080fd5b50600436106101c45760003560e01c8063558a7297116100f957806395d89b4111610097578063b88d4fde11610071578063b88d4fde14610549578063d9ecad7b14610565578063e985e9c514610595578063f2fde38b146105c5576101c4565b806395d89b41146104d75780639ebd36f3146104f5578063a22cb4651461052d576101c4565b80636352211e116100d35780636352211e1461043d57806370a082311461046d5780638da5cb5b1461049d578063934fedf1146104bb576101c4565b8063558a7297146103d35780635d9d28e5146103ef57806361b8ce8c1461041f576101c4565b80631817d87e116101665780633121048b116101405780633121048b14610339578063352926a8146103575780633d07cc081461038757806342842e0e146103b7576101c4565b80631817d87e146102e157806323b872dd146102ff5780632dc2c1d31461031b576101c4565b8063095ea7b3116101a2578063095ea7b31461024757806312dbf59d1461026357806313e7c9d814610281578063150b7a02146102b1576101c4565b806301ffc9a7146101c957806306fdde03146101f9578063081812fc14610217575b600080fd5b6101e360048036038101906101de9190612767565b6105e1565b6040516101f091906127af565b60405180910390f35b610201610673565b60405161020e919061285a565b60405180910390f35b610231600480360381019061022c91906128b2565b610701565b60405161023e9190612920565b60405180910390f35b610261600480360381019061025c9190612967565b610734565b005b61026b6108e7565b6040516102789190612920565b60405180910390f35b61029b600480360381019061029691906129a7565b61090d565b6040516102a891906127af565b60405180910390f35b6102cb60048036038101906102c69190612a39565b61092d565b6040516102d89190612ad0565b60405180910390f35b6102e9610942565b6040516102f69190612afa565b60405180910390f35b61031960048036038101906103149190612b15565b610948565b005b6103236109bb565b6040516103309190612afa565b60405180910390f35b6103416109c2565b60405161034e9190612afa565b60405180910390f35b610371600480360381019061036c9190612ba1565b6109c9565b60405161037e9190612afa565b60405180910390f35b6103a1600480360381019061039c91906128b2565b610de0565b6040516103ae9190612c03565b60405180910390f35b6103d160048036038101906103cc9190612b15565b610e5d565b005b6103ed60048036038101906103e89190612c4a565b610e7d565b005b610409600480360381019061040491906128b2565b610f66565b60405161041691906127af565b60405180910390f35b610427610fb5565b6040516104349190612afa565b60405180910390f35b610457600480360381019061045291906128b2565b610fbb565b6040516104649190612920565b60405180910390f35b610487600480360381019061048291906129a7565b610fee565b6040516104949190612afa565b60405180910390f35b6104a5611006565b6040516104b29190612920565b60405180910390f35b6104d560048036038101906104d091906128b2565b61102a565b005b6104df6110c2565b6040516104ec919061285a565b60405180910390f35b61050f600480360381019061050a91906128b2565b611150565b60405161052499989796959493929190612ce9565b60405180910390f35b61054760048036038101906105429190612c4a565b61122f565b005b610563600480360381019061055e9190612ea6565b61132c565b005b61057f600480360381019061057a9190612f29565b6113ae565b60405161058c9190612afa565b60405180910390f35b6105af60048036038101906105aa9190612f69565b611cf6565b6040516105bc91906127af565b60405180910390f35b6105df60048036038101906105da91906129a7565b611d25565b005b60006380ac58cd60e01b827bffffffffffffffffffffffffffffffffffffffffffffffffffffffff1916148061063c5750635b5e139f60e01b827bffffffffffffffffffffffffffffffffffffffffffffffffffffffff1916145b8061066c57506301ffc9a760e01b827bffffffffffffffffffffffffffffffffffffffffffffffffffffffff1916145b9050919050565b6001805461068090612fd8565b80601f01602080910402602001604051908101604052809291908181526020018280546106ac90612fd8565b80156106f95780601f106106ce576101008083540402835291602001916106f9565b820191906000526020600020905b8154815290600101906020018083116106dc57829003601f168201915b505050505081565b60056020528060005260406000206000915054906101000a900473ffffffffffffffffffffffffffffffffffffffff1681565b60006003600083815260200190815260200160002060009054906101000a900473ffffffffffffffffffffffffffffffffffffffff1690508073ffffffffffffffffffffffffffffffffffffffff163373ffffffffffffffffffffffffffffffffffffffff16148061082c5750600660008273ffffffffffffffffffffffffffffffffffffffff1673ffffffffffffffffffffffffffffffffffffffff16815260200190815260200160002060003373ffffffffffffffffffffffffffffffffffffffff1673ffffffffffffffffffffffffffffffffffffffff16815260200190815260200160002060009054906101000a900460ff165b61083557600080fd5b826005600084815260200190815260200160002060006101000a81548173ffffffffffffffffffffffffffffffffffffffff021916908373ffffffffffffffffffffffffffffffffffffffff160217905550818373ffffffffffffffffffffffffffffffffffffffff168273ffffffffffffffffffffffffffffffffffffffff167f8c5be1e5ebec7d5bd14f71427d1e84f3dd0314c0f7b2291e5b200ac8c7c3b92560405160405180910390a4505050565b600a60009054906101000a900473ffffffffffffffffffffffffffffffffffffffff1681565b60086020528060005260406000206000915054906101000a900460ff1681565b600063150b7a0260e01b905095945050505050565b600b5481565b600860003373ffffffffffffffffffffffffffffffffffffffff1673ffffffffffffffffffffffffffffffffffffffff16815260200190815260200160002060009054906101000a900460ff16156109aa576109a5838383611df6565b6109b6565b6109b583838361202c565b5b505050565b6201518081565b62093a8081565b6000600860003373ffffffffffffffffffffffffffffffffffffffff1673ffffffffffffffffffffffffffffffffffffffff16815260200190815260200160002060009054906101000a900460ff1680610a6e575060008054906101000a900473ffffffffffffffffffffffffffffffffffffffff1673ffffffffffffffffffffffffffffffffffffffff163373ffffffffffffffffffffffffffffffffffffffff16145b610aad576040517f08c379a0000000000000000000000000000000000000000000000000000000008152600401610aa490613055565b60405180910390fd5b60018360ff1610158015610ac5575060648360ff1611155b8015610ad5575060048260ff1611155b610b14576040517f08c379a0000000000000000000000000000000000000000000000000000000008152600401610b0b906130c1565b60405180910390fd5b60076000815480929190610b2790613110565b919050559050600060028242604051602001610b44929190613179565b6040516020818303038152906040528051906020012060001c610b6791906131d4565b905060008244604051602001610b7e929190613179565b6040516020818303038152906040528051906020012060001c90506040518061012001604052808660ff1681526020018560ff1681526020018360ff168152602001600061ffff1681526020018267ffffffffffffffff1681526020014267ffffffffffffffff168152602001600067ffffffffffffffff168152602001600063ffffffff168152602001600063ffffffff168152506009600085815260200190815260200160002060008201518160000160006101000a81548160ff021916908360ff16021790555060208201518160000160016101000a81548160ff021916908360ff16021790555060408201518160000160026101000a81548160ff021916908360ff16021790555060608201518160000160036101000a81548161ffff021916908361ffff16021790555060808201518160000160056101000a81548167ffffffffffffffff021916908367ffffffffffffffff16021790555060a082015181600001600d6101000a81548167ffffffffffffffff021916908367ffffffffffffffff16021790555060c08201518160000160156101000a81548167ffffffffffffffff021916908367ffffffffffffffff16021790555060e08201518160010160006101000a81548163ffffffff021916908363ffffffff1602179055506101008201518160010160046101000a81548163ffffffff021916908363ffffffff160217905550905050610d96868461204f565b827f4f516f9ff9c4ca01dc8de2fe18823f81735f42169c8c92657a6bb9773254ae1a878787866000604051610dcf95949392919061324a565b60405180910390a250509392505050565b60008060096000848152602001908152602001600020600001600d9054906101000a900467ffffffffffffffff1667ffffffffffffffff1642610e23919061329d565b905062093a808110610e39576064915050610e58565b62093a80606482610e4a91906132d1565b610e549190613313565b9150505b919050565b610e788383836040518060200160405280600081525061132c565b505050565b60008054906101000a900473ffffffffffffffffffffffffffffffffffffffff1673ffffffffffffffffffffffffffffffffffffffff163373ffffffffffffffffffffffffffffffffffffffff1614610f0b576040517f08c379a0000000000000000000000000000000000000000000000000000000008152600401610f0290613390565b60405180910390fd5b80600860008473ffffffffffffffffffffffffffffffffffffffff1673ffffffffffffffffffffffffffffffffffffffff16815260200190815260200160002060006101000a81548160ff0219169083151502179055505050565b600062093a8060096000848152602001908152602001600020600001600d9054906101000a900467ffffffffffffffff1667ffffffffffffffff16610fab91906133b0565b4210159050919050565b60075481565b60036020528060005260406000206000915054906101000a900473ffffffffffffffffffffffffffffffffffffffff1681565b60046020528060005260406000206000915090505481565b60008054906101000a900473ffffffffffffffffffffffffffffffffffffffff1681565b60008054906101000a900473ffffffffffffffffffffffffffffffffffffffff1673ffffffffffffffffffffffffffffffffffffffff163373ffffffffffffffffffffffffffffffffffffffff16146110b8576040517f08c379a00000000000000000000000000000000000000000000000000000000081526004016110af90613390565b60405180910390fd5b80600b8190555050565b600280546110cf90612fd8565b80601f01602080910402602001604051908101604052809291908181526020018280546110fb90612fd8565b80156111485780601f1061111d57610100808354040283529160200191611148565b820191906000526020600020905b81548152906001019060200180831161112b57829003601f168201915b505050505081565b60096020528060005260406000206000915090508060000160009054906101000a900460ff16908060000160019054906101000a900460ff16908060000160029054906101000a900460ff16908060000160039054906101000a900461ffff16908060000160059054906101000a900467ffffffffffffffff169080600001600d9054906101000a900467ffffffffffffffff16908060000160159054906101000a900467ffffffffffffffff16908060010160009054906101000a900463ffffffff16908060010160049054906101000a900463ffffffff16905089565b80600660003373ffffffffffffffffffffffffffffffffffffffff1673ffffffffffffffffffffffffffffffffffffffff16815260200190815260200160002060008473ffffffffffffffffffffffffffffffffffffffff1673ffffffffffffffffffffffffffffffffffffffff16815260200190815260200160002060006101000a81548160ff0219169083151502179055508173ffffffffffffffffffffffffffffffffffffffff163373ffffffffffffffffffffffffffffffffffffffff167f17307eab39ab6107e8899845ad3d59bd9653f200f220920489ca2b5937696c318360405161132091906127af565b60405180910390a35050565b600860003373ffffffffffffffffffffffffffffffffffffffff1673ffffffffffffffffffffffffffffffffffffffff16815260200190815260200160002060009054906101000a900460ff161561139b57611389848484611df6565b61139633858585856121fb565b6113a8565b6113a78484848461230c565b5b50505050565b60003373ffffffffffffffffffffffffffffffffffffffff166003600085815260200190815260200160002060009054906101000a900473ffffffffffffffffffffffffffffffffffffffff1673ffffffffffffffffffffffffffffffffffffffff1614611451576040517f08c379a000000000000000000000000000000000000000000000000000000000815260040161144890613430565b60405180910390fd5b3373ffffffffffffffffffffffffffffffffffffffff166003600084815260200190815260200160002060009054906101000a900473ffffffffffffffffffffffffffffffffffffffff1673ffffffffffffffffffffffffffffffffffffffff1614806115775750600660006003600085815260200190815260200160002060009054906101000a900473ffffffffffffffffffffffffffffffffffffffff1673ffffffffffffffffffffffffffffffffffffffff1673ffffffffffffffffffffffffffffffffffffffff16815260200190815260200160002060003373ffffffffffffffffffffffffffffffffffffffff1673ffffffffffffffffffffffffffffffffffffffff16815260200190815260200160002060009054906101000a900460ff165b6115b6576040517f08c379a00000000000000000000000000000000000000000000000000000000081526004016115ad9061349c565b60405180910390fd5b6000600960008581526020019081526020016000209050600060096000858152602001908152602001600020905060008260000160029054906101000a900460ff1660ff161461163b576040517f08c379a000000000000000000000000000000000000000000000000000000000815260040161163290613508565b60405180910390fd5b60018160000160029054906101000a900460ff1660ff1614611692576040517f08c379a000000000000000000000000000000000000000000000000000000000815260040161168990613574565b60405180910390fd5b8160000160159054906101000a900467ffffffffffffffff1667ffffffffffffffff164210156116f7576040517f08c379a00000000000000000000000000000000000000000000000000000000081526004016116ee906135e0565b60405180910390fd5b8060000160159054906101000a900467ffffffffffffffff1667ffffffffffffffff1642101561175c576040517f08c379a00000000000000000000000000000000000000000000000000000000081526004016117539061364c565b60405180910390fd5b61176585610f66565b6117a4576040517f08c379a000000000000000000000000000000000000000000000000000000000815260040161179b906136b8565b60405180910390fd5b6117ad84610f66565b6117ec576040517f08c379a00000000000000000000000000000000000000000000000000000000081526004016117e390613724565b60405180910390fd5b6000600b5411801561184d5750600073ffffffffffffffffffffffffffffffffffffffff16600a60009054906101000a900473ffffffffffffffffffffffffffffffffffffffff1673ffffffffffffffffffffffffffffffffffffffff1614155b156118805761187f3360008054906101000a900473ffffffffffffffffffffffffffffffffffffffff16600b5461233d565b5b60006118bd8360000160059054906101000a900467ffffffffffffffff168360000160059054906101000a900467ffffffffffffffff16446124a3565b905060006118ee8460000160009054906101000a900460ff168460000160009054906101000a900460ff16846124e4565b90506000806002846119009190613744565b60ff161461191f578360000160019054906101000a900460ff16611932565b8460000160019054906101000a900460ff165b90506000600260088567ffffffffffffffff16901c6119519190613744565b9050600060018660000160039054906101000a900461ffff1661ffff168860000160039054906101000a900461ffff1661ffff16116119a2578660000160039054906101000a900461ffff166119b6565b8760000160039054906101000a900461ffff165b6119c09190613775565b9050600760008154809291906119d590613110565b9190505597506040518061012001604052808560ff1681526020018460ff1681526020018360ff1681526020018261ffff1681526020018667ffffffffffffffff1681526020014267ffffffffffffffff168152602001600067ffffffffffffffff1681526020018a63ffffffff1681526020018b63ffffffff16815250600960008a815260200190815260200160002060008201518160000160006101000a81548160ff021916908360ff16021790555060208201518160000160016101000a81548160ff021916908360ff16021790555060408201518160000160026101000a81548160ff021916908360ff16021790555060608201518160000160036101000a81548161ffff021916908361ffff16021790555060808201518160000160056101000a81548167ffffffffffffffff021916908367ffffffffffffffff16021790555060a082015181600001600d6101000a81548167ffffffffffffffff021916908367ffffffffffffffff16021790555060c08201518160000160156101000a81548167ffffffffffffffff021916908367ffffffffffffffff16021790555060e08201518160010160006101000a81548163ffffffff021916908363ffffffff1602179055506101008201518160010160046101000a81548163ffffffff021916908363ffffffff160217905550905050611bd5338961204f565b600060018860000160039054906101000a900461ffff16611bf69190613775565b61ffff1662015180611c0891906132d1565b9050600060018860000160039054906101000a900461ffff16611c2b9190613775565b61ffff1662015180611c3d91906132d1565b90508142611c4b91906133b0565b8960000160156101000a81548167ffffffffffffffff021916908367ffffffffffffffff1602179055508042611c8191906133b0565b8860000160156101000a81548167ffffffffffffffff021916908367ffffffffffffffff160217905550897f625e845b893bb2a9c6c58f28789f2badf591edbe7f20310b7defa18224bae02e8c8e33604051611cdf939291906137ab565b60405180910390a250505050505050505092915050565b60066020528160005260406000206020528060005260406000206000915091509054906101000a900460ff1681565b60008054906101000a900473ffffffffffffffffffffffffffffffffffffffff1673ffffffffffffffffffffffffffffffffffffffff163373ffffffffffffffffffffffffffffffffffffffff1614611db3576040517f08c379a0000000000000000000000000000000000000000000000000000000008152600401611daa90613390565b60405180910390fd5b806000806101000a81548173ffffffffffffffffffffffffffffffffffffffff021916908373ffffffffffffffffffffffffffffffffffffffff16021790555050565b8273ffffffffffffffffffffffffffffffffffffffff166003600083815260200190815260200160002060009054906101000a900473ffffffffffffffffffffffffffffffffffffffff1673ffffffffffffffffffffffffffffffffffffffff16148015611e915750600073ffffffffffffffffffffffffffffffffffffffff168273ffffffffffffffffffffffffffffffffffffffff1614155b611e9a57600080fd5b6005600082815260200190815260200160002060006101000a81549073ffffffffffffffffffffffffffffffffffffffff0219169055600460008473ffffffffffffffffffffffffffffffffffffffff1673ffffffffffffffffffffffffffffffffffffffff1681526020019081526020016000206000815480929190611f20906137e2565b9190505550600460008373ffffffffffffffffffffffffffffffffffffffff1673ffffffffffffffffffffffffffffffffffffffff1681526020019081526020016000206000815480929190611f7590613110565b9190505550816003600083815260200190815260200160002060006101000a81548173ffffffffffffffffffffffffffffffffffffffff021916908373ffffffffffffffffffffffffffffffffffffffff160217905550808273ffffffffffffffffffffffffffffffffffffffff168473ffffffffffffffffffffffffffffffffffffffff167fddf252ad1be2c89b69c2b068fc378daa952ba7f163c4a11628f55a4df523b3ef60405160405180910390a4505050565b6120363382612590565b61203f57600080fd5b61204a838383611df6565b505050565b600073ffffffffffffffffffffffffffffffffffffffff168273ffffffffffffffffffffffffffffffffffffffff16141580156120eb5750600073ffffffffffffffffffffffffffffffffffffffff166003600083815260200190815260200160002060009054906101000a900473ffffffffffffffffffffffffffffffffffffffff1673ffffffffffffffffffffffffffffffffffffffff16145b6120f457600080fd5b600460008373ffffffffffffffffffffffffffffffffffffffff1673ffffffffffffffffffffffffffffffffffffffff168152602001908152602001600020600081548092919061214490613110565b9190505550816003600083815260200190815260200160002060006101000a81548173ffffffffffffffffffffffffffffffffffffffff021916908373ffffffffffffffffffffffffffffffffffffffff160217905550808273ffffffffffffffffffffffffffffffffffffffff16600073ffffffffffffffffffffffffffffffffffffffff167fddf252ad1be2c89b69c2b068fc378daa952ba7f163c4a11628f55a4df523b3ef60405160405180910390a45050565b60008373ffffffffffffffffffffffffffffffffffffffff163b11156123055763150b7a0260e01b8373ffffffffffffffffffffffffffffffffffffffff1663150b7a02878786866040518563ffffffff1660e01b81526004016122629493929190613860565b6020604051808303816000875af1158015612281573d6000803e3d6000fd5b505050506040513d601f19601f820116820180604052508101906122a591906138c1565b7bffffffffffffffffffffffffffffffffffffffffffffffffffffffff191614612304576040517f08c379a00000000000000000000000000000000000000000000000000000000081526004016122fb9061393a565b60405180910390fd5b5b5050505050565b6123163383612590565b61231f57600080fd5b61232a848484611df6565b61233733858585856121fb565b50505050565b6000600a60009054906101000a900473ffffffffffffffffffffffffffffffffffffffff1673ffffffffffffffffffffffffffffffffffffffff1684848460405160240161238d9392919061395a565b6040516020818303038152906040527f23b872dd000000000000000000000000000000000000000000000000000000007bffffffffffffffffffffffffffffffffffffffffffffffffffffffff19166020820180517bffffffffffffffffffffffffffffffffffffffffffffffffffffffff838183161783525050505060405161241791906139cd565b6000604051808303816000865af19150503d8060008114612454576040519150601f19603f3d011682016040523d82523d6000602084013e612459565b606091505b505090508061249d576040517f08c379a000000000000000000000000000000000000000000000000000000000815260040161249490613a30565b60405180910390fd5b50505050565b600080826040516020016124b79190613a50565b6040516020818303038152906040528051906020012060001c905080198416818616179150509392505050565b60008060028460ff168660ff166124fb91906133b0565b6125059190613313565b90506000601e60108567ffffffffffffffff16901c67ffffffffffffffff1661252e91906131d4565b90506000600f828461254091906133b0565b1161254c576001612565565b600f828461255a91906133b0565b612564919061329d565b5b9050606481111561257557606490505b600181101561258357600190505b8093505050509392505050565b6000806003600084815260200190815260200160002060009054906101000a900473ffffffffffffffffffffffffffffffffffffffff1690508073ffffffffffffffffffffffffffffffffffffffff168473ffffffffffffffffffffffffffffffffffffffff1614806126895750600660008273ffffffffffffffffffffffffffffffffffffffff1673ffffffffffffffffffffffffffffffffffffffff16815260200190815260200160002060008573ffffffffffffffffffffffffffffffffffffffff1673ffffffffffffffffffffffffffffffffffffffff16815260200190815260200160002060009054906101000a900460ff165b806126f257508373ffffffffffffffffffffffffffffffffffffffff166005600085815260200190815260200160002060009054906101000a900473ffffffffffffffffffffffffffffffffffffffff1673ffffffffffffffffffffffffffffffffffffffff16145b91505092915050565b6000604051905090565b600080fd5b600080fd5b60007fffffffff0000000000000000000000000000000000000000000000000000000082169050919050565b6127448161270f565b811461274f57600080fd5b50565b6000813590506127618161273b565b92915050565b60006020828403121561277d5761277c612705565b5b600061278b84828501612752565b91505092915050565b60008115159050919050565b6127a981612794565b82525050565b60006020820190506127c460008301846127a0565b92915050565b600081519050919050565b600082825260208201905092915050565b60005b838110156128045780820151818401526020810190506127e9565b60008484015250505050565b6000601f19601f8301169050919050565b600061282c826127ca565b61283681856127d5565b93506128468185602086016127e6565b61284f81612810565b840191505092915050565b600060208201905081810360008301526128748184612821565b905092915050565b6000819050919050565b61288f8161287c565b811461289a57600080fd5b50565b6000813590506128ac81612886565b92915050565b6000602082840312156128c8576128c7612705565b5b60006128d68482850161289d565b91505092915050565b600073ffffffffffffffffffffffffffffffffffffffff82169050919050565b600061290a826128df565b9050919050565b61291a816128ff565b82525050565b60006020820190506129356000830184612911565b92915050565b612944816128ff565b811461294f57600080fd5b50565b6000813590506129618161293b565b92915050565b6000806040838503121561297e5761297d612705565b5b600061298c85828601612952565b925050602061299d8582860161289d565b9150509250929050565b6000602082840312156129bd576129bc612705565b5b60006129cb84828501612952565b91505092915050565b600080fd5b600080fd5b600080fd5b60008083601f8401126129f9576129f86129d4565b5b8235905067ffffffffffffffff811115612a1657612a156129d9565b5b602083019150836001820283011115612a3257612a316129de565b5b9250929050565b600080600080600060808688031215612a5557612a54612705565b5b6000612a6388828901612952565b9550506020612a7488828901612952565b9450506040612a858882890161289d565b935050606086013567ffffffffffffffff811115612aa657612aa561270a565b5b612ab2888289016129e3565b92509250509295509295909350565b612aca8161270f565b82525050565b6000602082019050612ae56000830184612ac1565b92915050565b612af48161287c565b82525050565b6000602082019050612b0f6000830184612aeb565b92915050565b600080600060608486031215612b2e57612b2d612705565b5b6000612b3c86828701612952565b9350506020612b4d86828701612952565b9250506040612b5e8682870161289d565b9150509250925092565b600060ff82169050919050565b612b7e81612b68565b8114612b8957600080fd5b50565b600081359050612b9b81612b75565b92915050565b600080600060608486031215612bba57612bb9612705565b5b6000612bc886828701612952565b9350506020612bd986828701612b8c565b9250506040612bea86828701612b8c565b9150509250925092565b612bfd81612b68565b82525050565b6000602082019050612c186000830184612bf4565b92915050565b612c2781612794565b8114612c3257600080fd5b50565b600081359050612c4481612c1e565b92915050565b60008060408385031215612c6157612c60612705565b5b6000612c6f85828601612952565b9250506020612c8085828601612c35565b9150509250929050565b600061ffff82169050919050565b612ca181612c8a565b82525050565b600067ffffffffffffffff82169050919050565b612cc481612ca7565b82525050565b600063ffffffff82169050919050565b612ce381612cca565b82525050565b600061012082019050612cff600083018c612bf4565b612d0c602083018b612bf4565b612d19604083018a612bf4565b612d266060830189612c98565b612d336080830188612cbb565b612d4060a0830187612cbb565b612d4d60c0830186612cbb565b612d5a60e0830185612cda565b612d68610100830184612cda565b9a9950505050505050505050565b600080fd5b7f4e487b7100000000000000000000000000000000000000000000000000000000600052604160045260246000fd5b612db382612810565b810181811067ffffffffffffffff82111715612dd257612dd1612d7b565b5b80604052505050565b6000612de56126fb565b9050612df18282612daa565b919050565b600067ffffffffffffffff821115612e1157612e10612d7b565b5b612e1a82612810565b9050602081019050919050565b82818337600083830152505050565b6000612e49612e4484612df6565b612ddb565b905082815260208101848484011115612e6557612e64612d76565b5b612e70848285612e27565b509392505050565b600082601f830112612e8d57612e8c6129d4565b5b8135612e9d848260208601612e36565b91505092915050565b60008060008060808587031215612ec057612ebf612705565b5b6000612ece87828801612952565b9450506020612edf87828801612952565b9350506040612ef08782880161289d565b925050606085013567ffffffffffffffff811115612f1157612f1061270a565b5b612f1d87828801612e78565b91505092959194509250565b60008060408385031215612f4057612f3f612705565b5b6000612f4e8582860161289d565b9250506020612f5f8582860161289d565b9150509250929050565b60008060408385031215612f8057612f7f612705565b5b6000612f8e85828601612952565b9250506020612f9f85828601612952565b9150509250929050565b7f4e487b7100000000000000000000000000000000000000000000000000000000600052602260045260246000fd5b60006002820490506001821680612ff057607f821691505b60208210810361300357613002612fa9565b5b50919050565b7f216f700000000000000000000000000000000000000000000000000000000000600082015250565b600061303f6003836127d5565b915061304a82613009565b602082019050919050565b6000602082019050818103600083015261306e81613032565b9050919050565b7f6261642061747472000000000000000000000000000000000000000000000000600082015250565b60006130ab6008836127d5565b91506130b682613075565b602082019050919050565b600060208201905081810360008301526130da8161309e565b9050919050565b7f4e487b7100000000000000000000000000000000000000000000000000000000600052601160045260246000fd5b600061311b8261287c565b91507fffffffffffffffffffffffffffffffffffffffffffffffffffffffffffffffff820361314d5761314c6130e1565b5b600182019050919050565b6000819050919050565b61317361316e8261287c565b613158565b82525050565b60006131858285613162565b6020820191506131958284613162565b6020820191508190509392505050565b7f4e487b7100000000000000000000000000000000000000000000000000000000600052601260045260246000fd5b60006131df8261287c565b91506131ea8361287c565b9250826131fa576131f96131a5565b5b828206905092915050565b6000819050919050565b6000819050919050565b600061323461322f61322a84613205565b61320f565b612c8a565b9050919050565b61324481613219565b82525050565b600060a08201905061325f6000830188612911565b61326c6020830187612bf4565b6132796040830186612bf4565b6132866060830185612bf4565b613293608083018461323b565b9695505050505050565b60006132a88261287c565b91506132b38361287c565b92508282039050818111156132cb576132ca6130e1565b5b92915050565b60006132dc8261287c565b91506132e78361287c565b92508282026132f58161287c565b9150828204841483151761330c5761330b6130e1565b5b5092915050565b600061331e8261287c565b91506133298361287c565b925082613339576133386131a5565b5b828204905092915050565b7f216f776e65720000000000000000000000000000000000000000000000000000600082015250565b600061337a6006836127d5565b915061338582613344565b602082019050919050565b600060208201905081810360008301526133a98161336d565b9050919050565b60006133bb8261287c565b91506133c68361287c565b92508282019050808211156133de576133dd6130e1565b5b92915050565b7f216d616c65206f776e6572000000000000000000000000000000000000000000600082015250565b600061341a600b836127d5565b9150613425826133e4565b602082019050919050565b600060208201905081810360008301526134498161340d565b9050919050565b7f2166656d616c65206f776e657200000000000000000000000000000000000000600082015250565b6000613486600d836127d5565b915061349182613450565b602082019050919050565b600060208201905081810360008301526134b581613479565b9050919050565b7f6d616c65206e6f74206d616c6500000000000000000000000000000000000000600082015250565b60006134f2600d836127d5565b91506134fd826134bc565b602082019050919050565b60006020820190508181036000830152613521816134e5565b9050919050565b7f66656d616c65206e6f742066656d616c65000000000000000000000000000000600082015250565b600061355e6011836127d5565b915061356982613528565b602082019050919050565b6000602082019050818103600083015261358d81613551565b9050919050565b7f6d616c6520636f6f6c696e670000000000000000000000000000000000000000600082015250565b60006135ca600c836127d5565b91506135d582613594565b602082019050919050565b600060208201905081810360008301526135f9816135bd565b9050919050565b7f66656d616c6520636f6f6c696e67000000000000000000000000000000000000600082015250565b6000613636600e836127d5565b915061364182613600565b602082019050919050565b6000602082019050818103600083015261366581613629565b9050919050565b7f6d616c65206e6f74206164756c74000000000000000000000000000000000000600082015250565b60006136a2600e836127d5565b91506136ad8261366c565b602082019050919050565b600060208201905081810360008301526136d181613695565b9050919050565b7f66656d616c65206e6f74206164756c7400000000000000000000000000000000600082015250565b600061370e6010836127d5565b9150613719826136d8565b602082019050919050565b6000602082019050818103600083015261373d81613701565b9050919050565b600061374f82612b68565b915061375a83612b68565b92508261376a576137696131a5565b5b828206905092915050565b600061378082612c8a565b915061378b83612c8a565b9250828201905061ffff8111156137a5576137a46130e1565b5b92915050565b60006060820190506137c06000830186612aeb565b6137cd6020830185612aeb565b6137da6040830184612911565b949350505050565b60006137ed8261287c565b915060008203613800576137ff6130e1565b5b600182039050919050565b600081519050919050565b600082825260208201905092915050565b60006138328261380b565b61383c8185613816565b935061384c8185602086016127e6565b61385581612810565b840191505092915050565b60006080820190506138756000830187612911565b6138826020830186612911565b61388f6040830185612aeb565b81810360608301526138a18184613827565b905095945050505050565b6000815190506138bb8161273b565b92915050565b6000602082840312156138d7576138d6612705565b5b60006138e5848285016138ac565b91505092915050565b7f2172656365697665720000000000000000000000000000000000000000000000600082015250565b60006139246009836127d5565b915061392f826138ee565b602082019050919050565b6000602082019050818103600083015261395381613917565b9050919050565b600060608201905061396f6000830186612911565b61397c6020830185612911565b6139896040830184612aeb565b949350505050565b600081905092915050565b60006139a78261380b565b6139b18185613991565b93506139c18185602086016127e6565b80840191505092915050565b60006139d9828461399c565b915081905092915050565b7f72696e67207472616e73666572206661696c6564000000000000000000000000600082015250565b6000613a1a6014836127d5565b9150613a25826139e4565b602082019050919050565b60006020820190508181036000830152613a4981613a0d565b9050919050565b6000613a5c8284613162565b6020820191508190509291505056fea2646970667358221220f5210d1e4345d4c2baaeb463d42a33c1c8de118e7945093a9a215df2c8a343ac64736f6c63430008140033",
  "linkReferences": {},
  "deployedLinkReferences": {}
}