{
  "_format": "hh-sol-artifact-1",
  "contractName": "ApostleNFT",
  "sourceName": "contracts/EvoLandV2.sol",
  "abi": [
    {
      "inputs": [
        {
          "internalType": "address",
          "name": "_ring",
          "type": "address"
        }
      ],
      "stateMutability": "nonpayable",
      "type": "constructor"
    },
    {
      "anonymous": false,
      "inputs": [
        {
          "indexed": true,
          "internalType": "uint256",
          "name": "id",
          "type": "uint256"
        },
        {
          "indexed": false,
          "internalType": "address",
          "name": "to",
          "type": "address"
        },
        {
          "indexed": false,
          "internalType": "uint8",
          "name": "str",
          "type": "uint8"
        },
        {
          "indexed": false,
          "internalType": "uint8",
          "name": "elem",
          "type": "uint8"
        },
        {
          "indexed": false,
          "internalType": "uint8",
          "name": "gender",
          "type": "uint8"
        },
        {
          "indexed": false,
          "internalType": "uint16",
          "name": "gen",
          "type": "uint16"
        }
      ],
      "name": "ApostleMinted",
      "type": "event"
    },
    {
      "anonymous": false,
      "inputs": [
        {
          "indexed": true,
          "internalType": "address",
          "name": "o",
          "type": "address"
        },
        {
          "indexed": true,
          "internalType": "address",
          "name": "a",
          "type": "address"
        },
        {
          "indexed": true,
          "internalType": "uint256",
          "name": "id",
          "type": "uint256"
        }
      ],
      "name": "Approval",
      "type": "event"
    },
    {
      "anonymous": false,
      "inputs": [
        {
          "indexed": true,
          "internalType": "address",
          "name": "o",
          "type": "address"
        },
        {
          "indexed": true,
          "internalType": "address",
          "name": "op",
          "type": "address"
        },
        {
          "indexed": false,
          "internalType": "bool",
          "name": "v",
          "type": "bool"
        }
      ],
      "name": "ApprovalForAll",
      "type": "event"
    },
    {
      "anonymous": false,
      "inputs": [
        {
          "indexed": true,
          "internalType": "uint256",
          "name": "childId",
          "type": "uint256"
        },
        {
          "indexed": false,
          "internalType": "uint256",
          "name": "maleId",
          "type": "uint256"
        },
        {
          "indexed": false,
          "internalType": "uint256",
          "name": "femaleId",
          "type": "uint256"
        }
      ],
      "name": "Bred",
      "type": "event"
    },
    {
      "anonymous": false,
      "inputs": [
        {
          "indexed": true,
          "internalType": "address",
          "name": "prev",
          "type": "address"
        },
        {
          "indexed": true,
          "internalType": "address",
          "name": "next",
          "type": "address"
        }
      ],
      "name": "OwnershipTransferred",
      "type": "event"
    },
    {
      "anonymous": false,
      "inputs": [
        {
          "indexed": true,
          "internalType": "address",
          "name": "f",
          "type": "address"
        },
        {
          "indexed": true,
          "internalType": "address",
          "name": "t",
          "type": "address"
        },
        {
          "indexed": true,
          "internalType": "uint256",
          "name": "id",
          "type": "uint256"
        }
      ],
      "name": "Transfer",
      "type": "event"
    },
    {
      "inputs": [],
      "name": "GROWTH_TIME",
      "outputs": [
        {
          "internalType": "uint256",
          "name": "",
          "type": "uint256"
        }
      ],
      "stateMutability": "view",
      "type": "function"
    },
    {
      "inputs": [
        {
          "internalType": "address",
          "name": "a",
          "type": "address"
        },
        {
          "internalType": "uint256",
          "name": "id",
          "type": "uint256"
        }
      ],
      "name": "approve",
      "outputs": [],
      "stateMutability": "nonpayable",
      "type": "function"
    },
    {
      "inputs": [
        {
          "internalType": "uint256",
          "name": "",
          "type": "uint256"
        }
      ],
      "name": "attrs",
      "outputs": [
        {
          "internalType": "uint8",
          "name": "strength",
          "type": "uint8"
        },
        {
          "internalType": "uint8",
          "name": "element",
          "type": "uint8"
        },
        {
          "internalType": "uint8",
          "name": "gender",
          "type": "uint8"
        },
        {
          "internalType": "uint16",
          "name": "gen",
          "type": "uint16"
        },
        {
          "internalType": "uint64",
          "name": "genes",
          "type": "uint64"
        },
        {
          "internalType": "uint64",
          "name": "birthTime",
          "type": "uint64"
        },
        {
          "internalType": "uint64",
          "name": "cooldown",
          "type": "uint64"
        },
        {
          "internalType": "uint32",
          "name": "motherId",
          "type": "uint32"
        },
        {
          "internalType": "uint32",
          "name": "fatherId",
          "type": "uint32"
        }
      ],
      "stateMutability": "view",
      "type": "function"
    },
    {
      "inputs": [
        {
          "internalType": "address",
          "name": "",
          "type": "address"
        }
      ],
      "name": "balanceOf",
      "outputs": [
        {
          "internalType": "uint256",
          "name": "",
          "type": "uint256"
        }
      ],
      "stateMutability": "view",
      "type": "function"
    },
    {
      "inputs": [
        {
          "internalType": "uint256",
          "name": "maleId",
          "type": "uint256"
        },
        {
          "internalType": "uint256",
          "name": "femaleId",
          "type": "uint256"
        }
      ],
      "name": "breed",
      "outputs": [
        {
          "internalType": "uint256",
          "name": "childId",
          "type": "uint256"
        }
      ],
      "stateMutability": "nonpayable",
      "type": "function"
    },
    {
      "inputs": [],
      "name": "breedFee",
      "outputs": [
        {
          "internalType": "uint256",
          "name": "",
          "type": "uint256"
        }
      ],
      "stateMutability": "view",
      "type": "function"
    },
    {
      "inputs": [
        {
          "internalType": "uint256",
          "name": "",
          "type": "uint256"
        }
      ],
      "name": "getApproved",
      "outputs": [
        {
          "internalType": "address",
          "name": "",
          "type": "address"
        }
      ],
      "stateMutability": "view",
      "type": "function"
    },
    {
      "inputs": [
        {
          "internalType": "uint256",
          "name": "id",
          "type": "uint256"
        }
      ],
      "name": "growthProgress",
      "outputs": [
        {
          "internalType": "uint8",
          "name": "",
          "type": "uint8"
        }
      ],
      "stateMutability": "view",
      "type": "function"
    },
    {
      "inputs": [
        {
          "internalType": "uint256",
          "name": "id",
          "type": "uint256"
        }
      ],
      "name": "isAdult",
      "outputs": [
        {
          "internalType": "bool",
          "name": "",
          "type": "bool"
        }
      ],
      "stateMutability": "view",
      "type": "function"
    },
    {
      "inputs": [
        {
          "internalType": "address",
          "name": "",
          "type": "address"
        },
        {
          "internalType": "address",
          "name": "",
          "type": "address"
        }
      ],
      "name": "isApprovedForAll",
      "outputs": [
        {
          "internalType": "bool",
          "name": "",
          "type": "bool"
        }
      ],
      "stateMutability": "view",
      "type": "function"
    },
    {
      "inputs": [
        {
          "internalType": "address",
          "name": "to",
          "type": "address"
        },
        {
          "internalType": "uint8",
          "name": "strength",
          "type": "uint8"
        },
        {
          "internalType": "uint8",
          "name": "element",
          "type": "uint8"
        }
      ],
      "name": "mint",
      "outputs": [
        {
          "internalType": "uint256",
          "name": "id",
          "type": "uint256"
        }
      ],
      "stateMutability": "nonpayable",
      "type": "function"
    },
    {
      "inputs": [],
      "name": "name",
      "outputs": [
        {
          "internalType": "string",
          "name": "",
          "type": "string"
        }
      ],
      "stateMutability": "view",
      "type": "function"
    },
    {
      "inputs": [],
      "name": "nextId",
      "outputs": [
        {
          "internalType": "uint256",
          "name": "",
          "type": "uint256"
        }
      ],
      "stateMutability": "view",
      "type": "function"
    },
    {
      "inputs": [
        {
          "internalType": "address",
          "name": "",
          "type": "address"
        }
      ],
      "name": "operators",
      "outputs": [
        {
          "internalType": "bool",
          "name": "",
          "type": "bool"
        }
      ],
      "stateMutability": "view",
      "type": "function"
    },
    {
      "inputs": [],
      "name": "owner",
      "outputs": [
        {
          "internalType": "address",
          "name": "",
          "type": "address"
        }
      ],
      "stateMutability": "view",
      "type": "function"
    },
    {
      "inputs": [
        {
          "internalType": "uint256",
          "name": "",
          "type": "uint256"
        }
      ],
      "name": "ownerOf",
      "outputs": [
        {
          "internalType": "address",
          "name": "",
          "type": "address"
        }
      ],
      "stateMutability": "view",
      "type": "function"
    },
    {
      "inputs": [],
      "name": "ring",
      "outputs": [
        {
          "internalType": "address",
          "name": "",
          "type": "address"
        }
      ],
      "stateMutability": "view",
      "type": "function"
    },
    {
      "inputs": [
        {
          "internalType": "address",
          "name": "f",
          "type": "address"
        },
        {
          "internalType": "address",
          "name": "t",
          "type": "address"
        },
        {
          "internalType": "uint256",
          "name": "id",
          "type": "uint256"
        }
      ],
      "name": "safeTransferFrom",
      "outputs": [],
      "stateMutability": "nonpayable",
      "type": "function"
    },
    {
      "inputs": [
        {
          "internalType": "address",
          "name": "f",
          "type": "address"
        },
        {
          "internalType": "address",
          "name": "t",
          "type": "address"
        },
        {
          "internalType": "uint256",
          "name": "id",
          "type": "uint256"
        },
        {
          "internalType": "bytes",
          "name": "d",
          "type": "bytes"
        }
      ],
      "name": "safeTransferFrom",
      "outputs": [],
      "stateMutability": "nonpayable",
      "type": "function"
    },
    {
      "inputs": [
        {
          "internalType": "address",
          "name": "op",
          "type": "address"
        },
        {
          "internalType": "bool",
          "name": "v",
          "type": "bool"
        }
      ],
      "name": "setApprovalForAll",
      "outputs": [],
      "stateMutability": "nonpayable",
      "type": "function"
    },
    {
      "inputs": [
        {
          "internalType": "uint256",
          "name": "f",
          "type": "uint256"
        }
      ],
      "name": "setBreedFee",
      "outputs": [],
      "stateMutability": "nonpayable",
      "type": "function"
    },
    {
      "inputs": [
        {
          "internalType": "address",
          "name": "a",
          "type": "address"
        },
        {
          "internalType": "bool",
          "name": "v",
          "type": "bool"
        }
      ],
      "name": "setOperator",
      "outputs": [],
      "stateMutability": "nonpayable",
      "type": "function"
    },
    {
      "inputs": [
        {
          "internalType": "bytes4",
          "name": "id",
          "type": "bytes4"
        }
      ],
      "name": "supportsInterface",
      "outputs": [
        {
          "internalType": "bool",
          "name": "",
          "type": "bool"
        }
      ],
      "stateMutability": "pure",
      "type": "function"
    },
    {
      "inputs": [],
      "name": "symbol",
      "outputs": [
        {
          "internalType": "string",
          "name": "",
          "type": "string"
        }
      ],
      "stateMutability": "view",
      "type": "function"
    },
    {
      "inputs": [
        {
          "internalType": "address",
          "name": "f",
          "type": "address"
        },
        {
          "internalType": "address",
          "name": "t",
          "type": "address"
        },
        {
          "internalType": "uint256",
          "name": "id",
          "type": "uint256"
        }
      ],
      "name": "transferFrom",
      "outputs": [],
      "stateMutability": "nonpayable",
      "type": "function"
    },
    {
      "inputs": [
        {
          "internalType": "address",
          "name": "a",
          "type": "address"
        }
      ],
      "name": "transferOwnership",
      "outputs": [],
      "stateMutability": "nonpayable",
      "type": "function"
    },
    {
      "inputs": [
        {
          "internalType": "uint256",
          "name": "id",
          "type": "uint256"
        },
        {
          "internalType": "uint8",
          "name": "newStrength",
          "type": "uint8"
        }
      ],
      "name": "upgradeStrength",
      "outputs": [],
      "stateMutability": "nonpayable",
      "type": "function"
    }
  ],
  "bytecode": "0x60806040526001600755670de0b6b3a76400006009553480156200002257600080fd5b5060405162003c0138038062003c018339818101604052810190620000489190620001cc565b6040518060400160405280600f81526020017f45766f4c616e642041706f73746c6500000000000000000000000000000000008152506040518060400160405280600381526020017f41504f0000000000000000000000000000000000000000000000000000000000815250336000806101000a81548173ffffffffffffffffffffffffffffffffffffffff021916908373ffffffffffffffffffffffffffffffffffffffff160217905550816001908162000105919062000478565b50806002908162000117919062000478565b50505080600b60006101000a81548173ffffffffffffffffffffffffffffffffffffffff021916908373ffffffffffffffffffffffffffffffffffffffff160217905550506200055f565b600080fd5b600073ffffffffffffffffffffffffffffffffffffffff82169050919050565b6000620001948262000167565b9050919050565b620001a68162000187565b8114620001b257600080fd5b50565b600081519050620001c6816200019b565b92915050565b600060208284031215620001e557620001e462000162565b5b6000620001f584828501620001b5565b91505092915050565b600081519050919050565b7f4e487b7100000000000000000000000000000000000000000000000000000000600052604160045260246000fd5b7f4e487b7100000000000000000000000000000000000000000000000000000000600052602260045260246000fd5b600060028204905060018216806200028057607f821691505b60208210810362000296576200029562000238565b5b50919050565b60008190508160005260206000209050919050565b60006020601f8301049050919050565b600082821b905092915050565b600060088302620003007fffffffffffffffffffffffffffffffffffffffffffffffffffffffffffffffff82620002c1565b6200030c8683620002c1565b95508019841693508086168417925050509392505050565b6000819050919050565b6000819050919050565b600062000359620003536200034d8462000324565b6200032e565b62000324565b9050919050565b6000819050919050565b620003758362000338565b6200038d620003848262000360565b848454620002ce565b825550505050565b600090565b620003a462000395565b620003b18184846200036a565b505050565b5b81811015620003d957620003cd6000826200039a565b600181019050620003b7565b5050565b601f8211156200042857620003f2816200029c565b620003fd84620002b1565b810160208510156200040d578190505b620004256200041c85620002b1565b830182620003b6565b50505b505050565b600082821c905092915050565b60006200044d600019846008026200042d565b1980831691505092915050565b60006200046883836200043a565b9150826002028217905092915050565b6200048382620001fe565b67ffffffffffffffff8111156200049f576200049e62000209565b5b620004ab825462000267565b620004b8828285620003dd565b600060209050601f831160018114620004f05760008415620004db578287015190505b620004e785826200045a565b86555062000557565b601f19841662000500866200029c565b60005b828110156200052a5784890151825560018201915060208501945060208101905062000503565b868310156200054a578489015162000546601f8916826200043a565b8355505b6001600288020188555050505b505050505050565b613692806200056f6000396000f3fe608060405234801561001057600080fd5b50600436106101a95760003560e01c80635d9d28e5116100f957806395d89b4111610097578063b88d4fde11610071578063b88d4fde146104fc578063d9ecad7b14610518578063e985e9c514610548578063f2fde38b14610578576101a9565b806395d89b411461048a5780639ebd36f3146104a8578063a22cb465146104e0576101a9565b806370a08231116100d357806370a08231146104025780638360c185146104325780638da5cb5b14610450578063934fedf11461046e576101a9565b80635d9d28e51461038457806361b8ce8c146103b45780636352211e146103d2576101a9565b806323b872dd11610166578063352926a811610140578063352926a8146102ec5780633d07cc081461031c57806342842e0e1461034c578063558a729714610368576101a9565b806323b872dd146102965780632c100f92146102b25780633121048b146102ce576101a9565b806301ffc9a7146101ae57806306fdde03146101de578063081812fc146101fc578063095ea7b31461022c57806313e7c9d8146102485780631817d87e14610278575b600080fd5b6101c860048036038101906101c39190612596565b610594565b6040516101d591906125de565b60405180910390f35b6101e6610626565b6040516101f39190612689565b60405180910390f35b610216600480360381019061021191906126e1565b6106b4565b604051610223919061274f565b60405180910390f35b61024660048036038101906102419190612796565b6106e7565b005b610262600480360381019061025d91906127d6565b61089a565b60405161026f91906125de565b60405180910390f35b6102806108ba565b60405161028d9190612812565b60405180910390f35b6102b060048036038101906102ab919061282d565b6108c0565b005b6102cc60048036038101906102c791906128b9565b610933565b005b6102d6610abf565b6040516102e39190612812565b60405180910390f35b610306600480360381019061030191906128f9565b610ac6565b6040516103139190612812565b60405180910390f35b610336600480360381019061033191906126e1565b610edf565b604051610343919061295b565b60405180910390f35b6103666004803603810190610361919061282d565b610f5a565b005b610382600480360381019061037d91906129a2565b610f7a565b005b61039e600480360381019061039991906126e1565b611063565b6040516103ab91906125de565b60405180910390f35b6103bc6110b2565b6040516103c99190612812565b60405180910390f35b6103ec60048036038101906103e791906126e1565b6110b8565b6040516103f9919061274f565b60405180910390f35b61041c600480360381019061041791906127d6565b6110eb565b6040516104299190612812565b60405180910390f35b61043a611103565b604051610447919061274f565b60405180910390f35b610458611129565b604051610465919061274f565b60405180910390f35b610488600480360381019061048391906126e1565b61114d565b005b6104926111e5565b60405161049f9190612689565b60405180910390f35b6104c260048036038101906104bd91906126e1565b611273565b6040516104d799989796959493929190612a41565b60405180910390f35b6104fa60048036038101906104f591906129a2565b611352565b005b61051660048036038101906105119190612c03565b61144f565b005b610532600480360381019061052d9190612c86565b6114d1565b60405161053f9190612812565b60405180910390f35b610562600480360381019061055d9190612cc6565b611cc5565b60405161056f91906125de565b60405180910390f35b610592600480360381019061058d91906127d6565b611cf4565b005b60006380ac58cd60e01b827bffffffffffffffffffffffffffffffffffffffffffffffffffffffff191614806105ef5750635b5e139f60e01b827bffffffffffffffffffffffffffffffffffffffffffffffffffffffff1916145b8061061f57506301ffc9a760e01b827bffffffffffffffffffffffffffffffffffffffffffffffffffffffff1916145b9050919050565b6001805461063390612d35565b80601f016020809104026020016040519081016040528092919081815260200182805461065f90612d35565b80156106ac5780601f10610681576101008083540402835291602001916106ac565b820191906000526020600020905b81548152906001019060200180831161068f57829003601f168201915b505050505081565b60056020528060005260406000206000915054906101000a900473ffffffffffffffffffffffffffffffffffffffff1681565b60006003600083815260200190815260200160002060009054906101000a900473ffffffffffffffffffffffffffffffffffffffff1690508073ffffffffffffffffffffffffffffffffffffffff163373ffffffffffffffffffffffffffffffffffffffff1614806107df5750600660008273ffffffffffffffffffffffffffffffffffffffff1673ffffffffffffffffffffffffffffffffffffffff16815260200190815260200160002060003373ffffffffffffffffffffffffffffffffffffffff1673ffffffffffffffffffffffffffffffffffffffff16815260200190815260200160002060009054906101000a900460ff165b6107e857600080fd5b826005600084815260200190815260200160002060006101000a81548173ffffffffffffffffffffffffffffffffffffffff021916908373ffffffffffffffffffffffffffffffffffffffff160217905550818373ffffffffffffffffffffffffffffffffffffffff168273ffffffffffffffffffffffffffffffffffffffff167f8c5be1e5ebec7d5bd14f71427d1e84f3dd0314c0f7b2291e5b200ac8c7c3b92560405160405180910390a4505050565b60086020528060005260406000206000915054906101000a900460ff1681565b60095481565b600860003373ffffffffffffffffffffffffffffffffffffffff1673ffffffffffffffffffffffffffffffffffffffff16815260200190815260200160002060009054906101000a900460ff16156109225761091d838383611e78565b61092e565b61092d8383836120ae565b5b505050565b600860003373ffffffffffffffffffffffffffffffffffffffff1673ffffffffffffffffffffffffffffffffffffffff16815260200190815260200160002060009054906101000a900460ff16806109d6575060008054906101000a900473ffffffffffffffffffffffffffffffffffffffff1673ffffffffffffffffffffffffffffffffffffffff163373ffffffffffffffffffffffffffffffffffffffff16145b610a15576040517f08c379a0000000000000000000000000000000000000000000000000000000008152600401610a0c90612db2565b60405180910390fd5b6000600a6000848152602001908152602001600020600001600d9054906101000a900467ffffffffffffffff1667ffffffffffffffff1611610a8c576040517f08c379a0000000000000000000000000000000000000000000000000000000008152600401610a8390612e1e565b60405180910390fd5b80600a600084815260200190815260200160002060000160006101000a81548160ff021916908360ff1602179055505050565b62093a8081565b6000600860003373ffffffffffffffffffffffffffffffffffffffff1673ffffffffffffffffffffffffffffffffffffffff16815260200190815260200160002060009054906101000a900460ff1680610b6b575060008054906101000a900473ffffffffffffffffffffffffffffffffffffffff1673ffffffffffffffffffffffffffffffffffffffff163373ffffffffffffffffffffffffffffffffffffffff16145b610baa576040517f08c379a0000000000000000000000000000000000000000000000000000000008152600401610ba190612db2565b60405180910390fd5b60018360ff1610158015610bc2575060648360ff1611155b8015610bd2575060048260ff1611155b610c11576040517f08c379a0000000000000000000000000000000000000000000000000000000008152600401610c0890612e8a565b60405180910390fd5b60076000815480929190610c2490612ed9565b919050559050600060024283604051602001610c41929190612f42565b6040516020818303038152906040528051906020012060001c610c649190612f9d565b90506000828585604051602001610c7d93929190613004565b6040516020818303038152906040528051906020012060001c90506040518061012001604052808660ff1681526020018560ff1681526020018360ff168152602001600061ffff1681526020018267ffffffffffffffff1681526020014267ffffffffffffffff168152602001600067ffffffffffffffff168152602001600063ffffffff168152602001600063ffffffff16815250600a600085815260200190815260200160002060008201518160000160006101000a81548160ff021916908360ff16021790555060208201518160000160016101000a81548160ff021916908360ff16021790555060408201518160000160026101000a81548160ff021916908360ff16021790555060608201518160000160036101000a81548161ffff021916908361ffff16021790555060808201518160000160056101000a81548167ffffffffffffffff021916908367ffffffffffffffff16021790555060a082015181600001600d6101000a81548167ffffffffffffffff021916908367ffffffffffffffff16021790555060c08201518160000160156101000a81548167ffffffffffffffff021916908367ffffffffffffffff16021790555060e08201518160010160006101000a81548163ffffffff021916908363ffffffff1602179055506101008201518160010160046101000a81548163ffffffff021916908363ffffffff160217905550905050610e9586846120d1565b827f4f516f9ff9c4ca01dc8de2fe18823f81735f42169c8c92657a6bb9773254ae1a878787866000604051610ece959493929190613086565b60405180910390a250509392505050565b600080600a6000848152602001908152602001600020600001600d9054906101000a900467ffffffffffffffff1667ffffffffffffffff1642610f2291906130d9565b905062093a80811015610f4f5762093a80606482610f40919061310d565b610f4a919061314f565b610f52565b60645b915050919050565b610f758383836040518060200160405280600081525061144f565b505050565b60008054906101000a900473ffffffffffffffffffffffffffffffffffffffff1673ffffffffffffffffffffffffffffffffffffffff163373ffffffffffffffffffffffffffffffffffffffff1614611008576040517f08c379a0000000000000000000000000000000000000000000000000000000008152600401610fff906131cc565b60405180910390fd5b80600860008473ffffffffffffffffffffffffffffffffffffffff1673ffffffffffffffffffffffffffffffffffffffff16815260200190815260200160002060006101000a81548160ff0219169083151502179055505050565b600062093a80600a6000848152602001908152602001600020600001600d9054906101000a900467ffffffffffffffff1667ffffffffffffffff166110a891906131ec565b4210159050919050565b60075481565b60036020528060005260406000206000915054906101000a900473ffffffffffffffffffffffffffffffffffffffff1681565b60046020528060005260406000206000915090505481565b600b60009054906101000a900473ffffffffffffffffffffffffffffffffffffffff1681565b60008054906101000a900473ffffffffffffffffffffffffffffffffffffffff1681565b60008054906101000a900473ffffffffffffffffffffffffffffffffffffffff1673ffffffffffffffffffffffffffffffffffffffff163373ffffffffffffffffffffffffffffffffffffffff16146111db576040517f08c379a00000000000000000000000000000000000000000000000000000000081526004016111d2906131cc565b60405180910390fd5b8060098190555050565b600280546111f290612d35565b80601f016020809104026020016040519081016040528092919081815260200182805461121e90612d35565b801561126b5780601f106112405761010080835404028352916020019161126b565b820191906000526020600020905b81548152906001019060200180831161124e57829003601f168201915b505050505081565b600a6020528060005260406000206000915090508060000160009054906101000a900460ff16908060000160019054906101000a900460ff16908060000160029054906101000a900460ff16908060000160039054906101000a900461ffff16908060000160059054906101000a900467ffffffffffffffff169080600001600d9054906101000a900467ffffffffffffffff16908060000160159054906101000a900467ffffffffffffffff16908060010160009054906101000a900463ffffffff16908060010160049054906101000a900463ffffffff16905089565b80600660003373ffffffffffffffffffffffffffffffffffffffff1673ffffffffffffffffffffffffffffffffffffffff16815260200190815260200160002060008473ffffffffffffffffffffffffffffffffffffffff1673ffffffffffffffffffffffffffffffffffffffff16815260200190815260200160002060006101000a81548160ff0219169083151502179055508173ffffffffffffffffffffffffffffffffffffffff163373ffffffffffffffffffffffffffffffffffffffff167f17307eab39ab6107e8899845ad3d59bd9653f200f220920489ca2b5937696c318360405161144391906125de565b60405180910390a35050565b600860003373ffffffffffffffffffffffffffffffffffffffff1673ffffffffffffffffffffffffffffffffffffffff16815260200190815260200160002060009054906101000a900460ff16156114be576114ac848484611e78565b6114b9338585858561227d565b6114cb565b6114ca8484848461238e565b5b50505050565b60003373ffffffffffffffffffffffffffffffffffffffff166003600085815260200190815260200160002060009054906101000a900473ffffffffffffffffffffffffffffffffffffffff1673ffffffffffffffffffffffffffffffffffffffff1614801561159f57503373ffffffffffffffffffffffffffffffffffffffff166003600084815260200190815260200160002060009054906101000a900473ffffffffffffffffffffffffffffffffffffffff1673ffffffffffffffffffffffffffffffffffffffff16145b6115de576040517f08c379a00000000000000000000000000000000000000000000000000000000081526004016115d5906131cc565b60405180910390fd5b6000600a600085815260200190815260200160002090506000600a6000858152602001908152602001600020905060008260000160029054906101000a900460ff1660ff16148015611644575060018160000160029054906101000a900460ff1660ff16145b611683576040517f08c379a000000000000000000000000000000000000000000000000000000000815260040161167a9061326c565b60405180910390fd5b61168c85611063565b801561169d575061169c84611063565b5b6116dc576040517f08c379a00000000000000000000000000000000000000000000000000000000081526004016116d3906132d8565b60405180910390fd5b8160000160159054906101000a900467ffffffffffffffff1682600001600d9054906101000a900467ffffffffffffffff1661171891906132f8565b67ffffffffffffffff16421015801561177657508060000160159054906101000a900467ffffffffffffffff1681600001600d9054906101000a900467ffffffffffffffff1661176891906132f8565b67ffffffffffffffff164210155b6117b5576040517f08c379a00000000000000000000000000000000000000000000000000000000081526004016117ac90613380565b60405180910390fd5b600060095411156118a457600b60009054906101000a900473ffffffffffffffffffffffffffffffffffffffff1673ffffffffffffffffffffffffffffffffffffffff166323b872dd33306009546040518463ffffffff1660e01b8152600401611821939291906133a0565b6020604051808303816000875af1158015611840573d6000803e3d6000fd5b505050506040513d601f19601f8201168201806040525081019061186491906133ec565b6118a3576040517f08c379a000000000000000000000000000000000000000000000000000000000815260040161189a90613465565b60405180910390fd5b5b600760008154809291906118b790612ed9565b919050559250600083426040516020016118d2929190612f42565b6040516020818303038152906040528051906020012060001c9050600060018360000160039054906101000a900461ffff1661ffff168560000160039054906101000a900461ffff1661ffff161161193c578360000160039054906101000a900461ffff16611950565b8460000160039054906101000a900461ffff165b61195a9190613485565b90506000600b8361196b9190612f9d565b60028560000160009054906101000a900460ff1660ff168760000160009054906101000a900460ff1660ff166119a191906131ec565b6119ab919061314f565b6119b591906131ec565b905060648160ff1611156119c857606490505b6040518061012001604052808260ff16815260200160006002866119ec9190612f9d565b14611a08578560000160019054906101000a900460ff16611a1b565b8660000160019054906101000a900460ff165b60ff1681526020016002600886901c611a349190612f9d565b60ff1681526020018361ffff168152602001601085901c67ffffffffffffffff1681526020014267ffffffffffffffff1681526020018361ffff1662093a80611a7d919061310d565b67ffffffffffffffff1681526020018863ffffffff1681526020018963ffffffff16815250600a600088815260200190815260200160002060008201518160000160006101000a81548160ff021916908360ff16021790555060208201518160000160016101000a81548160ff021916908360ff16021790555060408201518160000160026101000a81548160ff021916908360ff16021790555060608201518160000160036101000a81548161ffff021916908361ffff16021790555060808201518160000160056101000a81548167ffffffffffffffff021916908367ffffffffffffffff16021790555060a082015181600001600d6101000a81548167ffffffffffffffff021916908367ffffffffffffffff16021790555060c08201518160000160156101000a81548167ffffffffffffffff021916908367ffffffffffffffff16021790555060e08201518160010160006101000a81548163ffffffff021916908363ffffffff1602179055506101008201518160010160046101000a81548163ffffffff021916908363ffffffff16021790555090505062093a808560000160156101000a81548167ffffffffffffffff021916908367ffffffffffffffff16021790555062093a808460000160156101000a81548167ffffffffffffffff021916908367ffffffffffffffff160217905550611c8033876120d1565b857f3f1bcb6bbca008c3284f95ca55665454f1922c10d9837082d60d5a33f3abd9ed8989604051611cb29291906134bb565b60405180910390a2505050505092915050565b60066020528160005260406000206020528060005260406000206000915091509054906101000a900460ff1681565b60008054906101000a900473ffffffffffffffffffffffffffffffffffffffff1673ffffffffffffffffffffffffffffffffffffffff163373ffffffffffffffffffffffffffffffffffffffff1614611d82576040517f08c379a0000000000000000000000000000000000000000000000000000000008152600401611d79906131cc565b60405180910390fd5b600073ffffffffffffffffffffffffffffffffffffffff168173ffffffffffffffffffffffffffffffffffffffff1603611dbb57600080fd5b8073ffffffffffffffffffffffffffffffffffffffff1660008054906101000a900473ffffffffffffffffffffffffffffffffffffffff1673ffffffffffffffffffffffffffffffffffffffff167f8be0079c531659141344cd1fd0a4f28419497f9722a3daafe3b4186f6b6457e060405160405180910390a3806000806101000a81548173ffffffffffffffffffffffffffffffffffffffff021916908373ffffffffffffffffffffffffffffffffffffffff16021790555050565b8273ffffffffffffffffffffffffffffffffffffffff166003600083815260200190815260200160002060009054906101000a900473ffffffffffffffffffffffffffffffffffffffff1673ffffffffffffffffffffffffffffffffffffffff16148015611f135750600073ffffffffffffffffffffffffffffffffffffffff168273ffffffffffffffffffffffffffffffffffffffff1614155b611f1c57600080fd5b6005600082815260200190815260200160002060006101000a81549073ffffffffffffffffffffffffffffffffffffffff0219169055600460008473ffffffffffffffffffffffffffffffffffffffff1673ffffffffffffffffffffffffffffffffffffffff1681526020019081526020016000206000815480929190611fa2906134e4565b9190505550600460008373ffffffffffffffffffffffffffffffffffffffff1673ffffffffffffffffffffffffffffffffffffffff1681526020019081526020016000206000815480929190611ff790612ed9565b9190505550816003600083815260200190815260200160002060006101000a81548173ffffffffffffffffffffffffffffffffffffffff021916908373ffffffffffffffffffffffffffffffffffffffff160217905550808273ffffffffffffffffffffffffffffffffffffffff168473ffffffffffffffffffffffffffffffffffffffff167fddf252ad1be2c89b69c2b068fc378daa952ba7f163c4a11628f55a4df523b3ef60405160405180910390a4505050565b6120b833826123bf565b6120c157600080fd5b6120cc838383611e78565b505050565b600073ffffffffffffffffffffffffffffffffffffffff168273ffffffffffffffffffffffffffffffffffffffff161415801561216d5750600073ffffffffffffffffffffffffffffffffffffffff166003600083815260200190815260200160002060009054906101000a900473ffffffffffffffffffffffffffffffffffffffff1673ffffffffffffffffffffffffffffffffffffffff16145b61217657600080fd5b600460008373ffffffffffffffffffffffffffffffffffffffff1673ffffffffffffffffffffffffffffffffffffffff16815260200190815260200160002060008154809291906121c690612ed9565b9190505550816003600083815260200190815260200160002060006101000a81548173ffffffffffffffffffffffffffffffffffffffff021916908373ffffffffffffffffffffffffffffffffffffffff160217905550808273ffffffffffffffffffffffffffffffffffffffff16600073ffffffffffffffffffffffffffffffffffffffff167fddf252ad1be2c89b69c2b068fc378daa952ba7f163c4a11628f55a4df523b3ef60405160405180910390a45050565b60008373ffffffffffffffffffffffffffffffffffffffff163b11156123875763150b7a0260e01b8373ffffffffffffffffffffffffffffffffffffffff1663150b7a02878786866040518563ffffffff1660e01b81526004016122e49493929190613562565b6020604051808303816000875af1158015612303573d6000803e3d6000fd5b505050506040513d601f19601f8201168201806040525081019061232791906135c3565b7bffffffffffffffffffffffffffffffffffffffffffffffffffffffff191614612386576040517f08c379a000000000000000000000000000000000000000000000000000000000815260040161237d9061363c565b60405180910390fd5b5b5050505050565b61239833836123bf565b6123a157600080fd5b6123ac848484611e78565b6123b9338585858561227d565b50505050565b6000806003600084815260200190815260200160002060009054906101000a900473ffffffffffffffffffffffffffffffffffffffff1690508073ffffffffffffffffffffffffffffffffffffffff168473ffffffffffffffffffffffffffffffffffffffff1614806124b85750600660008273ffffffffffffffffffffffffffffffffffffffff1673ffffffffffffffffffffffffffffffffffffffff16815260200190815260200160002060008573ffffffffffffffffffffffffffffffffffffffff1673ffffffffffffffffffffffffffffffffffffffff16815260200190815260200160002060009054906101000a900460ff165b8061252157508373ffffffffffffffffffffffffffffffffffffffff166005600085815260200190815260200160002060009054906101000a900473ffffffffffffffffffffffffffffffffffffffff1673ffffffffffffffffffffffffffffffffffffffff16145b91505092915050565b6000604051905090565b600080fd5b600080fd5b60007fffffffff0000000000000000000000000000000000000000000000000000000082169050919050565b6125738161253e565b811461257e57600080fd5b50565b6000813590506125908161256a565b92915050565b6000602082840312156125ac576125ab612534565b5b60006125ba84828501612581565b91505092915050565b60008115159050919050565b6125d8816125c3565b82525050565b60006020820190506125f360008301846125cf565b92915050565b600081519050919050565b600082825260208201905092915050565b60005b83811015612633578082015181840152602081019050612618565b60008484015250505050565b6000601f19601f8301169050919050565b600061265b826125f9565b6126658185612604565b9350612675818560208601612615565b61267e8161263f565b840191505092915050565b600060208201905081810360008301526126a38184612650565b905092915050565b6000819050919050565b6126be816126ab565b81146126c957600080fd5b50565b6000813590506126db816126b5565b92915050565b6000602082840312156126f7576126f6612534565b5b6000612705848285016126cc565b91505092915050565b600073ffffffffffffffffffffffffffffffffffffffff82169050919050565b60006127398261270e565b9050919050565b6127498161272e565b82525050565b60006020820190506127646000830184612740565b92915050565b6127738161272e565b811461277e57600080fd5b50565b6000813590506127908161276a565b92915050565b600080604083850312156127ad576127ac612534565b5b60006127bb85828601612781565b92505060206127cc858286016126cc565b9150509250929050565b6000602082840312156127ec576127eb612534565b5b60006127fa84828501612781565b91505092915050565b61280c816126ab565b82525050565b60006020820190506128276000830184612803565b92915050565b60008060006060848603121561284657612845612534565b5b600061285486828701612781565b935050602061286586828701612781565b9250506040612876868287016126cc565b9150509250925092565b600060ff82169050919050565b61289681612880565b81146128a157600080fd5b50565b6000813590506128b38161288d565b92915050565b600080604083850312156128d0576128cf612534565b5b60006128de858286016126cc565b92505060206128ef858286016128a4565b9150509250929050565b60008060006060848603121561291257612911612534565b5b600061292086828701612781565b9350506020612931868287016128a4565b9250506040612942868287016128a4565b9150509250925092565b61295581612880565b82525050565b6000602082019050612970600083018461294c565b92915050565b61297f816125c3565b811461298a57600080fd5b50565b60008135905061299c81612976565b92915050565b600080604083850312156129b9576129b8612534565b5b60006129c785828601612781565b92505060206129d88582860161298d565b9150509250929050565b600061ffff82169050919050565b6129f9816129e2565b82525050565b600067ffffffffffffffff82169050919050565b612a1c816129ff565b82525050565b600063ffffffff82169050919050565b612a3b81612a22565b82525050565b600061012082019050612a57600083018c61294c565b612a64602083018b61294c565b612a71604083018a61294c565b612a7e60608301896129f0565b612a8b6080830188612a13565b612a9860a0830187612a13565b612aa560c0830186612a13565b612ab260e0830185612a32565b612ac0610100830184612a32565b9a9950505050505050505050565b600080fd5b600080fd5b7f4e487b7100000000000000000000000000000000000000000000000000000000600052604160045260246000fd5b612b108261263f565b810181811067ffffffffffffffff82111715612b2f57612b2e612ad8565b5b80604052505050565b6000612b4261252a565b9050612b4e8282612b07565b919050565b600067ffffffffffffffff821115612b6e57612b6d612ad8565b5b612b778261263f565b9050602081019050919050565b82818337600083830152505050565b6000612ba6612ba184612b53565b612b38565b905082815260208101848484011115612bc257612bc1612ad3565b5b612bcd848285612b84565b509392505050565b600082601f830112612bea57612be9612ace565b5b8135612bfa848260208601612b93565b91505092915050565b60008060008060808587031215612c1d57612c1c612534565b5b6000612c2b87828801612781565b9450506020612c3c87828801612781565b9350506040612c4d878288016126cc565b925050606085013567ffffffffffffffff811115612c6e57612c6d612539565b5b612c7a87828801612bd5565b91505092959194509250565b60008060408385031215612c9d57612c9c612534565b5b6000612cab858286016126cc565b9250506020612cbc858286016126cc565b9150509250929050565b60008060408385031215612cdd57612cdc612534565b5b6000612ceb85828601612781565b9250506020612cfc85828601612781565b9150509250929050565b7f4e487b7100000000000000000000000000000000000000000000000000000000600052602260045260246000fd5b60006002820490506001821680612d4d57607f821691505b602082108103612d6057612d5f612d06565b5b50919050565b7f216f700000000000000000000000000000000000000000000000000000000000600082015250565b6000612d9c600383612604565b9150612da782612d66565b602082019050919050565b60006020820190508181036000830152612dcb81612d8f565b9050919050565b7f2165786973740000000000000000000000000000000000000000000000000000600082015250565b6000612e08600683612604565b9150612e1382612dd2565b602082019050919050565b60006020820190508181036000830152612e3781612dfb565b9050919050565b7f6261640000000000000000000000000000000000000000000000000000000000600082015250565b6000612e74600383612604565b9150612e7f82612e3e565b602082019050919050565b60006020820190508181036000830152612ea381612e67565b9050919050565b7f4e487b7100000000000000000000000000000000000000000000000000000000600052601160045260246000fd5b6000612ee4826126ab565b91507fffffffffffffffffffffffffffffffffffffffffffffffffffffffffffffffff8203612f1657612f15612eaa565b5b600182019050919050565b6000819050919050565b612f3c612f37826126ab565b612f21565b82525050565b6000612f4e8285612f2b565b602082019150612f5e8284612f2b565b6020820191508190509392505050565b7f4e487b7100000000000000000000000000000000000000000000000000000000600052601260045260246000fd5b6000612fa8826126ab565b9150612fb3836126ab565b925082612fc357612fc2612f6e565b5b828206905092915050565b60008160f81b9050919050565b6000612fe682612fce565b9050919050565b612ffe612ff982612880565b612fdb565b82525050565b60006130108286612f2b565b6020820191506130208285612fed565b6001820191506130308284612fed565b600182019150819050949350505050565b6000819050919050565b6000819050919050565b600061307061306b61306684613041565b61304b565b6129e2565b9050919050565b61308081613055565b82525050565b600060a08201905061309b6000830188612740565b6130a8602083018761294c565b6130b5604083018661294c565b6130c2606083018561294c565b6130cf6080830184613077565b9695505050505050565b60006130e4826126ab565b91506130ef836126ab565b925082820390508181111561310757613106612eaa565b5b92915050565b6000613118826126ab565b9150613123836126ab565b9250828202613131816126ab565b9150828204841483151761314857613147612eaa565b5b5092915050565b600061315a826126ab565b9150613165836126ab565b92508261317557613174612f6e565b5b828204905092915050565b7f216f776e65720000000000000000000000000000000000000000000000000000600082015250565b60006131b6600683612604565b91506131c182613180565b602082019050919050565b600060208201905081810360008301526131e5816131a9565b9050919050565b60006131f7826126ab565b9150613202836126ab565b925082820190508082111561321a57613219612eaa565b5b92915050565b7f67656e6465720000000000000000000000000000000000000000000000000000600082015250565b6000613256600683612604565b915061326182613220565b602082019050919050565b6000602082019050818103600083015261328581613249565b9050919050565b7f216164756c740000000000000000000000000000000000000000000000000000600082015250565b60006132c2600683612604565b91506132cd8261328c565b602082019050919050565b600060208201905081810360008301526132f1816132b5565b9050919050565b6000613303826129ff565b915061330e836129ff565b9250828201905067ffffffffffffffff81111561332e5761332d612eaa565b5b92915050565b7f6364000000000000000000000000000000000000000000000000000000000000600082015250565b600061336a600283612604565b915061337582613334565b602082019050919050565b600060208201905081810360008301526133998161335d565b9050919050565b60006060820190506133b56000830186612740565b6133c26020830185612740565b6133cf6040830184612803565b949350505050565b6000815190506133e681612976565b92915050565b60006020828403121561340257613401612534565b5b6000613410848285016133d7565b91505092915050565b7f72696e6700000000000000000000000000000000000000000000000000000000600082015250565b600061344f600483612604565b915061345a82613419565b602082019050919050565b6000602082019050818103600083015261347e81613442565b9050919050565b6000613490826129e2565b915061349b836129e2565b9250828201905061ffff8111156134b5576134b4612eaa565b5b92915050565b60006040820190506134d06000830185612803565b6134dd6020830184612803565b9392505050565b60006134ef826126ab565b91506000820361350257613501612eaa565b5b600182039050919050565b600081519050919050565b600082825260208201905092915050565b60006135348261350d565b61353e8185613518565b935061354e818560208601612615565b6135578161263f565b840191505092915050565b60006080820190506135776000830187612740565b6135846020830186612740565b6135916040830185612803565b81810360608301526135a38184613529565b905095945050505050565b6000815190506135bd8161256a565b92915050565b6000602082840312156135d9576135d8612534565b5b60006135e7848285016135ae565b91505092915050565b7f2172656365697665720000000000000000000000000000000000000000000000600082015250565b6000613626600983612604565b9150613631826135f0565b602082019050919050565b6000602082019050818103600083015261365581613619565b905091905056fea264697066735822122024c20724bdfb1175f1523be869635cd87cadb2564badb9a043e8fc236fbf32b564736f6c63430008140033",
  "linkReferences": {},
  "deployedLinkReferences": {}
}