{
  "_format": "hh-sol-artifact-1",
  "contractName": "ApostleNFT",
  "sourceName": "contracts/EvoLandV2.sol",
  "abi": [
    {
      "inputs": [
        {
          "internalType": "address",
          "name": "_ring",
          "type": "address"
        }
      ],
      "stateMutability": "nonpayable",
      "type": "constructor"
    },
    {
      "anonymous": false,
      "inputs": [
        {
          "indexed": true,
          "internalType": "uint256",
          "name": "id",
          "type": "uint256"
        },
        {
          "indexed": false,
          "internalType": "address",
          "name": "to",
          "type": "address"
        },
        {
          "indexed": false,
          "internalType": "uint8",
          "name": "str",
          "type": "uint8"
        },
        {
          "indexed": false,
          "internalType": "uint8",
          "name": "elem",
          "type": "uint8"
        },
        {
          "indexed": false,
          "internalType": "uint8",
          "name": "gender",
          "type": "uint8"
        },
        {
          "indexed": false,
          "internalType": "uint16",
          "name": "gen",
          "type": "uint16"
        }
      ],
      "name": "ApostleMinted",
      "type": "event"
    },
    {
      "anonymous": false,
      "inputs": [
        {
          "indexed": true,
          "internalType": "address",
          "name": "o",
          "type": "address"
        },
        {
          "indexed": true,
          "internalType": "address",
          "name": "a",
          "type": "address"
        },
        {
          "indexed": true,
          "internalType": "uint256",
          "name": "id",
          "type": "uint256"
        }
      ],
      "name": "Approval",
      "type": "event"
    },
    {
      "anonymous": false,
      "inputs": [
        {
          "indexed": true,
          "internalType": "address",
          "name": "o",
          "type": "address"
        },
        {
          "indexed": true,
          "internalType": "address",
          "name": "op",
          "type": "address"
        },
        {
          "indexed": false,
          "internalType": "bool",
          "name": "v",
          "type": "bool"
        }
      ],
      "name": "ApprovalForAll",
      "type": "event"
    },
    {
      "anonymous": false,
      "inputs": [
        {
          "indexed": true,
          "internalType": "uint256",
          "name": "childId",
          "type": "uint256"
        },
        {
          "indexed": false,
          "internalType": "uint256",
          "name": "maleId",
          "type": "uint256"
        },
        {
          "indexed": false,
          "internalType": "uint256",
          "name": "femaleId",
          "type": "uint256"
        }
      ],
      "name": "Bred",
      "type": "event"
    },
    {
      "anonymous": false,
      "inputs": [
        {
          "indexed": true,
          "internalType": "address",
          "name": "prev",
          "type": "address"
        },
        {
          "indexed": true,
          "internalType": "address",
          "name": "next",
          "type": "address"
        }
      ],
      "name": "OwnershipTransferred",
      "type": "event"
    },
    {
      "anonymous": false,
      "inputs": [
        {
          "indexed": true,
          "internalType": "address",
          "name": "f",
          "type": "address"
        },
        {
          "indexed": true,
          "internalType": "address",
          "name": "t",
          "type": "address"
        },
        {
          "indexed": true,
          "internalType": "uint256",
          "name": "id",
          "type": "uint256"
        }
      ],
      "name": "Transfer",
      "type": "event"
    },
    {
      "inputs": [],
      "name": "GROWTH_TIME",
      "outputs": [
        {
          "internalType": "uint256",
          "name": "",
          "type": "uint256"
        }
      ],
      "stateMutability": "view",
      "type": "function"
    },
    {
      "inputs": [
        {
          "internalType": "address",
          "name": "a",
          "type": "address"
        },
        {
          "internalType": "uint256",
          "name": "id",
          "type": "uint256"
        }
      ],
      "name": "approve",
      "outputs": [],
      "stateMutability": "nonpayable",
      "type": "function"
    },
    {
      "inputs": [
        {
          "internalType": "uint256",
          "name": "",
          "type": "uint256"
        }
      ],
      "name": "attrs",
      "outputs": [
        {
          "internalType": "uint8",
          "name": "strength",
          "type": "uint8"
        },
        {
          "internalType": "uint8",
          "name": "element",
          "type": "uint8"
        },
        {
          "internalType": "uint8",
          "name": "gender",
          "type": "uint8"
        },
        {
          "internalType": "uint16",
          "name": "gen",
          "type": "uint16"
        },
        {
          "internalType": "uint64",
          "name": "genes",
          "type": "uint64"
        },
        {
          "internalType": "uint64",
          "name": "birthTime",
          "type": "uint64"
        },
        {
          "internalType": "uint64",
          "name": "cooldown",
          "type": "uint64"
        },
        {
          "internalType": "uint32",
          "name": "motherId",
          "type": "uint32"
        },
        {
          "internalType": "uint32",
          "name": "fatherId",
          "type": "uint32"
        }
      ],
      "stateMutability": "view",
      "type": "function"
    },
    {
      "inputs": [
        {
          "internalType": "address",
          "name": "",
          "type": "address"
        }
      ],
      "name": "balanceOf",
      "outputs": [
        {
          "internalType": "uint256",
          "name": "",
          "type": "uint256"
        }
      ],
      "stateMutability": "view",
      "type": "function"
    },
    {
      "inputs": [
        {
          "internalType": "uint256",
          "name": "maleId",
          "type": "uint256"
        },
        {
          "internalType": "uint256",
          "name": "femaleId",
          "type": "uint256"
        }
      ],
      "name": "breed",
      "outputs": [
        {
          "internalType": "uint256",
          "name": "childId",
          "type": "uint256"
        }
      ],
      "stateMutability": "nonpayable",
      "type": "function"
    },
    {
      "inputs": [],
      "name": "breedFee",
      "outputs": [
        {
          "internalType": "uint256",
          "name": "",
          "type": "uint256"
        }
      ],
      "stateMutability": "view",
      "type": "function"
    },
    {
      "inputs": [
        {
          "internalType": "uint256",
          "name": "",
          "type": "uint256"
        }
      ],
      "name": "getApproved",
      "outputs": [
        {
          "internalType": "address",
          "name": "",
          "type": "address"
        }
      ],
      "stateMutability": "view",
      "type": "function"
    },
    {
      "inputs": [
        {
          "internalType": "uint256",
          "name": "id",
          "type": "uint256"
        }
      ],
      "name": "growthProgress",
      "outputs": [
        {
          "internalType": "uint8",
          "name": "",
          "type": "uint8"
        }
      ],
      "stateMutability": "view",
      "type": "function"
    },
    {
      "inputs": [
        {
          "internalType": "uint256",
          "name": "id",
          "type": "uint256"
        }
      ],
      "name": "isAdult",
      "outputs": [
        {
          "internalType": "bool",
          "name": "",
          "type": "bool"
        }
      ],
      "stateMutability": "view",
      "type": "function"
    },
    {
      "inputs": [
        {
          "internalType": "address",
          "name": "",
          "type": "address"
        },
        {
          "internalType": "address",
          "name": "",
          "type": "address"
        }
      ],
      "name": "isApprovedForAll",
      "outputs": [
        {
          "internalType": "bool",
          "name": "",
          "type": "bool"
        }
      ],
      "stateMutability": "view",
      "type": "function"
    },
    {
      "inputs": [
        {
          "internalType": "address",
          "name": "to",
          "type": "address"
        },
        {
          "internalType": "uint8",
          "name": "strength",
          "type": "uint8"
        },
        {
          "internalType": "uint8",
          "name": "element",
          "type": "uint8"
        }
      ],
      "name": "mint",
      "outputs": [
        {
          "internalType": "uint256",
          "name": "id",
          "type": "uint256"
        }
      ],
      "stateMutability": "nonpayable",
      "type": "function"
    },
    {
      "inputs": [],
      "name": "name",
      "outputs": [
        {
          "internalType": "string",
          "name": "",
          "type": "string"
        }
      ],
      "stateMutability": "view",
      "type": "function"
    },
    {
      "inputs": [],
      "name": "nextId",
      "outputs": [
        {
          "internalType": "uint256",
          "name": "",
          "type": "uint256"
        }
      ],
      "stateMutability": "view",
      "type": "function"
    },
    {
      "inputs": [
        {
          "internalType": "address",
          "name": "",
          "type": "address"
        }
      ],
      "name": "operators",
      "outputs": [
        {
          "internalType": "bool",
          "name": "",
          "type": "bool"
        }
      ],
      "stateMutability": "view",
      "type": "function"
    },
    {
      "inputs": [],
      "name": "owner",
      "outputs": [
        {
          "internalType": "address",
          "name": "",
          "type": "address"
        }
      ],
      "stateMutability": "view",
      "type": "function"
    },
    {
      "inputs": [
        {
          "internalType": "uint256",
          "name": "",
          "type": "uint256"
        }
      ],
      "name": "ownerOf",
      "outputs": [
        {
          "internalType": "address",
          "name": "",
          "type": "address"
        }
      ],
      "stateMutability": "view",
      "type": "function"
    },
    {
      "inputs": [],
      "name": "ring",
      "outputs": [
        {
          "internalType": "address",
          "name": "",
          "type": "address"
        }
      ],
      "stateMutability": "view",
      "type": "function"
    },
    {
      "inputs": [
        {
          "internalType": "address",
          "name": "f",
          "type": "address"
        },
        {
          "internalType": "address",
          "name": "t",
          "type": "address"
        },
        {
          "internalType": "uint256",
          "name": "id",
          "type": "uint256"
        }
      ],
      "name": "safeTransferFrom",
      "outputs": [],
      "stateMutability": "nonpayable",
      "type": "function"
    },
    {
      "inputs": [
        {
          "internalType": "address",
          "name": "f",
          "type": "address"
        },
        {
          "internalType": "address",
          "name": "t",
          "type": "address"
        },
        {
          "internalType": "uint256",
          "name": "id",
          "type": "uint256"
        },
        {
          "internalType": "bytes",
          "name": "d",
          "type": "bytes"
        }
      ],
      "name": "safeTransferFrom",
      "outputs": [],
      "stateMutability": "nonpayable",
      "type": "function"
    },
    {
      "inputs": [
        {
          "internalType": "address",
          "name": "op",
          "type": "address"
        },
        {
          "internalType": "bool",
          "name": "v",
          "type": "bool"
        }
      ],
      "name": "setApprovalForAll",
      "outputs": [],
      "stateMutability": "nonpayable",
      "type": "function"
    },
    {
      "inputs": [
        {
          "internalType": "uint256",
          "name": "f",
          "type": "uint256"
        }
      ],
      "name": "setBreedFee",
      "outputs": [],
      "stateMutability": "nonpayable",
      "type": "function"
    },
    {
      "inputs": [
        {
          "internalType": "address",
          "name": "a",
          "type": "address"
        },
        {
          "internalType": "bool",
          "name": "v",
          "type": "bool"
        }
      ],
      "name": "setOperator",
      "outputs": [],
      "stateMutability": "nonpayable",
      "type": "function"
    },
    {
      "inputs": [
        {
          "internalType": "bytes4",
          "name": "id",
          "type": "bytes4"
        }
      ],
      "name": "supportsInterface",
      "outputs": [
        {
          "internalType": "bool",
          "name": "",
          "type": "bool"
        }
      ],
      "stateMutability": "pure",
      "type": "function"
    },
    {
      "inputs": [],
      "name": "symbol",
      "outputs": [
        {
          "internalType": "string",
          "name": "",
          "type": "string"
        }
      ],
      "stateMutability": "view",
      "type": "function"
    },
    {
      "inputs": [
        {
          "internalType": "address",
          "name": "f",
          "type": "address"
        },
        {
          "internalType": "address",
          "name": "t",
          "type": "address"
        },
        {
          "internalType": "uint256",
          "name": "id",
          "type": "uint256"
        }
      ],
      "name": "transferFrom",
      "outputs": [],
      "stateMutability": "nonpayable",
      "type": "function"
    },
    {
      "inputs": [
        {
          "internalType": "address",
          "name": "a",
          "type": "address"
        }
      ],
      "name": "transferOwnership",
      "outputs": [],
      "stateMutability": "nonpayable",
      "type": "function"
    }
  ],
  "bytecode": "0x60806040526001600755670de0b6b3a76400006009553480156200002257600080fd5b5060405162003992380380620039928339818101604052810190620000489190620001cc565b6040518060400160405280600f81526020017f45766f4c616e642041706f73746c6500000000000000000000000000000000008152506040518060400160405280600381526020017f41504f0000000000000000000000000000000000000000000000000000000000815250336000806101000a81548173ffffffffffffffffffffffffffffffffffffffff021916908373ffffffffffffffffffffffffffffffffffffffff160217905550816001908162000105919062000478565b50806002908162000117919062000478565b50505080600b60006101000a81548173ffffffffffffffffffffffffffffffffffffffff021916908373ffffffffffffffffffffffffffffffffffffffff160217905550506200055f565b600080fd5b600073ffffffffffffffffffffffffffffffffffffffff82169050919050565b6000620001948262000167565b9050919050565b620001a68162000187565b8114620001b257600080fd5b50565b600081519050620001c6816200019b565b92915050565b600060208284031215620001e557620001e462000162565b5b6000620001f584828501620001b5565b91505092915050565b600081519050919050565b7f4e487b7100000000000000000000000000000000000000000000000000000000600052604160045260246000fd5b7f4e487b7100000000000000000000000000000000000000000000000000000000600052602260045260246000fd5b600060028204905060018216806200028057607f821691505b60208210810362000296576200029562000238565b5b50919050565b60008190508160005260206000209050919050565b60006020601f8301049050919050565b600082821b905092915050565b600060088302620003007fffffffffffffffffffffffffffffffffffffffffffffffffffffffffffffffff82620002c1565b6200030c8683620002c1565b95508019841693508086168417925050509392505050565b6000819050919050565b6000819050919050565b600062000359620003536200034d8462000324565b6200032e565b62000324565b9050919050565b6000819050919050565b620003758362000338565b6200038d620003848262000360565b848454620002ce565b825550505050565b600090565b620003a462000395565b620003b18184846200036a565b505050565b5b81811015620003d957620003cd6000826200039a565b600181019050620003b7565b5050565b601f8211156200042857620003f2816200029c565b620003fd84620002b1565b810160208510156200040d578190505b620004256200041c85620002b1565b830182620003b6565b50505b505050565b600082821c905092915050565b60006200044d600019846008026200042d565b1980831691505092915050565b60006200046883836200043a565b9150826002028217905092915050565b6200048382620001fe565b67ffffffffffffffff8111156200049f576200049e62000209565b5b620004ab825462000267565b620004b8828285620003dd565b600060209050601f831160018114620004f05760008415620004db578287015190505b620004e785826200045a565b86555062000557565b601f19841662000500866200029c565b60005b828110156200052a5784890151825560018201915060208501945060208101905062000503565b868310156200054a578489015162000546601f8916826200043a565b8355505b6001600288020188555050505b505050505050565b613423806200056f6000396000f3fe608060405234801561001057600080fd5b506004361061018e5760003560e01c806361b8ce8c116100de57806395d89b4111610097578063b88d4fde11610071578063b88d4fde146104c5578063d9ecad7b146104e1578063e985e9c514610511578063f2fde38b146105415761018e565b806395d89b41146104535780639ebd36f314610471578063a22cb465146104a95761018e565b806361b8ce8c1461037d5780636352211e1461039b57806370a08231146103cb5780638360c185146103fb5780638da5cb5b14610419578063934fedf1146104375761018e565b806323b872dd1161014b5780633d07cc08116101255780633d07cc08146102e557806342842e0e14610315578063558a7297146103315780635d9d28e51461034d5761018e565b806323b872dd1461027b5780633121048b14610297578063352926a8146102b55761018e565b806301ffc9a71461019357806306fdde03146101c3578063081812fc146101e1578063095ea7b31461021157806313e7c9d81461022d5780631817d87e1461025d575b600080fd5b6101ad60048036038101906101a891906123d3565b61055d565b6040516101ba919061241b565b60405180910390f35b6101cb6105ef565b6040516101d891906124c6565b60405180910390f35b6101fb60048036038101906101f6919061251e565b61067d565b604051610208919061258c565b60405180910390f35b61022b600480360381019061022691906125d3565b6106b0565b005b61024760048036038101906102429190612613565b610863565b604051610254919061241b565b60405180910390f35b610265610883565b604051610272919061264f565b60405180910390f35b6102956004803603810190610290919061266a565b610889565b005b61029f6108fc565b6040516102ac919061264f565b60405180910390f35b6102cf60048036038101906102ca91906126f6565b610903565b6040516102dc919061264f565b60405180910390f35b6102ff60048036038101906102fa919061251e565b610d1c565b60405161030c9190612758565b60405180910390f35b61032f600480360381019061032a919061266a565b610d97565b005b61034b6004803603810190610346919061279f565b610db7565b005b6103676004803603810190610362919061251e565b610ea0565b604051610374919061241b565b60405180910390f35b610385610eef565b604051610392919061264f565b60405180910390f35b6103b560048036038101906103b0919061251e565b610ef5565b6040516103c2919061258c565b60405180910390f35b6103e560048036038101906103e09190612613565b610f28565b6040516103f2919061264f565b60405180910390f35b610403610f40565b604051610410919061258c565b60405180910390f35b610421610f66565b60405161042e919061258c565b60405180910390f35b610451600480360381019061044c919061251e565b610f8a565b005b61045b611022565b60405161046891906124c6565b60405180910390f35b61048b6004803603810190610486919061251e565b6110b0565b6040516104a09998979695949392919061283e565b60405180910390f35b6104c360048036038101906104be919061279f565b61118f565b005b6104df60048036038101906104da9190612a00565b61128c565b005b6104fb60048036038101906104f69190612a83565b61130e565b604051610508919061264f565b60405180910390f35b61052b60048036038101906105269190612ac3565b611b02565b604051610538919061241b565b60405180910390f35b61055b60048036038101906105569190612613565b611b31565b005b60006380ac58cd60e01b827bffffffffffffffffffffffffffffffffffffffffffffffffffffffff191614806105b85750635b5e139f60e01b827bffffffffffffffffffffffffffffffffffffffffffffffffffffffff1916145b806105e857506301ffc9a760e01b827bffffffffffffffffffffffffffffffffffffffffffffffffffffffff1916145b9050919050565b600180546105fc90612b32565b80601f016020809104026020016040519081016040528092919081815260200182805461062890612b32565b80156106755780601f1061064a57610100808354040283529160200191610675565b820191906000526020600020905b81548152906001019060200180831161065857829003601f168201915b505050505081565b60056020528060005260406000206000915054906101000a900473ffffffffffffffffffffffffffffffffffffffff1681565b60006003600083815260200190815260200160002060009054906101000a900473ffffffffffffffffffffffffffffffffffffffff1690508073ffffffffffffffffffffffffffffffffffffffff163373ffffffffffffffffffffffffffffffffffffffff1614806107a85750600660008273ffffffffffffffffffffffffffffffffffffffff1673ffffffffffffffffffffffffffffffffffffffff16815260200190815260200160002060003373ffffffffffffffffffffffffffffffffffffffff1673ffffffffffffffffffffffffffffffffffffffff16815260200190815260200160002060009054906101000a900460ff165b6107b157600080fd5b826005600084815260200190815260200160002060006101000a81548173ffffffffffffffffffffffffffffffffffffffff021916908373ffffffffffffffffffffffffffffffffffffffff160217905550818373ffffffffffffffffffffffffffffffffffffffff168273ffffffffffffffffffffffffffffffffffffffff167f8c5be1e5ebec7d5bd14f71427d1e84f3dd0314c0f7b2291e5b200ac8c7c3b92560405160405180910390a4505050565b60086020528060005260406000206000915054906101000a900460ff1681565b60095481565b600860003373ffffffffffffffffffffffffffffffffffffffff1673ffffffffffffffffffffffffffffffffffffffff16815260200190815260200160002060009054906101000a900460ff16156108eb576108e6838383611cb5565b6108f7565b6108f6838383611eeb565b5b505050565b62093a8081565b6000600860003373ffffffffffffffffffffffffffffffffffffffff1673ffffffffffffffffffffffffffffffffffffffff16815260200190815260200160002060009054906101000a900460ff16806109a8575060008054906101000a900473ffffffffffffffffffffffffffffffffffffffff1673ffffffffffffffffffffffffffffffffffffffff163373ffffffffffffffffffffffffffffffffffffffff16145b6109e7576040517f08c379a00000000000000000000000000000000000000000000000000000000081526004016109de90612baf565b60405180910390fd5b60018360ff16101580156109ff575060648360ff1611155b8015610a0f575060048260ff1611155b610a4e576040517f08c379a0000000000000000000000000000000000000000000000000000000008152600401610a4590612c1b565b60405180910390fd5b60076000815480929190610a6190612c6a565b919050559050600060024283604051602001610a7e929190612cd3565b6040516020818303038152906040528051906020012060001c610aa19190612d2e565b90506000828585604051602001610aba93929190612d95565b6040516020818303038152906040528051906020012060001c90506040518061012001604052808660ff1681526020018560ff1681526020018360ff168152602001600061ffff1681526020018267ffffffffffffffff1681526020014267ffffffffffffffff168152602001600067ffffffffffffffff168152602001600063ffffffff168152602001600063ffffffff16815250600a600085815260200190815260200160002060008201518160000160006101000a81548160ff021916908360ff16021790555060208201518160000160016101000a81548160ff021916908360ff16021790555060408201518160000160026101000a81548160ff021916908360ff16021790555060608201518160000160036101000a81548161ffff021916908361ffff16021790555060808201518160000160056101000a81548167ffffffffffffffff021916908367ffffffffffffffff16021790555060a082015181600001600d6101000a81548167ffffffffffffffff021916908367ffffffffffffffff16021790555060c08201518160000160156101000a81548167ffffffffffffffff021916908367ffffffffffffffff16021790555060e08201518160010160006101000a81548163ffffffff021916908363ffffffff1602179055506101008201518160010160046101000a81548163ffffffff021916908363ffffffff160217905550905050610cd28684611f0e565b827f4f516f9ff9c4ca01dc8de2fe18823f81735f42169c8c92657a6bb9773254ae1a878787866000604051610d0b959493929190612e17565b60405180910390a250509392505050565b600080600a6000848152602001908152602001600020600001600d9054906101000a900467ffffffffffffffff1667ffffffffffffffff1642610d5f9190612e6a565b905062093a80811015610d8c5762093a80606482610d7d9190612e9e565b610d879190612ee0565b610d8f565b60645b915050919050565b610db28383836040518060200160405280600081525061128c565b505050565b60008054906101000a900473ffffffffffffffffffffffffffffffffffffffff1673ffffffffffffffffffffffffffffffffffffffff163373ffffffffffffffffffffffffffffffffffffffff1614610e45576040517f08c379a0000000000000000000000000000000000000000000000000000000008152600401610e3c90612f5d565b60405180910390fd5b80600860008473ffffffffffffffffffffffffffffffffffffffff1673ffffffffffffffffffffffffffffffffffffffff16815260200190815260200160002060006101000a81548160ff0219169083151502179055505050565b600062093a80600a6000848152602001908152602001600020600001600d9054906101000a900467ffffffffffffffff1667ffffffffffffffff16610ee59190612f7d565b4210159050919050565b60075481565b60036020528060005260406000206000915054906101000a900473ffffffffffffffffffffffffffffffffffffffff1681565b60046020528060005260406000206000915090505481565b600b60009054906101000a900473ffffffffffffffffffffffffffffffffffffffff1681565b60008054906101000a900473ffffffffffffffffffffffffffffffffffffffff1681565b60008054906101000a900473ffffffffffffffffffffffffffffffffffffffff1673ffffffffffffffffffffffffffffffffffffffff163373ffffffffffffffffffffffffffffffffffffffff1614611018576040517f08c379a000000000000000000000000000000000000000000000000000000000815260040161100f90612f5d565b60405180910390fd5b8060098190555050565b6002805461102f90612b32565b80601f016020809104026020016040519081016040528092919081815260200182805461105b90612b32565b80156110a85780601f1061107d576101008083540402835291602001916110a8565b820191906000526020600020905b81548152906001019060200180831161108b57829003601f168201915b505050505081565b600a6020528060005260406000206000915090508060000160009054906101000a900460ff16908060000160019054906101000a900460ff16908060000160029054906101000a900460ff16908060000160039054906101000a900461ffff16908060000160059054906101000a900467ffffffffffffffff169080600001600d9054906101000a900467ffffffffffffffff16908060000160159054906101000a900467ffffffffffffffff16908060010160009054906101000a900463ffffffff16908060010160049054906101000a900463ffffffff16905089565b80600660003373ffffffffffffffffffffffffffffffffffffffff1673ffffffffffffffffffffffffffffffffffffffff16815260200190815260200160002060008473ffffffffffffffffffffffffffffffffffffffff1673ffffffffffffffffffffffffffffffffffffffff16815260200190815260200160002060006101000a81548160ff0219169083151502179055508173ffffffffffffffffffffffffffffffffffffffff163373ffffffffffffffffffffffffffffffffffffffff167f17307eab39ab6107e8899845ad3d59bd9653f200f220920489ca2b5937696c3183604051611280919061241b565b60405180910390a35050565b600860003373ffffffffffffffffffffffffffffffffffffffff1673ffffffffffffffffffffffffffffffffffffffff16815260200190815260200160002060009054906101000a900460ff16156112fb576112e9848484611cb5565b6112f633858585856120ba565b611308565b611307848484846121cb565b5b50505050565b60003373ffffffffffffffffffffffffffffffffffffffff166003600085815260200190815260200160002060009054906101000a900473ffffffffffffffffffffffffffffffffffffffff1673ffffffffffffffffffffffffffffffffffffffff161480156113dc57503373ffffffffffffffffffffffffffffffffffffffff166003600084815260200190815260200160002060009054906101000a900473ffffffffffffffffffffffffffffffffffffffff1673ffffffffffffffffffffffffffffffffffffffff16145b61141b576040517f08c379a000000000000000000000000000000000000000000000000000000000815260040161141290612f5d565b60405180910390fd5b6000600a600085815260200190815260200160002090506000600a6000858152602001908152602001600020905060008260000160029054906101000a900460ff1660ff16148015611481575060018160000160029054906101000a900460ff1660ff16145b6114c0576040517f08c379a00000000000000000000000000000000000000000000000000000000081526004016114b790612ffd565b60405180910390fd5b6114c985610ea0565b80156114da57506114d984610ea0565b5b611519576040517f08c379a000000000000000000000000000000000000000000000000000000000815260040161151090613069565b60405180910390fd5b8160000160159054906101000a900467ffffffffffffffff1682600001600d9054906101000a900467ffffffffffffffff166115559190613089565b67ffffffffffffffff1642101580156115b357508060000160159054906101000a900467ffffffffffffffff1681600001600d9054906101000a900467ffffffffffffffff166115a59190613089565b67ffffffffffffffff164210155b6115f2576040517f08c379a00000000000000000000000000000000000000000000000000000000081526004016115e990613111565b60405180910390fd5b600060095411156116e157600b60009054906101000a900473ffffffffffffffffffffffffffffffffffffffff1673ffffffffffffffffffffffffffffffffffffffff166323b872dd33306009546040518463ffffffff1660e01b815260040161165e93929190613131565b6020604051808303816000875af115801561167d573d6000803e3d6000fd5b505050506040513d601f19601f820116820180604052508101906116a1919061317d565b6116e0576040517f08c379a00000000000000000000000000000000000000000000000000000000081526004016116d7906131f6565b60405180910390fd5b5b600760008154809291906116f490612c6a565b9190505592506000834260405160200161170f929190612cd3565b6040516020818303038152906040528051906020012060001c9050600060018360000160039054906101000a900461ffff1661ffff168560000160039054906101000a900461ffff1661ffff1611611779578360000160039054906101000a900461ffff1661178d565b8460000160039054906101000a900461ffff165b6117979190613216565b90506000600b836117a89190612d2e565b60028560000160009054906101000a900460ff1660ff168760000160009054906101000a900460ff1660ff166117de9190612f7d565b6117e89190612ee0565b6117f29190612f7d565b905060648160ff16111561180557606490505b6040518061012001604052808260ff16815260200160006002866118299190612d2e565b14611845578560000160019054906101000a900460ff16611858565b8660000160019054906101000a900460ff165b60ff1681526020016002600886901c6118719190612d2e565b60ff1681526020018361ffff168152602001601085901c67ffffffffffffffff1681526020014267ffffffffffffffff1681526020018361ffff1662093a806118ba9190612e9e565b67ffffffffffffffff1681526020018863ffffffff1681526020018963ffffffff16815250600a600088815260200190815260200160002060008201518160000160006101000a81548160ff021916908360ff16021790555060208201518160000160016101000a81548160ff021916908360ff16021790555060408201518160000160026101000a81548160ff021916908360ff16021790555060608201518160000160036101000a81548161ffff021916908361ffff16021790555060808201518160000160056101000a81548167ffffffffffffffff021916908367ffffffffffffffff16021790555060a082015181600001600d6101000a81548167ffffffffffffffff021916908367ffffffffffffffff16021790555060c08201518160000160156101000a81548167ffffffffffffffff021916908367ffffffffffffffff16021790555060e08201518160010160006101000a81548163ffffffff021916908363ffffffff1602179055506101008201518160010160046101000a81548163ffffffff021916908363ffffffff16021790555090505062093a808560000160156101000a81548167ffffffffffffffff021916908367ffffffffffffffff16021790555062093a808460000160156101000a81548167ffffffffffffffff021916908367ffffffffffffffff160217905550611abd3387611f0e565b857f3f1bcb6bbca008c3284f95ca55665454f1922c10d9837082d60d5a33f3abd9ed8989604051611aef92919061324c565b60405180910390a2505050505092915050565b60066020528160005260406000206020528060005260406000206000915091509054906101000a900460ff1681565b60008054906101000a900473ffffffffffffffffffffffffffffffffffffffff1673ffffffffffffffffffffffffffffffffffffffff163373ffffffffffffffffffffffffffffffffffffffff1614611bbf576040517f08c379a0000000000000000000000000000000000000000000000000000000008152600401611bb690612f5d565b60405180910390fd5b600073ffffffffffffffffffffffffffffffffffffffff168173ffffffffffffffffffffffffffffffffffffffff1603611bf857600080fd5b8073ffffffffffffffffffffffffffffffffffffffff1660008054906101000a900473ffffffffffffffffffffffffffffffffffffffff1673ffffffffffffffffffffffffffffffffffffffff167f8be0079c531659141344cd1fd0a4f28419497f9722a3daafe3b4186f6b6457e060405160405180910390a3806000806101000a81548173ffffffffffffffffffffffffffffffffffffffff021916908373ffffffffffffffffffffffffffffffffffffffff16021790555050565b8273ffffffffffffffffffffffffffffffffffffffff166003600083815260200190815260200160002060009054906101000a900473ffffffffffffffffffffffffffffffffffffffff1673ffffffffffffffffffffffffffffffffffffffff16148015611d505750600073ffffffffffffffffffffffffffffffffffffffff168273ffffffffffffffffffffffffffffffffffffffff1614155b611d5957600080fd5b6005600082815260200190815260200160002060006101000a81549073ffffffffffffffffffffffffffffffffffffffff0219169055600460008473ffffffffffffffffffffffffffffffffffffffff1673ffffffffffffffffffffffffffffffffffffffff1681526020019081526020016000206000815480929190611ddf90613275565b9190505550600460008373ffffffffffffffffffffffffffffffffffffffff1673ffffffffffffffffffffffffffffffffffffffff1681526020019081526020016000206000815480929190611e3490612c6a565b9190505550816003600083815260200190815260200160002060006101000a81548173ffffffffffffffffffffffffffffffffffffffff021916908373ffffffffffffffffffffffffffffffffffffffff160217905550808273ffffffffffffffffffffffffffffffffffffffff168473ffffffffffffffffffffffffffffffffffffffff167fddf252ad1be2c89b69c2b068fc378daa952ba7f163c4a11628f55a4df523b3ef60405160405180910390a4505050565b611ef533826121fc565b611efe57600080fd5b611f09838383611cb5565b505050565b600073ffffffffffffffffffffffffffffffffffffffff168273ffffffffffffffffffffffffffffffffffffffff1614158015611faa5750600073ffffffffffffffffffffffffffffffffffffffff166003600083815260200190815260200160002060009054906101000a900473ffffffffffffffffffffffffffffffffffffffff1673ffffffffffffffffffffffffffffffffffffffff16145b611fb357600080fd5b600460008373ffffffffffffffffffffffffffffffffffffffff1673ffffffffffffffffffffffffffffffffffffffff168152602001908152602001600020600081548092919061200390612c6a565b9190505550816003600083815260200190815260200160002060006101000a81548173ffffffffffffffffffffffffffffffffffffffff021916908373ffffffffffffffffffffffffffffffffffffffff160217905550808273ffffffffffffffffffffffffffffffffffffffff16600073ffffffffffffffffffffffffffffffffffffffff167fddf252ad1be2c89b69c2b068fc378daa952ba7f163c4a11628f55a4df523b3ef60405160405180910390a45050565b60008373ffffffffffffffffffffffffffffffffffffffff163b11156121c45763150b7a0260e01b8373ffffffffffffffffffffffffffffffffffffffff1663150b7a02878786866040518563ffffffff1660e01b815260040161212194939291906132f3565b6020604051808303816000875af1158015612140573d6000803e3d6000fd5b505050506040513d601f19601f820116820180604052508101906121649190613354565b7bffffffffffffffffffffffffffffffffffffffffffffffffffffffff1916146121c3576040517f08c379a00000000000000000000000000000000000000000000000000000000081526004016121ba906133cd565b60405180910390fd5b5b5050505050565b6121d533836121fc565b6121de57600080fd5b6121e9848484611cb5565b6121f633858585856120ba565b50505050565b6000806003600084815260200190815260200160002060009054906101000a900473ffffffffffffffffffffffffffffffffffffffff1690508073ffffffffffffffffffffffffffffffffffffffff168473ffffffffffffffffffffffffffffffffffffffff1614806122f55750600660008273ffffffffffffffffffffffffffffffffffffffff1673ffffffffffffffffffffffffffffffffffffffff16815260200190815260200160002060008573ffffffffffffffffffffffffffffffffffffffff1673ffffffffffffffffffffffffffffffffffffffff16815260200190815260200160002060009054906101000a900460ff165b8061235e57508373ffffffffffffffffffffffffffffffffffffffff166005600085815260200190815260200160002060009054906101000a900473ffffffffffffffffffffffffffffffffffffffff1673ffffffffffffffffffffffffffffffffffffffff16145b91505092915050565b6000604051905090565b600080fd5b600080fd5b60007fffffffff0000000000000000000000000000000000000000000000000000000082169050919050565b6123b08161237b565b81146123bb57600080fd5b50565b6000813590506123cd816123a7565b92915050565b6000602082840312156123e9576123e8612371565b5b60006123f7848285016123be565b91505092915050565b60008115159050919050565b61241581612400565b82525050565b6000602082019050612430600083018461240c565b92915050565b600081519050919050565b600082825260208201905092915050565b60005b83811015612470578082015181840152602081019050612455565b60008484015250505050565b6000601f19601f8301169050919050565b600061249882612436565b6124a28185612441565b93506124b2818560208601612452565b6124bb8161247c565b840191505092915050565b600060208201905081810360008301526124e0818461248d565b905092915050565b6000819050919050565b6124fb816124e8565b811461250657600080fd5b50565b600081359050612518816124f2565b92915050565b60006020828403121561253457612533612371565b5b600061254284828501612509565b91505092915050565b600073ffffffffffffffffffffffffffffffffffffffff82169050919050565b60006125768261254b565b9050919050565b6125868161256b565b82525050565b60006020820190506125a1600083018461257d565b92915050565b6125b08161256b565b81146125bb57600080fd5b50565b6000813590506125cd816125a7565b92915050565b600080604083850312156125ea576125e9612371565b5b60006125f8858286016125be565b925050602061260985828601612509565b9150509250929050565b60006020828403121561262957612628612371565b5b6000612637848285016125be565b91505092915050565b612649816124e8565b82525050565b60006020820190506126646000830184612640565b92915050565b60008060006060848603121561268357612682612371565b5b6000612691868287016125be565b93505060206126a2868287016125be565b92505060406126b386828701612509565b9150509250925092565b600060ff82169050919050565b6126d3816126bd565b81146126de57600080fd5b50565b6000813590506126f0816126ca565b92915050565b60008060006060848603121561270f5761270e612371565b5b600061271d868287016125be565b935050602061272e868287016126e1565b925050604061273f868287016126e1565b9150509250925092565b612752816126bd565b82525050565b600060208201905061276d6000830184612749565b92915050565b61277c81612400565b811461278757600080fd5b50565b60008135905061279981612773565b92915050565b600080604083850312156127b6576127b5612371565b5b60006127c4858286016125be565b92505060206127d58582860161278a565b9150509250929050565b600061ffff82169050919050565b6127f6816127df565b82525050565b600067ffffffffffffffff82169050919050565b612819816127fc565b82525050565b600063ffffffff82169050919050565b6128388161281f565b82525050565b600061012082019050612854600083018c612749565b612861602083018b612749565b61286e604083018a612749565b61287b60608301896127ed565b6128886080830188612810565b61289560a0830187612810565b6128a260c0830186612810565b6128af60e083018561282f565b6128bd61010083018461282f565b9a9950505050505050505050565b600080fd5b600080fd5b7f4e487b7100000000000000000000000000000000000000000000000000000000600052604160045260246000fd5b61290d8261247c565b810181811067ffffffffffffffff8211171561292c5761292b6128d5565b5b80604052505050565b600061293f612367565b905061294b8282612904565b919050565b600067ffffffffffffffff82111561296b5761296a6128d5565b5b6129748261247c565b9050602081019050919050565b82818337600083830152505050565b60006129a361299e84612950565b612935565b9050828152602081018484840111156129bf576129be6128d0565b5b6129ca848285612981565b509392505050565b600082601f8301126129e7576129e66128cb565b5b81356129f7848260208601612990565b91505092915050565b60008060008060808587031215612a1a57612a19612371565b5b6000612a28878288016125be565b9450506020612a39878288016125be565b9350506040612a4a87828801612509565b925050606085013567ffffffffffffffff811115612a6b57612a6a612376565b5b612a77878288016129d2565b91505092959194509250565b60008060408385031215612a9a57612a99612371565b5b6000612aa885828601612509565b9250506020612ab985828601612509565b9150509250929050565b60008060408385031215612ada57612ad9612371565b5b6000612ae8858286016125be565b9250506020612af9858286016125be565b9150509250929050565b7f4e487b7100000000000000000000000000000000000000000000000000000000600052602260045260246000fd5b60006002820490506001821680612b4a57607f821691505b602082108103612b5d57612b5c612b03565b5b50919050565b7f216f700000000000000000000000000000000000000000000000000000000000600082015250565b6000612b99600383612441565b9150612ba482612b63565b602082019050919050565b60006020820190508181036000830152612bc881612b8c565b9050919050565b7f6261640000000000000000000000000000000000000000000000000000000000600082015250565b6000612c05600383612441565b9150612c1082612bcf565b602082019050919050565b60006020820190508181036000830152612c3481612bf8565b9050919050565b7f4e487b7100000000000000000000000000000000000000000000000000000000600052601160045260246000fd5b6000612c75826124e8565b91507fffffffffffffffffffffffffffffffffffffffffffffffffffffffffffffffff8203612ca757612ca6612c3b565b5b600182019050919050565b6000819050919050565b612ccd612cc8826124e8565b612cb2565b82525050565b6000612cdf8285612cbc565b602082019150612cef8284612cbc565b6020820191508190509392505050565b7f4e487b7100000000000000000000000000000000000000000000000000000000600052601260045260246000fd5b6000612d39826124e8565b9150612d44836124e8565b925082612d5457612d53612cff565b5b828206905092915050565b60008160f81b9050919050565b6000612d7782612d5f565b9050919050565b612d8f612d8a826126bd565b612d6c565b82525050565b6000612da18286612cbc565b602082019150612db18285612d7e565b600182019150612dc18284612d7e565b600182019150819050949350505050565b6000819050919050565b6000819050919050565b6000612e01612dfc612df784612dd2565b612ddc565b6127df565b9050919050565b612e1181612de6565b82525050565b600060a082019050612e2c600083018861257d565b612e396020830187612749565b612e466040830186612749565b612e536060830185612749565b612e606080830184612e08565b9695505050505050565b6000612e75826124e8565b9150612e80836124e8565b9250828203905081811115612e9857612e97612c3b565b5b92915050565b6000612ea9826124e8565b9150612eb4836124e8565b9250828202612ec2816124e8565b91508282048414831517612ed957612ed8612c3b565b5b5092915050565b6000612eeb826124e8565b9150612ef6836124e8565b925082612f0657612f05612cff565b5b828204905092915050565b7f216f776e65720000000000000000000000000000000000000000000000000000600082015250565b6000612f47600683612441565b9150612f5282612f11565b602082019050919050565b60006020820190508181036000830152612f7681612f3a565b9050919050565b6000612f88826124e8565b9150612f93836124e8565b9250828201905080821115612fab57612faa612c3b565b5b92915050565b7f67656e6465720000000000000000000000000000000000000000000000000000600082015250565b6000612fe7600683612441565b9150612ff282612fb1565b602082019050919050565b6000602082019050818103600083015261301681612fda565b9050919050565b7f216164756c740000000000000000000000000000000000000000000000000000600082015250565b6000613053600683612441565b915061305e8261301d565b602082019050919050565b6000602082019050818103600083015261308281613046565b9050919050565b6000613094826127fc565b915061309f836127fc565b9250828201905067ffffffffffffffff8111156130bf576130be612c3b565b5b92915050565b7f6364000000000000000000000000000000000000000000000000000000000000600082015250565b60006130fb600283612441565b9150613106826130c5565b602082019050919050565b6000602082019050818103600083015261312a816130ee565b9050919050565b6000606082019050613146600083018661257d565b613153602083018561257d565b6131606040830184612640565b949350505050565b60008151905061317781612773565b92915050565b60006020828403121561319357613192612371565b5b60006131a184828501613168565b91505092915050565b7f72696e6700000000000000000000000000000000000000000000000000000000600082015250565b60006131e0600483612441565b91506131eb826131aa565b602082019050919050565b6000602082019050818103600083015261320f816131d3565b9050919050565b6000613221826127df565b915061322c836127df565b9250828201905061ffff81111561324657613245612c3b565b5b92915050565b60006040820190506132616000830185612640565b61326e6020830184612640565b9392505050565b6000613280826124e8565b91506000820361329357613292612c3b565b5b600182039050919050565b600081519050919050565b600082825260208201905092915050565b60006132c58261329e565b6132cf81856132a9565b93506132df818560208601612452565b6132e88161247c565b840191505092915050565b6000608082019050613308600083018761257d565b613315602083018661257d565b6133226040830185612640565b818103606083015261333481846132ba565b905095945050505050565b60008151905061334e816123a7565b92915050565b60006020828403121561336a57613369612371565b5b60006133788482850161333f565b91505092915050565b7f2172656365697665720000000000000000000000000000000000000000000000600082015250565b60006133b7600983612441565b91506133c282613381565b602082019050919050565b600060208201905081810360008301526133e6816133aa565b905091905056fea26469706673582212200d8ffc679f313624a5c522fabacb38f2a8990cc318e5f21895ae16d0469c224364736f6c63430008140033",
  "linkReferences": {},
  "deployedLinkReferences": {}
}