{
  "_format": "hh-sol-artifact-1",
  "contractName": "BlindBox",
  "sourceName": "contracts/EvoLandV2.sol",
  "abi": [
    {
      "inputs": [
        {
          "internalType": "address",
          "name": "_apostle",
          "type": "address"
        },
        {
          "internalType": "address",
          "name": "_drill",
          "type": "address"
        },
        {
          "internalType": "address",
          "name": "_ring",
          "type": "address"
        }
      ],
      "stateMutability": "nonpayable",
      "type": "constructor"
    },
    {
      "anonymous": false,
      "inputs": [
        {
          "indexed": true,
          "internalType": "address",
          "name": "buyer",
          "type": "address"
        },
        {
          "indexed": false,
          "internalType": "uint256",
          "name": "apostleId",
          "type": "uint256"
        },
        {
          "indexed": false,
          "internalType": "uint8",
          "name": "str",
          "type": "uint8"
        },
        {
          "indexed": false,
          "internalType": "uint8",
          "name": "elem",
          "type": "uint8"
        }
      ],
      "name": "ApostleBoxOpened",
      "type": "event"
    },
    {
      "anonymous": false,
      "inputs": [
        {
          "indexed": true,
          "internalType": "address",
          "name": "buyer",
          "type": "address"
        },
        {
          "indexed": false,
          "internalType": "uint256",
          "name": "drillId",
          "type": "uint256"
        },
        {
          "indexed": false,
          "internalType": "uint8",
          "name": "tier",
          "type": "uint8"
        },
        {
          "indexed": false,
          "internalType": "uint8",
          "name": "aff",
          "type": "uint8"
        }
      ],
      "name": "DrillBoxOpened",
      "type": "event"
    },
    {
      "anonymous": false,
      "inputs": [
        {
          "indexed": true,
          "internalType": "address",
          "name": "prev",
          "type": "address"
        },
        {
          "indexed": true,
          "internalType": "address",
          "name": "next",
          "type": "address"
        }
      ],
      "name": "OwnershipTransferred",
      "type": "event"
    },
    {
      "inputs": [],
      "name": "apostle",
      "outputs": [
        {
          "internalType": "contract ApostleNFT",
          "name": "",
          "type": "address"
        }
      ],
      "stateMutability": "view",
      "type": "function"
    },
    {
      "inputs": [],
      "name": "apostleBoxPrice",
      "outputs": [
        {
          "internalType": "uint256",
          "name": "",
          "type": "uint256"
        }
      ],
      "stateMutability": "view",
      "type": "function"
    },
    {
      "inputs": [],
      "name": "buyApostleBox",
      "outputs": [],
      "stateMutability": "nonpayable",
      "type": "function"
    },
    {
      "inputs": [],
      "name": "buyDrillBox",
      "outputs": [],
      "stateMutability": "nonpayable",
      "type": "function"
    },
    {
      "inputs": [],
      "name": "drill",
      "outputs": [
        {
          "internalType": "contract DrillNFT",
          "name": "",
          "type": "address"
        }
      ],
      "stateMutability": "view",
      "type": "function"
    },
    {
      "inputs": [],
      "name": "drillBoxPrice",
      "outputs": [
        {
          "internalType": "uint256",
          "name": "",
          "type": "uint256"
        }
      ],
      "stateMutability": "view",
      "type": "function"
    },
    {
      "inputs": [],
      "name": "owner",
      "outputs": [
        {
          "internalType": "address",
          "name": "",
          "type": "address"
        }
      ],
      "stateMutability": "view",
      "type": "function"
    },
    {
      "inputs": [],
      "name": "ring",
      "outputs": [
        {
          "internalType": "address",
          "name": "",
          "type": "address"
        }
      ],
      "stateMutability": "view",
      "type": "function"
    },
    {
      "inputs": [
        {
          "internalType": "uint256",
          "name": "p",
          "type": "uint256"
        }
      ],
      "name": "setApostleBoxPrice",
      "outputs": [],
      "stateMutability": "nonpayable",
      "type": "function"
    },
    {
      "inputs": [
        {
          "internalType": "uint256",
          "name": "p",
          "type": "uint256"
        }
      ],
      "name": "setDrillBoxPrice",
      "outputs": [],
      "stateMutability": "nonpayable",
      "type": "function"
    },
    {
      "inputs": [
        {
          "internalType": "address",
          "name": "a",
          "type": "address"
        }
      ],
      "name": "transferOwnership",
      "outputs": [],
      "stateMutability": "nonpayable",
      "type": "function"
    }
  ],
  "bytecode": "0x6080604052670de0b6b3a76400006004556706f05b59d3b200006005553480156200002957600080fd5b50604051620013eb380380620013eb83398181016040528101906200004f9190620001c5565b336000806101000a81548173ffffffffffffffffffffffffffffffffffffffff021916908373ffffffffffffffffffffffffffffffffffffffff16021790555082600160006101000a81548173ffffffffffffffffffffffffffffffffffffffff021916908373ffffffffffffffffffffffffffffffffffffffff16021790555081600260006101000a81548173ffffffffffffffffffffffffffffffffffffffff021916908373ffffffffffffffffffffffffffffffffffffffff16021790555080600360006101000a81548173ffffffffffffffffffffffffffffffffffffffff021916908373ffffffffffffffffffffffffffffffffffffffff16021790555050505062000221565b600080fd5b600073ffffffffffffffffffffffffffffffffffffffff82169050919050565b60006200018d8262000160565b9050919050565b6200019f8162000180565b8114620001ab57600080fd5b50565b600081519050620001bf8162000194565b92915050565b600080600060608486031215620001e157620001e06200015b565b5b6000620001f186828701620001ae565b93505060206200020486828701620001ae565b92505060406200021786828701620001ae565b9150509250925092565b6111ba80620002316000396000f3fe608060405234801561001057600080fd5b50600436106100a95760003560e01c8063c63f322511610071578063c63f322514610142578063dcabb6fa1461015e578063e4e24a5814610168578063f0b466f514610186578063f2fde38b146101a4578063f9e37ebe146101c0576100a9565b80630813c612146100ae578063525d9de0146100cc5780638360c185146100ea5780638da5cb5b14610108578063c229f1f914610126575b600080fd5b6100b66101ca565b6040516100c39190610b2e565b60405180910390f35b6100d46101d0565b6040516100e19190610bc8565b60405180910390f35b6100f26101f6565b6040516100ff9190610c04565b60405180910390f35b61011061021c565b60405161011d9190610c04565b60405180910390f35b610140600480360381019061013b9190610c50565b610240565b005b61015c60048036038101906101579190610c50565b6102d8565b005b610166610370565b005b610170610641565b60405161017d9190610b2e565b60405180910390f35b61018e610647565b60405161019b9190610c9e565b60405180910390f35b6101be60048036038101906101b99190610ce5565b61066d565b005b6101c86107f1565b005b60045481565b600260009054906101000a900473ffffffffffffffffffffffffffffffffffffffff1681565b600360009054906101000a900473ffffffffffffffffffffffffffffffffffffffff1681565b60008054906101000a900473ffffffffffffffffffffffffffffffffffffffff1681565b60008054906101000a900473ffffffffffffffffffffffffffffffffffffffff1673ffffffffffffffffffffffffffffffffffffffff163373ffffffffffffffffffffffffffffffffffffffff16146102ce576040517f08c379a00000000000000000000000000000000000000000000000000000000081526004016102c590610d6f565b60405180910390fd5b8060048190555050565b60008054906101000a900473ffffffffffffffffffffffffffffffffffffffff1673ffffffffffffffffffffffffffffffffffffffff163373ffffffffffffffffffffffffffffffffffffffff1614610366576040517f08c379a000000000000000000000000000000000000000000000000000000000815260040161035d90610d6f565b60405180910390fd5b8060058190555050565b600360009054906101000a900473ffffffffffffffffffffffffffffffffffffffff1673ffffffffffffffffffffffffffffffffffffffff166323b872dd3360008054906101000a900473ffffffffffffffffffffffffffffffffffffffff166005546040518463ffffffff1660e01b81526004016103f193929190610d8f565b6020604051808303816000875af1158015610410573d6000803e3d6000fd5b505050506040513d601f19601f820116820180604052508101906104349190610dfe565b610473576040517f08c379a000000000000000000000000000000000000000000000000000000000815260040161046a90610e77565b60405180910390fd5b6000423360066000815461048690610ec6565b9190508190554460016040516020016104a3959493929190610f77565b6040516020818303038152906040528051906020012060001c905060006064826104cd9190611005565b9050600060238260ff1610156104e6576001905061052d565b60418260ff1610156104fb576002905061052c565b60558260ff161015610510576003905061052b565b605f8260ff161015610525576004905061052a565b600590505b5b5b5b60006005600885901c6105409190611005565b90506000600260009054906101000a900473ffffffffffffffffffffffffffffffffffffffff1673ffffffffffffffffffffffffffffffffffffffff1663352926a83385856040518463ffffffff1660e01b81526004016105a393929190611052565b6020604051808303816000875af11580156105c2573d6000803e3d6000fd5b505050506040513d601f19601f820116820180604052508101906105e6919061109e565b90503373ffffffffffffffffffffffffffffffffffffffff167fbddc3fc002474e9f152c875573c588004818f66aecd6f7f62174fc4a14bc81f9828585604051610632939291906110cb565b60405180910390a25050505050565b60055481565b600160009054906101000a900473ffffffffffffffffffffffffffffffffffffffff1681565b60008054906101000a900473ffffffffffffffffffffffffffffffffffffffff1673ffffffffffffffffffffffffffffffffffffffff163373ffffffffffffffffffffffffffffffffffffffff16146106fb576040517f08c379a00000000000000000000000000000000000000000000000000000000081526004016106f290610d6f565b60405180910390fd5b600073ffffffffffffffffffffffffffffffffffffffff168173ffffffffffffffffffffffffffffffffffffffff160361073457600080fd5b8073ffffffffffffffffffffffffffffffffffffffff1660008054906101000a900473ffffffffffffffffffffffffffffffffffffffff1673ffffffffffffffffffffffffffffffffffffffff167f8be0079c531659141344cd1fd0a4f28419497f9722a3daafe3b4186f6b6457e060405160405180910390a3806000806101000a81548173ffffffffffffffffffffffffffffffffffffffff021916908373ffffffffffffffffffffffffffffffffffffffff16021790555050565b600360009054906101000a900473ffffffffffffffffffffffffffffffffffffffff1673ffffffffffffffffffffffffffffffffffffffff166323b872dd3360008054906101000a900473ffffffffffffffffffffffffffffffffffffffff166004546040518463ffffffff1660e01b815260040161087293929190610d8f565b6020604051808303816000875af1158015610891573d6000803e3d6000fd5b505050506040513d601f19601f820116820180604052508101906108b59190610dfe565b6108f4576040517f08c379a00000000000000000000000000000000000000000000000000000000081526004016108eb90610e77565b60405180910390fd5b6000423360066000815461090790610ec6565b919050819055446040516020016109219493929190611102565b6040516020818303038152906040528051906020012060001c9050600060648261094b9190611005565b90506000601e8260ff16101561097f57601e600884901c61096c9190611005565b60016109789190611150565b9050610a01565b60558260ff1610156109af57601e600884901c61099c9190611005565b601f6109a89190611150565b9050610a00565b60628260ff1610156109df576018600884901c6109cc9190611005565b603d6109d89190611150565b90506109ff565b6010600884901c6109f09190611005565b60556109fc9190611150565b90505b5b5b60006005601085901c610a149190611005565b90506000600160009054906101000a900473ffffffffffffffffffffffffffffffffffffffff1673ffffffffffffffffffffffffffffffffffffffff1663352926a83385856040518463ffffffff1660e01b8152600401610a7793929190611052565b6020604051808303816000875af1158015610a96573d6000803e3d6000fd5b505050506040513d601f19601f82011682018060405250810190610aba919061109e565b90503373ffffffffffffffffffffffffffffffffffffffff167fd151eee1e6cbed7fba23bec8f37faaaf0e97d9b379bdec95f0c59ba7f42a955d828585604051610b06939291906110cb565b60405180910390a25050505050565b6000819050919050565b610b2881610b15565b82525050565b6000602082019050610b436000830184610b1f565b92915050565b600073ffffffffffffffffffffffffffffffffffffffff82169050919050565b6000819050919050565b6000610b8e610b89610b8484610b49565b610b69565b610b49565b9050919050565b6000610ba082610b73565b9050919050565b6000610bb282610b95565b9050919050565b610bc281610ba7565b82525050565b6000602082019050610bdd6000830184610bb9565b92915050565b6000610bee82610b49565b9050919050565b610bfe81610be3565b82525050565b6000602082019050610c196000830184610bf5565b92915050565b600080fd5b610c2d81610b15565b8114610c3857600080fd5b50565b600081359050610c4a81610c24565b92915050565b600060208284031215610c6657610c65610c1f565b5b6000610c7484828501610c3b565b91505092915050565b6000610c8882610b95565b9050919050565b610c9881610c7d565b82525050565b6000602082019050610cb36000830184610c8f565b92915050565b610cc281610be3565b8114610ccd57600080fd5b50565b600081359050610cdf81610cb9565b92915050565b600060208284031215610cfb57610cfa610c1f565b5b6000610d0984828501610cd0565b91505092915050565b600082825260208201905092915050565b7f216f776e65720000000000000000000000000000000000000000000000000000600082015250565b6000610d59600683610d12565b9150610d6482610d23565b602082019050919050565b60006020820190508181036000830152610d8881610d4c565b9050919050565b6000606082019050610da46000830186610bf5565b610db16020830185610bf5565b610dbe6040830184610b1f565b949350505050565b60008115159050919050565b610ddb81610dc6565b8114610de657600080fd5b50565b600081519050610df881610dd2565b92915050565b600060208284031215610e1457610e13610c1f565b5b6000610e2284828501610de9565b91505092915050565b7f72696e67206661696c0000000000000000000000000000000000000000000000600082015250565b6000610e61600983610d12565b9150610e6c82610e2b565b602082019050919050565b60006020820190508181036000830152610e9081610e54565b9050919050565b7f4e487b7100000000000000000000000000000000000000000000000000000000600052601160045260246000fd5b6000610ed182610b15565b91507fffffffffffffffffffffffffffffffffffffffffffffffffffffffffffffffff8203610f0357610f02610e97565b5b600182019050919050565b6000819050919050565b610f29610f2482610b15565b610f0e565b82525050565b60008160601b9050919050565b6000610f4782610f2f565b9050919050565b6000610f5982610f3c565b9050919050565b610f71610f6c82610be3565b610f4e565b82525050565b6000610f838288610f18565b602082019150610f938287610f60565b601482019150610fa38286610f18565b602082019150610fb38285610f18565b602082019150610fc38284610f18565b6020820191508190509695505050505050565b7f4e487b7100000000000000000000000000000000000000000000000000000000600052601260045260246000fd5b600061101082610b15565b915061101b83610b15565b92508261102b5761102a610fd6565b5b828206905092915050565b600060ff82169050919050565b61104c81611036565b82525050565b60006060820190506110676000830186610bf5565b6110746020830185611043565b6110816040830184611043565b949350505050565b60008151905061109881610c24565b92915050565b6000602082840312156110b4576110b3610c1f565b5b60006110c284828501611089565b91505092915050565b60006060820190506110e06000830186610b1f565b6110ed6020830185611043565b6110fa6040830184611043565b949350505050565b600061110e8287610f18565b60208201915061111e8286610f60565b60148201915061112e8285610f18565b60208201915061113e8284610f18565b60208201915081905095945050505050565b600061115b82610b15565b915061116683610b15565b925082820190508082111561117e5761117d610e97565b5b9291505056fea26469706673582212201a74e74628f93236271234e585c36753ac8b5b4cf014cd96cbe585aa6d25b07364736f6c63430008140033",
  "linkReferences": {},
  "deployedLinkReferences": {}
}