{
  "_format": "hh-sol-artifact-1",
  "contractName": "BlindBox",
  "sourceName": "contracts/EvoLandV2.sol",
  "abi": [
    {
      "inputs": [
        {
          "internalType": "address",
          "name": "_apostle",
          "type": "address"
        },
        {
          "internalType": "address",
          "name": "_drill",
          "type": "address"
        },
        {
          "internalType": "address",
          "name": "_ring",
          "type": "address"
        }
      ],
      "stateMutability": "nonpayable",
      "type": "constructor"
    },
    {
      "anonymous": false,
      "inputs": [
        {
          "indexed": true,
          "internalType": "address",
          "name": "buyer",
          "type": "address"
        },
        {
          "indexed": false,
          "internalType": "uint256",
          "name": "apostleId",
          "type": "uint256"
        },
        {
          "indexed": false,
          "internalType": "uint8",
          "name": "str",
          "type": "uint8"
        },
        {
          "indexed": false,
          "internalType": "uint8",
          "name": "elem",
          "type": "uint8"
        }
      ],
      "name": "ApostleBoxOpened",
      "type": "event"
    },
    {
      "anonymous": false,
      "inputs": [
        {
          "indexed": true,
          "internalType": "address",
          "name": "buyer",
          "type": "address"
        },
        {
          "indexed": false,
          "internalType": "uint256",
          "name": "drillId",
          "type": "uint256"
        },
        {
          "indexed": false,
          "internalType": "uint8",
          "name": "tier",
          "type": "uint8"
        },
        {
          "indexed": false,
          "internalType": "uint8",
          "name": "aff",
          "type": "uint8"
        }
      ],
      "name": "DrillBoxOpened",
      "type": "event"
    },
    {
      "anonymous": false,
      "inputs": [
        {
          "indexed": true,
          "internalType": "address",
          "name": "prev",
          "type": "address"
        },
        {
          "indexed": true,
          "internalType": "address",
          "name": "next",
          "type": "address"
        }
      ],
      "name": "OwnershipTransferred",
      "type": "event"
    },
    {
      "inputs": [],
      "name": "apostle",
      "outputs": [
        {
          "internalType": "contract ApostleNFT",
          "name": "",
          "type": "address"
        }
      ],
      "stateMutability": "view",
      "type": "function"
    },
    {
      "inputs": [],
      "name": "apostleBoxPrice",
      "outputs": [
        {
          "internalType": "uint256",
          "name": "",
          "type": "uint256"
        }
      ],
      "stateMutability": "view",
      "type": "function"
    },
    {
      "inputs": [],
      "name": "buyApostleBox",
      "outputs": [],
      "stateMutability": "nonpayable",
      "type": "function"
    },
    {
      "inputs": [],
      "name": "buyDrillBox",
      "outputs": [],
      "stateMutability": "nonpayable",
      "type": "function"
    },
    {
      "inputs": [],
      "name": "drill",
      "outputs": [
        {
          "internalType": "contract DrillNFT",
          "name": "",
          "type": "address"
        }
      ],
      "stateMutability": "view",
      "type": "function"
    },
    {
      "inputs": [],
      "name": "drillBoxPrice",
      "outputs": [
        {
          "internalType": "uint256",
          "name": "",
          "type": "uint256"
        }
      ],
      "stateMutability": "view",
      "type": "function"
    },
    {
      "inputs": [],
      "name": "owner",
      "outputs": [
        {
          "internalType": "address",
          "name": "",
          "type": "address"
        }
      ],
      "stateMutability": "view",
      "type": "function"
    },
    {
      "inputs": [],
      "name": "ring",
      "outputs": [
        {
          "internalType": "address",
          "name": "",
          "type": "address"
        }
      ],
      "stateMutability": "view",
      "type": "function"
    },
    {
      "inputs": [
        {
          "internalType": "uint256",
          "name": "p",
          "type": "uint256"
        }
      ],
      "name": "setApostleBoxPrice",
      "outputs": [],
      "stateMutability": "nonpayable",
      "type": "function"
    },
    {
      "inputs": [
        {
          "internalType": "uint256",
          "name": "p",
          "type": "uint256"
        }
      ],
      "name": "setDrillBoxPrice",
      "outputs": [],
      "stateMutability": "nonpayable",
      "type": "function"
    },
    {
      "inputs": [
        {
          "internalType": "address",
          "name": "a",
          "type": "address"
        }
      ],
      "name": "transferOwnership",
      "outputs": [],
      "stateMutability": "nonpayable",
      "type": "function"
    }
  ],
  "bytecode": "0x6080604052670de0b6b3a76400006004556706f05b59d3b200006005553480156200002957600080fd5b50604051620012c9380380620012c983398181016040528101906200004f9190620001c5565b336000806101000a81548173ffffffffffffffffffffffffffffffffffffffff021916908373ffffffffffffffffffffffffffffffffffffffff16021790555082600160006101000a81548173ffffffffffffffffffffffffffffffffffffffff021916908373ffffffffffffffffffffffffffffffffffffffff16021790555081600260006101000a81548173ffffffffffffffffffffffffffffffffffffffff021916908373ffffffffffffffffffffffffffffffffffffffff16021790555080600360006101000a81548173ffffffffffffffffffffffffffffffffffffffff021916908373ffffffffffffffffffffffffffffffffffffffff16021790555050505062000221565b600080fd5b600073ffffffffffffffffffffffffffffffffffffffff82169050919050565b60006200018d8262000160565b9050919050565b6200019f8162000180565b8114620001ab57600080fd5b50565b600081519050620001bf8162000194565b92915050565b600080600060608486031215620001e157620001e06200015b565b5b6000620001f186828701620001ae565b93505060206200020486828701620001ae565b92505060406200021786828701620001ae565b9150509250925092565b61109880620002316000396000f3fe608060405234801561001057600080fd5b50600436106100a95760003560e01c8063c63f322511610071578063c63f322514610142578063dcabb6fa1461015e578063e4e24a5814610168578063f0b466f514610186578063f2fde38b146101a4578063f9e37ebe146101c0576100a9565b80630813c612146100ae578063525d9de0146100cc5780638360c185146100ea5780638da5cb5b14610108578063c229f1f914610126575b600080fd5b6100b66101ca565b6040516100c39190610a2e565b60405180910390f35b6100d46101d0565b6040516100e19190610ac8565b60405180910390f35b6100f26101f6565b6040516100ff9190610b04565b60405180910390f35b61011061021c565b60405161011d9190610b04565b60405180910390f35b610140600480360381019061013b9190610b50565b610240565b005b61015c60048036038101906101579190610b50565b6102d8565b005b610166610370565b005b6101706105ec565b60405161017d9190610a2e565b60405180910390f35b61018e6105f2565b60405161019b9190610b9e565b60405180910390f35b6101be60048036038101906101b99190610be5565b610618565b005b6101c861079c565b005b60045481565b600260009054906101000a900473ffffffffffffffffffffffffffffffffffffffff1681565b600360009054906101000a900473ffffffffffffffffffffffffffffffffffffffff1681565b60008054906101000a900473ffffffffffffffffffffffffffffffffffffffff1681565b60008054906101000a900473ffffffffffffffffffffffffffffffffffffffff1673ffffffffffffffffffffffffffffffffffffffff163373ffffffffffffffffffffffffffffffffffffffff16146102ce576040517f08c379a00000000000000000000000000000000000000000000000000000000081526004016102c590610c6f565b60405180910390fd5b8060048190555050565b60008054906101000a900473ffffffffffffffffffffffffffffffffffffffff1673ffffffffffffffffffffffffffffffffffffffff163373ffffffffffffffffffffffffffffffffffffffff1614610366576040517f08c379a000000000000000000000000000000000000000000000000000000000815260040161035d90610c6f565b60405180910390fd5b8060058190555050565b600360009054906101000a900473ffffffffffffffffffffffffffffffffffffffff1673ffffffffffffffffffffffffffffffffffffffff166323b872dd3360008054906101000a900473ffffffffffffffffffffffffffffffffffffffff166005546040518463ffffffff1660e01b81526004016103f193929190610c8f565b6020604051808303816000875af1158015610410573d6000803e3d6000fd5b505050506040513d601f19601f820116820180604052508101906104349190610cfe565b610473576040517f08c379a000000000000000000000000000000000000000000000000000000000815260040161046a90610d77565b60405180910390fd5b6000423360066000815461048690610dc6565b91905081905560016040516020016104a19493929190610e77565b6040516020818303038152906040528051906020012060001c9050600060016005836104cd9190610ef4565b6104d79190610f25565b905060006005600884901c6104ec9190610ef4565b90506000600260009054906101000a900473ffffffffffffffffffffffffffffffffffffffff1673ffffffffffffffffffffffffffffffffffffffff1663352926a83385856040518463ffffffff1660e01b815260040161054f93929190610f75565b6020604051808303816000875af115801561056e573d6000803e3d6000fd5b505050506040513d601f19601f820116820180604052508101906105929190610fc1565b90503373ffffffffffffffffffffffffffffffffffffffff167fbddc3fc002474e9f152c875573c588004818f66aecd6f7f62174fc4a14bc81f98285856040516105de93929190610fee565b60405180910390a250505050565b60055481565b600160009054906101000a900473ffffffffffffffffffffffffffffffffffffffff1681565b60008054906101000a900473ffffffffffffffffffffffffffffffffffffffff1673ffffffffffffffffffffffffffffffffffffffff163373ffffffffffffffffffffffffffffffffffffffff16146106a6576040517f08c379a000000000000000000000000000000000000000000000000000000000815260040161069d90610c6f565b60405180910390fd5b600073ffffffffffffffffffffffffffffffffffffffff168173ffffffffffffffffffffffffffffffffffffffff16036106df57600080fd5b8073ffffffffffffffffffffffffffffffffffffffff1660008054906101000a900473ffffffffffffffffffffffffffffffffffffffff1673ffffffffffffffffffffffffffffffffffffffff167f8be0079c531659141344cd1fd0a4f28419497f9722a3daafe3b4186f6b6457e060405160405180910390a3806000806101000a81548173ffffffffffffffffffffffffffffffffffffffff021916908373ffffffffffffffffffffffffffffffffffffffff16021790555050565b600360009054906101000a900473ffffffffffffffffffffffffffffffffffffffff1673ffffffffffffffffffffffffffffffffffffffff166323b872dd3360008054906101000a900473ffffffffffffffffffffffffffffffffffffffff166004546040518463ffffffff1660e01b815260040161081d93929190610c8f565b6020604051808303816000875af115801561083c573d6000803e3d6000fd5b505050506040513d601f19601f820116820180604052508101906108609190610cfe565b61089f576040517f08c379a000000000000000000000000000000000000000000000000000000000815260040161089690610d77565b60405180910390fd5b600042336006600081546108b290610dc6565b9190508190556040516020016108ca93929190611025565b6040516020818303038152906040528051906020012060001c905060006040826108f49190610ef4565b601e6109009190610f25565b905060006005600884901c6109159190610ef4565b90506000600160009054906101000a900473ffffffffffffffffffffffffffffffffffffffff1673ffffffffffffffffffffffffffffffffffffffff1663352926a83385856040518463ffffffff1660e01b815260040161097893929190610f75565b6020604051808303816000875af1158015610997573d6000803e3d6000fd5b505050506040513d601f19601f820116820180604052508101906109bb9190610fc1565b90503373ffffffffffffffffffffffffffffffffffffffff167fd151eee1e6cbed7fba23bec8f37faaaf0e97d9b379bdec95f0c59ba7f42a955d828585604051610a0793929190610fee565b60405180910390a250505050565b6000819050919050565b610a2881610a15565b82525050565b6000602082019050610a436000830184610a1f565b92915050565b600073ffffffffffffffffffffffffffffffffffffffff82169050919050565b6000819050919050565b6000610a8e610a89610a8484610a49565b610a69565b610a49565b9050919050565b6000610aa082610a73565b9050919050565b6000610ab282610a95565b9050919050565b610ac281610aa7565b82525050565b6000602082019050610add6000830184610ab9565b92915050565b6000610aee82610a49565b9050919050565b610afe81610ae3565b82525050565b6000602082019050610b196000830184610af5565b92915050565b600080fd5b610b2d81610a15565b8114610b3857600080fd5b50565b600081359050610b4a81610b24565b92915050565b600060208284031215610b6657610b65610b1f565b5b6000610b7484828501610b3b565b91505092915050565b6000610b8882610a95565b9050919050565b610b9881610b7d565b82525050565b6000602082019050610bb36000830184610b8f565b92915050565b610bc281610ae3565b8114610bcd57600080fd5b50565b600081359050610bdf81610bb9565b92915050565b600060208284031215610bfb57610bfa610b1f565b5b6000610c0984828501610bd0565b91505092915050565b600082825260208201905092915050565b7f216f776e65720000000000000000000000000000000000000000000000000000600082015250565b6000610c59600683610c12565b9150610c6482610c23565b602082019050919050565b60006020820190508181036000830152610c8881610c4c565b9050919050565b6000606082019050610ca46000830186610af5565b610cb16020830185610af5565b610cbe6040830184610a1f565b949350505050565b60008115159050919050565b610cdb81610cc6565b8114610ce657600080fd5b50565b600081519050610cf881610cd2565b92915050565b600060208284031215610d1457610d13610b1f565b5b6000610d2284828501610ce9565b91505092915050565b7f72696e67206661696c0000000000000000000000000000000000000000000000600082015250565b6000610d61600983610c12565b9150610d6c82610d2b565b602082019050919050565b60006020820190508181036000830152610d9081610d54565b9050919050565b7f4e487b7100000000000000000000000000000000000000000000000000000000600052601160045260246000fd5b6000610dd182610a15565b91507fffffffffffffffffffffffffffffffffffffffffffffffffffffffffffffffff8203610e0357610e02610d97565b5b600182019050919050565b6000819050919050565b610e29610e2482610a15565b610e0e565b82525050565b60008160601b9050919050565b6000610e4782610e2f565b9050919050565b6000610e5982610e3c565b9050919050565b610e71610e6c82610ae3565b610e4e565b82525050565b6000610e838287610e18565b602082019150610e938286610e60565b601482019150610ea38285610e18565b602082019150610eb38284610e18565b60208201915081905095945050505050565b7f4e487b7100000000000000000000000000000000000000000000000000000000600052601260045260246000fd5b6000610eff82610a15565b9150610f0a83610a15565b925082610f1a57610f19610ec5565b5b828206905092915050565b6000610f3082610a15565b9150610f3b83610a15565b9250828201905080821115610f5357610f52610d97565b5b92915050565b600060ff82169050919050565b610f6f81610f59565b82525050565b6000606082019050610f8a6000830186610af5565b610f976020830185610f66565b610fa46040830184610f66565b949350505050565b600081519050610fbb81610b24565b92915050565b600060208284031215610fd757610fd6610b1f565b5b6000610fe584828501610fac565b91505092915050565b60006060820190506110036000830186610a1f565b6110106020830185610f66565b61101d6040830184610f66565b949350505050565b60006110318286610e18565b6020820191506110418285610e60565b6014820191506110518284610e18565b60208201915081905094935050505056fea26469706673582212203a71f0dcb95c05d3376a1a1cd8b67751260121daac7ed8dff88450ba525f243164736f6c63430008140033",
  "linkReferences": {},
  "deployedLinkReferences": {}
}