{
  "_format": "hh-sol-artifact-1",
  "contractName": "DrillNFT",
  "sourceName": "contracts/EvoLandV2.sol",
  "abi": [
    {
      "inputs": [],
      "stateMutability": "nonpayable",
      "type": "constructor"
    },
    {
      "anonymous": false,
      "inputs": [
        {
          "indexed": true,
          "internalType": "address",
          "name": "o",
          "type": "address"
        },
        {
          "indexed": true,
          "internalType": "address",
          "name": "a",
          "type": "address"
        },
        {
          "indexed": true,
          "internalType": "uint256",
          "name": "id",
          "type": "uint256"
        }
      ],
      "name": "Approval",
      "type": "event"
    },
    {
      "anonymous": false,
      "inputs": [
        {
          "indexed": true,
          "internalType": "address",
          "name": "o",
          "type": "address"
        },
        {
          "indexed": true,
          "internalType": "address",
          "name": "op",
          "type": "address"
        },
        {
          "indexed": false,
          "internalType": "bool",
          "name": "v",
          "type": "bool"
        }
      ],
      "name": "ApprovalForAll",
      "type": "event"
    },
    {
      "anonymous": false,
      "inputs": [
        {
          "indexed": true,
          "internalType": "uint256",
          "name": "id",
          "type": "uint256"
        },
        {
          "indexed": false,
          "internalType": "address",
          "name": "to",
          "type": "address"
        },
        {
          "indexed": false,
          "internalType": "uint8",
          "name": "tier",
          "type": "uint8"
        },
        {
          "indexed": false,
          "internalType": "uint8",
          "name": "affinity",
          "type": "uint8"
        }
      ],
      "name": "DrillMinted",
      "type": "event"
    },
    {
      "anonymous": false,
      "inputs": [
        {
          "indexed": true,
          "internalType": "address",
          "name": "prev",
          "type": "address"
        },
        {
          "indexed": true,
          "internalType": "address",
          "name": "next",
          "type": "address"
        }
      ],
      "name": "OwnershipTransferred",
      "type": "event"
    },
    {
      "anonymous": false,
      "inputs": [
        {
          "indexed": true,
          "internalType": "address",
          "name": "f",
          "type": "address"
        },
        {
          "indexed": true,
          "internalType": "address",
          "name": "t",
          "type": "address"
        },
        {
          "indexed": true,
          "internalType": "uint256",
          "name": "id",
          "type": "uint256"
        }
      ],
      "name": "Transfer",
      "type": "event"
    },
    {
      "inputs": [
        {
          "internalType": "address",
          "name": "a",
          "type": "address"
        },
        {
          "internalType": "uint256",
          "name": "id",
          "type": "uint256"
        }
      ],
      "name": "approve",
      "outputs": [],
      "stateMutability": "nonpayable",
      "type": "function"
    },
    {
      "inputs": [
        {
          "internalType": "uint256",
          "name": "",
          "type": "uint256"
        }
      ],
      "name": "attrs",
      "outputs": [
        {
          "internalType": "uint8",
          "name": "tier",
          "type": "uint8"
        },
        {
          "internalType": "uint8",
          "name": "affinity",
          "type": "uint8"
        }
      ],
      "stateMutability": "view",
      "type": "function"
    },
    {
      "inputs": [
        {
          "internalType": "address",
          "name": "",
          "type": "address"
        }
      ],
      "name": "balanceOf",
      "outputs": [
        {
          "internalType": "uint256",
          "name": "",
          "type": "uint256"
        }
      ],
      "stateMutability": "view",
      "type": "function"
    },
    {
      "inputs": [
        {
          "internalType": "uint256",
          "name": "id",
          "type": "uint256"
        }
      ],
      "name": "burn",
      "outputs": [],
      "stateMutability": "nonpayable",
      "type": "function"
    },
    {
      "inputs": [
        {
          "internalType": "uint256",
          "name": "",
          "type": "uint256"
        }
      ],
      "name": "getApproved",
      "outputs": [
        {
          "internalType": "address",
          "name": "",
          "type": "address"
        }
      ],
      "stateMutability": "view",
      "type": "function"
    },
    {
      "inputs": [
        {
          "internalType": "address",
          "name": "",
          "type": "address"
        },
        {
          "internalType": "address",
          "name": "",
          "type": "address"
        }
      ],
      "name": "isApprovedForAll",
      "outputs": [
        {
          "internalType": "bool",
          "name": "",
          "type": "bool"
        }
      ],
      "stateMutability": "view",
      "type": "function"
    },
    {
      "inputs": [
        {
          "internalType": "address",
          "name": "to",
          "type": "address"
        },
        {
          "internalType": "uint8",
          "name": "tier",
          "type": "uint8"
        },
        {
          "internalType": "uint8",
          "name": "affinity",
          "type": "uint8"
        }
      ],
      "name": "mint",
      "outputs": [
        {
          "internalType": "uint256",
          "name": "id",
          "type": "uint256"
        }
      ],
      "stateMutability": "nonpayable",
      "type": "function"
    },
    {
      "inputs": [],
      "name": "name",
      "outputs": [
        {
          "internalType": "string",
          "name": "",
          "type": "string"
        }
      ],
      "stateMutability": "view",
      "type": "function"
    },
    {
      "inputs": [],
      "name": "nextId",
      "outputs": [
        {
          "internalType": "uint256",
          "name": "",
          "type": "uint256"
        }
      ],
      "stateMutability": "view",
      "type": "function"
    },
    {
      "inputs": [
        {
          "internalType": "address",
          "name": "",
          "type": "address"
        }
      ],
      "name": "operators",
      "outputs": [
        {
          "internalType": "bool",
          "name": "",
          "type": "bool"
        }
      ],
      "stateMutability": "view",
      "type": "function"
    },
    {
      "inputs": [],
      "name": "owner",
      "outputs": [
        {
          "internalType": "address",
          "name": "",
          "type": "address"
        }
      ],
      "stateMutability": "view",
      "type": "function"
    },
    {
      "inputs": [
        {
          "internalType": "uint256",
          "name": "",
          "type": "uint256"
        }
      ],
      "name": "ownerOf",
      "outputs": [
        {
          "internalType": "address",
          "name": "",
          "type": "address"
        }
      ],
      "stateMutability": "view",
      "type": "function"
    },
    {
      "inputs": [
        {
          "internalType": "address",
          "name": "f",
          "type": "address"
        },
        {
          "internalType": "address",
          "name": "t",
          "type": "address"
        },
        {
          "internalType": "uint256",
          "name": "id",
          "type": "uint256"
        }
      ],
      "name": "safeTransferFrom",
      "outputs": [],
      "stateMutability": "nonpayable",
      "type": "function"
    },
    {
      "inputs": [
        {
          "internalType": "address",
          "name": "f",
          "type": "address"
        },
        {
          "internalType": "address",
          "name": "t",
          "type": "address"
        },
        {
          "internalType": "uint256",
          "name": "id",
          "type": "uint256"
        },
        {
          "internalType": "bytes",
          "name": "d",
          "type": "bytes"
        }
      ],
      "name": "safeTransferFrom",
      "outputs": [],
      "stateMutability": "nonpayable",
      "type": "function"
    },
    {
      "inputs": [
        {
          "internalType": "address",
          "name": "op",
          "type": "address"
        },
        {
          "internalType": "bool",
          "name": "v",
          "type": "bool"
        }
      ],
      "name": "setApprovalForAll",
      "outputs": [],
      "stateMutability": "nonpayable",
      "type": "function"
    },
    {
      "inputs": [
        {
          "internalType": "address",
          "name": "a",
          "type": "address"
        },
        {
          "internalType": "bool",
          "name": "v",
          "type": "bool"
        }
      ],
      "name": "setOperator",
      "outputs": [],
      "stateMutability": "nonpayable",
      "type": "function"
    },
    {
      "inputs": [
        {
          "internalType": "bytes4",
          "name": "id",
          "type": "bytes4"
        }
      ],
      "name": "supportsInterface",
      "outputs": [
        {
          "internalType": "bool",
          "name": "",
          "type": "bool"
        }
      ],
      "stateMutability": "pure",
      "type": "function"
    },
    {
      "inputs": [],
      "name": "symbol",
      "outputs": [
        {
          "internalType": "string",
          "name": "",
          "type": "string"
        }
      ],
      "stateMutability": "view",
      "type": "function"
    },
    {
      "inputs": [
        {
          "internalType": "address",
          "name": "f",
          "type": "address"
        },
        {
          "internalType": "address",
          "name": "t",
          "type": "address"
        },
        {
          "internalType": "uint256",
          "name": "id",
          "type": "uint256"
        }
      ],
      "name": "transferFrom",
      "outputs": [],
      "stateMutability": "nonpayable",
      "type": "function"
    },
    {
      "inputs": [
        {
          "internalType": "address",
          "name": "a",
          "type": "address"
        }
      ],
      "name": "transferOwnership",
      "outputs": [],
      "stateMutability": "nonpayable",
      "type": "function"
    }
  ],
  "bytecode": "0x608060405260016007553480156200001657600080fd5b506040518060400160405280600d81526020017f45766f4c616e64204472696c6c000000000000000000000000000000000000008152506040518060400160405280600581526020017f4452494c4c000000000000000000000000000000000000000000000000000000815250336000806101000a81548173ffffffffffffffffffffffffffffffffffffffff021916908373ffffffffffffffffffffffffffffffffffffffff1602179055508160019081620000d4919062000369565b508060029081620000e6919062000369565b50505062000450565b600081519050919050565b7f4e487b7100000000000000000000000000000000000000000000000000000000600052604160045260246000fd5b7f4e487b7100000000000000000000000000000000000000000000000000000000600052602260045260246000fd5b600060028204905060018216806200017157607f821691505b60208210810362000187576200018662000129565b5b50919050565b60008190508160005260206000209050919050565b60006020601f8301049050919050565b600082821b905092915050565b600060088302620001f17fffffffffffffffffffffffffffffffffffffffffffffffffffffffffffffffff82620001b2565b620001fd8683620001b2565b95508019841693508086168417925050509392505050565b6000819050919050565b6000819050919050565b60006200024a620002446200023e8462000215565b6200021f565b62000215565b9050919050565b6000819050919050565b620002668362000229565b6200027e620002758262000251565b848454620001bf565b825550505050565b600090565b6200029562000286565b620002a28184846200025b565b505050565b5b81811015620002ca57620002be6000826200028b565b600181019050620002a8565b5050565b601f8211156200031957620002e3816200018d565b620002ee84620001a2565b81016020851015620002fe578190505b620003166200030d85620001a2565b830182620002a7565b50505b505050565b600082821c905092915050565b60006200033e600019846008026200031e565b1980831691505092915050565b60006200035983836200032b565b9150826002028217905092915050565b6200037482620000ef565b67ffffffffffffffff81111562000390576200038f620000fa565b5b6200039c825462000158565b620003a9828285620002ce565b600060209050601f831160018114620003e15760008415620003cc578287015190505b620003d885826200034b565b86555062000448565b601f198416620003f1866200018d565b60005b828110156200041b57848901518255600182019150602085019450602081019050620003f4565b868310156200043b578489015162000437601f8916826200032b565b8355505b6001600288020188555050505b505050505050565b61240180620004606000396000f3fe608060405234801561001057600080fd5b506004361061012c5760003560e01c806361b8ce8c116100ad5780639ebd36f3116100715780639ebd36f314610355578063a22cb46514610386578063b88d4fde146103a2578063e985e9c5146103be578063f2fde38b146103ee5761012c565b806361b8ce8c1461029b5780636352211e146102b957806370a08231146102e95780638da5cb5b1461031957806395d89b41146103375761012c565b806323b872dd116100f457806323b872dd146101fb578063352926a81461021757806342842e0e1461024757806342966c6814610263578063558a72971461027f5761012c565b806301ffc9a71461013157806306fdde0314610161578063081812fc1461017f578063095ea7b3146101af57806313e7c9d8146101cb575b600080fd5b61014b60048036038101906101469190611983565b61040a565b60405161015891906119cb565b60405180910390f35b61016961049c565b6040516101769190611a76565b60405180910390f35b61019960048036038101906101949190611ace565b61052a565b6040516101a69190611b3c565b60405180910390f35b6101c960048036038101906101c49190611b83565b61055d565b005b6101e560048036038101906101e09190611bc3565b610710565b6040516101f291906119cb565b60405180910390f35b61021560048036038101906102109190611bf0565b610730565b005b610231600480360381019061022c9190611c7c565b6107a3565b60405161023e9190611cde565b60405180910390f35b610261600480360381019061025c9190611bf0565b6109c7565b005b61027d60048036038101906102789190611ace565b6109e7565b005b61029960048036038101906102949190611d25565b610b77565b005b6102a3610c60565b6040516102b09190611cde565b60405180910390f35b6102d360048036038101906102ce9190611ace565b610c66565b6040516102e09190611b3c565b60405180910390f35b61030360048036038101906102fe9190611bc3565b610c99565b6040516103109190611cde565b60405180910390f35b610321610cb1565b60405161032e9190611b3c565b60405180910390f35b61033f610cd5565b60405161034c9190611a76565b60405180910390f35b61036f600480360381019061036a9190611ace565b610d63565b60405161037d929190611d74565b60405180910390f35b6103a0600480360381019061039b9190611d25565b610da1565b005b6103bc60048036038101906103b79190611ed2565b610e9e565b005b6103d860048036038101906103d39190611f55565b610f20565b6040516103e591906119cb565b60405180910390f35b61040860048036038101906104039190611bc3565b610f4f565b005b60006380ac58cd60e01b827bffffffffffffffffffffffffffffffffffffffffffffffffffffffff191614806104655750635b5e139f60e01b827bffffffffffffffffffffffffffffffffffffffffffffffffffffffff1916145b8061049557506301ffc9a760e01b827bffffffffffffffffffffffffffffffffffffffffffffffffffffffff1916145b9050919050565b600180546104a990611fc4565b80601f01602080910402602001604051908101604052809291908181526020018280546104d590611fc4565b80156105225780601f106104f757610100808354040283529160200191610522565b820191906000526020600020905b81548152906001019060200180831161050557829003601f168201915b505050505081565b60056020528060005260406000206000915054906101000a900473ffffffffffffffffffffffffffffffffffffffff1681565b60006003600083815260200190815260200160002060009054906101000a900473ffffffffffffffffffffffffffffffffffffffff1690508073ffffffffffffffffffffffffffffffffffffffff163373ffffffffffffffffffffffffffffffffffffffff1614806106555750600660008273ffffffffffffffffffffffffffffffffffffffff1673ffffffffffffffffffffffffffffffffffffffff16815260200190815260200160002060003373ffffffffffffffffffffffffffffffffffffffff1673ffffffffffffffffffffffffffffffffffffffff16815260200190815260200160002060009054906101000a900460ff165b61065e57600080fd5b826005600084815260200190815260200160002060006101000a81548173ffffffffffffffffffffffffffffffffffffffff021916908373ffffffffffffffffffffffffffffffffffffffff160217905550818373ffffffffffffffffffffffffffffffffffffffff168273ffffffffffffffffffffffffffffffffffffffff167f8c5be1e5ebec7d5bd14f71427d1e84f3dd0314c0f7b2291e5b200ac8c7c3b92560405160405180910390a4505050565b60086020528060005260406000206000915054906101000a900460ff1681565b600860003373ffffffffffffffffffffffffffffffffffffffff1673ffffffffffffffffffffffffffffffffffffffff16815260200190815260200160002060009054906101000a900460ff16156107925761078d8383836110d3565b61079e565b61079d838383611309565b5b505050565b6000600860003373ffffffffffffffffffffffffffffffffffffffff1673ffffffffffffffffffffffffffffffffffffffff16815260200190815260200160002060009054906101000a900460ff1680610848575060008054906101000a900473ffffffffffffffffffffffffffffffffffffffff1673ffffffffffffffffffffffffffffffffffffffff163373ffffffffffffffffffffffffffffffffffffffff16145b610887576040517f08c379a000000000000000000000000000000000000000000000000000000000815260040161087e90612041565b60405180910390fd5b60018360ff161015801561089f575060058360ff1611155b80156108af575060048260ff1611155b6108ee576040517f08c379a00000000000000000000000000000000000000000000000000000000081526004016108e5906120ad565b60405180910390fd5b60076000815480929190610901906120fc565b91905055905060405180604001604052808460ff1681526020018360ff168152506009600083815260200190815260200160002060008201518160000160006101000a81548160ff021916908360ff16021790555060208201518160000160016101000a81548160ff021916908360ff160217905550905050610984848261132c565b807f850d11c6ed80c68a9e10122862e121b8d72c4c4f4fbc4494b199c9b675bd393b8585856040516109b893929190612144565b60405180910390a29392505050565b6109e283838360405180602001604052806000815250610e9e565b505050565b600860003373ffffffffffffffffffffffffffffffffffffffff1673ffffffffffffffffffffffffffffffffffffffff16815260200190815260200160002060009054906101000a900460ff1680610a8a575060008054906101000a900473ffffffffffffffffffffffffffffffffffffffff1673ffffffffffffffffffffffffffffffffffffffff163373ffffffffffffffffffffffffffffffffffffffff16145b610ac9576040517f08c379a0000000000000000000000000000000000000000000000000000000008152600401610ac090612041565b60405180910390fd5b600073ffffffffffffffffffffffffffffffffffffffff166003600083815260200190815260200160002060009054906101000a900473ffffffffffffffffffffffffffffffffffffffff1673ffffffffffffffffffffffffffffffffffffffff1603610b6b576040517f08c379a0000000000000000000000000000000000000000000000000000000008152600401610b62906121c7565b60405180910390fd5b610b74816114d8565b50565b60008054906101000a900473ffffffffffffffffffffffffffffffffffffffff1673ffffffffffffffffffffffffffffffffffffffff163373ffffffffffffffffffffffffffffffffffffffff1614610c05576040517f08c379a0000000000000000000000000000000000000000000000000000000008152600401610bfc90612233565b60405180910390fd5b80600860008473ffffffffffffffffffffffffffffffffffffffff1673ffffffffffffffffffffffffffffffffffffffff16815260200190815260200160002060006101000a81548160ff0219169083151502179055505050565b60075481565b60036020528060005260406000206000915054906101000a900473ffffffffffffffffffffffffffffffffffffffff1681565b60046020528060005260406000206000915090505481565b60008054906101000a900473ffffffffffffffffffffffffffffffffffffffff1681565b60028054610ce290611fc4565b80601f0160208091040260200160405190810160405280929190818152602001828054610d0e90611fc4565b8015610d5b5780601f10610d3057610100808354040283529160200191610d5b565b820191906000526020600020905b815481529060010190602001808311610d3e57829003601f168201915b505050505081565b60096020528060005260406000206000915090508060000160009054906101000a900460ff16908060000160019054906101000a900460ff16905082565b80600660003373ffffffffffffffffffffffffffffffffffffffff1673ffffffffffffffffffffffffffffffffffffffff16815260200190815260200160002060008473ffffffffffffffffffffffffffffffffffffffff1673ffffffffffffffffffffffffffffffffffffffff16815260200190815260200160002060006101000a81548160ff0219169083151502179055508173ffffffffffffffffffffffffffffffffffffffff163373ffffffffffffffffffffffffffffffffffffffff167f17307eab39ab6107e8899845ad3d59bd9653f200f220920489ca2b5937696c3183604051610e9291906119cb565b60405180910390a35050565b600860003373ffffffffffffffffffffffffffffffffffffffff1673ffffffffffffffffffffffffffffffffffffffff16815260200190815260200160002060009054906101000a900460ff1615610f0d57610efb8484846110d3565b610f08338585858561166a565b610f1a565b610f198484848461177b565b5b50505050565b60066020528160005260406000206020528060005260406000206000915091509054906101000a900460ff1681565b60008054906101000a900473ffffffffffffffffffffffffffffffffffffffff1673ffffffffffffffffffffffffffffffffffffffff163373ffffffffffffffffffffffffffffffffffffffff1614610fdd576040517f08c379a0000000000000000000000000000000000000000000000000000000008152600401610fd490612233565b60405180910390fd5b600073ffffffffffffffffffffffffffffffffffffffff168173ffffffffffffffffffffffffffffffffffffffff160361101657600080fd5b8073ffffffffffffffffffffffffffffffffffffffff1660008054906101000a900473ffffffffffffffffffffffffffffffffffffffff1673ffffffffffffffffffffffffffffffffffffffff167f8be0079c531659141344cd1fd0a4f28419497f9722a3daafe3b4186f6b6457e060405160405180910390a3806000806101000a81548173ffffffffffffffffffffffffffffffffffffffff021916908373ffffffffffffffffffffffffffffffffffffffff16021790555050565b8273ffffffffffffffffffffffffffffffffffffffff166003600083815260200190815260200160002060009054906101000a900473ffffffffffffffffffffffffffffffffffffffff1673ffffffffffffffffffffffffffffffffffffffff1614801561116e5750600073ffffffffffffffffffffffffffffffffffffffff168273ffffffffffffffffffffffffffffffffffffffff1614155b61117757600080fd5b6005600082815260200190815260200160002060006101000a81549073ffffffffffffffffffffffffffffffffffffffff0219169055600460008473ffffffffffffffffffffffffffffffffffffffff1673ffffffffffffffffffffffffffffffffffffffff16815260200190815260200160002060008154809291906111fd90612253565b9190505550600460008373ffffffffffffffffffffffffffffffffffffffff1673ffffffffffffffffffffffffffffffffffffffff1681526020019081526020016000206000815480929190611252906120fc565b9190505550816003600083815260200190815260200160002060006101000a81548173ffffffffffffffffffffffffffffffffffffffff021916908373ffffffffffffffffffffffffffffffffffffffff160217905550808273ffffffffffffffffffffffffffffffffffffffff168473ffffffffffffffffffffffffffffffffffffffff167fddf252ad1be2c89b69c2b068fc378daa952ba7f163c4a11628f55a4df523b3ef60405160405180910390a4505050565b61131333826117ac565b61131c57600080fd5b6113278383836110d3565b505050565b600073ffffffffffffffffffffffffffffffffffffffff168273ffffffffffffffffffffffffffffffffffffffff16141580156113c85750600073ffffffffffffffffffffffffffffffffffffffff166003600083815260200190815260200160002060009054906101000a900473ffffffffffffffffffffffffffffffffffffffff1673ffffffffffffffffffffffffffffffffffffffff16145b6113d157600080fd5b600460008373ffffffffffffffffffffffffffffffffffffffff1673ffffffffffffffffffffffffffffffffffffffff1681526020019081526020016000206000815480929190611421906120fc565b9190505550816003600083815260200190815260200160002060006101000a81548173ffffffffffffffffffffffffffffffffffffffff021916908373ffffffffffffffffffffffffffffffffffffffff160217905550808273ffffffffffffffffffffffffffffffffffffffff16600073ffffffffffffffffffffffffffffffffffffffff167fddf252ad1be2c89b69c2b068fc378daa952ba7f163c4a11628f55a4df523b3ef60405160405180910390a45050565b60006003600083815260200190815260200160002060009054906101000a900473ffffffffffffffffffffffffffffffffffffffff169050600073ffffffffffffffffffffffffffffffffffffffff168173ffffffffffffffffffffffffffffffffffffffff160361154957600080fd5b600460008273ffffffffffffffffffffffffffffffffffffffff1673ffffffffffffffffffffffffffffffffffffffff168152602001908152602001600020600081548092919061159990612253565b91905055506003600083815260200190815260200160002060006101000a81549073ffffffffffffffffffffffffffffffffffffffff02191690556005600083815260200190815260200160002060006101000a81549073ffffffffffffffffffffffffffffffffffffffff021916905581600073ffffffffffffffffffffffffffffffffffffffff168273ffffffffffffffffffffffffffffffffffffffff167fddf252ad1be2c89b69c2b068fc378daa952ba7f163c4a11628f55a4df523b3ef60405160405180910390a45050565b60008373ffffffffffffffffffffffffffffffffffffffff163b11156117745763150b7a0260e01b8373ffffffffffffffffffffffffffffffffffffffff1663150b7a02878786866040518563ffffffff1660e01b81526004016116d194939291906122d1565b6020604051808303816000875af11580156116f0573d6000803e3d6000fd5b505050506040513d601f19601f820116820180604052508101906117149190612332565b7bffffffffffffffffffffffffffffffffffffffffffffffffffffffff191614611773576040517f08c379a000000000000000000000000000000000000000000000000000000000815260040161176a906123ab565b60405180910390fd5b5b5050505050565b61178533836117ac565b61178e57600080fd5b6117998484846110d3565b6117a6338585858561166a565b50505050565b6000806003600084815260200190815260200160002060009054906101000a900473ffffffffffffffffffffffffffffffffffffffff1690508073ffffffffffffffffffffffffffffffffffffffff168473ffffffffffffffffffffffffffffffffffffffff1614806118a55750600660008273ffffffffffffffffffffffffffffffffffffffff1673ffffffffffffffffffffffffffffffffffffffff16815260200190815260200160002060008573ffffffffffffffffffffffffffffffffffffffff1673ffffffffffffffffffffffffffffffffffffffff16815260200190815260200160002060009054906101000a900460ff165b8061190e57508373ffffffffffffffffffffffffffffffffffffffff166005600085815260200190815260200160002060009054906101000a900473ffffffffffffffffffffffffffffffffffffffff1673ffffffffffffffffffffffffffffffffffffffff16145b91505092915050565b6000604051905090565b600080fd5b600080fd5b60007fffffffff0000000000000000000000000000000000000000000000000000000082169050919050565b6119608161192b565b811461196b57600080fd5b50565b60008135905061197d81611957565b92915050565b60006020828403121561199957611998611921565b5b60006119a78482850161196e565b91505092915050565b60008115159050919050565b6119c5816119b0565b82525050565b60006020820190506119e060008301846119bc565b92915050565b600081519050919050565b600082825260208201905092915050565b60005b83811015611a20578082015181840152602081019050611a05565b60008484015250505050565b6000601f19601f8301169050919050565b6000611a48826119e6565b611a5281856119f1565b9350611a62818560208601611a02565b611a6b81611a2c565b840191505092915050565b60006020820190508181036000830152611a908184611a3d565b905092915050565b6000819050919050565b611aab81611a98565b8114611ab657600080fd5b50565b600081359050611ac881611aa2565b92915050565b600060208284031215611ae457611ae3611921565b5b6000611af284828501611ab9565b91505092915050565b600073ffffffffffffffffffffffffffffffffffffffff82169050919050565b6000611b2682611afb565b9050919050565b611b3681611b1b565b82525050565b6000602082019050611b516000830184611b2d565b92915050565b611b6081611b1b565b8114611b6b57600080fd5b50565b600081359050611b7d81611b57565b92915050565b60008060408385031215611b9a57611b99611921565b5b6000611ba885828601611b6e565b9250506020611bb985828601611ab9565b9150509250929050565b600060208284031215611bd957611bd8611921565b5b6000611be784828501611b6e565b91505092915050565b600080600060608486031215611c0957611c08611921565b5b6000611c1786828701611b6e565b9350506020611c2886828701611b6e565b9250506040611c3986828701611ab9565b9150509250925092565b600060ff82169050919050565b611c5981611c43565b8114611c6457600080fd5b50565b600081359050611c7681611c50565b92915050565b600080600060608486031215611c9557611c94611921565b5b6000611ca386828701611b6e565b9350506020611cb486828701611c67565b9250506040611cc586828701611c67565b9150509250925092565b611cd881611a98565b82525050565b6000602082019050611cf36000830184611ccf565b92915050565b611d02816119b0565b8114611d0d57600080fd5b50565b600081359050611d1f81611cf9565b92915050565b60008060408385031215611d3c57611d3b611921565b5b6000611d4a85828601611b6e565b9250506020611d5b85828601611d10565b9150509250929050565b611d6e81611c43565b82525050565b6000604082019050611d896000830185611d65565b611d966020830184611d65565b9392505050565b600080fd5b600080fd5b7f4e487b7100000000000000000000000000000000000000000000000000000000600052604160045260246000fd5b611ddf82611a2c565b810181811067ffffffffffffffff82111715611dfe57611dfd611da7565b5b80604052505050565b6000611e11611917565b9050611e1d8282611dd6565b919050565b600067ffffffffffffffff821115611e3d57611e3c611da7565b5b611e4682611a2c565b9050602081019050919050565b82818337600083830152505050565b6000611e75611e7084611e22565b611e07565b905082815260208101848484011115611e9157611e90611da2565b5b611e9c848285611e53565b509392505050565b600082601f830112611eb957611eb8611d9d565b5b8135611ec9848260208601611e62565b91505092915050565b60008060008060808587031215611eec57611eeb611921565b5b6000611efa87828801611b6e565b9450506020611f0b87828801611b6e565b9350506040611f1c87828801611ab9565b925050606085013567ffffffffffffffff811115611f3d57611f3c611926565b5b611f4987828801611ea4565b91505092959194509250565b60008060408385031215611f6c57611f6b611921565b5b6000611f7a85828601611b6e565b9250506020611f8b85828601611b6e565b9150509250929050565b7f4e487b7100000000000000000000000000000000000000000000000000000000600052602260045260246000fd5b60006002820490506001821680611fdc57607f821691505b602082108103611fef57611fee611f95565b5b50919050565b7f216f700000000000000000000000000000000000000000000000000000000000600082015250565b600061202b6003836119f1565b915061203682611ff5565b602082019050919050565b6000602082019050818103600083015261205a8161201e565b9050919050565b7f6261642061747472000000000000000000000000000000000000000000000000600082015250565b60006120976008836119f1565b91506120a282612061565b602082019050919050565b600060208201905081810360008301526120c68161208a565b9050919050565b7f4e487b7100000000000000000000000000000000000000000000000000000000600052601160045260246000fd5b600061210782611a98565b91507fffffffffffffffffffffffffffffffffffffffffffffffffffffffffffffffff8203612139576121386120cd565b5b600182019050919050565b60006060820190506121596000830186611b2d565b6121666020830185611d65565b6121736040830184611d65565b949350505050565b7f2165786973740000000000000000000000000000000000000000000000000000600082015250565b60006121b16006836119f1565b91506121bc8261217b565b602082019050919050565b600060208201905081810360008301526121e0816121a4565b9050919050565b7f216f776e65720000000000000000000000000000000000000000000000000000600082015250565b600061221d6006836119f1565b9150612228826121e7565b602082019050919050565b6000602082019050818103600083015261224c81612210565b9050919050565b600061225e82611a98565b915060008203612271576122706120cd565b5b600182039050919050565b600081519050919050565b600082825260208201905092915050565b60006122a38261227c565b6122ad8185612287565b93506122bd818560208601611a02565b6122c681611a2c565b840191505092915050565b60006080820190506122e66000830187611b2d565b6122f36020830186611b2d565b6123006040830185611ccf565b81810360608301526123128184612298565b905095945050505050565b60008151905061232c81611957565b92915050565b60006020828403121561234857612347611921565b5b60006123568482850161231d565b91505092915050565b7f2172656365697665720000000000000000000000000000000000000000000000600082015250565b60006123956009836119f1565b91506123a08261235f565b602082019050919050565b600060208201905081810360008301526123c481612388565b905091905056fea2646970667358221220b16243dfbea1cb8900996504a038f34a3e135fee64732e4a078b2b2ecdc5458a64736f6c63430008140033",
  "linkReferences": {},
  "deployedLinkReferences": {}
}