{
  "_format": "hh-sol-artifact-1",
  "contractName": "DrillNFT",
  "sourceName": "contracts/EvoLandV2.sol",
  "abi": [
    {
      "inputs": [],
      "stateMutability": "nonpayable",
      "type": "constructor"
    },
    {
      "anonymous": false,
      "inputs": [
        {
          "indexed": true,
          "internalType": "address",
          "name": "o",
          "type": "address"
        },
        {
          "indexed": true,
          "internalType": "address",
          "name": "a",
          "type": "address"
        },
        {
          "indexed": true,
          "internalType": "uint256",
          "name": "id",
          "type": "uint256"
        }
      ],
      "name": "Approval",
      "type": "event"
    },
    {
      "anonymous": false,
      "inputs": [
        {
          "indexed": true,
          "internalType": "address",
          "name": "o",
          "type": "address"
        },
        {
          "indexed": true,
          "internalType": "address",
          "name": "op",
          "type": "address"
        },
        {
          "indexed": false,
          "internalType": "bool",
          "name": "v",
          "type": "bool"
        }
      ],
      "name": "ApprovalForAll",
      "type": "event"
    },
    {
      "anonymous": false,
      "inputs": [
        {
          "indexed": true,
          "internalType": "uint256",
          "name": "id",
          "type": "uint256"
        },
        {
          "indexed": false,
          "internalType": "address",
          "name": "to",
          "type": "address"
        },
        {
          "indexed": false,
          "internalType": "uint8",
          "name": "tier",
          "type": "uint8"
        },
        {
          "indexed": false,
          "internalType": "uint8",
          "name": "affinity",
          "type": "uint8"
        }
      ],
      "name": "DrillMinted",
      "type": "event"
    },
    {
      "anonymous": false,
      "inputs": [
        {
          "indexed": true,
          "internalType": "address",
          "name": "prev",
          "type": "address"
        },
        {
          "indexed": true,
          "internalType": "address",
          "name": "next",
          "type": "address"
        }
      ],
      "name": "OwnershipTransferred",
      "type": "event"
    },
    {
      "anonymous": false,
      "inputs": [
        {
          "indexed": true,
          "internalType": "address",
          "name": "f",
          "type": "address"
        },
        {
          "indexed": true,
          "internalType": "address",
          "name": "t",
          "type": "address"
        },
        {
          "indexed": true,
          "internalType": "uint256",
          "name": "id",
          "type": "uint256"
        }
      ],
      "name": "Transfer",
      "type": "event"
    },
    {
      "inputs": [
        {
          "internalType": "address",
          "name": "a",
          "type": "address"
        },
        {
          "internalType": "uint256",
          "name": "id",
          "type": "uint256"
        }
      ],
      "name": "approve",
      "outputs": [],
      "stateMutability": "nonpayable",
      "type": "function"
    },
    {
      "inputs": [
        {
          "internalType": "uint256",
          "name": "",
          "type": "uint256"
        }
      ],
      "name": "attrs",
      "outputs": [
        {
          "internalType": "uint8",
          "name": "tier",
          "type": "uint8"
        },
        {
          "internalType": "uint8",
          "name": "affinity",
          "type": "uint8"
        }
      ],
      "stateMutability": "view",
      "type": "function"
    },
    {
      "inputs": [
        {
          "internalType": "address",
          "name": "",
          "type": "address"
        }
      ],
      "name": "balanceOf",
      "outputs": [
        {
          "internalType": "uint256",
          "name": "",
          "type": "uint256"
        }
      ],
      "stateMutability": "view",
      "type": "function"
    },
    {
      "inputs": [
        {
          "internalType": "uint256",
          "name": "",
          "type": "uint256"
        }
      ],
      "name": "getApproved",
      "outputs": [
        {
          "internalType": "address",
          "name": "",
          "type": "address"
        }
      ],
      "stateMutability": "view",
      "type": "function"
    },
    {
      "inputs": [
        {
          "internalType": "address",
          "name": "",
          "type": "address"
        },
        {
          "internalType": "address",
          "name": "",
          "type": "address"
        }
      ],
      "name": "isApprovedForAll",
      "outputs": [
        {
          "internalType": "bool",
          "name": "",
          "type": "bool"
        }
      ],
      "stateMutability": "view",
      "type": "function"
    },
    {
      "inputs": [
        {
          "internalType": "address",
          "name": "to",
          "type": "address"
        },
        {
          "internalType": "uint8",
          "name": "tier",
          "type": "uint8"
        },
        {
          "internalType": "uint8",
          "name": "affinity",
          "type": "uint8"
        }
      ],
      "name": "mint",
      "outputs": [
        {
          "internalType": "uint256",
          "name": "id",
          "type": "uint256"
        }
      ],
      "stateMutability": "nonpayable",
      "type": "function"
    },
    {
      "inputs": [],
      "name": "name",
      "outputs": [
        {
          "internalType": "string",
          "name": "",
          "type": "string"
        }
      ],
      "stateMutability": "view",
      "type": "function"
    },
    {
      "inputs": [],
      "name": "nextId",
      "outputs": [
        {
          "internalType": "uint256",
          "name": "",
          "type": "uint256"
        }
      ],
      "stateMutability": "view",
      "type": "function"
    },
    {
      "inputs": [
        {
          "internalType": "address",
          "name": "",
          "type": "address"
        }
      ],
      "name": "operators",
      "outputs": [
        {
          "internalType": "bool",
          "name": "",
          "type": "bool"
        }
      ],
      "stateMutability": "view",
      "type": "function"
    },
    {
      "inputs": [],
      "name": "owner",
      "outputs": [
        {
          "internalType": "address",
          "name": "",
          "type": "address"
        }
      ],
      "stateMutability": "view",
      "type": "function"
    },
    {
      "inputs": [
        {
          "internalType": "uint256",
          "name": "",
          "type": "uint256"
        }
      ],
      "name": "ownerOf",
      "outputs": [
        {
          "internalType": "address",
          "name": "",
          "type": "address"
        }
      ],
      "stateMutability": "view",
      "type": "function"
    },
    {
      "inputs": [
        {
          "internalType": "address",
          "name": "f",
          "type": "address"
        },
        {
          "internalType": "address",
          "name": "t",
          "type": "address"
        },
        {
          "internalType": "uint256",
          "name": "id",
          "type": "uint256"
        }
      ],
      "name": "safeTransferFrom",
      "outputs": [],
      "stateMutability": "nonpayable",
      "type": "function"
    },
    {
      "inputs": [
        {
          "internalType": "address",
          "name": "f",
          "type": "address"
        },
        {
          "internalType": "address",
          "name": "t",
          "type": "address"
        },
        {
          "internalType": "uint256",
          "name": "id",
          "type": "uint256"
        },
        {
          "internalType": "bytes",
          "name": "d",
          "type": "bytes"
        }
      ],
      "name": "safeTransferFrom",
      "outputs": [],
      "stateMutability": "nonpayable",
      "type": "function"
    },
    {
      "inputs": [
        {
          "internalType": "address",
          "name": "op",
          "type": "address"
        },
        {
          "internalType": "bool",
          "name": "v",
          "type": "bool"
        }
      ],
      "name": "setApprovalForAll",
      "outputs": [],
      "stateMutability": "nonpayable",
      "type": "function"
    },
    {
      "inputs": [
        {
          "internalType": "address",
          "name": "a",
          "type": "address"
        },
        {
          "internalType": "bool",
          "name": "v",
          "type": "bool"
        }
      ],
      "name": "setOperator",
      "outputs": [],
      "stateMutability": "nonpayable",
      "type": "function"
    },
    {
      "inputs": [
        {
          "internalType": "bytes4",
          "name": "id",
          "type": "bytes4"
        }
      ],
      "name": "supportsInterface",
      "outputs": [
        {
          "internalType": "bool",
          "name": "",
          "type": "bool"
        }
      ],
      "stateMutability": "pure",
      "type": "function"
    },
    {
      "inputs": [],
      "name": "symbol",
      "outputs": [
        {
          "internalType": "string",
          "name": "",
          "type": "string"
        }
      ],
      "stateMutability": "view",
      "type": "function"
    },
    {
      "inputs": [
        {
          "internalType": "address",
          "name": "f",
          "type": "address"
        },
        {
          "internalType": "address",
          "name": "t",
          "type": "address"
        },
        {
          "internalType": "uint256",
          "name": "id",
          "type": "uint256"
        }
      ],
      "name": "transferFrom",
      "outputs": [],
      "stateMutability": "nonpayable",
      "type": "function"
    },
    {
      "inputs": [
        {
          "internalType": "address",
          "name": "a",
          "type": "address"
        }
      ],
      "name": "transferOwnership",
      "outputs": [],
      "stateMutability": "nonpayable",
      "type": "function"
    }
  ],
  "bytecode": "0x608060405260016007553480156200001657600080fd5b506040518060400160405280600d81526020017f45766f4c616e64204472696c6c000000000000000000000000000000000000008152506040518060400160405280600581526020017f4452494c4c000000000000000000000000000000000000000000000000000000815250336000806101000a81548173ffffffffffffffffffffffffffffffffffffffff021916908373ffffffffffffffffffffffffffffffffffffffff1602179055508160019081620000d4919062000369565b508060029081620000e6919062000369565b50505062000450565b600081519050919050565b7f4e487b7100000000000000000000000000000000000000000000000000000000600052604160045260246000fd5b7f4e487b7100000000000000000000000000000000000000000000000000000000600052602260045260246000fd5b600060028204905060018216806200017157607f821691505b60208210810362000187576200018662000129565b5b50919050565b60008190508160005260206000209050919050565b60006020601f8301049050919050565b600082821b905092915050565b600060088302620001f17fffffffffffffffffffffffffffffffffffffffffffffffffffffffffffffffff82620001b2565b620001fd8683620001b2565b95508019841693508086168417925050509392505050565b6000819050919050565b6000819050919050565b60006200024a620002446200023e8462000215565b6200021f565b62000215565b9050919050565b6000819050919050565b620002668362000229565b6200027e620002758262000251565b848454620001bf565b825550505050565b600090565b6200029562000286565b620002a28184846200025b565b505050565b5b81811015620002ca57620002be6000826200028b565b600181019050620002a8565b5050565b601f8211156200031957620002e3816200018d565b620002ee84620001a2565b81016020851015620002fe578190505b620003166200030d85620001a2565b830182620002a7565b50505b505050565b600082821c905092915050565b60006200033e600019846008026200031e565b1980831691505092915050565b60006200035983836200032b565b9150826002028217905092915050565b6200037482620000ef565b67ffffffffffffffff81111562000390576200038f620000fa565b5b6200039c825462000158565b620003a9828285620002ce565b600060209050601f831160018114620003e15760008415620003cc578287015190505b620003d885826200034b565b86555062000448565b601f198416620003f1866200018d565b60005b828110156200041b57848901518255600182019150602085019450602081019050620003f4565b868310156200043b578489015162000437601f8916826200032b565b8355505b6001600288020188555050505b505050505050565b61204c80620004606000396000f3fe608060405234801561001057600080fd5b50600436106101215760003560e01c806361b8ce8c116100ad5780639ebd36f3116100715780639ebd36f31461032e578063a22cb4651461035f578063b88d4fde1461037b578063e985e9c514610397578063f2fde38b146103c757610121565b806361b8ce8c146102745780636352211e1461029257806370a08231146102c25780638da5cb5b146102f257806395d89b411461031057610121565b806313e7c9d8116100f457806313e7c9d8146101c057806323b872dd146101f0578063352926a81461020c57806342842e0e1461023c578063558a72971461025857610121565b806301ffc9a71461012657806306fdde0314610156578063081812fc14610174578063095ea7b3146101a4575b600080fd5b610140600480360381019061013b919061163a565b6103e3565b60405161014d9190611682565b60405180910390f35b61015e610475565b60405161016b919061172d565b60405180910390f35b61018e60048036038101906101899190611785565b610503565b60405161019b91906117f3565b60405180910390f35b6101be60048036038101906101b9919061183a565b610536565b005b6101da60048036038101906101d5919061187a565b6106e9565b6040516101e79190611682565b60405180910390f35b61020a600480360381019061020591906118a7565b610709565b005b61022660048036038101906102219190611933565b61077c565b6040516102339190611995565b60405180910390f35b610256600480360381019061025191906118a7565b6109a0565b005b610272600480360381019061026d91906119dc565b6109c0565b005b61027c610aa9565b6040516102899190611995565b60405180910390f35b6102ac60048036038101906102a79190611785565b610aaf565b6040516102b991906117f3565b60405180910390f35b6102dc60048036038101906102d7919061187a565b610ae2565b6040516102e99190611995565b60405180910390f35b6102fa610afa565b60405161030791906117f3565b60405180910390f35b610318610b1e565b604051610325919061172d565b60405180910390f35b61034860048036038101906103439190611785565b610bac565b604051610356929190611a2b565b60405180910390f35b610379600480360381019061037491906119dc565b610bea565b005b61039560048036038101906103909190611b89565b610ce7565b005b6103b160048036038101906103ac9190611c0c565b610d69565b6040516103be9190611682565b60405180910390f35b6103e160048036038101906103dc919061187a565b610d98565b005b60006380ac58cd60e01b827bffffffffffffffffffffffffffffffffffffffffffffffffffffffff1916148061043e5750635b5e139f60e01b827bffffffffffffffffffffffffffffffffffffffffffffffffffffffff1916145b8061046e57506301ffc9a760e01b827bffffffffffffffffffffffffffffffffffffffffffffffffffffffff1916145b9050919050565b6001805461048290611c7b565b80601f01602080910402602001604051908101604052809291908181526020018280546104ae90611c7b565b80156104fb5780601f106104d0576101008083540402835291602001916104fb565b820191906000526020600020905b8154815290600101906020018083116104de57829003601f168201915b505050505081565b60056020528060005260406000206000915054906101000a900473ffffffffffffffffffffffffffffffffffffffff1681565b60006003600083815260200190815260200160002060009054906101000a900473ffffffffffffffffffffffffffffffffffffffff1690508073ffffffffffffffffffffffffffffffffffffffff163373ffffffffffffffffffffffffffffffffffffffff16148061062e5750600660008273ffffffffffffffffffffffffffffffffffffffff1673ffffffffffffffffffffffffffffffffffffffff16815260200190815260200160002060003373ffffffffffffffffffffffffffffffffffffffff1673ffffffffffffffffffffffffffffffffffffffff16815260200190815260200160002060009054906101000a900460ff165b61063757600080fd5b826005600084815260200190815260200160002060006101000a81548173ffffffffffffffffffffffffffffffffffffffff021916908373ffffffffffffffffffffffffffffffffffffffff160217905550818373ffffffffffffffffffffffffffffffffffffffff168273ffffffffffffffffffffffffffffffffffffffff167f8c5be1e5ebec7d5bd14f71427d1e84f3dd0314c0f7b2291e5b200ac8c7c3b92560405160405180910390a4505050565b60086020528060005260406000206000915054906101000a900460ff1681565b600860003373ffffffffffffffffffffffffffffffffffffffff1673ffffffffffffffffffffffffffffffffffffffff16815260200190815260200160002060009054906101000a900460ff161561076b57610766838383610f1c565b610777565b610776838383611152565b5b505050565b6000600860003373ffffffffffffffffffffffffffffffffffffffff1673ffffffffffffffffffffffffffffffffffffffff16815260200190815260200160002060009054906101000a900460ff1680610821575060008054906101000a900473ffffffffffffffffffffffffffffffffffffffff1673ffffffffffffffffffffffffffffffffffffffff163373ffffffffffffffffffffffffffffffffffffffff16145b610860576040517f08c379a000000000000000000000000000000000000000000000000000000000815260040161085790611cf8565b60405180910390fd5b60018360ff1610158015610878575060058360ff1611155b8015610888575060048260ff1611155b6108c7576040517f08c379a00000000000000000000000000000000000000000000000000000000081526004016108be90611d64565b60405180910390fd5b600760008154809291906108da90611db3565b91905055905060405180604001604052808460ff1681526020018360ff168152506009600083815260200190815260200160002060008201518160000160006101000a81548160ff021916908360ff16021790555060208201518160000160016101000a81548160ff021916908360ff16021790555090505061095d8482611175565b807f850d11c6ed80c68a9e10122862e121b8d72c4c4f4fbc4494b199c9b675bd393b85858560405161099193929190611dfb565b60405180910390a29392505050565b6109bb83838360405180602001604052806000815250610ce7565b505050565b60008054906101000a900473ffffffffffffffffffffffffffffffffffffffff1673ffffffffffffffffffffffffffffffffffffffff163373ffffffffffffffffffffffffffffffffffffffff1614610a4e576040517f08c379a0000000000000000000000000000000000000000000000000000000008152600401610a4590611e7e565b60405180910390fd5b80600860008473ffffffffffffffffffffffffffffffffffffffff1673ffffffffffffffffffffffffffffffffffffffff16815260200190815260200160002060006101000a81548160ff0219169083151502179055505050565b60075481565b60036020528060005260406000206000915054906101000a900473ffffffffffffffffffffffffffffffffffffffff1681565b60046020528060005260406000206000915090505481565b60008054906101000a900473ffffffffffffffffffffffffffffffffffffffff1681565b60028054610b2b90611c7b565b80601f0160208091040260200160405190810160405280929190818152602001828054610b5790611c7b565b8015610ba45780601f10610b7957610100808354040283529160200191610ba4565b820191906000526020600020905b815481529060010190602001808311610b8757829003601f168201915b505050505081565b60096020528060005260406000206000915090508060000160009054906101000a900460ff16908060000160019054906101000a900460ff16905082565b80600660003373ffffffffffffffffffffffffffffffffffffffff1673ffffffffffffffffffffffffffffffffffffffff16815260200190815260200160002060008473ffffffffffffffffffffffffffffffffffffffff1673ffffffffffffffffffffffffffffffffffffffff16815260200190815260200160002060006101000a81548160ff0219169083151502179055508173ffffffffffffffffffffffffffffffffffffffff163373ffffffffffffffffffffffffffffffffffffffff167f17307eab39ab6107e8899845ad3d59bd9653f200f220920489ca2b5937696c3183604051610cdb9190611682565b60405180910390a35050565b600860003373ffffffffffffffffffffffffffffffffffffffff1673ffffffffffffffffffffffffffffffffffffffff16815260200190815260200160002060009054906101000a900460ff1615610d5657610d44848484610f1c565b610d513385858585611321565b610d63565b610d6284848484611432565b5b50505050565b60066020528160005260406000206020528060005260406000206000915091509054906101000a900460ff1681565b60008054906101000a900473ffffffffffffffffffffffffffffffffffffffff1673ffffffffffffffffffffffffffffffffffffffff163373ffffffffffffffffffffffffffffffffffffffff1614610e26576040517f08c379a0000000000000000000000000000000000000000000000000000000008152600401610e1d90611e7e565b60405180910390fd5b600073ffffffffffffffffffffffffffffffffffffffff168173ffffffffffffffffffffffffffffffffffffffff1603610e5f57600080fd5b8073ffffffffffffffffffffffffffffffffffffffff1660008054906101000a900473ffffffffffffffffffffffffffffffffffffffff1673ffffffffffffffffffffffffffffffffffffffff167f8be0079c531659141344cd1fd0a4f28419497f9722a3daafe3b4186f6b6457e060405160405180910390a3806000806101000a81548173ffffffffffffffffffffffffffffffffffffffff021916908373ffffffffffffffffffffffffffffffffffffffff16021790555050565b8273ffffffffffffffffffffffffffffffffffffffff166003600083815260200190815260200160002060009054906101000a900473ffffffffffffffffffffffffffffffffffffffff1673ffffffffffffffffffffffffffffffffffffffff16148015610fb75750600073ffffffffffffffffffffffffffffffffffffffff168273ffffffffffffffffffffffffffffffffffffffff1614155b610fc057600080fd5b6005600082815260200190815260200160002060006101000a81549073ffffffffffffffffffffffffffffffffffffffff0219169055600460008473ffffffffffffffffffffffffffffffffffffffff1673ffffffffffffffffffffffffffffffffffffffff168152602001908152602001600020600081548092919061104690611e9e565b9190505550600460008373ffffffffffffffffffffffffffffffffffffffff1673ffffffffffffffffffffffffffffffffffffffff168152602001908152602001600020600081548092919061109b90611db3565b9190505550816003600083815260200190815260200160002060006101000a81548173ffffffffffffffffffffffffffffffffffffffff021916908373ffffffffffffffffffffffffffffffffffffffff160217905550808273ffffffffffffffffffffffffffffffffffffffff168473ffffffffffffffffffffffffffffffffffffffff167fddf252ad1be2c89b69c2b068fc378daa952ba7f163c4a11628f55a4df523b3ef60405160405180910390a4505050565b61115c3382611463565b61116557600080fd5b611170838383610f1c565b505050565b600073ffffffffffffffffffffffffffffffffffffffff168273ffffffffffffffffffffffffffffffffffffffff16141580156112115750600073ffffffffffffffffffffffffffffffffffffffff166003600083815260200190815260200160002060009054906101000a900473ffffffffffffffffffffffffffffffffffffffff1673ffffffffffffffffffffffffffffffffffffffff16145b61121a57600080fd5b600460008373ffffffffffffffffffffffffffffffffffffffff1673ffffffffffffffffffffffffffffffffffffffff168152602001908152602001600020600081548092919061126a90611db3565b9190505550816003600083815260200190815260200160002060006101000a81548173ffffffffffffffffffffffffffffffffffffffff021916908373ffffffffffffffffffffffffffffffffffffffff160217905550808273ffffffffffffffffffffffffffffffffffffffff16600073ffffffffffffffffffffffffffffffffffffffff167fddf252ad1be2c89b69c2b068fc378daa952ba7f163c4a11628f55a4df523b3ef60405160405180910390a45050565b60008373ffffffffffffffffffffffffffffffffffffffff163b111561142b5763150b7a0260e01b8373ffffffffffffffffffffffffffffffffffffffff1663150b7a02878786866040518563ffffffff1660e01b81526004016113889493929190611f1c565b6020604051808303816000875af11580156113a7573d6000803e3d6000fd5b505050506040513d601f19601f820116820180604052508101906113cb9190611f7d565b7bffffffffffffffffffffffffffffffffffffffffffffffffffffffff19161461142a576040517f08c379a000000000000000000000000000000000000000000000000000000000815260040161142190611ff6565b60405180910390fd5b5b5050505050565b61143c3383611463565b61144557600080fd5b611450848484610f1c565b61145d3385858585611321565b50505050565b6000806003600084815260200190815260200160002060009054906101000a900473ffffffffffffffffffffffffffffffffffffffff1690508073ffffffffffffffffffffffffffffffffffffffff168473ffffffffffffffffffffffffffffffffffffffff16148061155c5750600660008273ffffffffffffffffffffffffffffffffffffffff1673ffffffffffffffffffffffffffffffffffffffff16815260200190815260200160002060008573ffffffffffffffffffffffffffffffffffffffff1673ffffffffffffffffffffffffffffffffffffffff16815260200190815260200160002060009054906101000a900460ff165b806115c557508373ffffffffffffffffffffffffffffffffffffffff166005600085815260200190815260200160002060009054906101000a900473ffffffffffffffffffffffffffffffffffffffff1673ffffffffffffffffffffffffffffffffffffffff16145b91505092915050565b6000604051905090565b600080fd5b600080fd5b60007fffffffff0000000000000000000000000000000000000000000000000000000082169050919050565b611617816115e2565b811461162257600080fd5b50565b6000813590506116348161160e565b92915050565b6000602082840312156116505761164f6115d8565b5b600061165e84828501611625565b91505092915050565b60008115159050919050565b61167c81611667565b82525050565b60006020820190506116976000830184611673565b92915050565b600081519050919050565b600082825260208201905092915050565b60005b838110156116d75780820151818401526020810190506116bc565b60008484015250505050565b6000601f19601f8301169050919050565b60006116ff8261169d565b61170981856116a8565b93506117198185602086016116b9565b611722816116e3565b840191505092915050565b6000602082019050818103600083015261174781846116f4565b905092915050565b6000819050919050565b6117628161174f565b811461176d57600080fd5b50565b60008135905061177f81611759565b92915050565b60006020828403121561179b5761179a6115d8565b5b60006117a984828501611770565b91505092915050565b600073ffffffffffffffffffffffffffffffffffffffff82169050919050565b60006117dd826117b2565b9050919050565b6117ed816117d2565b82525050565b600060208201905061180860008301846117e4565b92915050565b611817816117d2565b811461182257600080fd5b50565b6000813590506118348161180e565b92915050565b60008060408385031215611851576118506115d8565b5b600061185f85828601611825565b925050602061187085828601611770565b9150509250929050565b6000602082840312156118905761188f6115d8565b5b600061189e84828501611825565b91505092915050565b6000806000606084860312156118c0576118bf6115d8565b5b60006118ce86828701611825565b93505060206118df86828701611825565b92505060406118f086828701611770565b9150509250925092565b600060ff82169050919050565b611910816118fa565b811461191b57600080fd5b50565b60008135905061192d81611907565b92915050565b60008060006060848603121561194c5761194b6115d8565b5b600061195a86828701611825565b935050602061196b8682870161191e565b925050604061197c8682870161191e565b9150509250925092565b61198f8161174f565b82525050565b60006020820190506119aa6000830184611986565b92915050565b6119b981611667565b81146119c457600080fd5b50565b6000813590506119d6816119b0565b92915050565b600080604083850312156119f3576119f26115d8565b5b6000611a0185828601611825565b9250506020611a12858286016119c7565b9150509250929050565b611a25816118fa565b82525050565b6000604082019050611a406000830185611a1c565b611a4d6020830184611a1c565b9392505050565b600080fd5b600080fd5b7f4e487b7100000000000000000000000000000000000000000000000000000000600052604160045260246000fd5b611a96826116e3565b810181811067ffffffffffffffff82111715611ab557611ab4611a5e565b5b80604052505050565b6000611ac86115ce565b9050611ad48282611a8d565b919050565b600067ffffffffffffffff821115611af457611af3611a5e565b5b611afd826116e3565b9050602081019050919050565b82818337600083830152505050565b6000611b2c611b2784611ad9565b611abe565b905082815260208101848484011115611b4857611b47611a59565b5b611b53848285611b0a565b509392505050565b600082601f830112611b7057611b6f611a54565b5b8135611b80848260208601611b19565b91505092915050565b60008060008060808587031215611ba357611ba26115d8565b5b6000611bb187828801611825565b9450506020611bc287828801611825565b9350506040611bd387828801611770565b925050606085013567ffffffffffffffff811115611bf457611bf36115dd565b5b611c0087828801611b5b565b91505092959194509250565b60008060408385031215611c2357611c226115d8565b5b6000611c3185828601611825565b9250506020611c4285828601611825565b9150509250929050565b7f4e487b7100000000000000000000000000000000000000000000000000000000600052602260045260246000fd5b60006002820490506001821680611c9357607f821691505b602082108103611ca657611ca5611c4c565b5b50919050565b7f216f700000000000000000000000000000000000000000000000000000000000600082015250565b6000611ce26003836116a8565b9150611ced82611cac565b602082019050919050565b60006020820190508181036000830152611d1181611cd5565b9050919050565b7f6261642061747472000000000000000000000000000000000000000000000000600082015250565b6000611d4e6008836116a8565b9150611d5982611d18565b602082019050919050565b60006020820190508181036000830152611d7d81611d41565b9050919050565b7f4e487b7100000000000000000000000000000000000000000000000000000000600052601160045260246000fd5b6000611dbe8261174f565b91507fffffffffffffffffffffffffffffffffffffffffffffffffffffffffffffffff8203611df057611def611d84565b5b600182019050919050565b6000606082019050611e1060008301866117e4565b611e1d6020830185611a1c565b611e2a6040830184611a1c565b949350505050565b7f216f776e65720000000000000000000000000000000000000000000000000000600082015250565b6000611e686006836116a8565b9150611e7382611e32565b602082019050919050565b60006020820190508181036000830152611e9781611e5b565b9050919050565b6000611ea98261174f565b915060008203611ebc57611ebb611d84565b5b600182039050919050565b600081519050919050565b600082825260208201905092915050565b6000611eee82611ec7565b611ef88185611ed2565b9350611f088185602086016116b9565b611f11816116e3565b840191505092915050565b6000608082019050611f3160008301876117e4565b611f3e60208301866117e4565b611f4b6040830185611986565b8181036060830152611f5d8184611ee3565b905095945050505050565b600081519050611f778161160e565b92915050565b600060208284031215611f9357611f926115d8565b5b6000611fa184828501611f68565b91505092915050565b7f2172656365697665720000000000000000000000000000000000000000000000600082015250565b6000611fe06009836116a8565b9150611feb82611faa565b602082019050919050565b6000602082019050818103600083015261200f81611fd3565b905091905056fea264697066735822122018e5d1ebf9ca65d93804c6bdb32f1329426e4eae0701b53466a1c8b7110049c064736f6c63430008140033",
  "linkReferences": {},
  "deployedLinkReferences": {}
}