{
  "_format": "hh-sol-artifact-1",
  "contractName": "LandInitializer",
  "sourceName": "contracts/EvoLandV2.sol",
  "abi": [
    {
      "inputs": [
        {
          "internalType": "address",
          "name": "_land",
          "type": "address"
        },
        {
          "internalType": "address",
          "name": "_auction",
          "type": "address"
        },
        {
          "internalType": "address",
          "name": "_ring",
          "type": "address"
        }
      ],
      "stateMutability": "nonpayable",
      "type": "constructor"
    },
    {
      "anonymous": false,
      "inputs": [
        {
          "indexed": true,
          "internalType": "address",
          "name": "prev",
          "type": "address"
        },
        {
          "indexed": true,
          "internalType": "address",
          "name": "next",
          "type": "address"
        }
      ],
      "name": "OwnershipTransferred",
      "type": "event"
    },
    {
      "inputs": [],
      "name": "auction",
      "outputs": [
        {
          "internalType": "contract LandAuction",
          "name": "",
          "type": "address"
        }
      ],
      "stateMutability": "view",
      "type": "function"
    },
    {
      "inputs": [
        {
          "internalType": "int16[]",
          "name": "xs",
          "type": "int16[]"
        },
        {
          "internalType": "int16[]",
          "name": "ys",
          "type": "int16[]"
        },
        {
          "internalType": "uint80[]",
          "name": "attrs",
          "type": "uint80[]"
        },
        {
          "internalType": "address",
          "name": "to",
          "type": "address"
        }
      ],
      "name": "batchMint",
      "outputs": [],
      "stateMutability": "nonpayable",
      "type": "function"
    },
    {
      "inputs": [],
      "name": "land",
      "outputs": [
        {
          "internalType": "contract LandNFT",
          "name": "",
          "type": "address"
        }
      ],
      "stateMutability": "view",
      "type": "function"
    },
    {
      "inputs": [],
      "name": "owner",
      "outputs": [
        {
          "internalType": "address",
          "name": "",
          "type": "address"
        }
      ],
      "stateMutability": "view",
      "type": "function"
    },
    {
      "inputs": [],
      "name": "ring",
      "outputs": [
        {
          "internalType": "address",
          "name": "",
          "type": "address"
        }
      ],
      "stateMutability": "view",
      "type": "function"
    },
    {
      "inputs": [
        {
          "internalType": "address",
          "name": "a",
          "type": "address"
        }
      ],
      "name": "transferOwnership",
      "outputs": [],
      "stateMutability": "nonpayable",
      "type": "function"
    }
  ],
  "bytecode": "0x608060405234801561001057600080fd5b50604051610c88380380610c88833981810160405281019061003291906101a0565b336000806101000a81548173ffffffffffffffffffffffffffffffffffffffff021916908373ffffffffffffffffffffffffffffffffffffffff16021790555082600160006101000a81548173ffffffffffffffffffffffffffffffffffffffff021916908373ffffffffffffffffffffffffffffffffffffffff16021790555081600260006101000a81548173ffffffffffffffffffffffffffffffffffffffff021916908373ffffffffffffffffffffffffffffffffffffffff16021790555080600360006101000a81548173ffffffffffffffffffffffffffffffffffffffff021916908373ffffffffffffffffffffffffffffffffffffffff1602179055505050506101f3565b600080fd5b600073ffffffffffffffffffffffffffffffffffffffff82169050919050565b600061016d82610142565b9050919050565b61017d81610162565b811461018857600080fd5b50565b60008151905061019a81610174565b92915050565b6000806000606084860312156101b9576101b861013d565b5b60006101c78682870161018b565b93505060206101d88682870161018b565b92505060406101e98682870161018b565b9150509250925092565b610a86806102026000396000f3fe608060405234801561001057600080fd5b50600436106100625760003560e01c80637d9f6db5146100675780638360c185146100855780638c980129146100a35780638da5cb5b146100c1578063b42a84f3146100df578063f2fde38b146100fb575b600080fd5b61006f610117565b60405161007c9190610571565b60405180910390f35b61008d61013d565b60405161009a91906105ad565b60405180910390f35b6100ab610163565b6040516100b891906105e9565b60405180910390f35b6100c9610189565b6040516100d691906105ad565b60405180910390f35b6100f960048036038101906100f491906106f5565b6101ad565b005b610115600480360381019061011091906107be565b61036e565b005b600260009054906101000a900473ffffffffffffffffffffffffffffffffffffffff1681565b600360009054906101000a900473ffffffffffffffffffffffffffffffffffffffff1681565b600160009054906101000a900473ffffffffffffffffffffffffffffffffffffffff1681565b60008054906101000a900473ffffffffffffffffffffffffffffffffffffffff1681565b60008054906101000a900473ffffffffffffffffffffffffffffffffffffffff1673ffffffffffffffffffffffffffffffffffffffff163373ffffffffffffffffffffffffffffffffffffffff161461023b576040517f08c379a000000000000000000000000000000000000000000000000000000000815260040161023290610848565b60405180910390fd5b60005b8787905081101561036457600160009054906101000a900473ffffffffffffffffffffffffffffffffffffffff1673ffffffffffffffffffffffffffffffffffffffff166378adfb3c838a8a8581811061029b5761029a610868565b5b90506020020160208101906102b091906108d0565b8989868181106102c3576102c2610868565b5b90506020020160208101906102d891906108d0565b8888878181106102eb576102ea610868565b5b9050602002016020810190610300919061093f565b6040518563ffffffff1660e01b815260040161031f949392919061098a565b600060405180830381600087803b15801561033957600080fd5b505af115801561034d573d6000803e3d6000fd5b50505050808061035c90610a08565b91505061023e565b5050505050505050565b60008054906101000a900473ffffffffffffffffffffffffffffffffffffffff1673ffffffffffffffffffffffffffffffffffffffff163373ffffffffffffffffffffffffffffffffffffffff16146103fc576040517f08c379a00000000000000000000000000000000000000000000000000000000081526004016103f390610848565b60405180910390fd5b600073ffffffffffffffffffffffffffffffffffffffff168173ffffffffffffffffffffffffffffffffffffffff160361043557600080fd5b8073ffffffffffffffffffffffffffffffffffffffff1660008054906101000a900473ffffffffffffffffffffffffffffffffffffffff1673ffffffffffffffffffffffffffffffffffffffff167f8be0079c531659141344cd1fd0a4f28419497f9722a3daafe3b4186f6b6457e060405160405180910390a3806000806101000a81548173ffffffffffffffffffffffffffffffffffffffff021916908373ffffffffffffffffffffffffffffffffffffffff16021790555050565b600073ffffffffffffffffffffffffffffffffffffffff82169050919050565b6000819050919050565b600061053761053261052d846104f2565b610512565b6104f2565b9050919050565b60006105498261051c565b9050919050565b600061055b8261053e565b9050919050565b61056b81610550565b82525050565b60006020820190506105866000830184610562565b92915050565b6000610597826104f2565b9050919050565b6105a78161058c565b82525050565b60006020820190506105c2600083018461059e565b92915050565b60006105d38261053e565b9050919050565b6105e3816105c8565b82525050565b60006020820190506105fe60008301846105da565b92915050565b600080fd5b600080fd5b600080fd5b600080fd5b600080fd5b60008083601f8401126106335761063261060e565b5b8235905067ffffffffffffffff8111156106505761064f610613565b5b60208301915083602082028301111561066c5761066b610618565b5b9250929050565b60008083601f8401126106895761068861060e565b5b8235905067ffffffffffffffff8111156106a6576106a5610613565b5b6020830191508360208202830111156106c2576106c1610618565b5b9250929050565b6106d28161058c565b81146106dd57600080fd5b50565b6000813590506106ef816106c9565b92915050565b60008060008060008060006080888a03121561071457610713610604565b5b600088013567ffffffffffffffff81111561073257610731610609565b5b61073e8a828b0161061d565b9750975050602088013567ffffffffffffffff81111561076157610760610609565b5b61076d8a828b0161061d565b9550955050604088013567ffffffffffffffff8111156107905761078f610609565b5b61079c8a828b01610673565b935093505060606107af8a828b016106e0565b91505092959891949750929550565b6000602082840312156107d4576107d3610604565b5b60006107e2848285016106e0565b91505092915050565b600082825260208201905092915050565b7f216f776e65720000000000000000000000000000000000000000000000000000600082015250565b60006108326006836107eb565b915061083d826107fc565b602082019050919050565b6000602082019050818103600083015261086181610825565b9050919050565b7f4e487b7100000000000000000000000000000000000000000000000000000000600052603260045260246000fd5b60008160010b9050919050565b6108ad81610897565b81146108b857600080fd5b50565b6000813590506108ca816108a4565b92915050565b6000602082840312156108e6576108e5610604565b5b60006108f4848285016108bb565b91505092915050565b600069ffffffffffffffffffff82169050919050565b61091c816108fd565b811461092757600080fd5b50565b60008135905061093981610913565b92915050565b60006020828403121561095557610954610604565b5b60006109638482850161092a565b91505092915050565b61097581610897565b82525050565b610984816108fd565b82525050565b600060808201905061099f600083018761059e565b6109ac602083018661096c565b6109b9604083018561096c565b6109c6606083018461097b565b95945050505050565b7f4e487b7100000000000000000000000000000000000000000000000000000000600052601160045260246000fd5b6000819050919050565b6000610a13826109fe565b91507fffffffffffffffffffffffffffffffffffffffffffffffffffffffffffffffff8203610a4557610a446109cf565b5b60018201905091905056fea264697066735822122052200d2d2108527ee00afb39c3331560b4187af21a67f99c0170b7ce6f3cc48064736f6c63430008140033",
  "linkReferences": {},
  "deployedLinkReferences": {}
}