{
  "_format": "hh-sol-artifact-1",
  "contractName": "LandNFT",
  "sourceName": "contracts/EvoLandV2.sol",
  "abi": [
    {
      "inputs": [],
      "stateMutability": "nonpayable",
      "type": "constructor"
    },
    {
      "anonymous": false,
      "inputs": [
        {
          "indexed": true,
          "internalType": "address",
          "name": "o",
          "type": "address"
        },
        {
          "indexed": true,
          "internalType": "address",
          "name": "a",
          "type": "address"
        },
        {
          "indexed": true,
          "internalType": "uint256",
          "name": "id",
          "type": "uint256"
        }
      ],
      "name": "Approval",
      "type": "event"
    },
    {
      "anonymous": false,
      "inputs": [
        {
          "indexed": true,
          "internalType": "address",
          "name": "o",
          "type": "address"
        },
        {
          "indexed": true,
          "internalType": "address",
          "name": "op",
          "type": "address"
        },
        {
          "indexed": false,
          "internalType": "bool",
          "name": "v",
          "type": "bool"
        }
      ],
      "name": "ApprovalForAll",
      "type": "event"
    },
    {
      "anonymous": false,
      "inputs": [
        {
          "indexed": true,
          "internalType": "uint256",
          "name": "tokenId",
          "type": "uint256"
        },
        {
          "indexed": false,
          "internalType": "int16",
          "name": "x",
          "type": "int16"
        },
        {
          "indexed": false,
          "internalType": "int16",
          "name": "y",
          "type": "int16"
        },
        {
          "indexed": false,
          "internalType": "uint80",
          "name": "attr",
          "type": "uint80"
        }
      ],
      "name": "LandMinted",
      "type": "event"
    },
    {
      "anonymous": false,
      "inputs": [
        {
          "indexed": true,
          "internalType": "address",
          "name": "prev",
          "type": "address"
        },
        {
          "indexed": true,
          "internalType": "address",
          "name": "next",
          "type": "address"
        }
      ],
      "name": "OwnershipTransferred",
      "type": "event"
    },
    {
      "anonymous": false,
      "inputs": [
        {
          "indexed": true,
          "internalType": "address",
          "name": "f",
          "type": "address"
        },
        {
          "indexed": true,
          "internalType": "address",
          "name": "t",
          "type": "address"
        },
        {
          "indexed": true,
          "internalType": "uint256",
          "name": "id",
          "type": "uint256"
        }
      ],
      "name": "Transfer",
      "type": "event"
    },
    {
      "inputs": [
        {
          "internalType": "address",
          "name": "a",
          "type": "address"
        },
        {
          "internalType": "uint256",
          "name": "id",
          "type": "uint256"
        }
      ],
      "name": "approve",
      "outputs": [],
      "stateMutability": "nonpayable",
      "type": "function"
    },
    {
      "inputs": [
        {
          "internalType": "address",
          "name": "",
          "type": "address"
        }
      ],
      "name": "balanceOf",
      "outputs": [
        {
          "internalType": "uint256",
          "name": "",
          "type": "uint256"
        }
      ],
      "stateMutability": "view",
      "type": "function"
    },
    {
      "inputs": [
        {
          "internalType": "uint256",
          "name": "id",
          "type": "uint256"
        }
      ],
      "name": "decodeId",
      "outputs": [
        {
          "internalType": "int16",
          "name": "x",
          "type": "int16"
        },
        {
          "internalType": "int16",
          "name": "y",
          "type": "int16"
        }
      ],
      "stateMutability": "pure",
      "type": "function"
    },
    {
      "inputs": [
        {
          "internalType": "uint256",
          "name": "",
          "type": "uint256"
        }
      ],
      "name": "district",
      "outputs": [
        {
          "internalType": "uint8",
          "name": "",
          "type": "uint8"
        }
      ],
      "stateMutability": "view",
      "type": "function"
    },
    {
      "inputs": [
        {
          "internalType": "int16",
          "name": "x",
          "type": "int16"
        },
        {
          "internalType": "int16",
          "name": "y",
          "type": "int16"
        }
      ],
      "name": "encodeId",
      "outputs": [
        {
          "internalType": "uint256",
          "name": "",
          "type": "uint256"
        }
      ],
      "stateMutability": "pure",
      "type": "function"
    },
    {
      "inputs": [
        {
          "internalType": "uint256",
          "name": "",
          "type": "uint256"
        }
      ],
      "name": "getApproved",
      "outputs": [
        {
          "internalType": "address",
          "name": "",
          "type": "address"
        }
      ],
      "stateMutability": "view",
      "type": "function"
    },
    {
      "inputs": [
        {
          "internalType": "uint256",
          "name": "id",
          "type": "uint256"
        },
        {
          "internalType": "uint8",
          "name": "res",
          "type": "uint8"
        }
      ],
      "name": "getRate",
      "outputs": [
        {
          "internalType": "uint16",
          "name": "",
          "type": "uint16"
        }
      ],
      "stateMutability": "view",
      "type": "function"
    },
    {
      "inputs": [
        {
          "internalType": "address",
          "name": "",
          "type": "address"
        },
        {
          "internalType": "address",
          "name": "",
          "type": "address"
        }
      ],
      "name": "isApprovedForAll",
      "outputs": [
        {
          "internalType": "bool",
          "name": "",
          "type": "bool"
        }
      ],
      "stateMutability": "view",
      "type": "function"
    },
    {
      "inputs": [
        {
          "internalType": "address",
          "name": "to",
          "type": "address"
        },
        {
          "internalType": "int16",
          "name": "x",
          "type": "int16"
        },
        {
          "internalType": "int16",
          "name": "y",
          "type": "int16"
        },
        {
          "internalType": "uint80",
          "name": "attr",
          "type": "uint80"
        }
      ],
      "name": "mint",
      "outputs": [],
      "stateMutability": "nonpayable",
      "type": "function"
    },
    {
      "inputs": [],
      "name": "name",
      "outputs": [
        {
          "internalType": "string",
          "name": "",
          "type": "string"
        }
      ],
      "stateMutability": "view",
      "type": "function"
    },
    {
      "inputs": [
        {
          "internalType": "address",
          "name": "",
          "type": "address"
        }
      ],
      "name": "operators",
      "outputs": [
        {
          "internalType": "bool",
          "name": "",
          "type": "bool"
        }
      ],
      "stateMutability": "view",
      "type": "function"
    },
    {
      "inputs": [],
      "name": "owner",
      "outputs": [
        {
          "internalType": "address",
          "name": "",
          "type": "address"
        }
      ],
      "stateMutability": "view",
      "type": "function"
    },
    {
      "inputs": [
        {
          "internalType": "uint256",
          "name": "",
          "type": "uint256"
        }
      ],
      "name": "ownerOf",
      "outputs": [
        {
          "internalType": "address",
          "name": "",
          "type": "address"
        }
      ],
      "stateMutability": "view",
      "type": "function"
    },
    {
      "inputs": [
        {
          "internalType": "uint256",
          "name": "",
          "type": "uint256"
        }
      ],
      "name": "resourceAttr",
      "outputs": [
        {
          "internalType": "uint80",
          "name": "",
          "type": "uint80"
        }
      ],
      "stateMutability": "view",
      "type": "function"
    },
    {
      "inputs": [
        {
          "internalType": "address",
          "name": "f",
          "type": "address"
        },
        {
          "internalType": "address",
          "name": "t",
          "type": "address"
        },
        {
          "internalType": "uint256",
          "name": "id",
          "type": "uint256"
        }
      ],
      "name": "safeTransferFrom",
      "outputs": [],
      "stateMutability": "nonpayable",
      "type": "function"
    },
    {
      "inputs": [
        {
          "internalType": "address",
          "name": "f",
          "type": "address"
        },
        {
          "internalType": "address",
          "name": "t",
          "type": "address"
        },
        {
          "internalType": "uint256",
          "name": "id",
          "type": "uint256"
        },
        {
          "internalType": "bytes",
          "name": "d",
          "type": "bytes"
        }
      ],
      "name": "safeTransferFrom",
      "outputs": [],
      "stateMutability": "nonpayable",
      "type": "function"
    },
    {
      "inputs": [
        {
          "internalType": "address",
          "name": "op",
          "type": "address"
        },
        {
          "internalType": "bool",
          "name": "v",
          "type": "bool"
        }
      ],
      "name": "setApprovalForAll",
      "outputs": [],
      "stateMutability": "nonpayable",
      "type": "function"
    },
    {
      "inputs": [
        {
          "internalType": "address",
          "name": "a",
          "type": "address"
        },
        {
          "internalType": "bool",
          "name": "v",
          "type": "bool"
        }
      ],
      "name": "setOperator",
      "outputs": [],
      "stateMutability": "nonpayable",
      "type": "function"
    },
    {
      "inputs": [
        {
          "internalType": "bytes4",
          "name": "id",
          "type": "bytes4"
        }
      ],
      "name": "supportsInterface",
      "outputs": [
        {
          "internalType": "bool",
          "name": "",
          "type": "bool"
        }
      ],
      "stateMutability": "pure",
      "type": "function"
    },
    {
      "inputs": [],
      "name": "symbol",
      "outputs": [
        {
          "internalType": "string",
          "name": "",
          "type": "string"
        }
      ],
      "stateMutability": "view",
      "type": "function"
    },
    {
      "inputs": [
        {
          "internalType": "address",
          "name": "f",
          "type": "address"
        },
        {
          "internalType": "address",
          "name": "t",
          "type": "address"
        },
        {
          "internalType": "uint256",
          "name": "id",
          "type": "uint256"
        }
      ],
      "name": "transferFrom",
      "outputs": [],
      "stateMutability": "nonpayable",
      "type": "function"
    },
    {
      "inputs": [
        {
          "internalType": "address",
          "name": "a",
          "type": "address"
        }
      ],
      "name": "transferOwnership",
      "outputs": [],
      "stateMutability": "nonpayable",
      "type": "function"
    },
    {
      "inputs": [
        {
          "internalType": "uint256",
          "name": "id",
          "type": "uint256"
        },
        {
          "internalType": "uint8",
          "name": "res",
          "type": "uint8"
        },
        {
          "internalType": "uint16",
          "name": "addVal",
          "type": "uint16"
        }
      ],
      "name": "upgradeAttr",
      "outputs": [],
      "stateMutability": "nonpayable",
      "type": "function"
    }
  ],
  "bytecode": "0x60806040523480156200001157600080fd5b506040518060400160405280600e81526020017f45766f6c7574696f6e204c616e640000000000000000000000000000000000008152506040518060400160405280600481526020017f4c414e4400000000000000000000000000000000000000000000000000000000815250336000806101000a81548173ffffffffffffffffffffffffffffffffffffffff021916908373ffffffffffffffffffffffffffffffffffffffff1602179055508160019081620000cf919062000364565b508060029081620000e1919062000364565b5050506200044b565b600081519050919050565b7f4e487b7100000000000000000000000000000000000000000000000000000000600052604160045260246000fd5b7f4e487b7100000000000000000000000000000000000000000000000000000000600052602260045260246000fd5b600060028204905060018216806200016c57607f821691505b60208210810362000182576200018162000124565b5b50919050565b60008190508160005260206000209050919050565b60006020601f8301049050919050565b600082821b905092915050565b600060088302620001ec7fffffffffffffffffffffffffffffffffffffffffffffffffffffffffffffffff82620001ad565b620001f88683620001ad565b95508019841693508086168417925050509392505050565b6000819050919050565b6000819050919050565b6000620002456200023f620002398462000210565b6200021a565b62000210565b9050919050565b6000819050919050565b620002618362000224565b6200027962000270826200024c565b848454620001ba565b825550505050565b600090565b6200029062000281565b6200029d81848462000256565b505050565b5b81811015620002c557620002b960008262000286565b600181019050620002a3565b5050565b601f8211156200031457620002de8162000188565b620002e9846200019d565b81016020851015620002f9578190505b6200031162000308856200019d565b830182620002a2565b50505b505050565b600082821c905092915050565b6000620003396000198460080262000319565b1980831691505092915050565b600062000354838362000326565b9150826002028217905092915050565b6200036f82620000ea565b67ffffffffffffffff8111156200038b576200038a620000f5565b5b62000397825462000153565b620003a4828285620002c9565b600060209050601f831160018114620003dc5760008415620003c7578287015190505b620003d3858262000346565b86555062000443565b601f198416620003ec8662000188565b60005b828110156200041657848901518255600182019150602085019450602081019050620003ef565b8683101562000436578489015162000432601f89168262000326565b8355505b6001600288020188555050505b505050505050565b6128cd806200045b6000396000f3fe608060405234801561001057600080fd5b506004361061014d5760003560e01c806378adfb3c116100c3578063cd1713981161007c578063cd171398146103c0578063db3aa706146103dc578063dc20c6fa1461040c578063dddcf72d1461043d578063e985e9c51461046d578063f2fde38b1461049d5761014d565b806378adfb3c146103005780638da5cb5b1461031c57806395d89b411461033a578063a22cb46514610358578063b88d4fde14610374578063c6a68dbf146103905761014d565b80631979955e116101155780631979955e1461021c57806323b872dd1461024c57806342842e0e14610268578063558a7297146102845780636352211e146102a057806370a08231146102d05761014d565b806301ffc9a71461015257806306fdde0314610182578063081812fc146101a0578063095ea7b3146101d057806313e7c9d8146101ec575b600080fd5b61016c60048036038101906101679190611a7f565b6104b9565b6040516101799190611ac7565b60405180910390f35b61018a61054b565b6040516101979190611b72565b60405180910390f35b6101ba60048036038101906101b59190611bca565b6105d9565b6040516101c79190611c38565b60405180910390f35b6101ea60048036038101906101e59190611c7f565b61060c565b005b61020660048036038101906102019190611cbf565b6107bf565b6040516102139190611ac7565b60405180910390f35b61023660048036038101906102319190611bca565b6107df565b6040516102439190611d08565b60405180910390f35b61026660048036038101906102619190611d23565b6107ff565b005b610282600480360381019061027d9190611d23565b610872565b005b61029e60048036038101906102999190611da2565b610892565b005b6102ba60048036038101906102b59190611bca565b61097b565b6040516102c79190611c38565b60405180910390f35b6102ea60048036038101906102e59190611cbf565b6109ae565b6040516102f79190611df1565b60405180910390f35b61031a60048036038101906103159190611e87565b6109c6565b005b610324610b6e565b6040516103319190611c38565b60405180910390f35b610342610b92565b60405161034f9190611b72565b60405180910390f35b610372600480360381019061036d9190611da2565b610c20565b005b61038e60048036038101906103899190612023565b610d1d565b005b6103aa60048036038101906103a591906120d2565b610d9f565b6040516103b7919061212f565b60405180910390f35b6103da60048036038101906103d59190612176565b610df1565b005b6103f660048036038101906103f191906121c9565b6110a1565b6040516104039190611df1565b60405180910390f35b61042660048036038101906104219190611bca565b61114d565b604051610434929190612218565b60405180910390f35b61045760048036038101906104529190611bca565b611185565b6040516104649190612250565b60405180910390f35b6104876004803603810190610482919061226b565b6111ae565b6040516104949190611ac7565b60405180910390f35b6104b760048036038101906104b29190611cbf565b6111dd565b005b60006380ac58cd60e01b827bffffffffffffffffffffffffffffffffffffffffffffffffffffffff191614806105145750635b5e139f60e01b827bffffffffffffffffffffffffffffffffffffffffffffffffffffffff1916145b8061054457506301ffc9a760e01b827bffffffffffffffffffffffffffffffffffffffffffffffffffffffff1916145b9050919050565b60018054610558906122da565b80601f0160208091040260200160405190810160405280929190818152602001828054610584906122da565b80156105d15780601f106105a6576101008083540402835291602001916105d1565b820191906000526020600020905b8154815290600101906020018083116105b457829003601f168201915b505050505081565b60056020528060005260406000206000915054906101000a900473ffffffffffffffffffffffffffffffffffffffff1681565b60006003600083815260200190815260200160002060009054906101000a900473ffffffffffffffffffffffffffffffffffffffff1690508073ffffffffffffffffffffffffffffffffffffffff163373ffffffffffffffffffffffffffffffffffffffff1614806107045750600660008273ffffffffffffffffffffffffffffffffffffffff1673ffffffffffffffffffffffffffffffffffffffff16815260200190815260200160002060003373ffffffffffffffffffffffffffffffffffffffff1673ffffffffffffffffffffffffffffffffffffffff16815260200190815260200160002060009054906101000a900460ff165b61070d57600080fd5b826005600084815260200190815260200160002060006101000a81548173ffffffffffffffffffffffffffffffffffffffff021916908373ffffffffffffffffffffffffffffffffffffffff160217905550818373ffffffffffffffffffffffffffffffffffffffff168273ffffffffffffffffffffffffffffffffffffffff167f8c5be1e5ebec7d5bd14f71427d1e84f3dd0314c0f7b2291e5b200ac8c7c3b92560405160405180910390a4505050565b60076020528060005260406000206000915054906101000a900460ff1681565b60096020528060005260406000206000915054906101000a900460ff1681565b600760003373ffffffffffffffffffffffffffffffffffffffff1673ffffffffffffffffffffffffffffffffffffffff16815260200190815260200160002060009054906101000a900460ff16156108615761085c838383611361565b61086d565b61086c838383611597565b5b505050565b61088d83838360405180602001604052806000815250610d1d565b505050565b60008054906101000a900473ffffffffffffffffffffffffffffffffffffffff1673ffffffffffffffffffffffffffffffffffffffff163373ffffffffffffffffffffffffffffffffffffffff1614610920576040517f08c379a000000000000000000000000000000000000000000000000000000000815260040161091790612357565b60405180910390fd5b80600760008473ffffffffffffffffffffffffffffffffffffffff1673ffffffffffffffffffffffffffffffffffffffff16815260200190815260200160002060006101000a81548160ff0219169083151502179055505050565b60036020528060005260406000206000915054906101000a900473ffffffffffffffffffffffffffffffffffffffff1681565b60046020528060005260406000206000915090505481565b600760003373ffffffffffffffffffffffffffffffffffffffff1673ffffffffffffffffffffffffffffffffffffffff16815260200190815260200160002060009054906101000a900460ff1680610a69575060008054906101000a900473ffffffffffffffffffffffffffffffffffffffff1673ffffffffffffffffffffffffffffffffffffffff163373ffffffffffffffffffffffffffffffffffffffff16145b610aa8576040517f08c379a0000000000000000000000000000000000000000000000000000000008152600401610a9f906123c3565b60405180910390fd5b6000610ab484846110a1565b9050816008600083815260200190815260200160002060006101000a81548169ffffffffffffffffffff021916908369ffffffffffffffffffff16021790555060016009600083815260200190815260200160002060006101000a81548160ff021916908360ff160217905550610b2b85826115ba565b807f8f9c9ef174ca977f84e543fe46a849cf4be46f12b6124427710df4bb4cf352a4858585604051610b5f939291906123e3565b60405180910390a25050505050565b60008054906101000a900473ffffffffffffffffffffffffffffffffffffffff1681565b60028054610b9f906122da565b80601f0160208091040260200160405190810160405280929190818152602001828054610bcb906122da565b8015610c185780601f10610bed57610100808354040283529160200191610c18565b820191906000526020600020905b815481529060010190602001808311610bfb57829003601f168201915b505050505081565b80600660003373ffffffffffffffffffffffffffffffffffffffff1673ffffffffffffffffffffffffffffffffffffffff16815260200190815260200160002060008473ffffffffffffffffffffffffffffffffffffffff1673ffffffffffffffffffffffffffffffffffffffff16815260200190815260200160002060006101000a81548160ff0219169083151502179055508173ffffffffffffffffffffffffffffffffffffffff163373ffffffffffffffffffffffffffffffffffffffff167f17307eab39ab6107e8899845ad3d59bd9653f200f220920489ca2b5937696c3183604051610d119190611ac7565b60405180910390a35050565b600760003373ffffffffffffffffffffffffffffffffffffffff1673ffffffffffffffffffffffffffffffffffffffff16815260200190815260200160002060009054906101000a900460ff1615610d8c57610d7a848484611361565b610d873385858585611766565b610d99565b610d9884848484611877565b5b50505050565b600060108260ff16610db19190612449565b6008600085815260200190815260200160002060009054906101000a900469ffffffffffffffffffff1669ffffffffffffffffffff16901c905092915050565b600760003373ffffffffffffffffffffffffffffffffffffffff1673ffffffffffffffffffffffffffffffffffffffff16815260200190815260200160002060009054906101000a900460ff1680610e94575060008054906101000a900473ffffffffffffffffffffffffffffffffffffffff1673ffffffffffffffffffffffffffffffffffffffff163373ffffffffffffffffffffffffffffffffffffffff16145b610ed3576040517f08c379a0000000000000000000000000000000000000000000000000000000008152600401610eca906123c3565b60405180910390fd5b600073ffffffffffffffffffffffffffffffffffffffff166003600085815260200190815260200160002060009054906101000a900473ffffffffffffffffffffffffffffffffffffffff1673ffffffffffffffffffffffffffffffffffffffff1603610f75576040517f08c379a0000000000000000000000000000000000000000000000000000000008152600401610f6c906124d7565b60405180910390fd5b60006008600085815260200190815260200160002060009054906101000a900469ffffffffffffffffffff169050600061ffff60108560ff16610fb89190612449565b8369ffffffffffffffffffff16901c16905060008361ffff1682610fdc91906124f7565b905061ffff8169ffffffffffffffffffff161115610ffa5761ffff90505b600060108660ff1661100c9190612535565b69ffffffffffffffffffff1661ffff69ffffffffffffffffffff16901b19905060108660ff1661103c9190612535565b69ffffffffffffffffffff168269ffffffffffffffffffff16901b818516176008600089815260200190815260200160002060006101000a81548169ffffffffffffffffffff021916908369ffffffffffffffffffff16021790555050505050505050565b6000808360010b121580156110ba575060638360010b13155b80156110ca575060008260010b12155b80156110da575060638260010b13155b611119576040517f08c379a0000000000000000000000000000000000000000000000000000000008152600401611110906125be565b60405180910390fd5b60018261ffff1660648561ffff166111319190612449565b61113b91906125de565b61114591906125de565b905092915050565b600080600060018461115f9190612612565b905060648161116e9190612675565b925060648161117d91906126a6565b915050915091565b60086020528060005260406000206000915054906101000a900469ffffffffffffffffffff1681565b60066020528160005260406000206020528060005260406000206000915091509054906101000a900460ff1681565b60008054906101000a900473ffffffffffffffffffffffffffffffffffffffff1673ffffffffffffffffffffffffffffffffffffffff163373ffffffffffffffffffffffffffffffffffffffff161461126b576040517f08c379a000000000000000000000000000000000000000000000000000000000815260040161126290612357565b60405180910390fd5b600073ffffffffffffffffffffffffffffffffffffffff168173ffffffffffffffffffffffffffffffffffffffff16036112a457600080fd5b8073ffffffffffffffffffffffffffffffffffffffff1660008054906101000a900473ffffffffffffffffffffffffffffffffffffffff1673ffffffffffffffffffffffffffffffffffffffff167f8be0079c531659141344cd1fd0a4f28419497f9722a3daafe3b4186f6b6457e060405160405180910390a3806000806101000a81548173ffffffffffffffffffffffffffffffffffffffff021916908373ffffffffffffffffffffffffffffffffffffffff16021790555050565b8273ffffffffffffffffffffffffffffffffffffffff166003600083815260200190815260200160002060009054906101000a900473ffffffffffffffffffffffffffffffffffffffff1673ffffffffffffffffffffffffffffffffffffffff161480156113fc5750600073ffffffffffffffffffffffffffffffffffffffff168273ffffffffffffffffffffffffffffffffffffffff1614155b61140557600080fd5b6005600082815260200190815260200160002060006101000a81549073ffffffffffffffffffffffffffffffffffffffff0219169055600460008473ffffffffffffffffffffffffffffffffffffffff1673ffffffffffffffffffffffffffffffffffffffff168152602001908152602001600020600081548092919061148b906126d7565b9190505550600460008373ffffffffffffffffffffffffffffffffffffffff1673ffffffffffffffffffffffffffffffffffffffff16815260200190815260200160002060008154809291906114e090612700565b9190505550816003600083815260200190815260200160002060006101000a81548173ffffffffffffffffffffffffffffffffffffffff021916908373ffffffffffffffffffffffffffffffffffffffff160217905550808273ffffffffffffffffffffffffffffffffffffffff168473ffffffffffffffffffffffffffffffffffffffff167fddf252ad1be2c89b69c2b068fc378daa952ba7f163c4a11628f55a4df523b3ef60405160405180910390a4505050565b6115a133826118a8565b6115aa57600080fd5b6115b5838383611361565b505050565b600073ffffffffffffffffffffffffffffffffffffffff168273ffffffffffffffffffffffffffffffffffffffff16141580156116565750600073ffffffffffffffffffffffffffffffffffffffff166003600083815260200190815260200160002060009054906101000a900473ffffffffffffffffffffffffffffffffffffffff1673ffffffffffffffffffffffffffffffffffffffff16145b61165f57600080fd5b600460008373ffffffffffffffffffffffffffffffffffffffff1673ffffffffffffffffffffffffffffffffffffffff16815260200190815260200160002060008154809291906116af90612700565b9190505550816003600083815260200190815260200160002060006101000a81548173ffffffffffffffffffffffffffffffffffffffff021916908373ffffffffffffffffffffffffffffffffffffffff160217905550808273ffffffffffffffffffffffffffffffffffffffff16600073ffffffffffffffffffffffffffffffffffffffff167fddf252ad1be2c89b69c2b068fc378daa952ba7f163c4a11628f55a4df523b3ef60405160405180910390a45050565b60008373ffffffffffffffffffffffffffffffffffffffff163b11156118705763150b7a0260e01b8373ffffffffffffffffffffffffffffffffffffffff1663150b7a02878786866040518563ffffffff1660e01b81526004016117cd949392919061279d565b6020604051808303816000875af11580156117ec573d6000803e3d6000fd5b505050506040513d601f19601f8201168201806040525081019061181091906127fe565b7bffffffffffffffffffffffffffffffffffffffffffffffffffffffff19161461186f576040517f08c379a000000000000000000000000000000000000000000000000000000000815260040161186690612877565b60405180910390fd5b5b5050505050565b61188133836118a8565b61188a57600080fd5b611895848484611361565b6118a23385858585611766565b50505050565b6000806003600084815260200190815260200160002060009054906101000a900473ffffffffffffffffffffffffffffffffffffffff1690508073ffffffffffffffffffffffffffffffffffffffff168473ffffffffffffffffffffffffffffffffffffffff1614806119a15750600660008273ffffffffffffffffffffffffffffffffffffffff1673ffffffffffffffffffffffffffffffffffffffff16815260200190815260200160002060008573ffffffffffffffffffffffffffffffffffffffff1673ffffffffffffffffffffffffffffffffffffffff16815260200190815260200160002060009054906101000a900460ff165b80611a0a57508373ffffffffffffffffffffffffffffffffffffffff166005600085815260200190815260200160002060009054906101000a900473ffffffffffffffffffffffffffffffffffffffff1673ffffffffffffffffffffffffffffffffffffffff16145b91505092915050565b6000604051905090565b600080fd5b600080fd5b60007fffffffff0000000000000000000000000000000000000000000000000000000082169050919050565b611a5c81611a27565b8114611a6757600080fd5b50565b600081359050611a7981611a53565b92915050565b600060208284031215611a9557611a94611a1d565b5b6000611aa384828501611a6a565b91505092915050565b60008115159050919050565b611ac181611aac565b82525050565b6000602082019050611adc6000830184611ab8565b92915050565b600081519050919050565b600082825260208201905092915050565b60005b83811015611b1c578082015181840152602081019050611b01565b60008484015250505050565b6000601f19601f8301169050919050565b6000611b4482611ae2565b611b4e8185611aed565b9350611b5e818560208601611afe565b611b6781611b28565b840191505092915050565b60006020820190508181036000830152611b8c8184611b39565b905092915050565b6000819050919050565b611ba781611b94565b8114611bb257600080fd5b50565b600081359050611bc481611b9e565b92915050565b600060208284031215611be057611bdf611a1d565b5b6000611bee84828501611bb5565b91505092915050565b600073ffffffffffffffffffffffffffffffffffffffff82169050919050565b6000611c2282611bf7565b9050919050565b611c3281611c17565b82525050565b6000602082019050611c4d6000830184611c29565b92915050565b611c5c81611c17565b8114611c6757600080fd5b50565b600081359050611c7981611c53565b92915050565b60008060408385031215611c9657611c95611a1d565b5b6000611ca485828601611c6a565b9250506020611cb585828601611bb5565b9150509250929050565b600060208284031215611cd557611cd4611a1d565b5b6000611ce384828501611c6a565b91505092915050565b600060ff82169050919050565b611d0281611cec565b82525050565b6000602082019050611d1d6000830184611cf9565b92915050565b600080600060608486031215611d3c57611d3b611a1d565b5b6000611d4a86828701611c6a565b9350506020611d5b86828701611c6a565b9250506040611d6c86828701611bb5565b9150509250925092565b611d7f81611aac565b8114611d8a57600080fd5b50565b600081359050611d9c81611d76565b92915050565b60008060408385031215611db957611db8611a1d565b5b6000611dc785828601611c6a565b9250506020611dd885828601611d8d565b9150509250929050565b611deb81611b94565b82525050565b6000602082019050611e066000830184611de2565b92915050565b60008160010b9050919050565b611e2281611e0c565b8114611e2d57600080fd5b50565b600081359050611e3f81611e19565b92915050565b600069ffffffffffffffffffff82169050919050565b611e6481611e45565b8114611e6f57600080fd5b50565b600081359050611e8181611e5b565b92915050565b60008060008060808587031215611ea157611ea0611a1d565b5b6000611eaf87828801611c6a565b9450506020611ec087828801611e30565b9350506040611ed187828801611e30565b9250506060611ee287828801611e72565b91505092959194509250565b600080fd5b600080fd5b7f4e487b7100000000000000000000000000000000000000000000000000000000600052604160045260246000fd5b611f3082611b28565b810181811067ffffffffffffffff82111715611f4f57611f4e611ef8565b5b80604052505050565b6000611f62611a13565b9050611f6e8282611f27565b919050565b600067ffffffffffffffff821115611f8e57611f8d611ef8565b5b611f9782611b28565b9050602081019050919050565b82818337600083830152505050565b6000611fc6611fc184611f73565b611f58565b905082815260208101848484011115611fe257611fe1611ef3565b5b611fed848285611fa4565b509392505050565b600082601f83011261200a57612009611eee565b5b813561201a848260208601611fb3565b91505092915050565b6000806000806080858703121561203d5761203c611a1d565b5b600061204b87828801611c6a565b945050602061205c87828801611c6a565b935050604061206d87828801611bb5565b925050606085013567ffffffffffffffff81111561208e5761208d611a22565b5b61209a87828801611ff5565b91505092959194509250565b6120af81611cec565b81146120ba57600080fd5b50565b6000813590506120cc816120a6565b92915050565b600080604083850312156120e9576120e8611a1d565b5b60006120f785828601611bb5565b9250506020612108858286016120bd565b9150509250929050565b600061ffff82169050919050565b61212981612112565b82525050565b60006020820190506121446000830184612120565b92915050565b61215381612112565b811461215e57600080fd5b50565b6000813590506121708161214a565b92915050565b60008060006060848603121561218f5761218e611a1d565b5b600061219d86828701611bb5565b93505060206121ae868287016120bd565b92505060406121bf86828701612161565b9150509250925092565b600080604083850312156121e0576121df611a1d565b5b60006121ee85828601611e30565b92505060206121ff85828601611e30565b9150509250929050565b61221281611e0c565b82525050565b600060408201905061222d6000830185612209565b61223a6020830184612209565b9392505050565b61224a81611e45565b82525050565b60006020820190506122656000830184612241565b92915050565b6000806040838503121561228257612281611a1d565b5b600061229085828601611c6a565b92505060206122a185828601611c6a565b9150509250929050565b7f4e487b7100000000000000000000000000000000000000000000000000000000600052602260045260246000fd5b600060028204905060018216806122f257607f821691505b602082108103612305576123046122ab565b5b50919050565b7f216f776e65720000000000000000000000000000000000000000000000000000600082015250565b6000612341600683611aed565b915061234c8261230b565b602082019050919050565b6000602082019050818103600083015261237081612334565b9050919050565b7f216f700000000000000000000000000000000000000000000000000000000000600082015250565b60006123ad600383611aed565b91506123b882612377565b602082019050919050565b600060208201905081810360008301526123dc816123a0565b9050919050565b60006060820190506123f86000830186612209565b6124056020830185612209565b6124126040830184612241565b949350505050565b7f4e487b7100000000000000000000000000000000000000000000000000000000600052601160045260246000fd5b600061245482611b94565b915061245f83611b94565b925082820261246d81611b94565b915082820484148315176124845761248361241a565b5b5092915050565b7f2165786973740000000000000000000000000000000000000000000000000000600082015250565b60006124c1600683611aed565b91506124cc8261248b565b602082019050919050565b600060208201905081810360008301526124f0816124b4565b9050919050565b600061250282611e45565b915061250d83611e45565b9250828201905069ffffffffffffffffffff81111561252f5761252e61241a565b5b92915050565b600061254082611e45565b915061254b83611e45565b925082820261255981611e45565b915080821461256b5761256a61241a565b5b5092915050565b7f6f6f620000000000000000000000000000000000000000000000000000000000600082015250565b60006125a8600383611aed565b91506125b382612572565b602082019050919050565b600060208201905081810360008301526125d78161259b565b9050919050565b60006125e982611b94565b91506125f483611b94565b925082820190508082111561260c5761260b61241a565b5b92915050565b600061261d82611b94565b915061262883611b94565b92508282039050818111156126405761263f61241a565b5b92915050565b7f4e487b7100000000000000000000000000000000000000000000000000000000600052601260045260246000fd5b600061268082611b94565b915061268b83611b94565b92508261269b5761269a612646565b5b828204905092915050565b60006126b182611b94565b91506126bc83611b94565b9250826126cc576126cb612646565b5b828206905092915050565b60006126e282611b94565b9150600082036126f5576126f461241a565b5b600182039050919050565b600061270b82611b94565b91507fffffffffffffffffffffffffffffffffffffffffffffffffffffffffffffffff820361273d5761273c61241a565b5b600182019050919050565b600081519050919050565b600082825260208201905092915050565b600061276f82612748565b6127798185612753565b9350612789818560208601611afe565b61279281611b28565b840191505092915050565b60006080820190506127b26000830187611c29565b6127bf6020830186611c29565b6127cc6040830185611de2565b81810360608301526127de8184612764565b905095945050505050565b6000815190506127f881611a53565b92915050565b60006020828403121561281457612813611a1d565b5b6000612822848285016127e9565b91505092915050565b7f2172656365697665720000000000000000000000000000000000000000000000600082015250565b6000612861600983611aed565b915061286c8261282b565b602082019050919050565b6000602082019050818103600083015261289081612854565b905091905056fea2646970667358221220eef583d44dc554bffa218ed2aff60cd5a7531966bafe72a80d7370577419da4e64736f6c63430008140033",
  "linkReferences": {},
  "deployedLinkReferences": {}
}