{
  "_format": "hh-sol-artifact-1",
  "contractName": "LandNFT",
  "sourceName": "contracts/EvoLandV2.sol",
  "abi": [
    {
      "inputs": [],
      "stateMutability": "nonpayable",
      "type": "constructor"
    },
    {
      "anonymous": false,
      "inputs": [
        {
          "indexed": true,
          "internalType": "address",
          "name": "o",
          "type": "address"
        },
        {
          "indexed": true,
          "internalType": "address",
          "name": "a",
          "type": "address"
        },
        {
          "indexed": true,
          "internalType": "uint256",
          "name": "id",
          "type": "uint256"
        }
      ],
      "name": "Approval",
      "type": "event"
    },
    {
      "anonymous": false,
      "inputs": [
        {
          "indexed": true,
          "internalType": "address",
          "name": "o",
          "type": "address"
        },
        {
          "indexed": true,
          "internalType": "address",
          "name": "op",
          "type": "address"
        },
        {
          "indexed": false,
          "internalType": "bool",
          "name": "v",
          "type": "bool"
        }
      ],
      "name": "ApprovalForAll",
      "type": "event"
    },
    {
      "anonymous": false,
      "inputs": [
        {
          "indexed": true,
          "internalType": "uint256",
          "name": "tokenId",
          "type": "uint256"
        },
        {
          "indexed": false,
          "internalType": "int16",
          "name": "x",
          "type": "int16"
        },
        {
          "indexed": false,
          "internalType": "int16",
          "name": "y",
          "type": "int16"
        },
        {
          "indexed": false,
          "internalType": "uint80",
          "name": "attr",
          "type": "uint80"
        }
      ],
      "name": "LandMinted",
      "type": "event"
    },
    {
      "anonymous": false,
      "inputs": [
        {
          "indexed": true,
          "internalType": "address",
          "name": "prev",
          "type": "address"
        },
        {
          "indexed": true,
          "internalType": "address",
          "name": "next",
          "type": "address"
        }
      ],
      "name": "OwnershipTransferred",
      "type": "event"
    },
    {
      "anonymous": false,
      "inputs": [
        {
          "indexed": true,
          "internalType": "address",
          "name": "f",
          "type": "address"
        },
        {
          "indexed": true,
          "internalType": "address",
          "name": "t",
          "type": "address"
        },
        {
          "indexed": true,
          "internalType": "uint256",
          "name": "id",
          "type": "uint256"
        }
      ],
      "name": "Transfer",
      "type": "event"
    },
    {
      "inputs": [
        {
          "internalType": "address",
          "name": "a",
          "type": "address"
        },
        {
          "internalType": "uint256",
          "name": "id",
          "type": "uint256"
        }
      ],
      "name": "approve",
      "outputs": [],
      "stateMutability": "nonpayable",
      "type": "function"
    },
    {
      "inputs": [
        {
          "internalType": "address",
          "name": "",
          "type": "address"
        }
      ],
      "name": "balanceOf",
      "outputs": [
        {
          "internalType": "uint256",
          "name": "",
          "type": "uint256"
        }
      ],
      "stateMutability": "view",
      "type": "function"
    },
    {
      "inputs": [
        {
          "internalType": "uint256",
          "name": "id",
          "type": "uint256"
        }
      ],
      "name": "decodeId",
      "outputs": [
        {
          "internalType": "int16",
          "name": "x",
          "type": "int16"
        },
        {
          "internalType": "int16",
          "name": "y",
          "type": "int16"
        }
      ],
      "stateMutability": "pure",
      "type": "function"
    },
    {
      "inputs": [
        {
          "internalType": "uint256",
          "name": "",
          "type": "uint256"
        }
      ],
      "name": "district",
      "outputs": [
        {
          "internalType": "uint8",
          "name": "",
          "type": "uint8"
        }
      ],
      "stateMutability": "view",
      "type": "function"
    },
    {
      "inputs": [
        {
          "internalType": "int16",
          "name": "x",
          "type": "int16"
        },
        {
          "internalType": "int16",
          "name": "y",
          "type": "int16"
        }
      ],
      "name": "encodeId",
      "outputs": [
        {
          "internalType": "uint256",
          "name": "",
          "type": "uint256"
        }
      ],
      "stateMutability": "pure",
      "type": "function"
    },
    {
      "inputs": [
        {
          "internalType": "uint256",
          "name": "",
          "type": "uint256"
        }
      ],
      "name": "getApproved",
      "outputs": [
        {
          "internalType": "address",
          "name": "",
          "type": "address"
        }
      ],
      "stateMutability": "view",
      "type": "function"
    },
    {
      "inputs": [
        {
          "internalType": "uint256",
          "name": "id",
          "type": "uint256"
        },
        {
          "internalType": "uint8",
          "name": "res",
          "type": "uint8"
        }
      ],
      "name": "getRate",
      "outputs": [
        {
          "internalType": "uint16",
          "name": "",
          "type": "uint16"
        }
      ],
      "stateMutability": "view",
      "type": "function"
    },
    {
      "inputs": [
        {
          "internalType": "address",
          "name": "",
          "type": "address"
        },
        {
          "internalType": "address",
          "name": "",
          "type": "address"
        }
      ],
      "name": "isApprovedForAll",
      "outputs": [
        {
          "internalType": "bool",
          "name": "",
          "type": "bool"
        }
      ],
      "stateMutability": "view",
      "type": "function"
    },
    {
      "inputs": [
        {
          "internalType": "address",
          "name": "to",
          "type": "address"
        },
        {
          "internalType": "int16",
          "name": "x",
          "type": "int16"
        },
        {
          "internalType": "int16",
          "name": "y",
          "type": "int16"
        },
        {
          "internalType": "uint80",
          "name": "attr",
          "type": "uint80"
        }
      ],
      "name": "mint",
      "outputs": [],
      "stateMutability": "nonpayable",
      "type": "function"
    },
    {
      "inputs": [],
      "name": "name",
      "outputs": [
        {
          "internalType": "string",
          "name": "",
          "type": "string"
        }
      ],
      "stateMutability": "view",
      "type": "function"
    },
    {
      "inputs": [
        {
          "internalType": "address",
          "name": "",
          "type": "address"
        }
      ],
      "name": "operators",
      "outputs": [
        {
          "internalType": "bool",
          "name": "",
          "type": "bool"
        }
      ],
      "stateMutability": "view",
      "type": "function"
    },
    {
      "inputs": [],
      "name": "owner",
      "outputs": [
        {
          "internalType": "address",
          "name": "",
          "type": "address"
        }
      ],
      "stateMutability": "view",
      "type": "function"
    },
    {
      "inputs": [
        {
          "internalType": "uint256",
          "name": "",
          "type": "uint256"
        }
      ],
      "name": "ownerOf",
      "outputs": [
        {
          "internalType": "address",
          "name": "",
          "type": "address"
        }
      ],
      "stateMutability": "view",
      "type": "function"
    },
    {
      "inputs": [
        {
          "internalType": "uint256",
          "name": "",
          "type": "uint256"
        }
      ],
      "name": "resourceAttr",
      "outputs": [
        {
          "internalType": "uint80",
          "name": "",
          "type": "uint80"
        }
      ],
      "stateMutability": "view",
      "type": "function"
    },
    {
      "inputs": [
        {
          "internalType": "address",
          "name": "f",
          "type": "address"
        },
        {
          "internalType": "address",
          "name": "t",
          "type": "address"
        },
        {
          "internalType": "uint256",
          "name": "id",
          "type": "uint256"
        }
      ],
      "name": "safeTransferFrom",
      "outputs": [],
      "stateMutability": "nonpayable",
      "type": "function"
    },
    {
      "inputs": [
        {
          "internalType": "address",
          "name": "f",
          "type": "address"
        },
        {
          "internalType": "address",
          "name": "t",
          "type": "address"
        },
        {
          "internalType": "uint256",
          "name": "id",
          "type": "uint256"
        },
        {
          "internalType": "bytes",
          "name": "d",
          "type": "bytes"
        }
      ],
      "name": "safeTransferFrom",
      "outputs": [],
      "stateMutability": "nonpayable",
      "type": "function"
    },
    {
      "inputs": [
        {
          "internalType": "address",
          "name": "op",
          "type": "address"
        },
        {
          "internalType": "bool",
          "name": "v",
          "type": "bool"
        }
      ],
      "name": "setApprovalForAll",
      "outputs": [],
      "stateMutability": "nonpayable",
      "type": "function"
    },
    {
      "inputs": [
        {
          "internalType": "address",
          "name": "a",
          "type": "address"
        },
        {
          "internalType": "bool",
          "name": "v",
          "type": "bool"
        }
      ],
      "name": "setOperator",
      "outputs": [],
      "stateMutability": "nonpayable",
      "type": "function"
    },
    {
      "inputs": [
        {
          "internalType": "bytes4",
          "name": "id",
          "type": "bytes4"
        }
      ],
      "name": "supportsInterface",
      "outputs": [
        {
          "internalType": "bool",
          "name": "",
          "type": "bool"
        }
      ],
      "stateMutability": "pure",
      "type": "function"
    },
    {
      "inputs": [],
      "name": "symbol",
      "outputs": [
        {
          "internalType": "string",
          "name": "",
          "type": "string"
        }
      ],
      "stateMutability": "view",
      "type": "function"
    },
    {
      "inputs": [
        {
          "internalType": "address",
          "name": "f",
          "type": "address"
        },
        {
          "internalType": "address",
          "name": "t",
          "type": "address"
        },
        {
          "internalType": "uint256",
          "name": "id",
          "type": "uint256"
        }
      ],
      "name": "transferFrom",
      "outputs": [],
      "stateMutability": "nonpayable",
      "type": "function"
    },
    {
      "inputs": [
        {
          "internalType": "address",
          "name": "a",
          "type": "address"
        }
      ],
      "name": "transferOwnership",
      "outputs": [],
      "stateMutability": "nonpayable",
      "type": "function"
    }
  ],
  "bytecode": "0x60806040523480156200001157600080fd5b506040518060400160405280600e81526020017f45766f6c7574696f6e204c616e640000000000000000000000000000000000008152506040518060400160405280600481526020017f4c414e4400000000000000000000000000000000000000000000000000000000815250336000806101000a81548173ffffffffffffffffffffffffffffffffffffffff021916908373ffffffffffffffffffffffffffffffffffffffff1602179055508160019081620000cf919062000364565b508060029081620000e1919062000364565b5050506200044b565b600081519050919050565b7f4e487b7100000000000000000000000000000000000000000000000000000000600052604160045260246000fd5b7f4e487b7100000000000000000000000000000000000000000000000000000000600052602260045260246000fd5b600060028204905060018216806200016c57607f821691505b60208210810362000182576200018162000124565b5b50919050565b60008190508160005260206000209050919050565b60006020601f8301049050919050565b600082821b905092915050565b600060088302620001ec7fffffffffffffffffffffffffffffffffffffffffffffffffffffffffffffffff82620001ad565b620001f88683620001ad565b95508019841693508086168417925050509392505050565b6000819050919050565b6000819050919050565b6000620002456200023f620002398462000210565b6200021a565b62000210565b9050919050565b6000819050919050565b620002618362000224565b6200027962000270826200024c565b848454620001ba565b825550505050565b600090565b6200029062000281565b6200029d81848462000256565b505050565b5b81811015620002c557620002b960008262000286565b600181019050620002a3565b5050565b601f8211156200031457620002de8162000188565b620002e9846200019d565b81016020851015620002f9578190505b6200031162000308856200019d565b830182620002a2565b50505b505050565b600082821c905092915050565b6000620003396000198460080262000319565b1980831691505092915050565b600062000354838362000326565b9150826002028217905092915050565b6200036f82620000ea565b67ffffffffffffffff8111156200038b576200038a620000f5565b5b62000397825462000153565b620003a4828285620002c9565b600060209050601f831160018114620003dc5760008415620003c7578287015190505b620003d3858262000346565b86555062000443565b601f198416620003ec8662000188565b60005b828110156200041657848901518255600182019150602085019450602081019050620003ef565b8683101562000436578489015162000432601f89168262000326565b8355505b6001600288020188555050505b505050505050565b612490806200045b6000396000f3fe608060405234801561001057600080fd5b50600436106101425760003560e01c806378adfb3c116100b8578063c6a68dbf1161007c578063c6a68dbf14610385578063db3aa706146103b5578063dc20c6fa146103e5578063dddcf72d14610416578063e985e9c514610446578063f2fde38b1461047657610142565b806378adfb3c146102f55780638da5cb5b1461031157806395d89b411461032f578063a22cb4651461034d578063b88d4fde1461036957610142565b80631979955e1161010a5780631979955e1461021157806323b872dd1461024157806342842e0e1461025d578063558a7297146102795780636352211e1461029557806370a08231146102c557610142565b806301ffc9a71461014757806306fdde0314610177578063081812fc14610195578063095ea7b3146101c557806313e7c9d8146101e1575b600080fd5b610161600480360381019061015c91906117a8565b610492565b60405161016e91906117f0565b60405180910390f35b61017f610524565b60405161018c919061189b565b60405180910390f35b6101af60048036038101906101aa91906118f3565b6105b2565b6040516101bc9190611961565b60405180910390f35b6101df60048036038101906101da91906119a8565b6105e5565b005b6101fb60048036038101906101f691906119e8565b610798565b60405161020891906117f0565b60405180910390f35b61022b600480360381019061022691906118f3565b6107b8565b6040516102389190611a31565b60405180910390f35b61025b60048036038101906102569190611a4c565b6107d8565b005b61027760048036038101906102729190611a4c565b61084b565b005b610293600480360381019061028e9190611acb565b61086b565b005b6102af60048036038101906102aa91906118f3565b610954565b6040516102bc9190611961565b60405180910390f35b6102df60048036038101906102da91906119e8565b610987565b6040516102ec9190611b1a565b60405180910390f35b61030f600480360381019061030a9190611bb0565b61099f565b005b610319610b47565b6040516103269190611961565b60405180910390f35b610337610b6b565b604051610344919061189b565b60405180910390f35b61036760048036038101906103629190611acb565b610bf9565b005b610383600480360381019061037e9190611d4c565b610cf6565b005b61039f600480360381019061039a9190611dfb565b610d78565b6040516103ac9190611e58565b60405180910390f35b6103cf60048036038101906103ca9190611e73565b610dca565b6040516103dc9190611b1a565b60405180910390f35b6103ff60048036038101906103fa91906118f3565b610e76565b60405161040d929190611ec2565b60405180910390f35b610430600480360381019061042b91906118f3565b610eae565b60405161043d9190611efa565b60405180910390f35b610460600480360381019061045b9190611f15565b610ed7565b60405161046d91906117f0565b60405180910390f35b610490600480360381019061048b91906119e8565b610f06565b005b60006380ac58cd60e01b827bffffffffffffffffffffffffffffffffffffffffffffffffffffffff191614806104ed5750635b5e139f60e01b827bffffffffffffffffffffffffffffffffffffffffffffffffffffffff1916145b8061051d57506301ffc9a760e01b827bffffffffffffffffffffffffffffffffffffffffffffffffffffffff1916145b9050919050565b6001805461053190611f84565b80601f016020809104026020016040519081016040528092919081815260200182805461055d90611f84565b80156105aa5780601f1061057f576101008083540402835291602001916105aa565b820191906000526020600020905b81548152906001019060200180831161058d57829003601f168201915b505050505081565b60056020528060005260406000206000915054906101000a900473ffffffffffffffffffffffffffffffffffffffff1681565b60006003600083815260200190815260200160002060009054906101000a900473ffffffffffffffffffffffffffffffffffffffff1690508073ffffffffffffffffffffffffffffffffffffffff163373ffffffffffffffffffffffffffffffffffffffff1614806106dd5750600660008273ffffffffffffffffffffffffffffffffffffffff1673ffffffffffffffffffffffffffffffffffffffff16815260200190815260200160002060003373ffffffffffffffffffffffffffffffffffffffff1673ffffffffffffffffffffffffffffffffffffffff16815260200190815260200160002060009054906101000a900460ff165b6106e657600080fd5b826005600084815260200190815260200160002060006101000a81548173ffffffffffffffffffffffffffffffffffffffff021916908373ffffffffffffffffffffffffffffffffffffffff160217905550818373ffffffffffffffffffffffffffffffffffffffff168273ffffffffffffffffffffffffffffffffffffffff167f8c5be1e5ebec7d5bd14f71427d1e84f3dd0314c0f7b2291e5b200ac8c7c3b92560405160405180910390a4505050565b60076020528060005260406000206000915054906101000a900460ff1681565b60096020528060005260406000206000915054906101000a900460ff1681565b600760003373ffffffffffffffffffffffffffffffffffffffff1673ffffffffffffffffffffffffffffffffffffffff16815260200190815260200160002060009054906101000a900460ff161561083a5761083583838361108a565b610846565b6108458383836112c0565b5b505050565b61086683838360405180602001604052806000815250610cf6565b505050565b60008054906101000a900473ffffffffffffffffffffffffffffffffffffffff1673ffffffffffffffffffffffffffffffffffffffff163373ffffffffffffffffffffffffffffffffffffffff16146108f9576040517f08c379a00000000000000000000000000000000000000000000000000000000081526004016108f090612001565b60405180910390fd5b80600760008473ffffffffffffffffffffffffffffffffffffffff1673ffffffffffffffffffffffffffffffffffffffff16815260200190815260200160002060006101000a81548160ff0219169083151502179055505050565b60036020528060005260406000206000915054906101000a900473ffffffffffffffffffffffffffffffffffffffff1681565b60046020528060005260406000206000915090505481565b600760003373ffffffffffffffffffffffffffffffffffffffff1673ffffffffffffffffffffffffffffffffffffffff16815260200190815260200160002060009054906101000a900460ff1680610a42575060008054906101000a900473ffffffffffffffffffffffffffffffffffffffff1673ffffffffffffffffffffffffffffffffffffffff163373ffffffffffffffffffffffffffffffffffffffff16145b610a81576040517f08c379a0000000000000000000000000000000000000000000000000000000008152600401610a789061206d565b60405180910390fd5b6000610a8d8484610dca565b9050816008600083815260200190815260200160002060006101000a81548169ffffffffffffffffffff021916908369ffffffffffffffffffff16021790555060016009600083815260200190815260200160002060006101000a81548160ff021916908360ff160217905550610b0485826112e3565b807f8f9c9ef174ca977f84e543fe46a849cf4be46f12b6124427710df4bb4cf352a4858585604051610b389392919061208d565b60405180910390a25050505050565b60008054906101000a900473ffffffffffffffffffffffffffffffffffffffff1681565b60028054610b7890611f84565b80601f0160208091040260200160405190810160405280929190818152602001828054610ba490611f84565b8015610bf15780601f10610bc657610100808354040283529160200191610bf1565b820191906000526020600020905b815481529060010190602001808311610bd457829003601f168201915b505050505081565b80600660003373ffffffffffffffffffffffffffffffffffffffff1673ffffffffffffffffffffffffffffffffffffffff16815260200190815260200160002060008473ffffffffffffffffffffffffffffffffffffffff1673ffffffffffffffffffffffffffffffffffffffff16815260200190815260200160002060006101000a81548160ff0219169083151502179055508173ffffffffffffffffffffffffffffffffffffffff163373ffffffffffffffffffffffffffffffffffffffff167f17307eab39ab6107e8899845ad3d59bd9653f200f220920489ca2b5937696c3183604051610cea91906117f0565b60405180910390a35050565b600760003373ffffffffffffffffffffffffffffffffffffffff1673ffffffffffffffffffffffffffffffffffffffff16815260200190815260200160002060009054906101000a900460ff1615610d6557610d5384848461108a565b610d60338585858561148f565b610d72565b610d71848484846115a0565b5b50505050565b600060108260ff16610d8a91906120f3565b6008600085815260200190815260200160002060009054906101000a900469ffffffffffffffffffff1669ffffffffffffffffffff16901c905092915050565b6000808360010b12158015610de3575060638360010b13155b8015610df3575060008260010b12155b8015610e03575060638260010b13155b610e42576040517f08c379a0000000000000000000000000000000000000000000000000000000008152600401610e3990612181565b60405180910390fd5b60018261ffff1660648561ffff16610e5a91906120f3565b610e6491906121a1565b610e6e91906121a1565b905092915050565b6000806000600184610e8891906121d5565b9050606481610e979190612238565b9250606481610ea69190612269565b915050915091565b60086020528060005260406000206000915054906101000a900469ffffffffffffffffffff1681565b60066020528160005260406000206020528060005260406000206000915091509054906101000a900460ff1681565b60008054906101000a900473ffffffffffffffffffffffffffffffffffffffff1673ffffffffffffffffffffffffffffffffffffffff163373ffffffffffffffffffffffffffffffffffffffff1614610f94576040517f08c379a0000000000000000000000000000000000000000000000000000000008152600401610f8b90612001565b60405180910390fd5b600073ffffffffffffffffffffffffffffffffffffffff168173ffffffffffffffffffffffffffffffffffffffff1603610fcd57600080fd5b8073ffffffffffffffffffffffffffffffffffffffff1660008054906101000a900473ffffffffffffffffffffffffffffffffffffffff1673ffffffffffffffffffffffffffffffffffffffff167f8be0079c531659141344cd1fd0a4f28419497f9722a3daafe3b4186f6b6457e060405160405180910390a3806000806101000a81548173ffffffffffffffffffffffffffffffffffffffff021916908373ffffffffffffffffffffffffffffffffffffffff16021790555050565b8273ffffffffffffffffffffffffffffffffffffffff166003600083815260200190815260200160002060009054906101000a900473ffffffffffffffffffffffffffffffffffffffff1673ffffffffffffffffffffffffffffffffffffffff161480156111255750600073ffffffffffffffffffffffffffffffffffffffff168273ffffffffffffffffffffffffffffffffffffffff1614155b61112e57600080fd5b6005600082815260200190815260200160002060006101000a81549073ffffffffffffffffffffffffffffffffffffffff0219169055600460008473ffffffffffffffffffffffffffffffffffffffff1673ffffffffffffffffffffffffffffffffffffffff16815260200190815260200160002060008154809291906111b49061229a565b9190505550600460008373ffffffffffffffffffffffffffffffffffffffff1673ffffffffffffffffffffffffffffffffffffffff1681526020019081526020016000206000815480929190611209906122c3565b9190505550816003600083815260200190815260200160002060006101000a81548173ffffffffffffffffffffffffffffffffffffffff021916908373ffffffffffffffffffffffffffffffffffffffff160217905550808273ffffffffffffffffffffffffffffffffffffffff168473ffffffffffffffffffffffffffffffffffffffff167fddf252ad1be2c89b69c2b068fc378daa952ba7f163c4a11628f55a4df523b3ef60405160405180910390a4505050565b6112ca33826115d1565b6112d357600080fd5b6112de83838361108a565b505050565b600073ffffffffffffffffffffffffffffffffffffffff168273ffffffffffffffffffffffffffffffffffffffff161415801561137f5750600073ffffffffffffffffffffffffffffffffffffffff166003600083815260200190815260200160002060009054906101000a900473ffffffffffffffffffffffffffffffffffffffff1673ffffffffffffffffffffffffffffffffffffffff16145b61138857600080fd5b600460008373ffffffffffffffffffffffffffffffffffffffff1673ffffffffffffffffffffffffffffffffffffffff16815260200190815260200160002060008154809291906113d8906122c3565b9190505550816003600083815260200190815260200160002060006101000a81548173ffffffffffffffffffffffffffffffffffffffff021916908373ffffffffffffffffffffffffffffffffffffffff160217905550808273ffffffffffffffffffffffffffffffffffffffff16600073ffffffffffffffffffffffffffffffffffffffff167fddf252ad1be2c89b69c2b068fc378daa952ba7f163c4a11628f55a4df523b3ef60405160405180910390a45050565b60008373ffffffffffffffffffffffffffffffffffffffff163b11156115995763150b7a0260e01b8373ffffffffffffffffffffffffffffffffffffffff1663150b7a02878786866040518563ffffffff1660e01b81526004016114f69493929190612360565b6020604051808303816000875af1158015611515573d6000803e3d6000fd5b505050506040513d601f19601f8201168201806040525081019061153991906123c1565b7bffffffffffffffffffffffffffffffffffffffffffffffffffffffff191614611598576040517f08c379a000000000000000000000000000000000000000000000000000000000815260040161158f9061243a565b60405180910390fd5b5b5050505050565b6115aa33836115d1565b6115b357600080fd5b6115be84848461108a565b6115cb338585858561148f565b50505050565b6000806003600084815260200190815260200160002060009054906101000a900473ffffffffffffffffffffffffffffffffffffffff1690508073ffffffffffffffffffffffffffffffffffffffff168473ffffffffffffffffffffffffffffffffffffffff1614806116ca5750600660008273ffffffffffffffffffffffffffffffffffffffff1673ffffffffffffffffffffffffffffffffffffffff16815260200190815260200160002060008573ffffffffffffffffffffffffffffffffffffffff1673ffffffffffffffffffffffffffffffffffffffff16815260200190815260200160002060009054906101000a900460ff165b8061173357508373ffffffffffffffffffffffffffffffffffffffff166005600085815260200190815260200160002060009054906101000a900473ffffffffffffffffffffffffffffffffffffffff1673ffffffffffffffffffffffffffffffffffffffff16145b91505092915050565b6000604051905090565b600080fd5b600080fd5b60007fffffffff0000000000000000000000000000000000000000000000000000000082169050919050565b61178581611750565b811461179057600080fd5b50565b6000813590506117a28161177c565b92915050565b6000602082840312156117be576117bd611746565b5b60006117cc84828501611793565b91505092915050565b60008115159050919050565b6117ea816117d5565b82525050565b600060208201905061180560008301846117e1565b92915050565b600081519050919050565b600082825260208201905092915050565b60005b8381101561184557808201518184015260208101905061182a565b60008484015250505050565b6000601f19601f8301169050919050565b600061186d8261180b565b6118778185611816565b9350611887818560208601611827565b61189081611851565b840191505092915050565b600060208201905081810360008301526118b58184611862565b905092915050565b6000819050919050565b6118d0816118bd565b81146118db57600080fd5b50565b6000813590506118ed816118c7565b92915050565b60006020828403121561190957611908611746565b5b6000611917848285016118de565b91505092915050565b600073ffffffffffffffffffffffffffffffffffffffff82169050919050565b600061194b82611920565b9050919050565b61195b81611940565b82525050565b60006020820190506119766000830184611952565b92915050565b61198581611940565b811461199057600080fd5b50565b6000813590506119a28161197c565b92915050565b600080604083850312156119bf576119be611746565b5b60006119cd85828601611993565b92505060206119de858286016118de565b9150509250929050565b6000602082840312156119fe576119fd611746565b5b6000611a0c84828501611993565b91505092915050565b600060ff82169050919050565b611a2b81611a15565b82525050565b6000602082019050611a466000830184611a22565b92915050565b600080600060608486031215611a6557611a64611746565b5b6000611a7386828701611993565b9350506020611a8486828701611993565b9250506040611a95868287016118de565b9150509250925092565b611aa8816117d5565b8114611ab357600080fd5b50565b600081359050611ac581611a9f565b92915050565b60008060408385031215611ae257611ae1611746565b5b6000611af085828601611993565b9250506020611b0185828601611ab6565b9150509250929050565b611b14816118bd565b82525050565b6000602082019050611b2f6000830184611b0b565b92915050565b60008160010b9050919050565b611b4b81611b35565b8114611b5657600080fd5b50565b600081359050611b6881611b42565b92915050565b600069ffffffffffffffffffff82169050919050565b611b8d81611b6e565b8114611b9857600080fd5b50565b600081359050611baa81611b84565b92915050565b60008060008060808587031215611bca57611bc9611746565b5b6000611bd887828801611993565b9450506020611be987828801611b59565b9350506040611bfa87828801611b59565b9250506060611c0b87828801611b9b565b91505092959194509250565b600080fd5b600080fd5b7f4e487b7100000000000000000000000000000000000000000000000000000000600052604160045260246000fd5b611c5982611851565b810181811067ffffffffffffffff82111715611c7857611c77611c21565b5b80604052505050565b6000611c8b61173c565b9050611c978282611c50565b919050565b600067ffffffffffffffff821115611cb757611cb6611c21565b5b611cc082611851565b9050602081019050919050565b82818337600083830152505050565b6000611cef611cea84611c9c565b611c81565b905082815260208101848484011115611d0b57611d0a611c1c565b5b611d16848285611ccd565b509392505050565b600082601f830112611d3357611d32611c17565b5b8135611d43848260208601611cdc565b91505092915050565b60008060008060808587031215611d6657611d65611746565b5b6000611d7487828801611993565b9450506020611d8587828801611993565b9350506040611d96878288016118de565b925050606085013567ffffffffffffffff811115611db757611db661174b565b5b611dc387828801611d1e565b91505092959194509250565b611dd881611a15565b8114611de357600080fd5b50565b600081359050611df581611dcf565b92915050565b60008060408385031215611e1257611e11611746565b5b6000611e20858286016118de565b9250506020611e3185828601611de6565b9150509250929050565b600061ffff82169050919050565b611e5281611e3b565b82525050565b6000602082019050611e6d6000830184611e49565b92915050565b60008060408385031215611e8a57611e89611746565b5b6000611e9885828601611b59565b9250506020611ea985828601611b59565b9150509250929050565b611ebc81611b35565b82525050565b6000604082019050611ed76000830185611eb3565b611ee46020830184611eb3565b9392505050565b611ef481611b6e565b82525050565b6000602082019050611f0f6000830184611eeb565b92915050565b60008060408385031215611f2c57611f2b611746565b5b6000611f3a85828601611993565b9250506020611f4b85828601611993565b9150509250929050565b7f4e487b7100000000000000000000000000000000000000000000000000000000600052602260045260246000fd5b60006002820490506001821680611f9c57607f821691505b602082108103611faf57611fae611f55565b5b50919050565b7f216f776e65720000000000000000000000000000000000000000000000000000600082015250565b6000611feb600683611816565b9150611ff682611fb5565b602082019050919050565b6000602082019050818103600083015261201a81611fde565b9050919050565b7f216f700000000000000000000000000000000000000000000000000000000000600082015250565b6000612057600383611816565b915061206282612021565b602082019050919050565b600060208201905081810360008301526120868161204a565b9050919050565b60006060820190506120a26000830186611eb3565b6120af6020830185611eb3565b6120bc6040830184611eeb565b949350505050565b7f4e487b7100000000000000000000000000000000000000000000000000000000600052601160045260246000fd5b60006120fe826118bd565b9150612109836118bd565b9250828202612117816118bd565b9150828204841483151761212e5761212d6120c4565b5b5092915050565b7f6f6f620000000000000000000000000000000000000000000000000000000000600082015250565b600061216b600383611816565b915061217682612135565b602082019050919050565b6000602082019050818103600083015261219a8161215e565b9050919050565b60006121ac826118bd565b91506121b7836118bd565b92508282019050808211156121cf576121ce6120c4565b5b92915050565b60006121e0826118bd565b91506121eb836118bd565b9250828203905081811115612203576122026120c4565b5b92915050565b7f4e487b7100000000000000000000000000000000000000000000000000000000600052601260045260246000fd5b6000612243826118bd565b915061224e836118bd565b92508261225e5761225d612209565b5b828204905092915050565b6000612274826118bd565b915061227f836118bd565b92508261228f5761228e612209565b5b828206905092915050565b60006122a5826118bd565b9150600082036122b8576122b76120c4565b5b600182039050919050565b60006122ce826118bd565b91507fffffffffffffffffffffffffffffffffffffffffffffffffffffffffffffffff8203612300576122ff6120c4565b5b600182019050919050565b600081519050919050565b600082825260208201905092915050565b60006123328261230b565b61233c8185612316565b935061234c818560208601611827565b61235581611851565b840191505092915050565b60006080820190506123756000830187611952565b6123826020830186611952565b61238f6040830185611b0b565b81810360608301526123a18184612327565b905095945050505050565b6000815190506123bb8161177c565b92915050565b6000602082840312156123d7576123d6611746565b5b60006123e5848285016123ac565b91505092915050565b7f2172656365697665720000000000000000000000000000000000000000000000600082015250565b6000612424600983611816565b915061242f826123ee565b602082019050919050565b6000602082019050818103600083015261245381612417565b905091905056fea264697066735822122096d8b1c8561aa953862700a4fea0f807f2af5820f8a066af5c5359de277c110a64736f6c63430008140033",
  "linkReferences": {},
  "deployedLinkReferences": {}
}