{
  "_format": "hh-sol-artifact-1",
  "contractName": "LandAuction",
  "sourceName": "contracts/EvoLandV2.sol",
  "abi": [
    {
      "inputs": [
        {
          "internalType": "address",
          "name": "_land",
          "type": "address"
        },
        {
          "internalType": "address",
          "name": "_ring",
          "type": "address"
        }
      ],
      "stateMutability": "nonpayable",
      "type": "constructor"
    },
    {
      "anonymous": false,
      "inputs": [
        {
          "indexed": true,
          "internalType": "uint256",
          "name": "id",
          "type": "uint256"
        }
      ],
      "name": "AuctionCancelled",
      "type": "event"
    },
    {
      "anonymous": false,
      "inputs": [
        {
          "indexed": true,
          "internalType": "uint256",
          "name": "id",
          "type": "uint256"
        },
        {
          "indexed": false,
          "internalType": "address",
          "name": "seller",
          "type": "address"
        },
        {
          "indexed": false,
          "internalType": "uint128",
          "name": "start",
          "type": "uint128"
        },
        {
          "indexed": false,
          "internalType": "uint128",
          "name": "end",
          "type": "uint128"
        },
        {
          "indexed": false,
          "internalType": "uint64",
          "name": "dur",
          "type": "uint64"
        }
      ],
      "name": "AuctionCreated",
      "type": "event"
    },
    {
      "anonymous": false,
      "inputs": [
        {
          "indexed": true,
          "internalType": "uint256",
          "name": "id",
          "type": "uint256"
        },
        {
          "indexed": false,
          "internalType": "address",
          "name": "buyer",
          "type": "address"
        },
        {
          "indexed": false,
          "internalType": "uint256",
          "name": "price",
          "type": "uint256"
        }
      ],
      "name": "AuctionWon",
      "type": "event"
    },
    {
      "anonymous": false,
      "inputs": [
        {
          "indexed": true,
          "internalType": "address",
          "name": "prev",
          "type": "address"
        },
        {
          "indexed": true,
          "internalType": "address",
          "name": "next",
          "type": "address"
        }
      ],
      "name": "OwnershipTransferred",
      "type": "event"
    },
    {
      "inputs": [],
      "name": "BPS",
      "outputs": [
        {
          "internalType": "uint256",
          "name": "",
          "type": "uint256"
        }
      ],
      "stateMutability": "view",
      "type": "function"
    },
    {
      "inputs": [],
      "name": "FEE_BPS",
      "outputs": [
        {
          "internalType": "uint256",
          "name": "",
          "type": "uint256"
        }
      ],
      "stateMutability": "view",
      "type": "function"
    },
    {
      "inputs": [
        {
          "internalType": "uint256",
          "name": "",
          "type": "uint256"
        }
      ],
      "name": "auctions",
      "outputs": [
        {
          "internalType": "address",
          "name": "seller",
          "type": "address"
        },
        {
          "internalType": "uint128",
          "name": "startPrice",
          "type": "uint128"
        },
        {
          "internalType": "uint128",
          "name": "endPrice",
          "type": "uint128"
        },
        {
          "internalType": "uint64",
          "name": "duration",
          "type": "uint64"
        },
        {
          "internalType": "uint64",
          "name": "startedAt",
          "type": "uint64"
        }
      ],
      "stateMutability": "view",
      "type": "function"
    },
    {
      "inputs": [
        {
          "internalType": "uint256",
          "name": "id",
          "type": "uint256"
        },
        {
          "internalType": "uint256",
          "name": "maxPay",
          "type": "uint256"
        }
      ],
      "name": "bid",
      "outputs": [],
      "stateMutability": "nonpayable",
      "type": "function"
    },
    {
      "inputs": [
        {
          "internalType": "uint256",
          "name": "id",
          "type": "uint256"
        }
      ],
      "name": "cancelAuction",
      "outputs": [],
      "stateMutability": "nonpayable",
      "type": "function"
    },
    {
      "inputs": [
        {
          "internalType": "uint256",
          "name": "id",
          "type": "uint256"
        },
        {
          "internalType": "uint128",
          "name": "sp",
          "type": "uint128"
        },
        {
          "internalType": "uint128",
          "name": "ep",
          "type": "uint128"
        },
        {
          "internalType": "uint64",
          "name": "dur",
          "type": "uint64"
        }
      ],
      "name": "createAuction",
      "outputs": [],
      "stateMutability": "nonpayable",
      "type": "function"
    },
    {
      "inputs": [
        {
          "internalType": "uint256",
          "name": "id",
          "type": "uint256"
        }
      ],
      "name": "currentPrice",
      "outputs": [
        {
          "internalType": "uint256",
          "name": "",
          "type": "uint256"
        }
      ],
      "stateMutability": "view",
      "type": "function"
    },
    {
      "inputs": [],
      "name": "land",
      "outputs": [
        {
          "internalType": "contract LandNFT",
          "name": "",
          "type": "address"
        }
      ],
      "stateMutability": "view",
      "type": "function"
    },
    {
      "inputs": [
        {
          "internalType": "address",
          "name": "",
          "type": "address"
        },
        {
          "internalType": "address",
          "name": "",
          "type": "address"
        },
        {
          "internalType": "uint256",
          "name": "",
          "type": "uint256"
        },
        {
          "internalType": "bytes",
          "name": "",
          "type": "bytes"
        }
      ],
      "name": "onERC721Received",
      "outputs": [
        {
          "internalType": "bytes4",
          "name": "",
          "type": "bytes4"
        }
      ],
      "stateMutability": "pure",
      "type": "function"
    },
    {
      "inputs": [],
      "name": "owner",
      "outputs": [
        {
          "internalType": "address",
          "name": "",
          "type": "address"
        }
      ],
      "stateMutability": "view",
      "type": "function"
    },
    {
      "inputs": [],
      "name": "ring",
      "outputs": [
        {
          "internalType": "address",
          "name": "",
          "type": "address"
        }
      ],
      "stateMutability": "view",
      "type": "function"
    },
    {
      "inputs": [
        {
          "internalType": "address",
          "name": "a",
          "type": "address"
        }
      ],
      "name": "transferOwnership",
      "outputs": [],
      "stateMutability": "nonpayable",
      "type": "function"
    }
  ],
  "bytecode": "0x60806040523480156200001157600080fd5b5060405162001d8238038062001d8283398181016040528101906200003791906200016b565b336000806101000a81548173ffffffffffffffffffffffffffffffffffffffff021916908373ffffffffffffffffffffffffffffffffffffffff16021790555081600160006101000a81548173ffffffffffffffffffffffffffffffffffffffff021916908373ffffffffffffffffffffffffffffffffffffffff16021790555080600260006101000a81548173ffffffffffffffffffffffffffffffffffffffff021916908373ffffffffffffffffffffffffffffffffffffffff1602179055505050620001b2565b600080fd5b600073ffffffffffffffffffffffffffffffffffffffff82169050919050565b6000620001338262000106565b9050919050565b620001458162000126565b81146200015157600080fd5b50565b60008151905062000165816200013a565b92915050565b6000806040838503121562000185576200018462000101565b5b6000620001958582860162000154565b9250506020620001a88582860162000154565b9150509250929050565b611bc080620001c26000396000f3fe608060405234801561001057600080fd5b50600436106100b45760003560e01c80638c980129116100715780638c980129146101a55780638da5cb5b146101c357806396b5a755146101e1578063bbf61455146101fd578063bf333f2c14610219578063f2fde38b14610237576100b4565b8063150b7a02146100b9578063249d39e9146100e9578063571a26a014610107578063598647f81461013b5780637a3c4c17146101575780638360c18514610187575b600080fd5b6100d360048036038101906100ce919061138e565b610253565b6040516100e09190611451565b60405180910390f35b6100f1610268565b6040516100fe919061147b565b60405180910390f35b610121600480360381019061011c9190611496565b61026e565b604051610132959493929190611520565b60405180910390f35b61015560048036038101906101509190611573565b610324565b005b610171600480360381019061016c9190611496565b6107ab565b60405161017e919061147b565b60405180910390f35b61018f610966565b60405161019c91906115b3565b60405180910390f35b6101ad61098c565b6040516101ba919061162d565b60405180910390f35b6101cb6109b2565b6040516101d891906115b3565b60405180910390f35b6101fb60048036038101906101f69190611496565b6109d6565b005b610217600480360381019061021291906116a0565b610cc3565b005b610221611101565b60405161022e919061147b565b60405180910390f35b610251600480360381019061024c9190611707565b611107565b005b600063150b7a0260e01b905095945050505050565b61271081565b60036020528060005260406000206000915090508060000160009054906101000a900473ffffffffffffffffffffffffffffffffffffffff16908060010160009054906101000a90046fffffffffffffffffffffffffffffffff16908060010160109054906101000a90046fffffffffffffffffffffffffffffffff16908060020160009054906101000a900467ffffffffffffffff16908060020160089054906101000a900467ffffffffffffffff16905085565b600460009054906101000a900460ff161561033e57600080fd5b6001600460006101000a81548160ff021916908315150217905550600060036000848152602001908152602001600020905060008160020160089054906101000a900467ffffffffffffffff1667ffffffffffffffff16116103d5576040517f08c379a00000000000000000000000000000000000000000000000000000000081526004016103cc90611791565b60405180910390fd5b60006103e0846107ab565b905080831015610425576040517f08c379a000000000000000000000000000000000000000000000000000000000815260040161041c906117fd565b60405180910390fd5b600061271061019083610438919061184c565b61044291906118bd565b90506000600260009054906101000a900473ffffffffffffffffffffffffffffffffffffffff1690508073ffffffffffffffffffffffffffffffffffffffff166323b872dd338660000160009054906101000a900473ffffffffffffffffffffffffffffffffffffffff1685876104b991906118ee565b6040518463ffffffff1660e01b81526004016104d793929190611922565b6020604051808303816000875af11580156104f6573d6000803e3d6000fd5b505050506040513d601f19601f8201168201806040525081019061051a9190611991565b610559576040517f08c379a000000000000000000000000000000000000000000000000000000000815260040161055090611a0a565b60405180910390fd5b6000821115610604578073ffffffffffffffffffffffffffffffffffffffff166323b872dd3360008054906101000a900473ffffffffffffffffffffffffffffffffffffffff16856040518463ffffffff1660e01b81526004016105bf93929190611922565b6020604051808303816000875af11580156105de573d6000803e3d6000fd5b505050506040513d601f19601f820116820180604052508101906106029190611991565b505b60036000878152602001908152602001600020600080820160006101000a81549073ffffffffffffffffffffffffffffffffffffffff02191690556001820160006101000a8154906fffffffffffffffffffffffffffffffff02191690556001820160106101000a8154906fffffffffffffffffffffffffffffffff02191690556002820160006101000a81549067ffffffffffffffff02191690556002820160086101000a81549067ffffffffffffffff02191690555050600160009054906101000a900473ffffffffffffffffffffffffffffffffffffffff1673ffffffffffffffffffffffffffffffffffffffff166323b872dd3033896040518463ffffffff1660e01b815260040161071c93929190611922565b600060405180830381600087803b15801561073657600080fd5b505af115801561074a573d6000803e3d6000fd5b50505050857f52746d7aec8ff88ae2ea99721a954665b176448184751f576b56019cf259344c3385604051610780929190611a2a565b60405180910390a2505050506000600460006101000a81548160ff0219169083151502179055505050565b60008060036000848152602001908152602001600020905060008160020160089054906101000a900467ffffffffffffffff1667ffffffffffffffff16116107f257600080fd5b60008160020160089054906101000a900467ffffffffffffffff1667ffffffffffffffff164261082291906118ee565b90508160020160009054906101000a900467ffffffffffffffff1667ffffffffffffffff168110610889578160010160109054906101000a90046fffffffffffffffffffffffffffffffff166fffffffffffffffffffffffffffffffff1692505050610961565b8160020160009054906101000a900467ffffffffffffffff1667ffffffffffffffff16818360010160109054906101000a90046fffffffffffffffffffffffffffffffff168460010160009054906101000a90046fffffffffffffffffffffffffffffffff166108f99190611a53565b6fffffffffffffffffffffffffffffffff16610915919061184c565b61091f91906118bd565b8260010160009054906101000a90046fffffffffffffffffffffffffffffffff166fffffffffffffffffffffffffffffffff1661095c91906118ee565b925050505b919050565b600260009054906101000a900473ffffffffffffffffffffffffffffffffffffffff1681565b600160009054906101000a900473ffffffffffffffffffffffffffffffffffffffff1681565b60008054906101000a900473ffffffffffffffffffffffffffffffffffffffff1681565b600460009054906101000a900460ff16156109f057600080fd5b6001600460006101000a81548160ff021916908315150217905550600060036000838152602001908152602001600020905060008160020160089054906101000a900467ffffffffffffffff1667ffffffffffffffff1611610a5157600080fd5b3373ffffffffffffffffffffffffffffffffffffffff168160000160009054906101000a900473ffffffffffffffffffffffffffffffffffffffff1673ffffffffffffffffffffffffffffffffffffffff161480610afa575060008054906101000a900473ffffffffffffffffffffffffffffffffffffffff1673ffffffffffffffffffffffffffffffffffffffff163373ffffffffffffffffffffffffffffffffffffffff16145b610b0357600080fd5b60008160000160009054906101000a900473ffffffffffffffffffffffffffffffffffffffff16905060036000848152602001908152602001600020600080820160006101000a81549073ffffffffffffffffffffffffffffffffffffffff02191690556001820160006101000a8154906fffffffffffffffffffffffffffffffff02191690556001820160106101000a8154906fffffffffffffffffffffffffffffffff02191690556002820160006101000a81549067ffffffffffffffff02191690556002820160086101000a81549067ffffffffffffffff02191690555050600160009054906101000a900473ffffffffffffffffffffffffffffffffffffffff1673ffffffffffffffffffffffffffffffffffffffff166323b872dd3083866040518463ffffffff1660e01b8152600401610c4493929190611922565b600060405180830381600087803b158015610c5e57600080fd5b505af1158015610c72573d6000803e3d6000fd5b50505050827f2809c7e17bf978fbc7194c0a694b638c4215e9140cacc6c38ca36010b45697df60405160405180910390a250506000600460006101000a81548160ff02191690831515021790555050565b600460009054906101000a900460ff1615610cdd57600080fd5b6001600460006101000a81548160ff0219169083151502179055503373ffffffffffffffffffffffffffffffffffffffff16600160009054906101000a900473ffffffffffffffffffffffffffffffffffffffff1673ffffffffffffffffffffffffffffffffffffffff16636352211e866040518263ffffffff1660e01b8152600401610d6a919061147b565b602060405180830381865afa158015610d87573d6000803e3d6000fd5b505050506040513d601f19601f82011682018060405250810190610dab9190611aac565b73ffffffffffffffffffffffffffffffffffffffff1614610e01576040517f08c379a0000000000000000000000000000000000000000000000000000000008152600401610df890611b25565b60405180910390fd5b603c8167ffffffffffffffff1610158015610e29575062278d008167ffffffffffffffff1611155b610e3257600080fd5b816fffffffffffffffffffffffffffffffff16836fffffffffffffffffffffffffffffffff161015610e6357600080fd5b600160009054906101000a900473ffffffffffffffffffffffffffffffffffffffff1673ffffffffffffffffffffffffffffffffffffffff166323b872dd3330876040518463ffffffff1660e01b8152600401610ec293929190611922565b600060405180830381600087803b158015610edc57600080fd5b505af1158015610ef0573d6000803e3d6000fd5b505050506040518060a001604052803373ffffffffffffffffffffffffffffffffffffffff168152602001846fffffffffffffffffffffffffffffffff168152602001836fffffffffffffffffffffffffffffffff1681526020018267ffffffffffffffff1681526020014267ffffffffffffffff168152506003600086815260200190815260200160002060008201518160000160006101000a81548173ffffffffffffffffffffffffffffffffffffffff021916908373ffffffffffffffffffffffffffffffffffffffff16021790555060208201518160010160006101000a8154816fffffffffffffffffffffffffffffffff02191690836fffffffffffffffffffffffffffffffff16021790555060408201518160010160106101000a8154816fffffffffffffffffffffffffffffffff02191690836fffffffffffffffffffffffffffffffff16021790555060608201518160020160006101000a81548167ffffffffffffffff021916908367ffffffffffffffff16021790555060808201518160020160086101000a81548167ffffffffffffffff021916908367ffffffffffffffff160217905550905050837fc2b778feed4b5f3809d21f7da82e0bff64720eee22fd7da1b8f1c7a5cf62dc21338585856040516110d89493929190611b45565b60405180910390a26000600460006101000a81548160ff02191690831515021790555050505050565b61019081565b60008054906101000a900473ffffffffffffffffffffffffffffffffffffffff1673ffffffffffffffffffffffffffffffffffffffff163373ffffffffffffffffffffffffffffffffffffffff1614611195576040517f08c379a000000000000000000000000000000000000000000000000000000000815260040161118c90611b25565b60405180910390fd5b600073ffffffffffffffffffffffffffffffffffffffff168173ffffffffffffffffffffffffffffffffffffffff16036111ce57600080fd5b8073ffffffffffffffffffffffffffffffffffffffff1660008054906101000a900473ffffffffffffffffffffffffffffffffffffffff1673ffffffffffffffffffffffffffffffffffffffff167f8be0079c531659141344cd1fd0a4f28419497f9722a3daafe3b4186f6b6457e060405160405180910390a3806000806101000a81548173ffffffffffffffffffffffffffffffffffffffff021916908373ffffffffffffffffffffffffffffffffffffffff16021790555050565b600080fd5b600080fd5b600073ffffffffffffffffffffffffffffffffffffffff82169050919050565b60006112c082611295565b9050919050565b6112d0816112b5565b81146112db57600080fd5b50565b6000813590506112ed816112c7565b92915050565b6000819050919050565b611306816112f3565b811461131157600080fd5b50565b600081359050611323816112fd565b92915050565b600080fd5b600080fd5b600080fd5b60008083601f84011261134e5761134d611329565b5b8235905067ffffffffffffffff81111561136b5761136a61132e565b5b60208301915083600182028301111561138757611386611333565b5b9250929050565b6000806000806000608086880312156113aa576113a961128b565b5b60006113b8888289016112de565b95505060206113c9888289016112de565b94505060406113da88828901611314565b935050606086013567ffffffffffffffff8111156113fb576113fa611290565b5b61140788828901611338565b92509250509295509295909350565b60007fffffffff0000000000000000000000000000000000000000000000000000000082169050919050565b61144b81611416565b82525050565b60006020820190506114666000830184611442565b92915050565b611475816112f3565b82525050565b6000602082019050611490600083018461146c565b92915050565b6000602082840312156114ac576114ab61128b565b5b60006114ba84828501611314565b91505092915050565b6114cc816112b5565b82525050565b60006fffffffffffffffffffffffffffffffff82169050919050565b6114f7816114d2565b82525050565b600067ffffffffffffffff82169050919050565b61151a816114fd565b82525050565b600060a08201905061153560008301886114c3565b61154260208301876114ee565b61154f60408301866114ee565b61155c6060830185611511565b6115696080830184611511565b9695505050505050565b6000806040838503121561158a5761158961128b565b5b600061159885828601611314565b92505060206115a985828601611314565b9150509250929050565b60006020820190506115c860008301846114c3565b92915050565b6000819050919050565b60006115f36115ee6115e984611295565b6115ce565b611295565b9050919050565b6000611605826115d8565b9050919050565b6000611617826115fa565b9050919050565b6116278161160c565b82525050565b6000602082019050611642600083018461161e565b92915050565b611651816114d2565b811461165c57600080fd5b50565b60008135905061166e81611648565b92915050565b61167d816114fd565b811461168857600080fd5b50565b60008135905061169a81611674565b92915050565b600080600080608085870312156116ba576116b961128b565b5b60006116c887828801611314565b94505060206116d98782880161165f565b93505060406116ea8782880161165f565b92505060606116fb8782880161168b565b91505092959194509250565b60006020828403121561171d5761171c61128b565b5b600061172b848285016112de565b91505092915050565b600082825260208201905092915050565b7f6e6f2061756374696f6e00000000000000000000000000000000000000000000600082015250565b600061177b600a83611734565b915061178682611745565b602082019050919050565b600060208201905081810360008301526117aa8161176e565b9050919050565b7f746f6f206c6f7700000000000000000000000000000000000000000000000000600082015250565b60006117e7600783611734565b91506117f2826117b1565b602082019050919050565b60006020820190508181036000830152611816816117da565b9050919050565b7f4e487b7100000000000000000000000000000000000000000000000000000000600052601160045260246000fd5b6000611857826112f3565b9150611862836112f3565b9250828202611870816112f3565b915082820484148315176118875761188661181d565b5b5092915050565b7f4e487b7100000000000000000000000000000000000000000000000000000000600052601260045260246000fd5b60006118c8826112f3565b91506118d3836112f3565b9250826118e3576118e261188e565b5b828204905092915050565b60006118f9826112f3565b9150611904836112f3565b925082820390508181111561191c5761191b61181d565b5b92915050565b600060608201905061193760008301866114c3565b61194460208301856114c3565b611951604083018461146c565b949350505050565b60008115159050919050565b61196e81611959565b811461197957600080fd5b50565b60008151905061198b81611965565b92915050565b6000602082840312156119a7576119a661128b565b5b60006119b58482850161197c565b91505092915050565b7f72696e67206661696c0000000000000000000000000000000000000000000000600082015250565b60006119f4600983611734565b91506119ff826119be565b602082019050919050565b60006020820190508181036000830152611a23816119e7565b9050919050565b6000604082019050611a3f60008301856114c3565b611a4c602083018461146c565b9392505050565b6000611a5e826114d2565b9150611a69836114d2565b925082820390506fffffffffffffffffffffffffffffffff811115611a9157611a9061181d565b5b92915050565b600081519050611aa6816112c7565b92915050565b600060208284031215611ac257611ac161128b565b5b6000611ad084828501611a97565b91505092915050565b7f216f776e65720000000000000000000000000000000000000000000000000000600082015250565b6000611b0f600683611734565b9150611b1a82611ad9565b602082019050919050565b60006020820190508181036000830152611b3e81611b02565b9050919050565b6000608082019050611b5a60008301876114c3565b611b6760208301866114ee565b611b7460408301856114ee565b611b816060830184611511565b9594505050505056fea2646970667358221220235575f7ec7368d8edb363594279a793cfb8f3c3d41de52e3996870d1b326ec464736f6c63430008140033",
  "linkReferences": {},
  "deployedLinkReferences": {}
}