{
  "_format": "hh-sol-artifact-1",
  "contractName": "MiningSystem",
  "sourceName": "contracts/EvoLandV2.sol",
  "abi": [
    {
      "inputs": [
        {
          "internalType": "address",
          "name": "_land",
          "type": "address"
        },
        {
          "internalType": "address",
          "name": "_drill",
          "type": "address"
        },
        {
          "internalType": "address",
          "name": "_apostle",
          "type": "address"
        },
        {
          "internalType": "address[5]",
          "name": "_res",
          "type": "address[5]"
        }
      ],
      "stateMutability": "nonpayable",
      "type": "constructor"
    },
    {
      "anonymous": false,
      "inputs": [
        {
          "indexed": true,
          "internalType": "uint256",
          "name": "landId",
          "type": "uint256"
        },
        {
          "indexed": true,
          "internalType": "address",
          "name": "owner",
          "type": "address"
        },
        {
          "indexed": false,
          "internalType": "uint256[5]",
          "name": "amounts",
          "type": "uint256[5]"
        }
      ],
      "name": "Claimed",
      "type": "event"
    },
    {
      "anonymous": false,
      "inputs": [
        {
          "indexed": true,
          "internalType": "uint256",
          "name": "landId",
          "type": "uint256"
        },
        {
          "indexed": false,
          "internalType": "uint256",
          "name": "apostleId",
          "type": "uint256"
        },
        {
          "indexed": false,
          "internalType": "uint256",
          "name": "drillId",
          "type": "uint256"
        }
      ],
      "name": "MiningStarted",
      "type": "event"
    },
    {
      "anonymous": false,
      "inputs": [
        {
          "indexed": true,
          "internalType": "uint256",
          "name": "landId",
          "type": "uint256"
        },
        {
          "indexed": false,
          "internalType": "uint256",
          "name": "apostleId",
          "type": "uint256"
        }
      ],
      "name": "MiningStopped",
      "type": "event"
    },
    {
      "anonymous": false,
      "inputs": [
        {
          "indexed": true,
          "internalType": "address",
          "name": "prev",
          "type": "address"
        },
        {
          "indexed": true,
          "internalType": "address",
          "name": "next",
          "type": "address"
        }
      ],
      "name": "OwnershipTransferred",
      "type": "event"
    },
    {
      "inputs": [],
      "name": "MAX_APOSTLES_PER_LAND",
      "outputs": [
        {
          "internalType": "uint256",
          "name": "",
          "type": "uint256"
        }
      ],
      "stateMutability": "view",
      "type": "function"
    },
    {
      "inputs": [],
      "name": "apostle",
      "outputs": [
        {
          "internalType": "contract ApostleNFT",
          "name": "",
          "type": "address"
        }
      ],
      "stateMutability": "view",
      "type": "function"
    },
    {
      "inputs": [
        {
          "internalType": "uint256",
          "name": "",
          "type": "uint256"
        }
      ],
      "name": "apostleOnLand",
      "outputs": [
        {
          "internalType": "uint256",
          "name": "",
          "type": "uint256"
        }
      ],
      "stateMutability": "view",
      "type": "function"
    },
    {
      "inputs": [
        {
          "internalType": "uint256",
          "name": "landId",
          "type": "uint256"
        }
      ],
      "name": "claim",
      "outputs": [],
      "stateMutability": "nonpayable",
      "type": "function"
    },
    {
      "inputs": [],
      "name": "drill",
      "outputs": [
        {
          "internalType": "contract DrillNFT",
          "name": "",
          "type": "address"
        }
      ],
      "stateMutability": "view",
      "type": "function"
    },
    {
      "inputs": [
        {
          "internalType": "uint256",
          "name": "",
          "type": "uint256"
        }
      ],
      "name": "drillOnLand",
      "outputs": [
        {
          "internalType": "uint256",
          "name": "",
          "type": "uint256"
        }
      ],
      "stateMutability": "view",
      "type": "function"
    },
    {
      "inputs": [],
      "name": "land",
      "outputs": [
        {
          "internalType": "contract LandNFT",
          "name": "",
          "type": "address"
        }
      ],
      "stateMutability": "view",
      "type": "function"
    },
    {
      "inputs": [
        {
          "internalType": "address",
          "name": "",
          "type": "address"
        },
        {
          "internalType": "address",
          "name": "",
          "type": "address"
        },
        {
          "internalType": "uint256",
          "name": "",
          "type": "uint256"
        },
        {
          "internalType": "bytes",
          "name": "",
          "type": "bytes"
        }
      ],
      "name": "onERC721Received",
      "outputs": [
        {
          "internalType": "bytes4",
          "name": "",
          "type": "bytes4"
        }
      ],
      "stateMutability": "pure",
      "type": "function"
    },
    {
      "inputs": [],
      "name": "owner",
      "outputs": [
        {
          "internalType": "address",
          "name": "",
          "type": "address"
        }
      ],
      "stateMutability": "view",
      "type": "function"
    },
    {
      "inputs": [
        {
          "internalType": "uint256",
          "name": "",
          "type": "uint256"
        },
        {
          "internalType": "uint256",
          "name": "",
          "type": "uint256"
        }
      ],
      "name": "pending",
      "outputs": [
        {
          "internalType": "uint256",
          "name": "",
          "type": "uint256"
        }
      ],
      "stateMutability": "view",
      "type": "function"
    },
    {
      "inputs": [
        {
          "internalType": "uint256",
          "name": "landId",
          "type": "uint256"
        }
      ],
      "name": "pendingRewards",
      "outputs": [
        {
          "internalType": "uint256[5]",
          "name": "res",
          "type": "uint256[5]"
        }
      ],
      "stateMutability": "view",
      "type": "function"
    },
    {
      "inputs": [
        {
          "internalType": "uint256",
          "name": "",
          "type": "uint256"
        }
      ],
      "name": "resources",
      "outputs": [
        {
          "internalType": "address",
          "name": "",
          "type": "address"
        }
      ],
      "stateMutability": "view",
      "type": "function"
    },
    {
      "inputs": [
        {
          "internalType": "uint256",
          "name": "",
          "type": "uint256"
        }
      ],
      "name": "slotCount",
      "outputs": [
        {
          "internalType": "uint256",
          "name": "",
          "type": "uint256"
        }
      ],
      "stateMutability": "view",
      "type": "function"
    },
    {
      "inputs": [
        {
          "internalType": "uint256",
          "name": "",
          "type": "uint256"
        },
        {
          "internalType": "uint256",
          "name": "",
          "type": "uint256"
        }
      ],
      "name": "slots",
      "outputs": [
        {
          "internalType": "uint256",
          "name": "apostleId",
          "type": "uint256"
        },
        {
          "internalType": "uint256",
          "name": "drillId",
          "type": "uint256"
        },
        {
          "internalType": "uint256",
          "name": "startTime",
          "type": "uint256"
        }
      ],
      "stateMutability": "view",
      "type": "function"
    },
    {
      "inputs": [
        {
          "internalType": "uint256",
          "name": "landId",
          "type": "uint256"
        },
        {
          "internalType": "uint256",
          "name": "apostleId",
          "type": "uint256"
        },
        {
          "internalType": "uint256",
          "name": "drillId",
          "type": "uint256"
        }
      ],
      "name": "startMining",
      "outputs": [],
      "stateMutability": "nonpayable",
      "type": "function"
    },
    {
      "inputs": [
        {
          "internalType": "uint256",
          "name": "landId",
          "type": "uint256"
        },
        {
          "internalType": "uint256",
          "name": "apostleId",
          "type": "uint256"
        }
      ],
      "name": "stopMining",
      "outputs": [],
      "stateMutability": "nonpayable",
      "type": "function"
    },
    {
      "inputs": [
        {
          "internalType": "address",
          "name": "a",
          "type": "address"
        }
      ],
      "name": "transferOwnership",
      "outputs": [],
      "stateMutability": "nonpayable",
      "type": "function"
    }
  ],
  "bytecode": "0x60806040523480156200001157600080fd5b5060405162002903380380620029038339818101604052810190620000379190620003d0565b336000806101000a81548173ffffffffffffffffffffffffffffffffffffffff021916908373ffffffffffffffffffffffffffffffffffffffff16021790555083600160006101000a81548173ffffffffffffffffffffffffffffffffffffffff021916908373ffffffffffffffffffffffffffffffffffffffff16021790555082600260006101000a81548173ffffffffffffffffffffffffffffffffffffffff021916908373ffffffffffffffffffffffffffffffffffffffff16021790555081600360006101000a81548173ffffffffffffffffffffffffffffffffffffffff021916908373ffffffffffffffffffffffffffffffffffffffff1602179055508060049060056200014d92919062000158565b505050505062000443565b8260058101928215620001c7579160200282015b82811115620001c65782518260006101000a81548173ffffffffffffffffffffffffffffffffffffffff021916908373ffffffffffffffffffffffffffffffffffffffff160217905550916020019190600101906200016c565b5b509050620001d69190620001da565b5090565b5b80821115620001f5576000816000905550600101620001db565b5090565b6000604051905090565b600080fd5b600073ffffffffffffffffffffffffffffffffffffffff82169050919050565b6000620002358262000208565b9050919050565b620002478162000228565b81146200025357600080fd5b50565b60008151905062000267816200023c565b92915050565b600080fd5b6000601f19601f8301169050919050565b7f4e487b7100000000000000000000000000000000000000000000000000000000600052604160045260246000fd5b620002bd8262000272565b810181811067ffffffffffffffff82111715620002df57620002de62000283565b5b80604052505050565b6000620002f4620001f9565b9050620003028282620002b2565b919050565b600067ffffffffffffffff82111562000325576200032462000283565b5b602082029050919050565b600080fd5b60006200034c620003468462000307565b620002e8565b9050806020840283018581111562000369576200036862000330565b5b835b8181101562000396578062000381888262000256565b8452602084019350506020810190506200036b565b5050509392505050565b600082601f830112620003b857620003b76200026d565b5b6005620003c784828562000335565b91505092915050565b6000806000806101008587031215620003ee57620003ed62000203565b5b6000620003fe8782880162000256565b9450506020620004118782880162000256565b9350506040620004248782880162000256565b92505060606200043787828801620003a0565b91505092959194509250565b6124b080620004536000396000f3fe608060405234801561001057600080fd5b506004361061010b5760003560e01c80638da5cb5b116100a2578063e6d44c4511610071578063e6d44c45146102e0578063ec823b6d14610310578063f0b466f514610342578063f2fde38b14610360578063fbf8bdc91461037c5761010b565b80638da5cb5b14610244578063953cc9f914610262578063a30a717114610280578063dd5bc96f146102b05761010b565b8063379607f5116100de578063379607f5146101bc578063525d9de0146101d85780637dcb2abf146101f65780638c980129146102265761010b565b806307f12b0d14610110578063150b7a021461014057806323fc6fef14610170578063244d6daa1461018c575b600080fd5b61012a600480360381019061012591906117a2565b610398565b60405161013791906117de565b60405180910390f35b61015a600480360381019061015591906118bc565b6103b0565b604051610167919061197f565b60405180910390f35b61018a6004803603810190610185919061199a565b6103c5565b005b6101a660048036038101906101a191906117a2565b610738565b6040516101b391906119e9565b60405180910390f35b6101d660048036038101906101d191906117a2565b61076e565b005b6101e06109c3565b6040516101ed9190611a63565b60405180910390f35b610210600480360381019061020b91906117a2565b6109e9565b60405161021d9190611b29565b60405180910390f35b61022e610b59565b60405161023b9190611b65565b60405180910390f35b61024c610b7f565b60405161025991906119e9565b60405180910390f35b61026a610ba3565b60405161027791906117de565b60405180910390f35b61029a6004803603810190610295919061199a565b610ba8565b6040516102a791906117de565b60405180910390f35b6102ca60048036038101906102c591906117a2565b610bd0565b6040516102d791906117de565b60405180910390f35b6102fa60048036038101906102f591906117a2565b610be8565b60405161030791906117de565b60405180910390f35b61032a6004803603810190610325919061199a565b610c00565b60405161033993929190611b80565b60405180910390f35b61034a610c3d565b6040516103579190611bd8565b60405180910390f35b61037a60048036038101906103759190611bf3565b610c63565b005b61039660048036038101906103919190611c20565b610de7565b005b600c6020528060005260406000206000915090505481565b600063150b7a0260e01b905095945050505050565b6103ce82611324565b6000600a600084815260200190815260200160002054905060005b818110156106f8578260096000868152602001908152602001600020826005811061041757610416611c73565b5b6003020160000154036106e557600060096000868152602001908152602001600020826005811061044b5761044a611c73565b5b60030201600101549050600360009054906101000a900473ffffffffffffffffffffffffffffffffffffffff1673ffffffffffffffffffffffffffffffffffffffff166323b872dd3033876040518463ffffffff1660e01b81526004016104b493929190611ca2565b600060405180830381600087803b1580156104ce57600080fd5b505af11580156104e2573d6000803e3d6000fd5b505050506000600b600086815260200190815260200160002081905550600081146105b257600260009054906101000a900473ffffffffffffffffffffffffffffffffffffffff1673ffffffffffffffffffffffffffffffffffffffff166323b872dd3033846040518463ffffffff1660e01b815260040161056693929190611ca2565b600060405180830381600087803b15801561058057600080fd5b505af1158015610594573d6000803e3d6000fd5b505050506000600c6000838152602001908152602001600020819055505b600960008681526020019081526020016000206001846105d29190611d08565b600581106105e3576105e2611c73565b5b6003020160096000878152602001908152602001600020836005811061060c5761060b611c73565b5b60030201600082015481600001556001820154816001015560028201548160020155905050600960008681526020019081526020016000206001846106519190611d08565b6005811061066257610661611c73565b5b6003020160008082016000905560018201600090556002820160009055505060018361068e9190611d08565b600a600087815260200190815260200160002081905550847f1ba8fab0bdf2a95f952cc2343e8d1af0faee5770d345b6412109d0e2fb4fa025856040516106d591906117de565b60405180910390a2505050610734565b80806106f090611d3c565b9150506103e9565b506040517f08c379a000000000000000000000000000000000000000000000000000000000815260040161072b90611de1565b60405180910390fd5b5050565b6004816005811061074857600080fd5b016000915054906101000a900473ffffffffffffffffffffffffffffffffffffffff1681565b61077781611324565b6000600160009054906101000a900473ffffffffffffffffffffffffffffffffffffffff1673ffffffffffffffffffffffffffffffffffffffff16636352211e836040518263ffffffff1660e01b81526004016107d491906117de565b602060405180830381865afa1580156107f1573d6000803e3d6000fd5b505050506040513d601f19601f820116820180604052508101906108159190611e16565b905061081f611740565b60005b60058160ff16101561096e576000600d60008681526020019081526020016000208260ff166005811061085857610857611c73565b5b01549050600081111561095a576000600d60008781526020019081526020016000208360ff166005811061088f5761088e611c73565b5b018190555080838360ff16600581106108ab576108aa611c73565b5b60200201818152505060048260ff16600581106108cb576108ca611c73565b5b0160009054906101000a900473ffffffffffffffffffffffffffffffffffffffff1673ffffffffffffffffffffffffffffffffffffffff166340c10f1985836040518363ffffffff1660e01b8152600401610927929190611e43565b600060405180830381600087803b15801561094157600080fd5b505af1158015610955573d6000803e3d6000fd5b505050505b50808061096690611e79565b915050610822565b508173ffffffffffffffffffffffffffffffffffffffff16837ff893fcdebf2dbfd23aecbfa6a517db14a56f01ab3dee4742f04eac4ef4b63722836040516109b69190611b29565b60405180910390a3505050565b600260009054906101000a900473ffffffffffffffffffffffffffffffffffffffff1681565b6109f1611740565b60005b60058160ff161015610a5c57600d60008481526020019081526020016000208160ff1660058110610a2857610a27611c73565b5b0154828260ff1660058110610a4057610a3f611c73565b5b6020020181815250508080610a5490611e79565b9150506109f4565b506000600a600084815260200190815260200160002054905060005b81811015610b52576000600960008681526020019081526020016000208260058110610aa757610aa6611c73565b5b6003020190506000816002015442610abf9190611d08565b90506000610ace878484611448565b905060005b60058160ff161015610b3b57818160ff1660058110610af557610af4611c73565b5b6020020151878260ff1660058110610b1057610b0f611c73565b5b60200201818151610b219190611ea2565b915081815250508080610b3390611e79565b915050610ad3565b505050508080610b4a90611d3c565b915050610a78565b5050919050565b600160009054906101000a900473ffffffffffffffffffffffffffffffffffffffff1681565b60008054906101000a900473ffffffffffffffffffffffffffffffffffffffff1681565b600581565b600d6020528160005260406000208160058110610bc457600080fd5b01600091509150505481565b600a6020528060005260406000206000915090505481565b600b6020528060005260406000206000915090505481565b60096020528160005260406000208160058110610c1c57600080fd5b60030201600091509150508060000154908060010154908060020154905083565b600360009054906101000a900473ffffffffffffffffffffffffffffffffffffffff1681565b60008054906101000a900473ffffffffffffffffffffffffffffffffffffffff1673ffffffffffffffffffffffffffffffffffffffff163373ffffffffffffffffffffffffffffffffffffffff1614610cf1576040517f08c379a0000000000000000000000000000000000000000000000000000000008152600401610ce890611f22565b60405180910390fd5b600073ffffffffffffffffffffffffffffffffffffffff168173ffffffffffffffffffffffffffffffffffffffff1603610d2a57600080fd5b8073ffffffffffffffffffffffffffffffffffffffff1660008054906101000a900473ffffffffffffffffffffffffffffffffffffffff1673ffffffffffffffffffffffffffffffffffffffff167f8be0079c531659141344cd1fd0a4f28419497f9722a3daafe3b4186f6b6457e060405160405180910390a3806000806101000a81548173ffffffffffffffffffffffffffffffffffffffff021916908373ffffffffffffffffffffffffffffffffffffffff16021790555050565b3373ffffffffffffffffffffffffffffffffffffffff16600360009054906101000a900473ffffffffffffffffffffffffffffffffffffffff1673ffffffffffffffffffffffffffffffffffffffff16636352211e846040518263ffffffff1660e01b8152600401610e5991906117de565b602060405180830381865afa158015610e76573d6000803e3d6000fd5b505050506040513d601f19601f82011682018060405250810190610e9a9190611e16565b73ffffffffffffffffffffffffffffffffffffffff1614610ef0576040517f08c379a0000000000000000000000000000000000000000000000000000000008152600401610ee790611f8e565b60405180910390fd5b6000600b60008481526020019081526020016000205414610f46576040517f08c379a0000000000000000000000000000000000000000000000000000000008152600401610f3d90611ffa565b60405180910390fd5b6000600a600085815260200190815260200160002054905060058110610fa1576040517f08c379a0000000000000000000000000000000000000000000000000000000008152600401610f9890612066565b60405180910390fd5b600082146111b2573373ffffffffffffffffffffffffffffffffffffffff16600260009054906101000a900473ffffffffffffffffffffffffffffffffffffffff1673ffffffffffffffffffffffffffffffffffffffff16636352211e846040518263ffffffff1660e01b815260040161101b91906117de565b602060405180830381865afa158015611038573d6000803e3d6000fd5b505050506040513d601f19601f8201168201806040525081019061105c9190611e16565b73ffffffffffffffffffffffffffffffffffffffff16146110b2576040517f08c379a00000000000000000000000000000000000000000000000000000000081526004016110a9906120d2565b60405180910390fd5b6000600c60008481526020019081526020016000205414611108576040517f08c379a00000000000000000000000000000000000000000000000000000000081526004016110ff9061213e565b60405180910390fd5b600260009054906101000a900473ffffffffffffffffffffffffffffffffffffffff1673ffffffffffffffffffffffffffffffffffffffff166323b872dd3330856040518463ffffffff1660e01b815260040161116793929190611ca2565b600060405180830381600087803b15801561118157600080fd5b505af1158015611195573d6000803e3d6000fd5b5050505083600c6000848152602001908152602001600020819055505b600360009054906101000a900473ffffffffffffffffffffffffffffffffffffffff1673ffffffffffffffffffffffffffffffffffffffff166323b872dd3330866040518463ffffffff1660e01b815260040161121193929190611ca2565b600060405180830381600087803b15801561122b57600080fd5b505af115801561123f573d6000803e3d6000fd5b5050505083600b60008581526020019081526020016000208190555060405180606001604052808481526020018381526020014281525060096000868152602001908152602001600020826005811061129b5761129a611c73565b5b600302016000820151816000015560208201518160010155604082015181600201559050506001816112cd9190611ea2565b600a600086815260200190815260200160002081905550837f151ffc4d7c265e5cd92a14f89d5f0ecd054c25af1f9e945597be09479467cd7c848460405161131692919061215e565b60405180910390a250505050565b6000600a600083815260200190815260200160002054905060005b8181101561144357600060096000858152602001908152602001600020826005811061136e5761136d611c73565b5b60030201905060008160020154426113869190611d08565b905060008103611397575050611430565b60006113a4868484611448565b905060005b60058160ff16101561142257818160ff16600581106113cb576113ca611c73565b5b6020020151600d60008981526020019081526020016000208260ff16600581106113f8576113f7611c73565b5b0160008282546114089190611ea2565b92505081905550808061141a90611e79565b9150506113a9565b504283600201819055505050505b808061143b90611d3c565b91505061133f565b505050565b611450611740565b6000600360009054906101000a900473ffffffffffffffffffffffffffffffffffffffff1673ffffffffffffffffffffffffffffffffffffffff16639ebd36f385600001546040518263ffffffff1660e01b81526004016114b191906117de565b61012060405180830381865afa1580156114cf573d6000803e3d6000fd5b505050506040513d601f19601f820116820180604052508101906114f39190612269565b5050505050505050905060008060008087600101541415905080156115ba57600260009054906101000a900473ffffffffffffffffffffffffffffffffffffffff1673ffffffffffffffffffffffffffffffffffffffff16639ebd36f388600101546040518263ffffffff1660e01b815260040161157191906117de565b6040805180830381865afa15801561158d573d6000803e3d6000fd5b505050506040513d601f19601f820116820180604052508101906115b19190612333565b80935081945050505b60005b60058160ff161015611734576000600160009054906101000a900473ffffffffffffffffffffffffffffffffffffffff1673ffffffffffffffffffffffffffffffffffffffff1663c6a68dbf8b846040518363ffffffff1660e01b8152600401611628929190612382565b602060405180830381865afa158015611645573d6000803e3d6000fd5b505050506040513d601f19601f8201168201806040525081019061166991906123ab565b61ffff1690506000810361167d5750611721565b60006064905083801561169557508260ff168560ff16145b156116b85760148660ff166116aa91906123d8565b816116b59190611ea2565b90505b6319bfcc0089828960ff16670de0b6b3a7640000866116d791906123d8565b6116e191906123d8565b6116eb91906123d8565b6116f591906123d8565b6116ff9190612449565b888460ff166005811061171557611714611c73565b5b60200201818152505050505b808061172c90611e79565b9150506115bd565b50505050509392505050565b6040518060a00160405280600590602082028036833780820191505090505090565b600080fd5b600080fd5b6000819050919050565b61177f8161176c565b811461178a57600080fd5b50565b60008135905061179c81611776565b92915050565b6000602082840312156117b8576117b7611762565b5b60006117c68482850161178d565b91505092915050565b6117d88161176c565b82525050565b60006020820190506117f360008301846117cf565b92915050565b600073ffffffffffffffffffffffffffffffffffffffff82169050919050565b6000611824826117f9565b9050919050565b61183481611819565b811461183f57600080fd5b50565b6000813590506118518161182b565b92915050565b600080fd5b600080fd5b600080fd5b60008083601f84011261187c5761187b611857565b5b8235905067ffffffffffffffff8111156118995761189861185c565b5b6020830191508360018202830111156118b5576118b4611861565b5b9250929050565b6000806000806000608086880312156118d8576118d7611762565b5b60006118e688828901611842565b95505060206118f788828901611842565b94505060406119088882890161178d565b935050606086013567ffffffffffffffff81111561192957611928611767565b5b61193588828901611866565b92509250509295509295909350565b60007fffffffff0000000000000000000000000000000000000000000000000000000082169050919050565b61197981611944565b82525050565b60006020820190506119946000830184611970565b92915050565b600080604083850312156119b1576119b0611762565b5b60006119bf8582860161178d565b92505060206119d08582860161178d565b9150509250929050565b6119e381611819565b82525050565b60006020820190506119fe60008301846119da565b92915050565b6000819050919050565b6000611a29611a24611a1f846117f9565b611a04565b6117f9565b9050919050565b6000611a3b82611a0e565b9050919050565b6000611a4d82611a30565b9050919050565b611a5d81611a42565b82525050565b6000602082019050611a786000830184611a54565b92915050565b600060059050919050565b600081905092915050565b6000819050919050565b611aa78161176c565b82525050565b6000611ab98383611a9e565b60208301905092915050565b6000602082019050919050565b611adb81611a7e565b611ae58184611a89565b9250611af082611a94565b8060005b83811015611b21578151611b088782611aad565b9650611b1383611ac5565b925050600181019050611af4565b505050505050565b600060a082019050611b3e6000830184611ad2565b92915050565b6000611b4f82611a30565b9050919050565b611b5f81611b44565b82525050565b6000602082019050611b7a6000830184611b56565b92915050565b6000606082019050611b9560008301866117cf565b611ba260208301856117cf565b611baf60408301846117cf565b949350505050565b6000611bc282611a30565b9050919050565b611bd281611bb7565b82525050565b6000602082019050611bed6000830184611bc9565b92915050565b600060208284031215611c0957611c08611762565b5b6000611c1784828501611842565b91505092915050565b600080600060608486031215611c3957611c38611762565b5b6000611c478682870161178d565b9350506020611c588682870161178d565b9250506040611c698682870161178d565b9150509250925092565b7f4e487b7100000000000000000000000000000000000000000000000000000000600052603260045260246000fd5b6000606082019050611cb760008301866119da565b611cc460208301856119da565b611cd160408301846117cf565b949350505050565b7f4e487b7100000000000000000000000000000000000000000000000000000000600052601160045260246000fd5b6000611d138261176c565b9150611d1e8361176c565b9250828203905081811115611d3657611d35611cd9565b5b92915050565b6000611d478261176c565b91507fffffffffffffffffffffffffffffffffffffffffffffffffffffffffffffffff8203611d7957611d78611cd9565b5b600182019050919050565b600082825260208201905092915050565b7f6e6f742068657265000000000000000000000000000000000000000000000000600082015250565b6000611dcb600883611d84565b9150611dd682611d95565b602082019050919050565b60006020820190508181036000830152611dfa81611dbe565b9050919050565b600081519050611e108161182b565b92915050565b600060208284031215611e2c57611e2b611762565b5b6000611e3a84828501611e01565b91505092915050565b6000604082019050611e5860008301856119da565b611e6560208301846117cf565b9392505050565b600060ff82169050919050565b6000611e8482611e6c565b915060ff8203611e9757611e96611cd9565b5b600182019050919050565b6000611ead8261176c565b9150611eb88361176c565b9250828201905080821115611ed057611ecf611cd9565b5b92915050565b7f216f776e65720000000000000000000000000000000000000000000000000000600082015250565b6000611f0c600683611d84565b9150611f1782611ed6565b602082019050919050565b60006020820190508181036000830152611f3b81611eff565b9050919050565b7f2161706f206f776e657200000000000000000000000000000000000000000000600082015250565b6000611f78600a83611d84565b9150611f8382611f42565b602082019050919050565b60006020820190508181036000830152611fa781611f6b565b9050919050565b7f61706f2062757379000000000000000000000000000000000000000000000000600082015250565b6000611fe4600883611d84565b9150611fef82611fae565b602082019050919050565b6000602082019050818103600083015261201381611fd7565b9050919050565b7f6c616e642066756c6c0000000000000000000000000000000000000000000000600082015250565b6000612050600983611d84565b915061205b8261201a565b602082019050919050565b6000602082019050818103600083015261207f81612043565b9050919050565b7f2164726c206f776e657200000000000000000000000000000000000000000000600082015250565b60006120bc600a83611d84565b91506120c782612086565b602082019050919050565b600060208201905081810360008301526120eb816120af565b9050919050565b7f64726c2062757379000000000000000000000000000000000000000000000000600082015250565b6000612128600883611d84565b9150612133826120f2565b602082019050919050565b600060208201905081810360008301526121578161211b565b9050919050565b600060408201905061217360008301856117cf565b61218060208301846117cf565b9392505050565b61219081611e6c565b811461219b57600080fd5b50565b6000815190506121ad81612187565b92915050565b600061ffff82169050919050565b6121ca816121b3565b81146121d557600080fd5b50565b6000815190506121e7816121c1565b92915050565b600067ffffffffffffffff82169050919050565b61220a816121ed565b811461221557600080fd5b50565b60008151905061222781612201565b92915050565b600063ffffffff82169050919050565b6122468161222d565b811461225157600080fd5b50565b6000815190506122638161223d565b92915050565b60008060008060008060008060006101208a8c03121561228c5761228b611762565b5b600061229a8c828d0161219e565b99505060206122ab8c828d0161219e565b98505060406122bc8c828d0161219e565b97505060606122cd8c828d016121d8565b96505060806122de8c828d01612218565b95505060a06122ef8c828d01612218565b94505060c06123008c828d01612218565b93505060e06123118c828d01612254565b9250506101006123238c828d01612254565b9150509295985092959850929598565b6000806040838503121561234a57612349611762565b5b60006123588582860161219e565b92505060206123698582860161219e565b9150509250929050565b61237c81611e6c565b82525050565b600060408201905061239760008301856117cf565b6123a46020830184612373565b9392505050565b6000602082840312156123c1576123c0611762565b5b60006123cf848285016121d8565b91505092915050565b60006123e38261176c565b91506123ee8361176c565b92508282026123fc8161176c565b9150828204841483151761241357612412611cd9565b5b5092915050565b7f4e487b7100000000000000000000000000000000000000000000000000000000600052601260045260246000fd5b60006124548261176c565b915061245f8361176c565b92508261246f5761246e61241a565b5b82820490509291505056fea26469706673582212204b14d5e852f0331fc00594a28298b656e9fd2459d316d6dc2eb7e996be14a09864736f6c63430008140033",
  "linkReferences": {},
  "deployedLinkReferences": {}
}