{
  "_format": "hh-sol-artifact-1",
  "contractName": "NFTAuction",
  "sourceName": "contracts/EvoLandV2.sol",
  "abi": [
    {
      "inputs": [
        {
          "internalType": "address",
          "name": "_ring",
          "type": "address"
        }
      ],
      "stateMutability": "nonpayable",
      "type": "constructor"
    },
    {
      "anonymous": false,
      "inputs": [
        {
          "indexed": true,
          "internalType": "address",
          "name": "nft",
          "type": "address"
        },
        {
          "indexed": true,
          "internalType": "uint256",
          "name": "id",
          "type": "uint256"
        }
      ],
      "name": "AuctionCancelled",
      "type": "event"
    },
    {
      "anonymous": false,
      "inputs": [
        {
          "indexed": true,
          "internalType": "address",
          "name": "nft",
          "type": "address"
        },
        {
          "indexed": true,
          "internalType": "uint256",
          "name": "id",
          "type": "uint256"
        },
        {
          "indexed": false,
          "internalType": "address",
          "name": "seller",
          "type": "address"
        },
        {
          "indexed": false,
          "internalType": "uint128",
          "name": "start",
          "type": "uint128"
        },
        {
          "indexed": false,
          "internalType": "uint128",
          "name": "end",
          "type": "uint128"
        },
        {
          "indexed": false,
          "internalType": "uint64",
          "name": "dur",
          "type": "uint64"
        }
      ],
      "name": "AuctionCreated",
      "type": "event"
    },
    {
      "anonymous": false,
      "inputs": [
        {
          "indexed": true,
          "internalType": "address",
          "name": "nft",
          "type": "address"
        },
        {
          "indexed": true,
          "internalType": "uint256",
          "name": "id",
          "type": "uint256"
        },
        {
          "indexed": false,
          "internalType": "address",
          "name": "buyer",
          "type": "address"
        },
        {
          "indexed": false,
          "internalType": "uint256",
          "name": "price",
          "type": "uint256"
        }
      ],
      "name": "AuctionWon",
      "type": "event"
    },
    {
      "anonymous": false,
      "inputs": [
        {
          "indexed": true,
          "internalType": "address",
          "name": "prev",
          "type": "address"
        },
        {
          "indexed": true,
          "internalType": "address",
          "name": "next",
          "type": "address"
        }
      ],
      "name": "OwnershipTransferred",
      "type": "event"
    },
    {
      "inputs": [],
      "name": "BPS",
      "outputs": [
        {
          "internalType": "uint256",
          "name": "",
          "type": "uint256"
        }
      ],
      "stateMutability": "view",
      "type": "function"
    },
    {
      "inputs": [],
      "name": "FEE_BPS",
      "outputs": [
        {
          "internalType": "uint256",
          "name": "",
          "type": "uint256"
        }
      ],
      "stateMutability": "view",
      "type": "function"
    },
    {
      "inputs": [
        {
          "internalType": "bytes32",
          "name": "",
          "type": "bytes32"
        }
      ],
      "name": "auctions",
      "outputs": [
        {
          "internalType": "address",
          "name": "nftContract",
          "type": "address"
        },
        {
          "internalType": "address",
          "name": "seller",
          "type": "address"
        },
        {
          "internalType": "uint128",
          "name": "startPrice",
          "type": "uint128"
        },
        {
          "internalType": "uint128",
          "name": "endPrice",
          "type": "uint128"
        },
        {
          "internalType": "uint64",
          "name": "duration",
          "type": "uint64"
        },
        {
          "internalType": "uint64",
          "name": "startedAt",
          "type": "uint64"
        }
      ],
      "stateMutability": "view",
      "type": "function"
    },
    {
      "inputs": [
        {
          "internalType": "address",
          "name": "nft",
          "type": "address"
        },
        {
          "internalType": "uint256",
          "name": "id",
          "type": "uint256"
        },
        {
          "internalType": "uint256",
          "name": "maxPay",
          "type": "uint256"
        }
      ],
      "name": "bid",
      "outputs": [],
      "stateMutability": "nonpayable",
      "type": "function"
    },
    {
      "inputs": [
        {
          "internalType": "address",
          "name": "nft",
          "type": "address"
        },
        {
          "internalType": "uint256",
          "name": "id",
          "type": "uint256"
        }
      ],
      "name": "cancelAuction",
      "outputs": [],
      "stateMutability": "nonpayable",
      "type": "function"
    },
    {
      "inputs": [
        {
          "internalType": "address",
          "name": "nft",
          "type": "address"
        },
        {
          "internalType": "uint256",
          "name": "id",
          "type": "uint256"
        },
        {
          "internalType": "uint128",
          "name": "sp",
          "type": "uint128"
        },
        {
          "internalType": "uint128",
          "name": "ep",
          "type": "uint128"
        },
        {
          "internalType": "uint64",
          "name": "dur",
          "type": "uint64"
        }
      ],
      "name": "createAuction",
      "outputs": [],
      "stateMutability": "nonpayable",
      "type": "function"
    },
    {
      "inputs": [
        {
          "internalType": "address",
          "name": "nft",
          "type": "address"
        },
        {
          "internalType": "uint256",
          "name": "id",
          "type": "uint256"
        }
      ],
      "name": "currentPrice",
      "outputs": [
        {
          "internalType": "uint256",
          "name": "",
          "type": "uint256"
        }
      ],
      "stateMutability": "view",
      "type": "function"
    },
    {
      "inputs": [
        {
          "internalType": "address",
          "name": "nft",
          "type": "address"
        },
        {
          "internalType": "uint256",
          "name": "id",
          "type": "uint256"
        }
      ],
      "name": "getAuction",
      "outputs": [
        {
          "components": [
            {
              "internalType": "address",
              "name": "nftContract",
              "type": "address"
            },
            {
              "internalType": "address",
              "name": "seller",
              "type": "address"
            },
            {
              "internalType": "uint128",
              "name": "startPrice",
              "type": "uint128"
            },
            {
              "internalType": "uint128",
              "name": "endPrice",
              "type": "uint128"
            },
            {
              "internalType": "uint64",
              "name": "duration",
              "type": "uint64"
            },
            {
              "internalType": "uint64",
              "name": "startedAt",
              "type": "uint64"
            }
          ],
          "internalType": "struct NFTAuction.Auction",
          "name": "",
          "type": "tuple"
        }
      ],
      "stateMutability": "view",
      "type": "function"
    },
    {
      "inputs": [
        {
          "internalType": "address",
          "name": "",
          "type": "address"
        },
        {
          "internalType": "address",
          "name": "",
          "type": "address"
        },
        {
          "internalType": "uint256",
          "name": "",
          "type": "uint256"
        },
        {
          "internalType": "bytes",
          "name": "",
          "type": "bytes"
        }
      ],
      "name": "onERC721Received",
      "outputs": [
        {
          "internalType": "bytes4",
          "name": "",
          "type": "bytes4"
        }
      ],
      "stateMutability": "pure",
      "type": "function"
    },
    {
      "inputs": [],
      "name": "owner",
      "outputs": [
        {
          "internalType": "address",
          "name": "",
          "type": "address"
        }
      ],
      "stateMutability": "view",
      "type": "function"
    },
    {
      "inputs": [],
      "name": "ring",
      "outputs": [
        {
          "internalType": "address",
          "name": "",
          "type": "address"
        }
      ],
      "stateMutability": "view",
      "type": "function"
    },
    {
      "inputs": [
        {
          "internalType": "address",
          "name": "a",
          "type": "address"
        }
      ],
      "name": "transferOwnership",
      "outputs": [],
      "stateMutability": "nonpayable",
      "type": "function"
    }
  ],
  "bytecode": "0x60806040523480156200001157600080fd5b506040516200259a3803806200259a833981810160405281019062000037919062000129565b336000806101000a81548173ffffffffffffffffffffffffffffffffffffffff021916908373ffffffffffffffffffffffffffffffffffffffff16021790555080600160006101000a81548173ffffffffffffffffffffffffffffffffffffffff021916908373ffffffffffffffffffffffffffffffffffffffff160217905550506200015b565b600080fd5b600073ffffffffffffffffffffffffffffffffffffffff82169050919050565b6000620000f182620000c4565b9050919050565b6200010381620000e4565b81146200010f57600080fd5b50565b6000815190506200012381620000f8565b92915050565b600060208284031215620001425762000141620000bf565b5b6000620001528482850162000112565b91505092915050565b61242f806200016b6000396000f3fe608060405234801561001057600080fd5b50600436106100b45760003560e01c80638360c185116100715780638360c185146101b8578063859b97fe146101d65780638da5cb5b146101f2578063bf333f2c14610210578063d1a6add61461022e578063f2fde38b1461024a576100b4565b80630f41ba4b146100b9578063150b7a02146100d55780631edbc5be14610105578063249d39e91461013a5780632fb3905a14610158578063762a66a214610188575b600080fd5b6100d360048036038101906100ce91906118a3565b610266565b005b6100ef60048036038101906100ea919061195b565b61077d565b6040516100fc9190611a1e565b60405180910390f35b61011f600480360381019061011a9190611a6f565b610792565b60405161013196959493929190611af9565b60405180910390f35b61014261086e565b60405161014f9190611b69565b60405180910390f35b610172600480360381019061016d9190611b84565b610874565b60405161017f9190611b69565b60405180910390f35b6101a2600480360381019061019d9190611b84565b610a81565b6040516101af9190611c6c565b60405180910390f35b6101c0610c5c565b6040516101cd9190611c87565b60405180910390f35b6101f060048036038101906101eb9190611b84565b610c82565b005b6101fa61106a565b6040516102079190611c87565b60405180910390f35b61021861108e565b6040516102259190611b69565b60405180910390f35b61024860048036038101906102439190611cfa565b611094565b005b610264600480360381019061025f9190611d75565b6115b4565b005b600360009054906101000a900460ff16156102b6576040517f08c379a00000000000000000000000000000000000000000000000000000000081526004016102ad90611dff565b60405180910390fd5b6001600360006101000a81548160ff0219169083151502179055506000600260006102e18686611738565b8152602001908152602001600020905060008160030160089054906101000a900467ffffffffffffffff1667ffffffffffffffff1611610356576040517f08c379a000000000000000000000000000000000000000000000000000000000815260040161034d90611e6b565b60405180910390fd5b60006103628585610874565b9050808310156103a7576040517f08c379a000000000000000000000000000000000000000000000000000000000815260040161039e90611ed7565b60405180910390fd5b6000612710610190836103ba9190611f26565b6103c49190611f97565b90506000600160009054906101000a900473ffffffffffffffffffffffffffffffffffffffff1690508073ffffffffffffffffffffffffffffffffffffffff166323b872dd338660010160009054906101000a900473ffffffffffffffffffffffffffffffffffffffff16858761043b9190611fc8565b6040518463ffffffff1660e01b815260040161045993929190611ffc565b6020604051808303816000875af1158015610478573d6000803e3d6000fd5b505050506040513d601f19601f8201168201806040525081019061049c919061206b565b6104db576040517f08c379a00000000000000000000000000000000000000000000000000000000081526004016104d2906120e4565b60405180910390fd5b6000821115610586578073ffffffffffffffffffffffffffffffffffffffff166323b872dd3360008054906101000a900473ffffffffffffffffffffffffffffffffffffffff16856040518463ffffffff1660e01b815260040161054193929190611ffc565b6020604051808303816000875af1158015610560573d6000803e3d6000fd5b505050506040513d601f19601f82011682018060405250810190610584919061206b565b505b60008460000160009054906101000a900473ffffffffffffffffffffffffffffffffffffffff169050600260006105bd8a8a611738565b8152602001908152602001600020600080820160006101000a81549073ffffffffffffffffffffffffffffffffffffffff02191690556001820160006101000a81549073ffffffffffffffffffffffffffffffffffffffff02191690556002820160006101000a8154906fffffffffffffffffffffffffffffffff02191690556002820160106101000a8154906fffffffffffffffffffffffffffffffff02191690556003820160006101000a81549067ffffffffffffffff02191690556003820160086101000a81549067ffffffffffffffff021916905550508073ffffffffffffffffffffffffffffffffffffffff166323b872dd30338a6040518463ffffffff1660e01b81526004016106d593929190611ffc565b600060405180830381600087803b1580156106ef57600080fd5b505af1158015610703573d6000803e3d6000fd5b50505050868873ffffffffffffffffffffffffffffffffffffffff167f57897076b3b4da1e5b44291d2afa77158945c16a6bb3033421ebd9331d0c6fe43387604051610750929190612104565b60405180910390a350505050506000600360006101000a81548160ff021916908315150217905550505050565b600063150b7a0260e01b905095945050505050565b60026020528060005260406000206000915090508060000160009054906101000a900473ffffffffffffffffffffffffffffffffffffffff16908060010160009054906101000a900473ffffffffffffffffffffffffffffffffffffffff16908060020160009054906101000a90046fffffffffffffffffffffffffffffffff16908060020160109054906101000a90046fffffffffffffffffffffffffffffffff16908060030160009054906101000a900467ffffffffffffffff16908060030160089054906101000a900467ffffffffffffffff16905086565b61271081565b600080600260006108858686611738565b8152602001908152602001600020905060008160030160089054906101000a900467ffffffffffffffff1667ffffffffffffffff16116108fa576040517f08c379a00000000000000000000000000000000000000000000000000000000081526004016108f190611e6b565b60405180910390fd5b60008160030160089054906101000a900467ffffffffffffffff1667ffffffffffffffff164261092a9190611fc8565b90508160030160009054906101000a900467ffffffffffffffff1667ffffffffffffffff168110610991578160020160109054906101000a90046fffffffffffffffffffffffffffffffff166fffffffffffffffffffffffffffffffff1692505050610a7b565b8160030160009054906101000a900467ffffffffffffffff1667ffffffffffffffff16818360020160109054906101000a90046fffffffffffffffffffffffffffffffff166fffffffffffffffffffffffffffffffff168460020160009054906101000a90046fffffffffffffffffffffffffffffffff166fffffffffffffffffffffffffffffffff16610a259190611fc8565b610a2f9190611f26565b610a399190611f97565b8260020160009054906101000a90046fffffffffffffffffffffffffffffffff166fffffffffffffffffffffffffffffffff16610a769190611fc8565b925050505b92915050565b610a8961176b565b60026000610a978585611738565b81526020019081526020016000206040518060c00160405290816000820160009054906101000a900473ffffffffffffffffffffffffffffffffffffffff1673ffffffffffffffffffffffffffffffffffffffff1673ffffffffffffffffffffffffffffffffffffffff1681526020016001820160009054906101000a900473ffffffffffffffffffffffffffffffffffffffff1673ffffffffffffffffffffffffffffffffffffffff1673ffffffffffffffffffffffffffffffffffffffff1681526020016002820160009054906101000a90046fffffffffffffffffffffffffffffffff166fffffffffffffffffffffffffffffffff166fffffffffffffffffffffffffffffffff1681526020016002820160109054906101000a90046fffffffffffffffffffffffffffffffff166fffffffffffffffffffffffffffffffff166fffffffffffffffffffffffffffffffff1681526020016003820160009054906101000a900467ffffffffffffffff1667ffffffffffffffff1667ffffffffffffffff1681526020016003820160089054906101000a900467ffffffffffffffff1667ffffffffffffffff1667ffffffffffffffff1681525050905092915050565b600160009054906101000a900473ffffffffffffffffffffffffffffffffffffffff1681565b600360009054906101000a900460ff1615610cd2576040517f08c379a0000000000000000000000000000000000000000000000000000000008152600401610cc990611dff565b60405180910390fd5b6001600360006101000a81548160ff021916908315150217905550600060026000610cfd8585611738565b8152602001908152602001600020905060008160030160089054906101000a900467ffffffffffffffff1667ffffffffffffffff1611610d72576040517f08c379a0000000000000000000000000000000000000000000000000000000008152600401610d6990611e6b565b60405180910390fd5b3373ffffffffffffffffffffffffffffffffffffffff168160010160009054906101000a900473ffffffffffffffffffffffffffffffffffffffff1673ffffffffffffffffffffffffffffffffffffffff161480610e1b575060008054906101000a900473ffffffffffffffffffffffffffffffffffffffff1673ffffffffffffffffffffffffffffffffffffffff163373ffffffffffffffffffffffffffffffffffffffff16145b610e5a576040517f08c379a0000000000000000000000000000000000000000000000000000000008152600401610e5190612179565b60405180910390fd5b60008160010160009054906101000a900473ffffffffffffffffffffffffffffffffffffffff16905060008260000160009054906101000a900473ffffffffffffffffffffffffffffffffffffffff16905060026000610eba8787611738565b8152602001908152602001600020600080820160006101000a81549073ffffffffffffffffffffffffffffffffffffffff02191690556001820160006101000a81549073ffffffffffffffffffffffffffffffffffffffff02191690556002820160006101000a8154906fffffffffffffffffffffffffffffffff02191690556002820160106101000a8154906fffffffffffffffffffffffffffffffff02191690556003820160006101000a81549067ffffffffffffffff02191690556003820160086101000a81549067ffffffffffffffff021916905550508073ffffffffffffffffffffffffffffffffffffffff166323b872dd3084876040518463ffffffff1660e01b8152600401610fd293929190611ffc565b600060405180830381600087803b158015610fec57600080fd5b505af1158015611000573d6000803e3d6000fd5b50505050838573ffffffffffffffffffffffffffffffffffffffff167f018b64b6242d32aa550e95d78985b938d71af5b3f10827b0683f55da1639304860405160405180910390a35050506000600360006101000a81548160ff0219169083151502179055505050565b60008054906101000a900473ffffffffffffffffffffffffffffffffffffffff1681565b61019081565b600360009054906101000a900460ff16156110e4576040517f08c379a00000000000000000000000000000000000000000000000000000000081526004016110db90611dff565b60405180910390fd5b6001600360006101000a81548160ff0219169083151502179055503373ffffffffffffffffffffffffffffffffffffffff168573ffffffffffffffffffffffffffffffffffffffff16636352211e866040518263ffffffff1660e01b815260040161114f9190611b69565b602060405180830381865afa15801561116c573d6000803e3d6000fd5b505050506040513d601f19601f8201168201806040525081019061119091906121ae565b73ffffffffffffffffffffffffffffffffffffffff16146111e6576040517f08c379a00000000000000000000000000000000000000000000000000000000081526004016111dd90612227565b60405180910390fd5b603c8167ffffffffffffffff161015801561120e575062278d008167ffffffffffffffff1611155b61124d576040517f08c379a000000000000000000000000000000000000000000000000000000000815260040161124490612293565b60405180910390fd5b816fffffffffffffffffffffffffffffffff16836fffffffffffffffffffffffffffffffff1610156112b4576040517f08c379a00000000000000000000000000000000000000000000000000000000081526004016112ab906122ff565b60405180910390fd5b8473ffffffffffffffffffffffffffffffffffffffff166323b872dd3330876040518463ffffffff1660e01b81526004016112f193929190611ffc565b600060405180830381600087803b15801561130b57600080fd5b505af115801561131f573d6000803e3d6000fd5b505050506040518060c001604052808673ffffffffffffffffffffffffffffffffffffffff1681526020013373ffffffffffffffffffffffffffffffffffffffff168152602001846fffffffffffffffffffffffffffffffff168152602001836fffffffffffffffffffffffffffffffff1681526020018267ffffffffffffffff1681526020014267ffffffffffffffff16815250600260006113c28888611738565b815260200190815260200160002060008201518160000160006101000a81548173ffffffffffffffffffffffffffffffffffffffff021916908373ffffffffffffffffffffffffffffffffffffffff16021790555060208201518160010160006101000a81548173ffffffffffffffffffffffffffffffffffffffff021916908373ffffffffffffffffffffffffffffffffffffffff16021790555060408201518160020160006101000a8154816fffffffffffffffffffffffffffffffff02191690836fffffffffffffffffffffffffffffffff16021790555060608201518160020160106101000a8154816fffffffffffffffffffffffffffffffff02191690836fffffffffffffffffffffffffffffffff16021790555060808201518160030160006101000a81548167ffffffffffffffff021916908367ffffffffffffffff16021790555060a08201518160030160086101000a81548167ffffffffffffffff021916908367ffffffffffffffff160217905550905050838573ffffffffffffffffffffffffffffffffffffffff167f8c4ccdae66f6bd029aa7def8df304854941c4067ad2f54516a5418fcee42f9513386868660405161158a949392919061231f565b60405180910390a36000600360006101000a81548160ff0219169083151502179055505050505050565b60008054906101000a900473ffffffffffffffffffffffffffffffffffffffff1673ffffffffffffffffffffffffffffffffffffffff163373ffffffffffffffffffffffffffffffffffffffff1614611642576040517f08c379a000000000000000000000000000000000000000000000000000000000815260040161163990612227565b60405180910390fd5b600073ffffffffffffffffffffffffffffffffffffffff168173ffffffffffffffffffffffffffffffffffffffff160361167b57600080fd5b8073ffffffffffffffffffffffffffffffffffffffff1660008054906101000a900473ffffffffffffffffffffffffffffffffffffffff1673ffffffffffffffffffffffffffffffffffffffff167f8be0079c531659141344cd1fd0a4f28419497f9722a3daafe3b4186f6b6457e060405160405180910390a3806000806101000a81548173ffffffffffffffffffffffffffffffffffffffff021916908373ffffffffffffffffffffffffffffffffffffffff16021790555050565b6000828260405160200161174d9291906123cd565b60405160208183030381529060405280519060200120905092915050565b6040518060c00160405280600073ffffffffffffffffffffffffffffffffffffffff168152602001600073ffffffffffffffffffffffffffffffffffffffff16815260200160006fffffffffffffffffffffffffffffffff16815260200160006fffffffffffffffffffffffffffffffff168152602001600067ffffffffffffffff168152602001600067ffffffffffffffff1681525090565b600080fd5b600080fd5b600073ffffffffffffffffffffffffffffffffffffffff82169050919050565b600061183a8261180f565b9050919050565b61184a8161182f565b811461185557600080fd5b50565b60008135905061186781611841565b92915050565b6000819050919050565b6118808161186d565b811461188b57600080fd5b50565b60008135905061189d81611877565b92915050565b6000806000606084860312156118bc576118bb611805565b5b60006118ca86828701611858565b93505060206118db8682870161188e565b92505060406118ec8682870161188e565b9150509250925092565b600080fd5b600080fd5b600080fd5b60008083601f84011261191b5761191a6118f6565b5b8235905067ffffffffffffffff811115611938576119376118fb565b5b60208301915083600182028301111561195457611953611900565b5b9250929050565b60008060008060006080868803121561197757611976611805565b5b600061198588828901611858565b955050602061199688828901611858565b94505060406119a78882890161188e565b935050606086013567ffffffffffffffff8111156119c8576119c761180a565b5b6119d488828901611905565b92509250509295509295909350565b60007fffffffff0000000000000000000000000000000000000000000000000000000082169050919050565b611a18816119e3565b82525050565b6000602082019050611a336000830184611a0f565b92915050565b6000819050919050565b611a4c81611a39565b8114611a5757600080fd5b50565b600081359050611a6981611a43565b92915050565b600060208284031215611a8557611a84611805565b5b6000611a9384828501611a5a565b91505092915050565b611aa58161182f565b82525050565b60006fffffffffffffffffffffffffffffffff82169050919050565b611ad081611aab565b82525050565b600067ffffffffffffffff82169050919050565b611af381611ad6565b82525050565b600060c082019050611b0e6000830189611a9c565b611b1b6020830188611a9c565b611b286040830187611ac7565b611b356060830186611ac7565b611b426080830185611aea565b611b4f60a0830184611aea565b979650505050505050565b611b638161186d565b82525050565b6000602082019050611b7e6000830184611b5a565b92915050565b60008060408385031215611b9b57611b9a611805565b5b6000611ba985828601611858565b9250506020611bba8582860161188e565b9150509250929050565b611bcd8161182f565b82525050565b611bdc81611aab565b82525050565b611beb81611ad6565b82525050565b60c082016000820151611c076000850182611bc4565b506020820151611c1a6020850182611bc4565b506040820151611c2d6040850182611bd3565b506060820151611c406060850182611bd3565b506080820151611c536080850182611be2565b5060a0820151611c6660a0850182611be2565b50505050565b600060c082019050611c816000830184611bf1565b92915050565b6000602082019050611c9c6000830184611a9c565b92915050565b611cab81611aab565b8114611cb657600080fd5b50565b600081359050611cc881611ca2565b92915050565b611cd781611ad6565b8114611ce257600080fd5b50565b600081359050611cf481611cce565b92915050565b600080600080600060a08688031215611d1657611d15611805565b5b6000611d2488828901611858565b9550506020611d358882890161188e565b9450506040611d4688828901611cb9565b9350506060611d5788828901611cb9565b9250506080611d6888828901611ce5565b9150509295509295909350565b600060208284031215611d8b57611d8a611805565b5b6000611d9984828501611858565b91505092915050565b600082825260208201905092915050565b7f7265656e7472616e740000000000000000000000000000000000000000000000600082015250565b6000611de9600983611da2565b9150611df482611db3565b602082019050919050565b60006020820190508181036000830152611e1881611ddc565b9050919050565b7f6e6f2061756374696f6e00000000000000000000000000000000000000000000600082015250565b6000611e55600a83611da2565b9150611e6082611e1f565b602082019050919050565b60006020820190508181036000830152611e8481611e48565b9050919050565b7f746f6f206c6f7700000000000000000000000000000000000000000000000000600082015250565b6000611ec1600783611da2565b9150611ecc82611e8b565b602082019050919050565b60006020820190508181036000830152611ef081611eb4565b9050919050565b7f4e487b7100000000000000000000000000000000000000000000000000000000600052601160045260246000fd5b6000611f318261186d565b9150611f3c8361186d565b9250828202611f4a8161186d565b91508282048414831517611f6157611f60611ef7565b5b5092915050565b7f4e487b7100000000000000000000000000000000000000000000000000000000600052601260045260246000fd5b6000611fa28261186d565b9150611fad8361186d565b925082611fbd57611fbc611f68565b5b828204905092915050565b6000611fd38261186d565b9150611fde8361186d565b9250828203905081811115611ff657611ff5611ef7565b5b92915050565b60006060820190506120116000830186611a9c565b61201e6020830185611a9c565b61202b6040830184611b5a565b949350505050565b60008115159050919050565b61204881612033565b811461205357600080fd5b50565b6000815190506120658161203f565b92915050565b60006020828403121561208157612080611805565b5b600061208f84828501612056565b91505092915050565b7f72696e67206661696c0000000000000000000000000000000000000000000000600082015250565b60006120ce600983611da2565b91506120d982612098565b602082019050919050565b600060208201905081810360008301526120fd816120c1565b9050919050565b60006040820190506121196000830185611a9c565b6121266020830184611b5a565b9392505050565b7f2161757468000000000000000000000000000000000000000000000000000000600082015250565b6000612163600583611da2565b915061216e8261212d565b602082019050919050565b6000602082019050818103600083015261219281612156565b9050919050565b6000815190506121a881611841565b92915050565b6000602082840312156121c4576121c3611805565b5b60006121d284828501612199565b91505092915050565b7f216f776e65720000000000000000000000000000000000000000000000000000600082015250565b6000612211600683611da2565b915061221c826121db565b602082019050919050565b6000602082019050818103600083015261224081612204565b9050919050565b7f6261642064757200000000000000000000000000000000000000000000000000600082015250565b600061227d600783611da2565b915061228882612247565b602082019050919050565b600060208201905081810360008301526122ac81612270565b9050919050565b7f73703c6570000000000000000000000000000000000000000000000000000000600082015250565b60006122e9600583611da2565b91506122f4826122b3565b602082019050919050565b60006020820190508181036000830152612318816122dc565b9050919050565b60006080820190506123346000830187611a9c565b6123416020830186611ac7565b61234e6040830185611ac7565b61235b6060830184611aea565b95945050505050565b60008160601b9050919050565b600061237c82612364565b9050919050565b600061238e82612371565b9050919050565b6123a66123a18261182f565b612383565b82525050565b6000819050919050565b6123c76123c28261186d565b6123ac565b82525050565b60006123d98285612395565b6014820191506123e982846123b6565b602082019150819050939250505056fea2646970667358221220e48b27936c2e74aef41d29b368b07e25641cae3b55d191e61d43bf8b07f7556164736f6c63430008140033",
  "linkReferences": {},
  "deployedLinkReferences": {}
}