{
  "_format": "hh-sol-artifact-1",
  "contractName": "ReferralSystem",
  "sourceName": "contracts/EvoLandV2.sol",
  "abi": [
    {
      "anonymous": false,
      "inputs": [
        {
          "indexed": true,
          "internalType": "address",
          "name": "user",
          "type": "address"
        },
        {
          "indexed": true,
          "internalType": "address",
          "name": "ref",
          "type": "address"
        }
      ],
      "name": "Bound",
      "type": "event"
    },
    {
      "anonymous": false,
      "inputs": [
        {
          "indexed": true,
          "internalType": "address",
          "name": "prev",
          "type": "address"
        },
        {
          "indexed": true,
          "internalType": "address",
          "name": "next",
          "type": "address"
        }
      ],
      "name": "OwnershipTransferred",
      "type": "event"
    },
    {
      "inputs": [
        {
          "internalType": "address",
          "name": "ref",
          "type": "address"
        }
      ],
      "name": "bind",
      "outputs": [],
      "stateMutability": "nonpayable",
      "type": "function"
    },
    {
      "inputs": [
        {
          "internalType": "address",
          "name": "",
          "type": "address"
        }
      ],
      "name": "bound",
      "outputs": [
        {
          "internalType": "bool",
          "name": "",
          "type": "bool"
        }
      ],
      "stateMutability": "view",
      "type": "function"
    },
    {
      "inputs": [
        {
          "internalType": "address",
          "name": "user",
          "type": "address"
        },
        {
          "internalType": "address",
          "name": "token",
          "type": "address"
        },
        {
          "internalType": "uint256",
          "name": "amount",
          "type": "uint256"
        }
      ],
      "name": "distributeReward",
      "outputs": [],
      "stateMutability": "nonpayable",
      "type": "function"
    },
    {
      "inputs": [],
      "name": "getRates",
      "outputs": [
        {
          "internalType": "uint256[5]",
          "name": "",
          "type": "uint256[5]"
        }
      ],
      "stateMutability": "view",
      "type": "function"
    },
    {
      "inputs": [],
      "name": "owner",
      "outputs": [
        {
          "internalType": "address",
          "name": "",
          "type": "address"
        }
      ],
      "stateMutability": "view",
      "type": "function"
    },
    {
      "inputs": [
        {
          "internalType": "uint256",
          "name": "",
          "type": "uint256"
        }
      ],
      "name": "rates",
      "outputs": [
        {
          "internalType": "uint256",
          "name": "",
          "type": "uint256"
        }
      ],
      "stateMutability": "view",
      "type": "function"
    },
    {
      "inputs": [
        {
          "internalType": "address",
          "name": "",
          "type": "address"
        }
      ],
      "name": "referrer",
      "outputs": [
        {
          "internalType": "address",
          "name": "",
          "type": "address"
        }
      ],
      "stateMutability": "view",
      "type": "function"
    },
    {
      "inputs": [
        {
          "internalType": "address",
          "name": "",
          "type": "address"
        },
        {
          "internalType": "address",
          "name": "",
          "type": "address"
        }
      ],
      "name": "totalEarned",
      "outputs": [
        {
          "internalType": "uint256",
          "name": "",
          "type": "uint256"
        }
      ],
      "stateMutability": "view",
      "type": "function"
    },
    {
      "inputs": [
        {
          "internalType": "address",
          "name": "a",
          "type": "address"
        }
      ],
      "name": "transferOwnership",
      "outputs": [],
      "stateMutability": "nonpayable",
      "type": "function"
    }
  ],
  "bytecode": "0x60806040526040518060a001604052806101f461ffff16815260200161012c61ffff16815260200160c861ffff168152602001606461ffff168152602001603261ffff1681525060019060056100569291906100a9565b5034801561006357600080fd5b50336000806101000a81548173ffffffffffffffffffffffffffffffffffffffff021916908373ffffffffffffffffffffffffffffffffffffffff16021790555061010c565b82600581019282156100de579160200282015b828111156100dd578251829061ffff169055916020019190600101906100bc565b5b5090506100eb91906100ef565b5090565b5b808211156101085760008160009055506001016100f0565b5090565b610f858061011b6000396000f3fe608060405234801561001057600080fd5b50600436106100935760003560e01c80639accab55116100665780639accab5514610132578063dd418ae214610150578063e7cea7f414610180578063ea2919421461019c578063f2fde38b146101cc57610093565b80632cf003c2146100985780633e972167146100c857806381bac14f146100f85780638da5cb5b14610114575b600080fd5b6100b260048036038101906100ad91906109f4565b6101e8565b6040516100bf9190610a30565b60405180910390f35b6100e260048036038101906100dd9190610a4b565b61021b565b6040516100ef9190610aa4565b60405180910390f35b610112600480360381019061010d91906109f4565b610240565b005b61011c6104a8565b6040516101299190610a30565b60405180910390f35b61013a6104cc565b6040516101479190610b6a565b60405180910390f35b61016a60048036038101906101659190610bb1565b610517565b6040516101779190610aa4565b60405180910390f35b61019a60048036038101906101959190610bde565b610532565b005b6101b660048036038101906101b191906109f4565b6107cb565b6040516101c39190610c4c565b60405180910390f35b6101e660048036038101906101e191906109f4565b6107eb565b005b60066020528060005260406000206000915054906101000a900473ffffffffffffffffffffffffffffffffffffffff1681565b6008602052816000526040600020602052806000526040600020600091509150505481565b600760003373ffffffffffffffffffffffffffffffffffffffff1673ffffffffffffffffffffffffffffffffffffffff16815260200190815260200160002060009054906101000a900460ff16156102cd576040517f08c379a00000000000000000000000000000000000000000000000000000000081526004016102c490610cc4565b60405180910390fd5b3373ffffffffffffffffffffffffffffffffffffffff168173ffffffffffffffffffffffffffffffffffffffff16141580156103365750600073ffffffffffffffffffffffffffffffffffffffff168173ffffffffffffffffffffffffffffffffffffffff1614155b610375576040517f08c379a000000000000000000000000000000000000000000000000000000000815260040161036c90610d30565b60405180910390fd5b80600660003373ffffffffffffffffffffffffffffffffffffffff1673ffffffffffffffffffffffffffffffffffffffff16815260200190815260200160002060006101000a81548173ffffffffffffffffffffffffffffffffffffffff021916908373ffffffffffffffffffffffffffffffffffffffff1602179055506001600760003373ffffffffffffffffffffffffffffffffffffffff1673ffffffffffffffffffffffffffffffffffffffff16815260200190815260200160002060006101000a81548160ff0219169083151502179055508073ffffffffffffffffffffffffffffffffffffffff163373ffffffffffffffffffffffffffffffffffffffff167f0d128562eaa47ab89086803e64a0f96847c0ed3cc63c26251f29ba1aede09d4e60405160405180910390a350565b60008054906101000a900473ffffffffffffffffffffffffffffffffffffffff1681565b6104d461096f565b600160058060200260405190810160405280929190826005801561050d576020028201915b8154815260200190600101908083116104f9575b5050505050905090565b6001816005811061052757600080fd5b016000915090505481565b6000600660008573ffffffffffffffffffffffffffffffffffffffff1673ffffffffffffffffffffffffffffffffffffffff16815260200190815260200160002060009054906101000a900473ffffffffffffffffffffffffffffffffffffffff169050600073ffffffffffffffffffffffffffffffffffffffff168173ffffffffffffffffffffffffffffffffffffffff16036105d057506107c6565b60005b60058160ff1610156107c357600073ffffffffffffffffffffffffffffffffffffffff168273ffffffffffffffffffffffffffffffffffffffff1603156107c357600061271060018360ff16600581106106305761062f610d50565b5b01548561063d9190610dae565b6106479190610e1f565b9050600081111561074d578473ffffffffffffffffffffffffffffffffffffffff166340c10f1984836040518363ffffffff1660e01b815260040161068d929190610e50565b600060405180830381600087803b1580156106a757600080fd5b505af19250505080156106b8575060015b5080600860008573ffffffffffffffffffffffffffffffffffffffff1673ffffffffffffffffffffffffffffffffffffffff16815260200190815260200160002060008773ffffffffffffffffffffffffffffffffffffffff1673ffffffffffffffffffffffffffffffffffffffff16815260200190815260200160002060008282546107459190610e79565b925050819055505b600660008473ffffffffffffffffffffffffffffffffffffffff1673ffffffffffffffffffffffffffffffffffffffff16815260200190815260200160002060009054906101000a900473ffffffffffffffffffffffffffffffffffffffff1692505080806107bb90610eba565b9150506105d3565b50505b505050565b60076020528060005260406000206000915054906101000a900460ff1681565b60008054906101000a900473ffffffffffffffffffffffffffffffffffffffff1673ffffffffffffffffffffffffffffffffffffffff163373ffffffffffffffffffffffffffffffffffffffff1614610879576040517f08c379a000000000000000000000000000000000000000000000000000000000815260040161087090610f2f565b60405180910390fd5b600073ffffffffffffffffffffffffffffffffffffffff168173ffffffffffffffffffffffffffffffffffffffff16036108b257600080fd5b8073ffffffffffffffffffffffffffffffffffffffff1660008054906101000a900473ffffffffffffffffffffffffffffffffffffffff1673ffffffffffffffffffffffffffffffffffffffff167f8be0079c531659141344cd1fd0a4f28419497f9722a3daafe3b4186f6b6457e060405160405180910390a3806000806101000a81548173ffffffffffffffffffffffffffffffffffffffff021916908373ffffffffffffffffffffffffffffffffffffffff16021790555050565b6040518060a00160405280600590602082028036833780820191505090505090565b600080fd5b600073ffffffffffffffffffffffffffffffffffffffff82169050919050565b60006109c182610996565b9050919050565b6109d1816109b6565b81146109dc57600080fd5b50565b6000813590506109ee816109c8565b92915050565b600060208284031215610a0a57610a09610991565b5b6000610a18848285016109df565b91505092915050565b610a2a816109b6565b82525050565b6000602082019050610a456000830184610a21565b92915050565b60008060408385031215610a6257610a61610991565b5b6000610a70858286016109df565b9250506020610a81858286016109df565b9150509250929050565b6000819050919050565b610a9e81610a8b565b82525050565b6000602082019050610ab96000830184610a95565b92915050565b600060059050919050565b600081905092915050565b6000819050919050565b610ae881610a8b565b82525050565b6000610afa8383610adf565b60208301905092915050565b6000602082019050919050565b610b1c81610abf565b610b268184610aca565b9250610b3182610ad5565b8060005b83811015610b62578151610b498782610aee565b9650610b5483610b06565b925050600181019050610b35565b505050505050565b600060a082019050610b7f6000830184610b13565b92915050565b610b8e81610a8b565b8114610b9957600080fd5b50565b600081359050610bab81610b85565b92915050565b600060208284031215610bc757610bc6610991565b5b6000610bd584828501610b9c565b91505092915050565b600080600060608486031215610bf757610bf6610991565b5b6000610c05868287016109df565b9350506020610c16868287016109df565b9250506040610c2786828701610b9c565b9150509250925092565b60008115159050919050565b610c4681610c31565b82525050565b6000602082019050610c616000830184610c3d565b92915050565b600082825260208201905092915050565b7f616c726561647920626f756e6400000000000000000000000000000000000000600082015250565b6000610cae600d83610c67565b9150610cb982610c78565b602082019050919050565b60006020820190508181036000830152610cdd81610ca1565b9050919050565b7f6261642072656600000000000000000000000000000000000000000000000000600082015250565b6000610d1a600783610c67565b9150610d2582610ce4565b602082019050919050565b60006020820190508181036000830152610d4981610d0d565b9050919050565b7f4e487b7100000000000000000000000000000000000000000000000000000000600052603260045260246000fd5b7f4e487b7100000000000000000000000000000000000000000000000000000000600052601160045260246000fd5b6000610db982610a8b565b9150610dc483610a8b565b9250828202610dd281610a8b565b91508282048414831517610de957610de8610d7f565b5b5092915050565b7f4e487b7100000000000000000000000000000000000000000000000000000000600052601260045260246000fd5b6000610e2a82610a8b565b9150610e3583610a8b565b925082610e4557610e44610df0565b5b828204905092915050565b6000604082019050610e656000830185610a21565b610e726020830184610a95565b9392505050565b6000610e8482610a8b565b9150610e8f83610a8b565b9250828201905080821115610ea757610ea6610d7f565b5b92915050565b600060ff82169050919050565b6000610ec582610ead565b915060ff8203610ed857610ed7610d7f565b5b600182019050919050565b7f216f776e65720000000000000000000000000000000000000000000000000000600082015250565b6000610f19600683610c67565b9150610f2482610ee3565b602082019050919050565b60006020820190508181036000830152610f4881610f0c565b905091905056fea2646970667358221220aeaa3b8164b1e4ace058203dcc6e794061ea2d0e2ac8dd1e311c07a71f64471c64736f6c63430008140033",
  "linkReferences": {},
  "deployedLinkReferences": {}
}