{
  "_format": "hh-sol-artifact-1",
  "contractName": "LandRental",
  "sourceName": "contracts/LandRental.sol",
  "abi": [
    {
      "inputs": [
        {
          "internalType": "address",
          "name": "_land",
          "type": "address"
        },
        {
          "internalType": "address",
          "name": "_ring",
          "type": "address"
        }
      ],
      "stateMutability": "nonpayable",
      "type": "constructor"
    },
    {
      "anonymous": false,
      "inputs": [
        {
          "indexed": true,
          "internalType": "uint256",
          "name": "landId",
          "type": "uint256"
        },
        {
          "indexed": false,
          "internalType": "address",
          "name": "owner",
          "type": "address"
        },
        {
          "indexed": false,
          "internalType": "uint256",
          "name": "listPrice",
          "type": "uint256"
        }
      ],
      "name": "LandListed",
      "type": "event"
    },
    {
      "anonymous": false,
      "inputs": [
        {
          "indexed": true,
          "internalType": "uint256",
          "name": "landId",
          "type": "uint256"
        },
        {
          "indexed": false,
          "internalType": "address",
          "name": "tenant",
          "type": "address"
        },
        {
          "indexed": false,
          "internalType": "uint256",
          "name": "endTime",
          "type": "uint256"
        },
        {
          "indexed": false,
          "internalType": "uint256",
          "name": "deposit",
          "type": "uint256"
        }
      ],
      "name": "LandRented",
      "type": "event"
    },
    {
      "anonymous": false,
      "inputs": [
        {
          "indexed": true,
          "internalType": "uint256",
          "name": "landId",
          "type": "uint256"
        }
      ],
      "name": "LandUnlisted",
      "type": "event"
    },
    {
      "anonymous": false,
      "inputs": [
        {
          "indexed": true,
          "internalType": "uint256",
          "name": "landId",
          "type": "uint256"
        },
        {
          "indexed": false,
          "internalType": "address",
          "name": "tenant",
          "type": "address"
        },
        {
          "indexed": false,
          "internalType": "bool",
          "name": "expired",
          "type": "bool"
        },
        {
          "indexed": false,
          "internalType": "uint256",
          "name": "depositReturned",
          "type": "uint256"
        }
      ],
      "name": "RentalEnded",
      "type": "event"
    },
    {
      "anonymous": false,
      "inputs": [
        {
          "indexed": true,
          "internalType": "uint256",
          "name": "landId",
          "type": "uint256"
        },
        {
          "indexed": false,
          "internalType": "uint256",
          "name": "totalAmount",
          "type": "uint256"
        },
        {
          "indexed": false,
          "internalType": "uint256",
          "name": "toTenant",
          "type": "uint256"
        },
        {
          "indexed": false,
          "internalType": "uint256",
          "name": "toOwner",
          "type": "uint256"
        },
        {
          "indexed": false,
          "internalType": "uint256",
          "name": "toPlatform",
          "type": "uint256"
        }
      ],
      "name": "RevenueDistributed",
      "type": "event"
    },
    {
      "inputs": [],
      "name": "BPS",
      "outputs": [
        {
          "internalType": "uint256",
          "name": "",
          "type": "uint256"
        }
      ],
      "stateMutability": "view",
      "type": "function"
    },
    {
      "inputs": [],
      "name": "RENTAL_DURATION",
      "outputs": [
        {
          "internalType": "uint256",
          "name": "",
          "type": "uint256"
        }
      ],
      "stateMutability": "view",
      "type": "function"
    },
    {
      "inputs": [],
      "name": "depositAmount",
      "outputs": [
        {
          "internalType": "uint256",
          "name": "",
          "type": "uint256"
        }
      ],
      "stateMutability": "view",
      "type": "function"
    },
    {
      "inputs": [],
      "name": "depositDeduction",
      "outputs": [
        {
          "internalType": "uint256",
          "name": "",
          "type": "uint256"
        }
      ],
      "stateMutability": "view",
      "type": "function"
    },
    {
      "inputs": [
        {
          "internalType": "uint256",
          "name": "landId",
          "type": "uint256"
        },
        {
          "internalType": "address",
          "name": "rewardToken",
          "type": "address"
        },
        {
          "internalType": "uint256",
          "name": "amount",
          "type": "uint256"
        }
      ],
      "name": "distributeRevenue",
      "outputs": [],
      "stateMutability": "nonpayable",
      "type": "function"
    },
    {
      "inputs": [
        {
          "internalType": "uint256",
          "name": "landId",
          "type": "uint256"
        }
      ],
      "name": "endRental",
      "outputs": [],
      "stateMutability": "nonpayable",
      "type": "function"
    },
    {
      "inputs": [
        {
          "internalType": "uint256",
          "name": "landId",
          "type": "uint256"
        }
      ],
      "name": "expireRental",
      "outputs": [],
      "stateMutability": "nonpayable",
      "type": "function"
    },
    {
      "inputs": [
        {
          "internalType": "uint256",
          "name": "offset",
          "type": "uint256"
        },
        {
          "internalType": "uint256",
          "name": "limit",
          "type": "uint256"
        }
      ],
      "name": "getListedLands",
      "outputs": [
        {
          "internalType": "uint256[]",
          "name": "ids",
          "type": "uint256[]"
        },
        {
          "components": [
            {
              "internalType": "address",
              "name": "landOwner",
              "type": "address"
            },
            {
              "internalType": "uint256",
              "name": "listPrice",
              "type": "uint256"
            },
            {
              "internalType": "bool",
              "name": "active",
              "type": "bool"
            }
          ],
          "internalType": "struct LandRental.RentalListing[]",
          "name": "info",
          "type": "tuple[]"
        }
      ],
      "stateMutability": "view",
      "type": "function"
    },
    {
      "inputs": [
        {
          "internalType": "uint256",
          "name": "landId",
          "type": "uint256"
        }
      ],
      "name": "getRental",
      "outputs": [
        {
          "components": [
            {
              "internalType": "address",
              "name": "tenant",
              "type": "address"
            },
            {
              "internalType": "address",
              "name": "landOwner",
              "type": "address"
            },
            {
              "internalType": "uint256",
              "name": "startTime",
              "type": "uint256"
            },
            {
              "internalType": "uint256",
              "name": "endTime",
              "type": "uint256"
            },
            {
              "internalType": "uint256",
              "name": "deposit",
              "type": "uint256"
            }
          ],
          "internalType": "struct LandRental.ActiveRental",
          "name": "",
          "type": "tuple"
        }
      ],
      "stateMutability": "view",
      "type": "function"
    },
    {
      "inputs": [
        {
          "internalType": "uint256",
          "name": "",
          "type": "uint256"
        }
      ],
      "name": "isListed",
      "outputs": [
        {
          "internalType": "bool",
          "name": "",
          "type": "bool"
        }
      ],
      "stateMutability": "view",
      "type": "function"
    },
    {
      "inputs": [],
      "name": "land",
      "outputs": [
        {
          "internalType": "contract ILandRental",
          "name": "",
          "type": "address"
        }
      ],
      "stateMutability": "view",
      "type": "function"
    },
    {
      "inputs": [
        {
          "internalType": "uint256",
          "name": "landId",
          "type": "uint256"
        },
        {
          "internalType": "uint256",
          "name": "listPrice",
          "type": "uint256"
        }
      ],
      "name": "listForRent",
      "outputs": [],
      "stateMutability": "nonpayable",
      "type": "function"
    },
    {
      "inputs": [
        {
          "internalType": "uint256",
          "name": "",
          "type": "uint256"
        }
      ],
      "name": "listedLands",
      "outputs": [
        {
          "internalType": "uint256",
          "name": "",
          "type": "uint256"
        }
      ],
      "stateMutability": "view",
      "type": "function"
    },
    {
      "inputs": [
        {
          "internalType": "uint256",
          "name": "",
          "type": "uint256"
        }
      ],
      "name": "listings",
      "outputs": [
        {
          "internalType": "address",
          "name": "landOwner",
          "type": "address"
        },
        {
          "internalType": "uint256",
          "name": "listPrice",
          "type": "uint256"
        },
        {
          "internalType": "bool",
          "name": "active",
          "type": "bool"
        }
      ],
      "stateMutability": "view",
      "type": "function"
    },
    {
      "inputs": [],
      "name": "owner",
      "outputs": [
        {
          "internalType": "address",
          "name": "",
          "type": "address"
        }
      ],
      "stateMutability": "view",
      "type": "function"
    },
    {
      "inputs": [],
      "name": "ownerShareBps",
      "outputs": [
        {
          "internalType": "uint256",
          "name": "",
          "type": "uint256"
        }
      ],
      "stateMutability": "view",
      "type": "function"
    },
    {
      "inputs": [],
      "name": "platformFeeBps",
      "outputs": [
        {
          "internalType": "uint256",
          "name": "",
          "type": "uint256"
        }
      ],
      "stateMutability": "view",
      "type": "function"
    },
    {
      "inputs": [
        {
          "internalType": "uint256",
          "name": "landId",
          "type": "uint256"
        }
      ],
      "name": "rent",
      "outputs": [],
      "stateMutability": "nonpayable",
      "type": "function"
    },
    {
      "inputs": [
        {
          "internalType": "uint256",
          "name": "",
          "type": "uint256"
        }
      ],
      "name": "rentals",
      "outputs": [
        {
          "internalType": "address",
          "name": "tenant",
          "type": "address"
        },
        {
          "internalType": "address",
          "name": "landOwner",
          "type": "address"
        },
        {
          "internalType": "uint256",
          "name": "startTime",
          "type": "uint256"
        },
        {
          "internalType": "uint256",
          "name": "endTime",
          "type": "uint256"
        },
        {
          "internalType": "uint256",
          "name": "deposit",
          "type": "uint256"
        }
      ],
      "stateMutability": "view",
      "type": "function"
    },
    {
      "inputs": [],
      "name": "ring",
      "outputs": [
        {
          "internalType": "contract IERC20Rental",
          "name": "",
          "type": "address"
        }
      ],
      "stateMutability": "view",
      "type": "function"
    },
    {
      "inputs": [
        {
          "internalType": "uint256",
          "name": "amount",
          "type": "uint256"
        },
        {
          "internalType": "uint256",
          "name": "deduction",
          "type": "uint256"
        }
      ],
      "name": "setDeposit",
      "outputs": [],
      "stateMutability": "nonpayable",
      "type": "function"
    },
    {
      "inputs": [
        {
          "internalType": "uint256",
          "name": "bps",
          "type": "uint256"
        }
      ],
      "name": "setOwnerShare",
      "outputs": [],
      "stateMutability": "nonpayable",
      "type": "function"
    },
    {
      "inputs": [
        {
          "internalType": "uint256",
          "name": "bps",
          "type": "uint256"
        }
      ],
      "name": "setPlatformFee",
      "outputs": [],
      "stateMutability": "nonpayable",
      "type": "function"
    },
    {
      "inputs": [
        {
          "internalType": "uint256",
          "name": "landId",
          "type": "uint256"
        }
      ],
      "name": "timeRemaining",
      "outputs": [
        {
          "internalType": "uint256",
          "name": "",
          "type": "uint256"
        }
      ],
      "stateMutability": "view",
      "type": "function"
    },
    {
      "inputs": [
        {
          "internalType": "address",
          "name": "a",
          "type": "address"
        }
      ],
      "name": "transferOwnership",
      "outputs": [],
      "stateMutability": "nonpayable",
      "type": "function"
    },
    {
      "inputs": [
        {
          "internalType": "uint256",
          "name": "landId",
          "type": "uint256"
        }
      ],
      "name": "unlist",
      "outputs": [],
      "stateMutability": "nonpayable",
      "type": "function"
    }
  ],
  "bytecode": "0x60806040526802b5e3af16b1880000600355670de0b6b3a76400006004556101f4600555610bb86006553480156200003657600080fd5b50604051620035ff380380620035ff83398181016040528101906200005c919062000190565b336000806101000a81548173ffffffffffffffffffffffffffffffffffffffff021916908373ffffffffffffffffffffffffffffffffffffffff16021790555081600160006101000a81548173ffffffffffffffffffffffffffffffffffffffff021916908373ffffffffffffffffffffffffffffffffffffffff16021790555080600260006101000a81548173ffffffffffffffffffffffffffffffffffffffff021916908373ffffffffffffffffffffffffffffffffffffffff1602179055505050620001d7565b600080fd5b600073ffffffffffffffffffffffffffffffffffffffff82169050919050565b600062000158826200012b565b9050919050565b6200016a816200014b565b81146200017657600080fd5b50565b6000815190506200018a816200015f565b92915050565b60008060408385031215620001aa57620001a962000126565b5b6000620001ba8582860162000179565b9250506020620001cd8582860162000179565b9150509250929050565b61341880620001e76000396000f3fe608060405234801561001057600080fd5b506004361061018e5760003560e01c80638da5cb5b116100de578063de74e57b11610097578063f2fde38b11610071578063f2fde38b1461048c578063f3fc066f146104a8578063f430950a146104c4578063fcce4883146104e05761018e565b8063de74e57b1461040e578063ea3d902014610440578063ef8d5259146104705761018e565b80638da5cb5b1461033757806397491d6f14610355578063a4776fb214610371578063af94a1d1146103a2578063bf5a4dd3146103d6578063c71e3dfd146103f25761018e565b8063419759f51161014b578063690915e411610125578063690915e4146102c35780637456be7d146102df5780638360c185146102fb5780638c980129146103195761018e565b8063419759f51461025757806358743abc14610275578063652bd29e146102935761018e565b806302ceb27314610193578063073012e4146101c357806312e8e2c3146101e157806322dcd13e146101fd578063249d39e91461021b57806333022a9814610239575b600080fd5b6101ad60048036038101906101a8919061247e565b610510565b6040516101ba91906124ba565b60405180910390f35b6101cb610534565b6040516101d891906124ba565b60405180910390f35b6101fb60048036038101906101f6919061247e565b61053a565b005b610205610617565b60405161021291906124ba565b60405180910390f35b61022361061d565b60405161023091906124ba565b60405180910390f35b610241610623565b60405161024e91906124ba565b60405180910390f35b61025f610629565b60405161026c91906124ba565b60405180910390f35b61027d61062f565b60405161028a91906124ba565b60405180910390f35b6102ad60048036038101906102a8919061247e565b610636565b6040516102ba919061258d565b60405180910390f35b6102dd60048036038101906102d8919061247e565b61072d565b005b6102f960048036038101906102f4919061247e565b61080a565b005b610303610e37565b6040516103109190612607565b60405180910390f35b610321610e5d565b60405161032e9190612643565b60405180910390f35b61033f610e83565b60405161034c919061266d565b60405180910390f35b61036f600480360381019061036a919061247e565b610ea7565b005b61038b60048036038101906103869190612688565b610fe5565b604051610399929190612883565b60405180910390f35b6103bc60048036038101906103b7919061247e565b6112c0565b6040516103cd9594939291906128ba565b60405180910390f35b6103f060048036038101906103eb919061247e565b611336565b005b61040c6004803603810190610407919061247e565b611658565b005b6104286004803603810190610423919061247e565b611792565b6040516104379392919061291c565b60405180910390f35b61045a6004803603810190610455919061247e565b6117e9565b60405161046791906124ba565b60405180910390f35b61048a60048036038101906104859190612688565b611840565b005b6104a660048036038101906104a1919061297f565b6118e0565b005b6104c260048036038101906104bd9190612688565b6119ea565b005b6104de60048036038101906104d991906129ac565b611da5565b005b6104fa60048036038101906104f5919061247e565b612069565b60405161050791906129ff565b60405180910390f35b6009818154811061052057600080fd5b906000526020600020016000915090505481565b60045481565b60008054906101000a900473ffffffffffffffffffffffffffffffffffffffff1673ffffffffffffffffffffffffffffffffffffffff163373ffffffffffffffffffffffffffffffffffffffff16146105c8576040517f08c379a00000000000000000000000000000000000000000000000000000000081526004016105bf90612a77565b60405180910390fd5b6103e881111561060d576040517f08c379a000000000000000000000000000000000000000000000000000000000815260040161060490612ae3565b60405180910390fd5b8060058190555050565b60055481565b61271081565b60065481565b60035481565b6276a70081565b61063e6123af565b600860008381526020019081526020016000206040518060a00160405290816000820160009054906101000a900473ffffffffffffffffffffffffffffffffffffffff1673ffffffffffffffffffffffffffffffffffffffff1673ffffffffffffffffffffffffffffffffffffffff1681526020016001820160009054906101000a900473ffffffffffffffffffffffffffffffffffffffff1673ffffffffffffffffffffffffffffffffffffffff1673ffffffffffffffffffffffffffffffffffffffff16815260200160028201548152602001600382015481526020016004820154815250509050919050565b60008054906101000a900473ffffffffffffffffffffffffffffffffffffffff1673ffffffffffffffffffffffffffffffffffffffff163373ffffffffffffffffffffffffffffffffffffffff16146107bb576040517f08c379a00000000000000000000000000000000000000000000000000000000081526004016107b290612a77565b60405180910390fd5b611388811115610800576040517f08c379a00000000000000000000000000000000000000000000000000000000081526004016107f790612b4f565b60405180910390fd5b8060068190555050565b600b60009054906101000a900460ff161561085a576040517f08c379a000000000000000000000000000000000000000000000000000000000815260040161085190612bbb565b60405180910390fd5b6001600b60006101000a81548160ff02191690831515021790555060006007600083815260200190815260200160002090508060020160009054906101000a900460ff166108dd576040517f08c379a00000000000000000000000000000000000000000000000000000000081526004016108d490612c27565b60405180910390fd5b6108e682612089565b15610926576040517f08c379a000000000000000000000000000000000000000000000000000000000815260040161091d90612c93565b60405180910390fd5b6000816001015460035461093a9190612ce2565b905080600260009054906101000a900473ffffffffffffffffffffffffffffffffffffffff1673ffffffffffffffffffffffffffffffffffffffff166370a08231336040518263ffffffff1660e01b8152600401610998919061266d565b602060405180830381865afa1580156109b5573d6000803e3d6000fd5b505050506040513d601f19601f820116820180604052508101906109d99190612d2b565b1015610a1a576040517f08c379a0000000000000000000000000000000000000000000000000000000008152600401610a1190612da4565b60405180910390fd5b600260009054906101000a900473ffffffffffffffffffffffffffffffffffffffff1673ffffffffffffffffffffffffffffffffffffffff166323b872dd3330846040518463ffffffff1660e01b8152600401610a7993929190612dc4565b6020604051808303816000875af1158015610a98573d6000803e3d6000fd5b505050506040513d601f19601f82011682018060405250810190610abc9190612e27565b50600082600101541115610c8a5760006127106005548460010154610ae19190612e54565b610aeb9190612ec5565b90506000818460010154610aff9190612ef6565b9050600260009054906101000a900473ffffffffffffffffffffffffffffffffffffffff1673ffffffffffffffffffffffffffffffffffffffff1663a9059cbb8560000160009054906101000a900473ffffffffffffffffffffffffffffffffffffffff16836040518363ffffffff1660e01b8152600401610b82929190612f2a565b6020604051808303816000875af1158015610ba1573d6000803e3d6000fd5b505050506040513d601f19601f82011682018060405250810190610bc59190612e27565b50600260009054906101000a900473ffffffffffffffffffffffffffffffffffffffff1673ffffffffffffffffffffffffffffffffffffffff1663a9059cbb60008054906101000a900473ffffffffffffffffffffffffffffffffffffffff16846040518363ffffffff1660e01b8152600401610c43929190612f2a565b6020604051808303816000875af1158015610c62573d6000803e3d6000fd5b505050506040513d601f19601f82011682018060405250810190610c869190612e27565b5050505b60006276a70042610c9b9190612ce2565b90506040518060a001604052803373ffffffffffffffffffffffffffffffffffffffff1681526020018460000160009054906101000a900473ffffffffffffffffffffffffffffffffffffffff1673ffffffffffffffffffffffffffffffffffffffff1681526020014281526020018281526020016003548152506008600086815260200190815260200160002060008201518160000160006101000a81548173ffffffffffffffffffffffffffffffffffffffff021916908373ffffffffffffffffffffffffffffffffffffffff16021790555060208201518160010160006101000a81548173ffffffffffffffffffffffffffffffffffffffff021916908373ffffffffffffffffffffffffffffffffffffffff160217905550604082015181600201556060820151816003015560808201518160040155905050837f1b605793181864eece69e25665ad41b233544b2168748fdae00dbf44c9678db93383600354604051610e0e93929190612f53565b60405180910390a25050506000600b60006101000a81548160ff02191690831515021790555050565b600260009054906101000a900473ffffffffffffffffffffffffffffffffffffffff1681565b600160009054906101000a900473ffffffffffffffffffffffffffffffffffffffff1681565b60008054906101000a900473ffffffffffffffffffffffffffffffffffffffff1681565b600b60009054906101000a900460ff1615610ef7576040517f08c379a0000000000000000000000000000000000000000000000000000000008152600401610eee90612bbb565b60405180910390fd5b6001600b60006101000a81548160ff02191690831515021790555060006008600083815260200190815260200160002090503373ffffffffffffffffffffffffffffffffffffffff168160000160009054906101000a900473ffffffffffffffffffffffffffffffffffffffff1673ffffffffffffffffffffffffffffffffffffffff1614610fbb576040517f08c379a0000000000000000000000000000000000000000000000000000000008152600401610fb290612fd6565b60405180910390fd5b610fc68260006120c0565b506000600b60006101000a81548160ff02191690831515021790555050565b606080600060098054905090508085106110a257600067ffffffffffffffff81111561101457611013612ff6565b5b6040519080825280602002602001820160405280156110425781602001602082028036833780820191505090505b50600067ffffffffffffffff81111561105e5761105d612ff6565b5b60405190808252806020026020018201604052801561109757816020015b61108461240a565b81526020019060019003908161107c5790505b5092509250506112b9565b60008185876110b19190612ce2565b116110c75784866110c29190612ce2565b6110c9565b815b9050600086826110d99190612ef6565b90508067ffffffffffffffff8111156110f5576110f4612ff6565b5b6040519080825280602002602001820160405280156111235781602001602082028036833780820191505090505b5094508067ffffffffffffffff8111156111405761113f612ff6565b5b60405190808252806020026020018201604052801561117957816020015b61116661240a565b81526020019060019003908161115e5790505b50935060005b818110156112b457600981896111959190612ce2565b815481106111a6576111a5613025565b5b90600052602060002001548682815181106111c4576111c3613025565b5b602002602001018181525050600760008783815181106111e7576111e6613025565b5b602002602001015181526020019081526020016000206040518060600160405290816000820160009054906101000a900473ffffffffffffffffffffffffffffffffffffffff1673ffffffffffffffffffffffffffffffffffffffff1673ffffffffffffffffffffffffffffffffffffffff168152602001600182015481526020016002820160009054906101000a900460ff16151515158152505085828151811061129657611295613025565b5b602002602001018190525080806112ac90613054565b91505061117f565b505050505b9250929050565b60086020528060005260406000206000915090508060000160009054906101000a900473ffffffffffffffffffffffffffffffffffffffff16908060010160009054906101000a900473ffffffffffffffffffffffffffffffffffffffff16908060020154908060030154908060040154905085565b600b60009054906101000a900460ff1615611386576040517f08c379a000000000000000000000000000000000000000000000000000000000815260040161137d90612bbb565b60405180910390fd5b6001600b60006101000a81548160ff02191690831515021790555060006007600083815260200190815260200160002090508060020160009054906101000a900460ff16611409576040517f08c379a000000000000000000000000000000000000000000000000000000000815260040161140090612c27565b60405180910390fd5b3373ffffffffffffffffffffffffffffffffffffffff168160000160009054906101000a900473ffffffffffffffffffffffffffffffffffffffff1673ffffffffffffffffffffffffffffffffffffffff1614806114b2575060008054906101000a900473ffffffffffffffffffffffffffffffffffffffff1673ffffffffffffffffffffffffffffffffffffffff163373ffffffffffffffffffffffffffffffffffffffff16145b6114f1576040517f08c379a00000000000000000000000000000000000000000000000000000000081526004016114e8906130e8565b60405180910390fd5b6114fa82612089565b1561153a576040517f08c379a000000000000000000000000000000000000000000000000000000000815260040161153190613154565b60405180910390fd5b60008160020160006101000a81548160ff021916908315150217905550600160009054906101000a900473ffffffffffffffffffffffffffffffffffffffff1673ffffffffffffffffffffffffffffffffffffffff166323b872dd308360000160009054906101000a900473ffffffffffffffffffffffffffffffffffffffff16856040518463ffffffff1660e01b81526004016115da93929190612dc4565b600060405180830381600087803b1580156115f457600080fd5b505af1158015611608573d6000803e3d6000fd5b50505050817ff9fb9170ebc789671fd96a1ac2c986e0a71b2fc6c05ef244fc492e00ae1764ac60405160405180910390a2506000600b60006101000a81548160ff02191690831515021790555050565b600b60009054906101000a900460ff16156116a8576040517f08c379a000000000000000000000000000000000000000000000000000000000815260040161169f90612bbb565b60405180910390fd5b6001600b60006101000a81548160ff02191690831515021790555060006008600083815260200190815260200160002090506000816002015411611721576040517f08c379a0000000000000000000000000000000000000000000000000000000008152600401611718906131c0565b60405180910390fd5b8060030154421015611768576040517f08c379a000000000000000000000000000000000000000000000000000000000815260040161175f9061322c565b60405180910390fd5b6117738260016120c0565b506000600b60006101000a81548160ff02191690831515021790555050565b60076020528060005260406000206000915090508060000160009054906101000a900473ffffffffffffffffffffffffffffffffffffffff16908060010154908060020160009054906101000a900460ff16905083565b600080600860008481526020019081526020016000209050600081600201541480611818575080600301544210155b1561182757600091505061183b565b4281600301546118379190612ef6565b9150505b919050565b60008054906101000a900473ffffffffffffffffffffffffffffffffffffffff1673ffffffffffffffffffffffffffffffffffffffff163373ffffffffffffffffffffffffffffffffffffffff16146118ce576040517f08c379a00000000000000000000000000000000000000000000000000000000081526004016118c590612a77565b60405180910390fd5b81600381905550806004819055505050565b60008054906101000a900473ffffffffffffffffffffffffffffffffffffffff1673ffffffffffffffffffffffffffffffffffffffff163373ffffffffffffffffffffffffffffffffffffffff161461196e576040517f08c379a000000000000000000000000000000000000000000000000000000000815260040161196590612a77565b60405180910390fd5b600073ffffffffffffffffffffffffffffffffffffffff168173ffffffffffffffffffffffffffffffffffffffff16036119a757600080fd5b806000806101000a81548173ffffffffffffffffffffffffffffffffffffffff021916908373ffffffffffffffffffffffffffffffffffffffff16021790555050565b3373ffffffffffffffffffffffffffffffffffffffff16600160009054906101000a900473ffffffffffffffffffffffffffffffffffffffff1673ffffffffffffffffffffffffffffffffffffffff16636352211e846040518263ffffffff1660e01b8152600401611a5c91906124ba565b602060405180830381865afa158015611a79573d6000803e3d6000fd5b505050506040513d601f19601f82011682018060405250810190611a9d9190613261565b73ffffffffffffffffffffffffffffffffffffffff1614611af3576040517f08c379a0000000000000000000000000000000000000000000000000000000008152600401611aea906132da565b60405180910390fd5b6007600083815260200190815260200160002060020160009054906101000a900460ff1615611b57576040517f08c379a0000000000000000000000000000000000000000000000000000000008152600401611b4e90613346565b60405180910390fd5b611b6082612089565b15611ba0576040517f08c379a0000000000000000000000000000000000000000000000000000000008152600401611b9790613154565b60405180910390fd5b600160009054906101000a900473ffffffffffffffffffffffffffffffffffffffff1673ffffffffffffffffffffffffffffffffffffffff166323b872dd3330856040518463ffffffff1660e01b8152600401611bff93929190612dc4565b600060405180830381600087803b158015611c1957600080fd5b505af1158015611c2d573d6000803e3d6000fd5b5050505060405180606001604052803373ffffffffffffffffffffffffffffffffffffffff168152602001828152602001600115158152506007600084815260200190815260200160002060008201518160000160006101000a81548173ffffffffffffffffffffffffffffffffffffffff021916908373ffffffffffffffffffffffffffffffffffffffff1602179055506020820151816001015560408201518160020160006101000a81548160ff021916908315150217905550905050600a600083815260200190815260200160002060009054906101000a900460ff16611d675760098290806001815401808255809150506001900390600052602060002001600090919091909150556001600a600084815260200190815260200160002060006101000a81548160ff0219169083151502179055505b817f5bcf748d6e9b4ea21c76692e71f20c8ca6b554a5994777a0b2c4efa9ba560bd83383604051611d99929190612f2a565b60405180910390a25050565b60008103156120645760006008600085815260200190815260200160002090506000816002015403611dd75750612064565b600061271060055484611dea9190612e54565b611df49190612ec5565b905060008184611e049190612ef6565b9050600061271060065483611e199190612e54565b611e239190612ec5565b905060008183611e339190612ef6565b90508673ffffffffffffffffffffffffffffffffffffffff166323b872dd308760000160009054906101000a900473ffffffffffffffffffffffffffffffffffffffff16846040518463ffffffff1660e01b8152600401611e9693929190612dc4565b6020604051808303816000875af1158015611eb5573d6000803e3d6000fd5b505050506040513d601f19601f82011682018060405250810190611ed99190612e27565b508673ffffffffffffffffffffffffffffffffffffffff166323b872dd308760010160009054906101000a900473ffffffffffffffffffffffffffffffffffffffff16856040518463ffffffff1660e01b8152600401611f3b93929190612dc4565b6020604051808303816000875af1158015611f5a573d6000803e3d6000fd5b505050506040513d601f19601f82011682018060405250810190611f7e9190612e27565b508673ffffffffffffffffffffffffffffffffffffffff166323b872dd3060008054906101000a900473ffffffffffffffffffffffffffffffffffffffff16876040518463ffffffff1660e01b8152600401611fdc93929190612dc4565b6020604051808303816000875af1158015611ffb573d6000803e3d6000fd5b505050506040513d601f19601f8201168201806040525081019061201f9190612e27565b50877fe17236f5dcccef76cccad15f0166f36d9333aa7d06e532f9ea301a301de068fc878385886040516120569493929190613366565b60405180910390a250505050505b505050565b600a6020528060005260406000206000915054906101000a900460ff1681565b600080600860008481526020019081526020016000209050600081600201541180156120b85750806003015442105b915050919050565b6000600860008481526020019081526020016000209050600081600201541161211e576040517f08c379a0000000000000000000000000000000000000000000000000000000008152600401612115906131c0565b60405180910390fd5b60008160000160009054906101000a900473ffffffffffffffffffffffffffffffffffffffff169050600060045483600401541161215d576000612170565b600454836004015461216f9190612ef6565b5b9050600081111561221d57600260009054906101000a900473ffffffffffffffffffffffffffffffffffffffff1673ffffffffffffffffffffffffffffffffffffffff1663a9059cbb83836040518363ffffffff1660e01b81526004016121d8929190612f2a565b6020604051808303816000875af11580156121f7573d6000803e3d6000fd5b505050506040513d601f19601f8201168201806040525081019061221b9190612e27565b505b600060045411156122f057600260009054906101000a900473ffffffffffffffffffffffffffffffffffffffff1673ffffffffffffffffffffffffffffffffffffffff1663a9059cbb8460010160009054906101000a900473ffffffffffffffffffffffffffffffffffffffff166004546040518363ffffffff1660e01b81526004016122ab929190612f2a565b6020604051808303816000875af11580156122ca573d6000803e3d6000fd5b505050506040513d601f19601f820116820180604052508101906122ee9190612e27565b505b60086000868152602001908152602001600020600080820160006101000a81549073ffffffffffffffffffffffffffffffffffffffff02191690556001820160006101000a81549073ffffffffffffffffffffffffffffffffffffffff02191690556002820160009055600382016000905560048201600090555050847f83cedd4ea5c13d8d094bdc1b97b3ba074553f8c91527df38d3aef2dc4179133b8386846040516123a0939291906133ab565b60405180910390a25050505050565b6040518060a00160405280600073ffffffffffffffffffffffffffffffffffffffff168152602001600073ffffffffffffffffffffffffffffffffffffffff1681526020016000815260200160008152602001600081525090565b6040518060600160405280600073ffffffffffffffffffffffffffffffffffffffff168152602001600081526020016000151581525090565b600080fd5b6000819050919050565b61245b81612448565b811461246657600080fd5b50565b60008135905061247881612452565b92915050565b60006020828403121561249457612493612443565b5b60006124a284828501612469565b91505092915050565b6124b481612448565b82525050565b60006020820190506124cf60008301846124ab565b92915050565b600073ffffffffffffffffffffffffffffffffffffffff82169050919050565b6000612500826124d5565b9050919050565b612510816124f5565b82525050565b61251f81612448565b82525050565b60a08201600082015161253b6000850182612507565b50602082015161254e6020850182612507565b5060408201516125616040850182612516565b5060608201516125746060850182612516565b5060808201516125876080850182612516565b50505050565b600060a0820190506125a26000830184612525565b92915050565b6000819050919050565b60006125cd6125c86125c3846124d5565b6125a8565b6124d5565b9050919050565b60006125df826125b2565b9050919050565b60006125f1826125d4565b9050919050565b612601816125e6565b82525050565b600060208201905061261c60008301846125f8565b92915050565b600061262d826125d4565b9050919050565b61263d81612622565b82525050565b60006020820190506126586000830184612634565b92915050565b612667816124f5565b82525050565b6000602082019050612682600083018461265e565b92915050565b6000806040838503121561269f5761269e612443565b5b60006126ad85828601612469565b92505060206126be85828601612469565b9150509250929050565b600081519050919050565b600082825260208201905092915050565b6000819050602082019050919050565b60006127008383612516565b60208301905092915050565b6000602082019050919050565b6000612724826126c8565b61272e81856126d3565b9350612739836126e4565b8060005b8381101561276a57815161275188826126f4565b975061275c8361270c565b92505060018101905061273d565b5085935050505092915050565b600081519050919050565b600082825260208201905092915050565b6000819050602082019050919050565b60008115159050919050565b6127b8816127a3565b82525050565b6060820160008201516127d46000850182612507565b5060208201516127e76020850182612516565b5060408201516127fa60408501826127af565b50505050565b600061280c83836127be565b60608301905092915050565b6000602082019050919050565b600061283082612777565b61283a8185612782565b935061284583612793565b8060005b8381101561287657815161285d8882612800565b975061286883612818565b925050600181019050612849565b5085935050505092915050565b6000604082019050818103600083015261289d8185612719565b905081810360208301526128b18184612825565b90509392505050565b600060a0820190506128cf600083018861265e565b6128dc602083018761265e565b6128e960408301866124ab565b6128f660608301856124ab565b61290360808301846124ab565b9695505050505050565b612916816127a3565b82525050565b6000606082019050612931600083018661265e565b61293e60208301856124ab565b61294b604083018461290d565b949350505050565b61295c816124f5565b811461296757600080fd5b50565b60008135905061297981612953565b92915050565b60006020828403121561299557612994612443565b5b60006129a38482850161296a565b91505092915050565b6000806000606084860312156129c5576129c4612443565b5b60006129d386828701612469565b93505060206129e48682870161296a565b92505060406129f586828701612469565b9150509250925092565b6000602082019050612a14600083018461290d565b92915050565b600082825260208201905092915050565b7f216f776e65720000000000000000000000000000000000000000000000000000600082015250565b6000612a61600683612a1a565b9150612a6c82612a2b565b602082019050919050565b60006020820190508181036000830152612a9081612a54565b9050919050565b7f6d61782031302500000000000000000000000000000000000000000000000000600082015250565b6000612acd600783612a1a565b9150612ad882612a97565b602082019050919050565b60006020820190508181036000830152612afc81612ac0565b9050919050565b7f6d61782035302500000000000000000000000000000000000000000000000000600082015250565b6000612b39600783612a1a565b9150612b4482612b03565b602082019050919050565b60006020820190508181036000830152612b6881612b2c565b9050919050565b7f7265656e7472616e740000000000000000000000000000000000000000000000600082015250565b6000612ba5600983612a1a565b9150612bb082612b6f565b602082019050919050565b60006020820190508181036000830152612bd481612b98565b9050919050565b7f216c697374656400000000000000000000000000000000000000000000000000600082015250565b6000612c11600783612a1a565b9150612c1c82612bdb565b602082019050919050565b60006020820190508181036000830152612c4081612c04565b9050919050565b7f616c72656164792072656e746564000000000000000000000000000000000000600082015250565b6000612c7d600e83612a1a565b9150612c8882612c47565b602082019050919050565b60006020820190508181036000830152612cac81612c70565b9050919050565b7f4e487b7100000000000000000000000000000000000000000000000000000000600052601160045260246000fd5b6000612ced82612448565b9150612cf883612448565b9250828201905080821115612d1057612d0f612cb3565b5b92915050565b600081519050612d2581612452565b92915050565b600060208284031215612d4157612d40612443565b5b6000612d4f84828501612d16565b91505092915050565b7f696e73756666696369656e742072696e67000000000000000000000000000000600082015250565b6000612d8e601183612a1a565b9150612d9982612d58565b602082019050919050565b60006020820190508181036000830152612dbd81612d81565b9050919050565b6000606082019050612dd9600083018661265e565b612de6602083018561265e565b612df360408301846124ab565b949350505050565b612e04816127a3565b8114612e0f57600080fd5b50565b600081519050612e2181612dfb565b92915050565b600060208284031215612e3d57612e3c612443565b5b6000612e4b84828501612e12565b91505092915050565b6000612e5f82612448565b9150612e6a83612448565b9250828202612e7881612448565b91508282048414831517612e8f57612e8e612cb3565b5b5092915050565b7f4e487b7100000000000000000000000000000000000000000000000000000000600052601260045260246000fd5b6000612ed082612448565b9150612edb83612448565b925082612eeb57612eea612e96565b5b828204905092915050565b6000612f0182612448565b9150612f0c83612448565b9250828203905081811115612f2457612f23612cb3565b5b92915050565b6000604082019050612f3f600083018561265e565b612f4c60208301846124ab565b9392505050565b6000606082019050612f68600083018661265e565b612f7560208301856124ab565b612f8260408301846124ab565b949350505050565b7f2174656e616e7400000000000000000000000000000000000000000000000000600082015250565b6000612fc0600783612a1a565b9150612fcb82612f8a565b602082019050919050565b60006020820190508181036000830152612fef81612fb3565b9050919050565b7f4e487b7100000000000000000000000000000000000000000000000000000000600052604160045260246000fd5b7f4e487b7100000000000000000000000000000000000000000000000000000000600052603260045260246000fd5b600061305f82612448565b91507fffffffffffffffffffffffffffffffffffffffffffffffffffffffffffffffff820361309157613090612cb3565b5b600182019050919050565b7f2161757468000000000000000000000000000000000000000000000000000000600082015250565b60006130d2600583612a1a565b91506130dd8261309c565b602082019050919050565b60006020820190508181036000830152613101816130c5565b9050919050565b7f686173206163746976652072656e74616c000000000000000000000000000000600082015250565b600061313e601183612a1a565b915061314982613108565b602082019050919050565b6000602082019050818103600083015261316d81613131565b9050919050565b7f6e6f2072656e74616c0000000000000000000000000000000000000000000000600082015250565b60006131aa600983612a1a565b91506131b582613174565b602082019050919050565b600060208201905081810360008301526131d98161319d565b9050919050565b7f2165787069726564000000000000000000000000000000000000000000000000600082015250565b6000613216600883612a1a565b9150613221826131e0565b602082019050919050565b6000602082019050818103600083015261324581613209565b9050919050565b60008151905061325b81612953565b92915050565b60006020828403121561327757613276612443565b5b60006132858482850161324c565b91505092915050565b7f216c616e64206f776e6572000000000000000000000000000000000000000000600082015250565b60006132c4600b83612a1a565b91506132cf8261328e565b602082019050919050565b600060208201905081810360008301526132f3816132b7565b9050919050565b7f616c7265616479206c6973746564000000000000000000000000000000000000600082015250565b6000613330600e83612a1a565b915061333b826132fa565b602082019050919050565b6000602082019050818103600083015261335f81613323565b9050919050565b600060808201905061337b60008301876124ab565b61338860208301866124ab565b61339560408301856124ab565b6133a260608301846124ab565b95945050505050565b60006060820190506133c0600083018661265e565b6133cd602083018561290d565b6133da60408301846124ab565b94935050505056fea26469706673582212209461eac6b17ba9f53b16cbdbbdae2675658164b6fdf3cf97ab13d08aee4f151b64736f6c63430008140033",
  "linkReferences": {},
  "deployedLinkReferences": {}
}