{
  "_format": "hh-sol-artifact-1",
  "contractName": "UpgradeSystem",
  "sourceName": "contracts/UpgradeSystem.sol",
  "abi": [
    {
      "inputs": [
        {
          "internalType": "address[5]",
          "name": "_elements",
          "type": "address[5]"
        },
        {
          "internalType": "address",
          "name": "_apostle",
          "type": "address"
        },
        {
          "internalType": "address",
          "name": "_drill",
          "type": "address"
        },
        {
          "internalType": "address",
          "name": "_land",
          "type": "address"
        }
      ],
      "stateMutability": "nonpayable",
      "type": "constructor"
    },
    {
      "anonymous": false,
      "inputs": [
        {
          "indexed": true,
          "internalType": "uint256",
          "name": "id",
          "type": "uint256"
        },
        {
          "indexed": false,
          "internalType": "uint8",
          "name": "fromStar",
          "type": "uint8"
        },
        {
          "indexed": false,
          "internalType": "uint8",
          "name": "toStar",
          "type": "uint8"
        },
        {
          "indexed": false,
          "internalType": "uint8",
          "name": "element",
          "type": "uint8"
        },
        {
          "indexed": false,
          "internalType": "uint256",
          "name": "elementBurned",
          "type": "uint256"
        }
      ],
      "name": "ApostleUpgraded",
      "type": "event"
    },
    {
      "anonymous": false,
      "inputs": [
        {
          "indexed": true,
          "internalType": "uint256",
          "name": "newId",
          "type": "uint256"
        },
        {
          "indexed": false,
          "internalType": "uint256[3]",
          "name": "burnedIds",
          "type": "uint256[3]"
        },
        {
          "indexed": false,
          "internalType": "uint8",
          "name": "tier",
          "type": "uint8"
        },
        {
          "indexed": false,
          "internalType": "uint8",
          "name": "affinity",
          "type": "uint8"
        },
        {
          "indexed": false,
          "internalType": "uint256",
          "name": "elementBurned",
          "type": "uint256"
        }
      ],
      "name": "DrillMerged",
      "type": "event"
    },
    {
      "anonymous": false,
      "inputs": [
        {
          "indexed": true,
          "internalType": "uint256",
          "name": "landId",
          "type": "uint256"
        },
        {
          "indexed": false,
          "internalType": "uint8",
          "name": "element",
          "type": "uint8"
        },
        {
          "indexed": false,
          "internalType": "uint256",
          "name": "elementBurned",
          "type": "uint256"
        },
        {
          "indexed": false,
          "internalType": "uint8",
          "name": "newGrade",
          "type": "uint8"
        }
      ],
      "name": "LandCharged",
      "type": "event"
    },
    {
      "inputs": [],
      "name": "CHARGE_BOOST",
      "outputs": [
        {
          "internalType": "uint256",
          "name": "",
          "type": "uint256"
        }
      ],
      "stateMutability": "view",
      "type": "function"
    },
    {
      "inputs": [],
      "name": "EPOCH_DURATION",
      "outputs": [
        {
          "internalType": "uint256",
          "name": "",
          "type": "uint256"
        }
      ],
      "stateMutability": "view",
      "type": "function"
    },
    {
      "inputs": [],
      "name": "apostle",
      "outputs": [
        {
          "internalType": "contract IApostleUpgrade",
          "name": "",
          "type": "address"
        }
      ],
      "stateMutability": "view",
      "type": "function"
    },
    {
      "inputs": [
        {
          "internalType": "uint256",
          "name": "",
          "type": "uint256"
        }
      ],
      "name": "apostleUpgradeCost",
      "outputs": [
        {
          "internalType": "uint256",
          "name": "",
          "type": "uint256"
        }
      ],
      "stateMutability": "view",
      "type": "function"
    },
    {
      "inputs": [
        {
          "internalType": "uint256",
          "name": "landId",
          "type": "uint256"
        }
      ],
      "name": "chargeCountdown",
      "outputs": [
        {
          "internalType": "uint256",
          "name": "",
          "type": "uint256"
        }
      ],
      "stateMutability": "view",
      "type": "function"
    },
    {
      "inputs": [
        {
          "internalType": "uint256",
          "name": "landId",
          "type": "uint256"
        },
        {
          "internalType": "uint8",
          "name": "element",
          "type": "uint8"
        }
      ],
      "name": "chargeLand",
      "outputs": [],
      "stateMutability": "nonpayable",
      "type": "function"
    },
    {
      "inputs": [],
      "name": "drill",
      "outputs": [
        {
          "internalType": "contract IDrillUpgrade",
          "name": "",
          "type": "address"
        }
      ],
      "stateMutability": "view",
      "type": "function"
    },
    {
      "inputs": [
        {
          "internalType": "uint256",
          "name": "",
          "type": "uint256"
        }
      ],
      "name": "drillMergeCost",
      "outputs": [
        {
          "internalType": "uint256",
          "name": "",
          "type": "uint256"
        }
      ],
      "stateMutability": "view",
      "type": "function"
    },
    {
      "inputs": [
        {
          "internalType": "uint256",
          "name": "",
          "type": "uint256"
        }
      ],
      "name": "elementTokens",
      "outputs": [
        {
          "internalType": "address",
          "name": "",
          "type": "address"
        }
      ],
      "stateMutability": "view",
      "type": "function"
    },
    {
      "inputs": [],
      "name": "land",
      "outputs": [
        {
          "internalType": "contract ILandUpgrade",
          "name": "",
          "type": "address"
        }
      ],
      "stateMutability": "view",
      "type": "function"
    },
    {
      "inputs": [
        {
          "internalType": "uint256",
          "name": "",
          "type": "uint256"
        }
      ],
      "name": "landChargeCost",
      "outputs": [
        {
          "internalType": "uint256",
          "name": "",
          "type": "uint256"
        }
      ],
      "stateMutability": "view",
      "type": "function"
    },
    {
      "inputs": [
        {
          "internalType": "uint256",
          "name": "",
          "type": "uint256"
        }
      ],
      "name": "landLastCharge",
      "outputs": [
        {
          "internalType": "uint256",
          "name": "",
          "type": "uint256"
        }
      ],
      "stateMutability": "view",
      "type": "function"
    },
    {
      "inputs": [
        {
          "internalType": "uint256[3]",
          "name": "drillIds",
          "type": "uint256[3]"
        }
      ],
      "name": "mergedrills",
      "outputs": [],
      "stateMutability": "nonpayable",
      "type": "function"
    },
    {
      "inputs": [],
      "name": "owner",
      "outputs": [
        {
          "internalType": "address",
          "name": "",
          "type": "address"
        }
      ],
      "stateMutability": "view",
      "type": "function"
    },
    {
      "inputs": [
        {
          "internalType": "uint8",
          "name": "star",
          "type": "uint8"
        },
        {
          "internalType": "uint256",
          "name": "cost",
          "type": "uint256"
        }
      ],
      "name": "setApostleUpgradeCost",
      "outputs": [],
      "stateMutability": "nonpayable",
      "type": "function"
    },
    {
      "inputs": [
        {
          "internalType": "uint8",
          "name": "tier",
          "type": "uint8"
        },
        {
          "internalType": "uint256",
          "name": "cost",
          "type": "uint256"
        }
      ],
      "name": "setDrillMergeCost",
      "outputs": [],
      "stateMutability": "nonpayable",
      "type": "function"
    },
    {
      "inputs": [
        {
          "internalType": "uint8",
          "name": "grade",
          "type": "uint8"
        },
        {
          "internalType": "uint256",
          "name": "cost",
          "type": "uint256"
        }
      ],
      "name": "setLandChargeCost",
      "outputs": [],
      "stateMutability": "nonpayable",
      "type": "function"
    },
    {
      "inputs": [
        {
          "internalType": "address",
          "name": "a",
          "type": "address"
        }
      ],
      "name": "transferOwnership",
      "outputs": [],
      "stateMutability": "nonpayable",
      "type": "function"
    },
    {
      "inputs": [
        {
          "internalType": "uint256",
          "name": "apostleId",
          "type": "uint256"
        },
        {
          "internalType": "uint8",
          "name": "currentStar",
          "type": "uint8"
        }
      ],
      "name": "upgradeApostle",
      "outputs": [],
      "stateMutability": "nonpayable",
      "type": "function"
    }
  ],
  "bytecode": "0x60806040526040518060a00160405280600068ffffffffffffffffff16815260200168056bc75e2d6310000068ffffffffffffffffff168152602001680ad78ebc5ac620000068ffffffffffffffffff1681526020016815af1d78b58c40000068ffffffffffffffffff168152602001682b5e3af16b1880000068ffffffffffffffffff16815250600990600562000099929190620002f2565b506040518060a00160405280600068ffffffffffffffffff168152602001681043561a882930000068ffffffffffffffffff168152602001682086ac35105260000068ffffffffffffffffff16815260200168410d586a20a4c0000068ffffffffffffffffff16815260200168821ab0d4414980000068ffffffffffffffffff16815250600e9060056200012f929190620002f2565b506040518060600160405280681b1ae4d6e2ef50000069ffffffffffffffffffff168152602001686c6b935b8bbd40000069ffffffffffffffffffff1681526020016901b1ae4d6e2ef500000069ffffffffffffffffffff1681525060139060036200019d92919062000344565b50348015620001ab57600080fd5b5060405162002eb638038062002eb68339818101604052810190620001d191906200060f565b336000806101000a81548173ffffffffffffffffffffffffffffffffffffffff021916908373ffffffffffffffffffffffffffffffffffffffff1602179055508360019060056200022492919062000397565b5082600660006101000a81548173ffffffffffffffffffffffffffffffffffffffff021916908373ffffffffffffffffffffffffffffffffffffffff16021790555081600760006101000a81548173ffffffffffffffffffffffffffffffffffffffff021916908373ffffffffffffffffffffffffffffffffffffffff16021790555080600860006101000a81548173ffffffffffffffffffffffffffffffffffffffff021916908373ffffffffffffffffffffffffffffffffffffffff1602179055505050505062000682565b826005810192821562000331579160200282015b8281111562000330578251829068ffffffffffffffffff1690559160200191906001019062000306565b5b50905062000340919062000419565b5090565b826003810192821562000384579160200282015b8281111562000383578251829069ffffffffffffffffffff1690559160200191906001019062000358565b5b50905062000393919062000419565b5090565b826005810192821562000406579160200282015b82811115620004055782518260006101000a81548173ffffffffffffffffffffffffffffffffffffffff021916908373ffffffffffffffffffffffffffffffffffffffff16021790555091602001919060010190620003ab565b5b50905062000415919062000419565b5090565b5b80821115620004345760008160009055506001016200041a565b5090565b6000604051905090565b600080fd5b600080fd5b6000601f19601f8301169050919050565b7f4e487b7100000000000000000000000000000000000000000000000000000000600052604160045260246000fd5b62000497826200044c565b810181811067ffffffffffffffff82111715620004b957620004b86200045d565b5b80604052505050565b6000620004ce62000438565b9050620004dc82826200048c565b919050565b600067ffffffffffffffff821115620004ff57620004fe6200045d565b5b602082029050919050565b600080fd5b600073ffffffffffffffffffffffffffffffffffffffff82169050919050565b60006200053c826200050f565b9050919050565b6200054e816200052f565b81146200055a57600080fd5b50565b6000815190506200056e8162000543565b92915050565b60006200058b6200058584620004e1565b620004c2565b90508060208402830185811115620005a857620005a76200050a565b5b835b81811015620005d55780620005c088826200055d565b845260208401935050602081019050620005aa565b5050509392505050565b600082601f830112620005f757620005f662000447565b5b60056200060684828562000574565b91505092915050565b60008060008061010085870312156200062d576200062c62000442565b5b60006200063d87828801620005df565b94505060a062000650878288016200055d565b93505060c062000663878288016200055d565b92505060e062000676878288016200055d565b91505092959194509250565b61282480620006926000396000f3fe608060405234801561001057600080fd5b50600436106101215760003560e01c806392f61ea6116100ad578063bfd57cd911610071578063bfd57cd91461031c578063e960d2e814610338578063ea00b16f14610368578063f0b466f514610384578063f2fde38b146103a257610121565b806392f61ea614610264578063984fda0e14610294578063a17664b5146102b2578063a70b9f0c146102e2578063baaa956c1461030057610121565b80635ac28991116100f45780635ac28991146101c057806372dc805d146101dc578063851df54f1461020c5780638c980129146102285780638da5cb5b1461024657610121565b8063160b4f2b1461012657806337ff2ced146101425780633e5d916114610172578063525d9de0146101a2575b600080fd5b610140600480360381019061013b91906119ba565b6103be565b005b61015c600480360381019061015791906119fa565b6108f2565b6040516101699190611a68565b60405180910390f35b61018c600480360381019061018791906119fa565b610928565b6040516101999190611a92565b60405180910390f35b6101aa610940565b6040516101b79190611b0c565b60405180910390f35b6101da60048036038101906101d59190611b27565b610966565b005b6101f660048036038101906101f191906119fa565b610a15565b6040516102039190611a92565b60405180910390f35b61022660048036038101906102219190611b8e565b610a30565b005b61023061104f565b60405161023d9190611bdc565b60405180910390f35b61024e611075565b60405161025b9190611a68565b60405180910390f35b61027e600480360381019061027991906119fa565b611099565b60405161028b9190611a92565b60405180910390f35b61029c6110b4565b6040516102a99190611a92565b60405180910390f35b6102cc60048036038101906102c791906119fa565b6110b9565b6040516102d99190611a92565b60405180910390f35b6102ea611106565b6040516102f79190611a92565b60405180910390f35b61031a60048036038101906103159190611b27565b61110d565b005b61033660048036038101906103319190611b27565b6111bc565b005b610352600480360381019061034d91906119fa565b61126b565b60405161035f9190611a92565b60405180910390f35b610382600480360381019061037d91906119ba565b611286565b005b61038c6117cb565b6040516103999190611c18565b60405180910390f35b6103bc60048036038101906103b79190611c5f565b6117f1565b005b3373ffffffffffffffffffffffffffffffffffffffff16600860009054906101000a900473ffffffffffffffffffffffffffffffffffffffff1673ffffffffffffffffffffffffffffffffffffffff16636352211e846040518263ffffffff1660e01b81526004016104309190611a92565b602060405180830381865afa15801561044d573d6000803e3d6000fd5b505050506040513d601f19601f820116820180604052508101906104719190611ca1565b73ffffffffffffffffffffffffffffffffffffffff16146104c7576040517f08c379a00000000000000000000000000000000000000000000000000000000081526004016104be90611d2b565b60405180910390fd5b60048160ff16111561050e576040517f08c379a000000000000000000000000000000000000000000000000000000000815260040161050590611d97565b60405180910390fd5b6276a70060166000848152602001908152602001600020546105309190611de6565b421015610572576040517f08c379a000000000000000000000000000000000000000000000000000000000815260040161056990611e66565b60405180910390fd5b6000600860009054906101000a900473ffffffffffffffffffffffffffffffffffffffff1673ffffffffffffffffffffffffffffffffffffffff1663c6a68dbf84846040518363ffffffff1660e01b81526004016105d1929190611e95565b602060405180830381865afa1580156105ee573d6000803e3d6000fd5b505050506040513d601f19601f820116820180604052508101906106129190611ef8565b9050600061061f826118fb565b905060038160ff1610610667576040517f08c379a000000000000000000000000000000000000000000000000000000000815260040161065e90611f71565b60405180910390fd5b600060138260ff16600381106106805761067f611f91565b5b01549050600060018560ff166005811061069d5761069c611f91565b5b0160009054906101000a900473ffffffffffffffffffffffffffffffffffffffff169050818173ffffffffffffffffffffffffffffffffffffffff166370a08231336040518263ffffffff1660e01b81526004016106fb9190611a68565b602060405180830381865afa158015610718573d6000803e3d6000fd5b505050506040513d601f19601f8201168201806040525081019061073c9190611fd5565b101561077d576040517f08c379a00000000000000000000000000000000000000000000000000000000081526004016107749061204e565b60405180910390fd5b8073ffffffffffffffffffffffffffffffffffffffff16639dc29fac33846040518363ffffffff1660e01b81526004016107b892919061206e565b600060405180830381600087803b1580156107d257600080fd5b505af11580156107e6573d6000803e3d6000fd5b50505050600860009054906101000a900473ffffffffffffffffffffffffffffffffffffffff1673ffffffffffffffffffffffffffffffffffffffff1663cd171398878760146040518463ffffffff1660e01b815260040161084a939291906120a6565b600060405180830381600087803b15801561086457600080fd5b505af1158015610878573d6000803e3d6000fd5b5050505042601660008881526020019081526020016000208190555060006108ab6014866108a691906120dd565b6118fb565b9050867f041a4bc9bda6b7889aaf9d2d591a6e9474e66fe0b10d51c996cf5df442a184588785846040516108e193929190612113565b60405180910390a250505050505050565b6001816005811061090257600080fd5b016000915054906101000a900473ffffffffffffffffffffffffffffffffffffffff1681565b60166020528060005260406000206000915090505481565b600760009054906101000a900473ffffffffffffffffffffffffffffffffffffffff1681565b60008054906101000a900473ffffffffffffffffffffffffffffffffffffffff1673ffffffffffffffffffffffffffffffffffffffff163373ffffffffffffffffffffffffffffffffffffffff16146109f4576040517f08c379a00000000000000000000000000000000000000000000000000000000081526004016109eb90612196565b60405180910390fd5b8060098360ff1660058110610a0c57610a0b611f91565b5b01819055505050565b60138160038110610a2557600080fd5b016000915090505481565b60008060005b60038160ff161015610ca6573373ffffffffffffffffffffffffffffffffffffffff16600760009054906101000a900473ffffffffffffffffffffffffffffffffffffffff1673ffffffffffffffffffffffffffffffffffffffff16636352211e868460ff1660038110610aad57610aac611f91565b5b60200201356040518263ffffffff1660e01b8152600401610ace9190611a92565b602060405180830381865afa158015610aeb573d6000803e3d6000fd5b505050506040513d601f19601f82011682018060405250810190610b0f9190611ca1565b73ffffffffffffffffffffffffffffffffffffffff1614610b65576040517f08c379a0000000000000000000000000000000000000000000000000000000008152600401610b5c90612202565b60405180910390fd5b600080600760009054906101000a900473ffffffffffffffffffffffffffffffffffffffff1673ffffffffffffffffffffffffffffffffffffffff16639ebd36f3878560ff1660038110610bbc57610bbb611f91565b5b60200201356040518263ffffffff1660e01b8152600401610bdd9190611a92565b6040805180830381865afa158015610bf9573d6000803e3d6000fd5b505050506040513d601f19601f82011682018060405250810190610c1d9190612237565b9150915060008360ff1603610c3757819450809350610c91565b8460ff168260ff16148015610c5157508360ff168160ff16145b610c90576040517f08c379a0000000000000000000000000000000000000000000000000000000008152600401610c87906122c3565b60405180910390fd5b5b50508080610c9e906122e3565b915050610a36565b5060018260ff1610158015610cbf575060048260ff1611155b610cfe576040517f08c379a0000000000000000000000000000000000000000000000000000000008152600401610cf590612358565b60405180910390fd5b6000600e8360ff1660058110610d1757610d16611f91565b5b01549050600060018360ff1660058110610d3457610d33611f91565b5b0160009054906101000a900473ffffffffffffffffffffffffffffffffffffffff169050818173ffffffffffffffffffffffffffffffffffffffff166370a08231336040518263ffffffff1660e01b8152600401610d929190611a68565b602060405180830381865afa158015610daf573d6000803e3d6000fd5b505050506040513d601f19601f82011682018060405250810190610dd39190611fd5565b1015610e14576040517f08c379a0000000000000000000000000000000000000000000000000000000008152600401610e0b9061204e565b60405180910390fd5b8073ffffffffffffffffffffffffffffffffffffffff16639dc29fac33846040518363ffffffff1660e01b8152600401610e4f92919061206e565b600060405180830381600087803b158015610e6957600080fd5b505af1158015610e7d573d6000803e3d6000fd5b5050505060005b60038160ff161015610f4a57600760009054906101000a900473ffffffffffffffffffffffffffffffffffffffff1673ffffffffffffffffffffffffffffffffffffffff166342966c68878360ff1660038110610ee457610ee3611f91565b5b60200201356040518263ffffffff1660e01b8152600401610f059190611a92565b600060405180830381600087803b158015610f1f57600080fd5b505af1158015610f33573d6000803e3d6000fd5b505050508080610f42906122e3565b915050610e84565b506000600760009054906101000a900473ffffffffffffffffffffffffffffffffffffffff1673ffffffffffffffffffffffffffffffffffffffff1663352926a833600188610f999190612378565b876040518463ffffffff1660e01b8152600401610fb8939291906123ad565b6020604051808303816000875af1158015610fd7573d6000803e3d6000fd5b505050506040513d601f19601f82011682018060405250810190610ffb9190611fd5565b9050807fb0adc957aa8941a286ee321d1ad62b8069cc4ef17ead0d5290d26d59de2d9ec58760018861102d9190612378565b878760405161103f94939291906123fd565b60405180910390a2505050505050565b600860009054906101000a900473ffffffffffffffffffffffffffffffffffffffff1681565b60008054906101000a900473ffffffffffffffffffffffffffffffffffffffff1681565b600e81600581106110a957600080fd5b016000915090505481565b601481565b6000806276a70060166000858152602001908152602001600020546110de9190611de6565b90508042106110f1576000915050611101565b42816110fd9190612442565b9150505b919050565b6276a70081565b60008054906101000a900473ffffffffffffffffffffffffffffffffffffffff1673ffffffffffffffffffffffffffffffffffffffff163373ffffffffffffffffffffffffffffffffffffffff161461119b576040517f08c379a000000000000000000000000000000000000000000000000000000000815260040161119290612196565b60405180910390fd5b8060138360ff16600381106111b3576111b2611f91565b5b01819055505050565b60008054906101000a900473ffffffffffffffffffffffffffffffffffffffff1673ffffffffffffffffffffffffffffffffffffffff163373ffffffffffffffffffffffffffffffffffffffff161461124a576040517f08c379a000000000000000000000000000000000000000000000000000000000815260040161124190612196565b60405180910390fd5b80600e8360ff166005811061126257611261611f91565b5b01819055505050565b6009816005811061127b57600080fd5b016000915090505481565b3373ffffffffffffffffffffffffffffffffffffffff16600660009054906101000a900473ffffffffffffffffffffffffffffffffffffffff1673ffffffffffffffffffffffffffffffffffffffff16636352211e846040518263ffffffff1660e01b81526004016112f89190611a92565b602060405180830381865afa158015611315573d6000803e3d6000fd5b505050506040513d601f19601f820116820180604052508101906113399190611ca1565b73ffffffffffffffffffffffffffffffffffffffff161461138f576040517f08c379a0000000000000000000000000000000000000000000000000000000008152600401611386906124c2565b60405180910390fd5b60018160ff16101580156113a7575060048160ff1611155b6113e6576040517f08c379a00000000000000000000000000000000000000000000000000000000081526004016113dd9061252e565b60405180910390fd5b600080600660009054906101000a900473ffffffffffffffffffffffffffffffffffffffff1673ffffffffffffffffffffffffffffffffffffffff16639ebd36f3856040518263ffffffff1660e01b81526004016114449190611a92565b61012060405180830381865afa158015611462573d6000803e3d6000fd5b505050506040513d601f19601f8201168201806040525081019061148691906125ca565b505050505050509150915060008260ff16116114d7576040517f08c379a00000000000000000000000000000000000000000000000000000000081526004016114ce906126e0565b60405180910390fd5b600060098460ff16600581106114f0576114ef611f91565b5b0154905060008111611537576040517f08c379a000000000000000000000000000000000000000000000000000000000815260040161152e9061274c565b60405180910390fd5b600060018360ff16600581106115505761154f611f91565b5b0160009054906101000a900473ffffffffffffffffffffffffffffffffffffffff169050818173ffffffffffffffffffffffffffffffffffffffff166370a08231336040518263ffffffff1660e01b81526004016115ae9190611a68565b602060405180830381865afa1580156115cb573d6000803e3d6000fd5b505050506040513d601f19601f820116820180604052508101906115ef9190611fd5565b1015611630576040517f08c379a00000000000000000000000000000000000000000000000000000000081526004016116279061204e565b60405180910390fd5b8073ffffffffffffffffffffffffffffffffffffffff16639dc29fac33846040518363ffffffff1660e01b815260040161166b92919061206e565b600060405180830381600087803b15801561168557600080fd5b505af1158015611699573d6000803e3d6000fd5b5050505060006002866116ac919061276c565b600a6116b89190612378565b90506000606482876116ca9190612378565b60ff16116116e35781866116de9190612378565b6116e6565b60645b9050600660009054906101000a900473ffffffffffffffffffffffffffffffffffffffff1673ffffffffffffffffffffffffffffffffffffffff16632c100f9289836040518363ffffffff1660e01b8152600401611745929190611e95565b600060405180830381600087803b15801561175f57600080fd5b505af1158015611773573d6000803e3d6000fd5b50505050877f56524051a0997c87742c20035e0c02063e17175a38c32505a7cd7713810296978860018a6117a79190612378565b88886040516117b994939291906127a9565b60405180910390a25050505050505050565b600660009054906101000a900473ffffffffffffffffffffffffffffffffffffffff1681565b60008054906101000a900473ffffffffffffffffffffffffffffffffffffffff1673ffffffffffffffffffffffffffffffffffffffff163373ffffffffffffffffffffffffffffffffffffffff161461187f576040517f08c379a000000000000000000000000000000000000000000000000000000000815260040161187690612196565b60405180910390fd5b600073ffffffffffffffffffffffffffffffffffffffff168173ffffffffffffffffffffffffffffffffffffffff16036118b857600080fd5b806000806101000a81548173ffffffffffffffffffffffffffffffffffffffff021916908373ffffffffffffffffffffffffffffffffffffffff16021790555050565b600060508261ffff16106119125760039050611941565b603c8261ffff16106119275760029050611941565b60288261ffff161061193c5760019050611941565b600090505b919050565b600080fd5b6000819050919050565b61195e8161194b565b811461196957600080fd5b50565b60008135905061197b81611955565b92915050565b600060ff82169050919050565b61199781611981565b81146119a257600080fd5b50565b6000813590506119b48161198e565b92915050565b600080604083850312156119d1576119d0611946565b5b60006119df8582860161196c565b92505060206119f0858286016119a5565b9150509250929050565b600060208284031215611a1057611a0f611946565b5b6000611a1e8482850161196c565b91505092915050565b600073ffffffffffffffffffffffffffffffffffffffff82169050919050565b6000611a5282611a27565b9050919050565b611a6281611a47565b82525050565b6000602082019050611a7d6000830184611a59565b92915050565b611a8c8161194b565b82525050565b6000602082019050611aa76000830184611a83565b92915050565b6000819050919050565b6000611ad2611acd611ac884611a27565b611aad565b611a27565b9050919050565b6000611ae482611ab7565b9050919050565b6000611af682611ad9565b9050919050565b611b0681611aeb565b82525050565b6000602082019050611b216000830184611afd565b92915050565b60008060408385031215611b3e57611b3d611946565b5b6000611b4c858286016119a5565b9250506020611b5d8582860161196c565b9150509250929050565b600080fd5b600081905082602060030282011115611b8857611b87611b67565b5b92915050565b600060608284031215611ba457611ba3611946565b5b6000611bb284828501611b6c565b91505092915050565b6000611bc682611ad9565b9050919050565b611bd681611bbb565b82525050565b6000602082019050611bf16000830184611bcd565b92915050565b6000611c0282611ad9565b9050919050565b611c1281611bf7565b82525050565b6000602082019050611c2d6000830184611c09565b92915050565b611c3c81611a47565b8114611c4757600080fd5b50565b600081359050611c5981611c33565b92915050565b600060208284031215611c7557611c74611946565b5b6000611c8384828501611c4a565b91505092915050565b600081519050611c9b81611c33565b92915050565b600060208284031215611cb757611cb6611946565b5b6000611cc584828501611c8c565b91505092915050565b600082825260208201905092915050565b7f216c616e64206f776e6572000000000000000000000000000000000000000000600082015250565b6000611d15600b83611cce565b9150611d2082611cdf565b602082019050919050565b60006020820190508181036000830152611d4481611d08565b9050919050565b7f696e76616c696420656c656d656e740000000000000000000000000000000000600082015250565b6000611d81600f83611cce565b9150611d8c82611d4b565b602082019050919050565b60006020820190508181036000830152611db081611d74565b9050919050565b7f4e487b7100000000000000000000000000000000000000000000000000000000600052601160045260246000fd5b6000611df18261194b565b9150611dfc8361194b565b9250828201905080821115611e1457611e13611db7565b5b92915050565b7f63686172676520636f6f6c646f776e0000000000000000000000000000000000600082015250565b6000611e50600f83611cce565b9150611e5b82611e1a565b602082019050919050565b60006020820190508181036000830152611e7f81611e43565b9050919050565b611e8f81611981565b82525050565b6000604082019050611eaa6000830185611a83565b611eb76020830184611e86565b9392505050565b600061ffff82169050919050565b611ed581611ebe565b8114611ee057600080fd5b50565b600081519050611ef281611ecc565b92915050565b600060208284031215611f0e57611f0d611946565b5b6000611f1c84828501611ee3565b91505092915050565b7f616c7265616479206d6178206772616465000000000000000000000000000000600082015250565b6000611f5b601183611cce565b9150611f6682611f25565b602082019050919050565b60006020820190508181036000830152611f8a81611f4e565b9050919050565b7f4e487b7100000000000000000000000000000000000000000000000000000000600052603260045260246000fd5b600081519050611fcf81611955565b92915050565b600060208284031215611feb57611fea611946565b5b6000611ff984828501611fc0565b91505092915050565b7f696e73756666696369656e7420656c656d656e74000000000000000000000000600082015250565b6000612038601483611cce565b915061204382612002565b602082019050919050565b600060208201905081810360008301526120678161202b565b9050919050565b60006040820190506120836000830185611a59565b6120906020830184611a83565b9392505050565b6120a081611ebe565b82525050565b60006060820190506120bb6000830186611a83565b6120c86020830185611e86565b6120d56040830184612097565b949350505050565b60006120e882611ebe565b91506120f383611ebe565b9250828201905061ffff81111561210d5761210c611db7565b5b92915050565b60006060820190506121286000830186611e86565b6121356020830185611a83565b6121426040830184611e86565b949350505050565b7f216f776e65720000000000000000000000000000000000000000000000000000600082015250565b6000612180600683611cce565b915061218b8261214a565b602082019050919050565b600060208201905081810360008301526121af81612173565b9050919050565b7f216472696c6c206f776e65720000000000000000000000000000000000000000600082015250565b60006121ec600c83611cce565b91506121f7826121b6565b602082019050919050565b6000602082019050818103600083015261221b816121df565b9050919050565b6000815190506122318161198e565b92915050565b6000806040838503121561224e5761224d611946565b5b600061225c85828601612222565b925050602061226d85828601612222565b9150509250929050565b7f6d69736d617463686564206472696c6c73000000000000000000000000000000600082015250565b60006122ad601183611cce565b91506122b882612277565b602082019050919050565b600060208201905081810360008301526122dc816122a0565b9050919050565b60006122ee82611981565b915060ff820361230157612300611db7565b5b600182019050919050565b7f6d61782074696572000000000000000000000000000000000000000000000000600082015250565b6000612342600883611cce565b915061234d8261230c565b602082019050919050565b6000602082019050818103600083015261237181612335565b9050919050565b600061238382611981565b915061238e83611981565b9250828201905060ff8111156123a7576123a6611db7565b5b92915050565b60006060820190506123c26000830186611a59565b6123cf6020830185611e86565b6123dc6040830184611e86565b949350505050565b82818337505050565b6123f9606083836123e4565b5050565b600060c08201905061241260008301876123ed565b61241f6060830186611e86565b61242c6080830185611e86565b61243960a0830184611a83565b95945050505050565b600061244d8261194b565b91506124588361194b565b92508282039050818111156124705761246f611db7565b5b92915050565b7f2161706f73746c65206f776e6572000000000000000000000000000000000000600082015250565b60006124ac600e83611cce565b91506124b782612476565b602082019050919050565b600060208201905081810360008301526124db8161249f565b9050919050565b7f696e76616c696420737461720000000000000000000000000000000000000000600082015250565b6000612518600c83611cce565b9150612523826124e2565b602082019050919050565b600060208201905081810360008301526125478161250b565b9050919050565b600067ffffffffffffffff82169050919050565b61256b8161254e565b811461257657600080fd5b50565b60008151905061258881612562565b92915050565b600063ffffffff82169050919050565b6125a78161258e565b81146125b257600080fd5b50565b6000815190506125c48161259e565b92915050565b60008060008060008060008060006101208a8c0312156125ed576125ec611946565b5b60006125fb8c828d01612222565b995050602061260c8c828d01612222565b985050604061261d8c828d01612222565b975050606061262e8c828d01611ee3565b965050608061263f8c828d01612579565b95505060a06126508c828d01612579565b94505060c06126618c828d01612579565b93505060e06126728c828d016125b5565b9250506101006126848c828d016125b5565b9150509295985092959850929598565b7f696e76616c69642061706f73746c650000000000000000000000000000000000600082015250565b60006126ca600f83611cce565b91506126d582612694565b602082019050919050565b600060208201905081810360008301526126f9816126bd565b9050919050565b7f6e6f20636f737420736574000000000000000000000000000000000000000000600082015250565b6000612736600b83611cce565b915061274182612700565b602082019050919050565b6000602082019050818103600083015261276581612729565b9050919050565b600061277782611981565b915061278283611981565b925082820261279081611981565b91508082146127a2576127a1611db7565b5b5092915050565b60006080820190506127be6000830187611e86565b6127cb6020830186611e86565b6127d86040830185611e86565b6127e56060830184611a83565b9594505050505056fea26469706673582212208e683078052dcc5d39b436add9bf700f48ce868ce9d14c63f4192581429abfd164736f6c63430008140033",
  "linkReferences": {},
  "deployedLinkReferences": {}
}