{
  "_format": "hh-sol-artifact-1",
  "contractName": "NFTAuction",
  "sourceName": "contracts/NFTAuction.sol",
  "abi": [
    {
      "inputs": [
        {
          "internalType": "address",
          "name": "_ring",
          "type": "address"
        }
      ],
      "stateMutability": "nonpayable",
      "type": "constructor"
    },
    {
      "anonymous": false,
      "inputs": [
        {
          "indexed": true,
          "internalType": "address",
          "name": "nft",
          "type": "address"
        },
        {
          "indexed": true,
          "internalType": "uint256",
          "name": "id",
          "type": "uint256"
        }
      ],
      "name": "AuctionCancelled",
      "type": "event"
    },
    {
      "anonymous": false,
      "inputs": [
        {
          "indexed": true,
          "internalType": "address",
          "name": "nft",
          "type": "address"
        },
        {
          "indexed": true,
          "internalType": "uint256",
          "name": "id",
          "type": "uint256"
        },
        {
          "indexed": false,
          "internalType": "address",
          "name": "seller",
          "type": "address"
        },
        {
          "indexed": false,
          "internalType": "uint128",
          "name": "start",
          "type": "uint128"
        },
        {
          "indexed": false,
          "internalType": "uint128",
          "name": "end",
          "type": "uint128"
        },
        {
          "indexed": false,
          "internalType": "uint64",
          "name": "dur",
          "type": "uint64"
        }
      ],
      "name": "AuctionCreated",
      "type": "event"
    },
    {
      "anonymous": false,
      "inputs": [
        {
          "indexed": true,
          "internalType": "address",
          "name": "nft",
          "type": "address"
        },
        {
          "indexed": true,
          "internalType": "uint256",
          "name": "id",
          "type": "uint256"
        },
        {
          "indexed": false,
          "internalType": "address",
          "name": "buyer",
          "type": "address"
        },
        {
          "indexed": false,
          "internalType": "uint256",
          "name": "price",
          "type": "uint256"
        }
      ],
      "name": "AuctionWon",
      "type": "event"
    },
    {
      "inputs": [],
      "name": "BPS",
      "outputs": [
        {
          "internalType": "uint256",
          "name": "",
          "type": "uint256"
        }
      ],
      "stateMutability": "view",
      "type": "function"
    },
    {
      "inputs": [],
      "name": "FEE_BPS",
      "outputs": [
        {
          "internalType": "uint256",
          "name": "",
          "type": "uint256"
        }
      ],
      "stateMutability": "view",
      "type": "function"
    },
    {
      "inputs": [
        {
          "internalType": "bytes32",
          "name": "",
          "type": "bytes32"
        }
      ],
      "name": "auctionMap",
      "outputs": [
        {
          "internalType": "address",
          "name": "nftContract",
          "type": "address"
        },
        {
          "internalType": "address",
          "name": "seller",
          "type": "address"
        },
        {
          "internalType": "uint128",
          "name": "startPrice",
          "type": "uint128"
        },
        {
          "internalType": "uint128",
          "name": "endPrice",
          "type": "uint128"
        },
        {
          "internalType": "uint64",
          "name": "duration",
          "type": "uint64"
        },
        {
          "internalType": "uint64",
          "name": "startedAt",
          "type": "uint64"
        }
      ],
      "stateMutability": "view",
      "type": "function"
    },
    {
      "inputs": [
        {
          "internalType": "address",
          "name": "nft",
          "type": "address"
        },
        {
          "internalType": "uint256",
          "name": "id",
          "type": "uint256"
        },
        {
          "internalType": "uint256",
          "name": "maxPay",
          "type": "uint256"
        }
      ],
      "name": "bid",
      "outputs": [],
      "stateMutability": "nonpayable",
      "type": "function"
    },
    {
      "inputs": [
        {
          "internalType": "address",
          "name": "nft",
          "type": "address"
        },
        {
          "internalType": "uint256",
          "name": "id",
          "type": "uint256"
        }
      ],
      "name": "cancelAuction",
      "outputs": [],
      "stateMutability": "nonpayable",
      "type": "function"
    },
    {
      "inputs": [
        {
          "internalType": "address",
          "name": "nft",
          "type": "address"
        },
        {
          "internalType": "uint256",
          "name": "id",
          "type": "uint256"
        },
        {
          "internalType": "uint128",
          "name": "sp",
          "type": "uint128"
        },
        {
          "internalType": "uint128",
          "name": "ep",
          "type": "uint128"
        },
        {
          "internalType": "uint64",
          "name": "dur",
          "type": "uint64"
        }
      ],
      "name": "createAuction",
      "outputs": [],
      "stateMutability": "nonpayable",
      "type": "function"
    },
    {
      "inputs": [
        {
          "internalType": "address",
          "name": "nft",
          "type": "address"
        },
        {
          "internalType": "uint256",
          "name": "id",
          "type": "uint256"
        }
      ],
      "name": "currentPrice",
      "outputs": [
        {
          "internalType": "uint256",
          "name": "",
          "type": "uint256"
        }
      ],
      "stateMutability": "view",
      "type": "function"
    },
    {
      "inputs": [
        {
          "internalType": "address",
          "name": "nft",
          "type": "address"
        },
        {
          "internalType": "uint256",
          "name": "id",
          "type": "uint256"
        }
      ],
      "name": "getAuction",
      "outputs": [
        {
          "components": [
            {
              "internalType": "address",
              "name": "nftContract",
              "type": "address"
            },
            {
              "internalType": "address",
              "name": "seller",
              "type": "address"
            },
            {
              "internalType": "uint128",
              "name": "startPrice",
              "type": "uint128"
            },
            {
              "internalType": "uint128",
              "name": "endPrice",
              "type": "uint128"
            },
            {
              "internalType": "uint64",
              "name": "duration",
              "type": "uint64"
            },
            {
              "internalType": "uint64",
              "name": "startedAt",
              "type": "uint64"
            }
          ],
          "internalType": "struct NFTAuction.Auction",
          "name": "",
          "type": "tuple"
        }
      ],
      "stateMutability": "view",
      "type": "function"
    },
    {
      "inputs": [
        {
          "internalType": "address",
          "name": "",
          "type": "address"
        },
        {
          "internalType": "address",
          "name": "",
          "type": "address"
        },
        {
          "internalType": "uint256",
          "name": "",
          "type": "uint256"
        },
        {
          "internalType": "bytes",
          "name": "",
          "type": "bytes"
        }
      ],
      "name": "onERC721Received",
      "outputs": [
        {
          "internalType": "bytes4",
          "name": "",
          "type": "bytes4"
        }
      ],
      "stateMutability": "pure",
      "type": "function"
    },
    {
      "inputs": [],
      "name": "owner",
      "outputs": [
        {
          "internalType": "address",
          "name": "",
          "type": "address"
        }
      ],
      "stateMutability": "view",
      "type": "function"
    },
    {
      "inputs": [],
      "name": "ring",
      "outputs": [
        {
          "internalType": "address",
          "name": "",
          "type": "address"
        }
      ],
      "stateMutability": "view",
      "type": "function"
    }
  ],
  "bytecode": "0x60806040523480156200001157600080fd5b50604051620023de380380620023de833981810160405281019062000037919062000129565b336000806101000a81548173ffffffffffffffffffffffffffffffffffffffff021916908373ffffffffffffffffffffffffffffffffffffffff16021790555080600160006101000a81548173ffffffffffffffffffffffffffffffffffffffff021916908373ffffffffffffffffffffffffffffffffffffffff160217905550506200015b565b600080fd5b600073ffffffffffffffffffffffffffffffffffffffff82169050919050565b6000620000f182620000c4565b9050919050565b6200010381620000e4565b81146200010f57600080fd5b50565b6000815190506200012381620000f8565b92915050565b600060208284031215620001425762000141620000bf565b5b6000620001528482850162000112565b91505092915050565b612273806200016b6000396000f3fe608060405234801561001057600080fd5b50600436106100a95760003560e01c8063762a66a211610071578063762a66a21461017d5780638360c185146101ad578063859b97fe146101cb5780638da5cb5b146101e7578063bf333f2c14610205578063d1a6add614610223576100a9565b80630f41ba4b146100ae578063150b7a02146100ca578063249d39e9146100fa5780632fb3905a14610118578063671d181714610148575b600080fd5b6100c860048036038101906100c39190611714565b61023f565b005b6100e460048036038101906100df91906117cc565b610772565b6040516100f1919061188f565b60405180910390f35b610102610787565b60405161010f91906118b9565b60405180910390f35b610132600480360381019061012d91906118d4565b61078d565b60405161013f91906118b9565b60405180910390f35b610162600480360381019061015d919061194a565b61099a565b604051610174969594939291906119d4565b60405180910390f35b610197600480360381019061019291906118d4565b610a76565b6040516101a49190611add565b60405180910390f35b6101b5610c51565b6040516101c29190611af8565b60405180910390f35b6101e560048036038101906101e091906118d4565b610c77565b005b6101ef61105f565b6040516101fc9190611af8565b60405180910390f35b61020d611083565b60405161021a91906118b9565b60405180910390f35b61023d60048036038101906102389190611b6b565b611089565b005b600360009054906101000a900460ff161561028f576040517f08c379a000000000000000000000000000000000000000000000000000000000815260040161028690611c43565b60405180910390fd5b6001600360006101000a81548160ff0219169083151502179055506000600260006102ba86866115a9565b8152602001908152602001600020905060008160030160089054906101000a900467ffffffffffffffff1667ffffffffffffffff161161032f576040517f08c379a000000000000000000000000000000000000000000000000000000000815260040161032690611caf565b60405180910390fd5b600061033b858561078d565b905080831015610380576040517f08c379a000000000000000000000000000000000000000000000000000000000815260040161037790611d1b565b60405180910390fd5b6000612710610190836103939190611d6a565b61039d9190611ddb565b9050600160009054906101000a900473ffffffffffffffffffffffffffffffffffffffff1673ffffffffffffffffffffffffffffffffffffffff166323b872dd338560010160009054906101000a900473ffffffffffffffffffffffffffffffffffffffff16848661040f9190611e0c565b6040518463ffffffff1660e01b815260040161042d93929190611e40565b6020604051808303816000875af115801561044c573d6000803e3d6000fd5b505050506040513d601f19601f820116820180604052508101906104709190611eaf565b6104af576040517f08c379a00000000000000000000000000000000000000000000000000000000081526004016104a690611f28565b60405180910390fd5b600081111561057c57600160009054906101000a900473ffffffffffffffffffffffffffffffffffffffff1673ffffffffffffffffffffffffffffffffffffffff166323b872dd3360008054906101000a900473ffffffffffffffffffffffffffffffffffffffff16846040518463ffffffff1660e01b815260040161053793929190611e40565b6020604051808303816000875af1158015610556573d6000803e3d6000fd5b505050506040513d601f19601f8201168201806040525081019061057a9190611eaf565b505b60008360000160009054906101000a900473ffffffffffffffffffffffffffffffffffffffff169050600260006105b389896115a9565b8152602001908152602001600020600080820160006101000a81549073ffffffffffffffffffffffffffffffffffffffff02191690556001820160006101000a81549073ffffffffffffffffffffffffffffffffffffffff02191690556002820160006101000a8154906fffffffffffffffffffffffffffffffff02191690556002820160106101000a8154906fffffffffffffffffffffffffffffffff02191690556003820160006101000a81549067ffffffffffffffff02191690556003820160086101000a81549067ffffffffffffffff021916905550508073ffffffffffffffffffffffffffffffffffffffff166323b872dd3033896040518463ffffffff1660e01b81526004016106cb93929190611e40565b600060405180830381600087803b1580156106e557600080fd5b505af11580156106f9573d6000803e3d6000fd5b50505050858773ffffffffffffffffffffffffffffffffffffffff167f57897076b3b4da1e5b44291d2afa77158945c16a6bb3033421ebd9331d0c6fe43386604051610746929190611f48565b60405180910390a3505050506000600360006101000a81548160ff021916908315150217905550505050565b600063150b7a0260e01b905095945050505050565b61271081565b6000806002600061079e86866115a9565b8152602001908152602001600020905060008160030160089054906101000a900467ffffffffffffffff1667ffffffffffffffff1611610813576040517f08c379a000000000000000000000000000000000000000000000000000000000815260040161080a90611caf565b60405180910390fd5b60008160030160089054906101000a900467ffffffffffffffff1667ffffffffffffffff16426108439190611e0c565b90508160030160009054906101000a900467ffffffffffffffff1667ffffffffffffffff1681106108aa578160020160109054906101000a90046fffffffffffffffffffffffffffffffff166fffffffffffffffffffffffffffffffff1692505050610994565b8160030160009054906101000a900467ffffffffffffffff1667ffffffffffffffff16818360020160109054906101000a90046fffffffffffffffffffffffffffffffff166fffffffffffffffffffffffffffffffff168460020160009054906101000a90046fffffffffffffffffffffffffffffffff166fffffffffffffffffffffffffffffffff1661093e9190611e0c565b6109489190611d6a565b6109529190611ddb565b8260020160009054906101000a90046fffffffffffffffffffffffffffffffff166fffffffffffffffffffffffffffffffff1661098f9190611e0c565b925050505b92915050565b60026020528060005260406000206000915090508060000160009054906101000a900473ffffffffffffffffffffffffffffffffffffffff16908060010160009054906101000a900473ffffffffffffffffffffffffffffffffffffffff16908060020160009054906101000a90046fffffffffffffffffffffffffffffffff16908060020160109054906101000a90046fffffffffffffffffffffffffffffffff16908060030160009054906101000a900467ffffffffffffffff16908060030160089054906101000a900467ffffffffffffffff16905086565b610a7e6115dc565b60026000610a8c85856115a9565b81526020019081526020016000206040518060c00160405290816000820160009054906101000a900473ffffffffffffffffffffffffffffffffffffffff1673ffffffffffffffffffffffffffffffffffffffff1673ffffffffffffffffffffffffffffffffffffffff1681526020016001820160009054906101000a900473ffffffffffffffffffffffffffffffffffffffff1673ffffffffffffffffffffffffffffffffffffffff1673ffffffffffffffffffffffffffffffffffffffff1681526020016002820160009054906101000a90046fffffffffffffffffffffffffffffffff166fffffffffffffffffffffffffffffffff166fffffffffffffffffffffffffffffffff1681526020016002820160109054906101000a90046fffffffffffffffffffffffffffffffff166fffffffffffffffffffffffffffffffff166fffffffffffffffffffffffffffffffff1681526020016003820160009054906101000a900467ffffffffffffffff1667ffffffffffffffff1667ffffffffffffffff1681526020016003820160089054906101000a900467ffffffffffffffff1667ffffffffffffffff1667ffffffffffffffff1681525050905092915050565b600160009054906101000a900473ffffffffffffffffffffffffffffffffffffffff1681565b600360009054906101000a900460ff1615610cc7576040517f08c379a0000000000000000000000000000000000000000000000000000000008152600401610cbe90611c43565b60405180910390fd5b6001600360006101000a81548160ff021916908315150217905550600060026000610cf285856115a9565b8152602001908152602001600020905060008160030160089054906101000a900467ffffffffffffffff1667ffffffffffffffff1611610d67576040517f08c379a0000000000000000000000000000000000000000000000000000000008152600401610d5e90611caf565b60405180910390fd5b3373ffffffffffffffffffffffffffffffffffffffff168160010160009054906101000a900473ffffffffffffffffffffffffffffffffffffffff1673ffffffffffffffffffffffffffffffffffffffff161480610e10575060008054906101000a900473ffffffffffffffffffffffffffffffffffffffff1673ffffffffffffffffffffffffffffffffffffffff163373ffffffffffffffffffffffffffffffffffffffff16145b610e4f576040517f08c379a0000000000000000000000000000000000000000000000000000000008152600401610e4690611fbd565b60405180910390fd5b60008160010160009054906101000a900473ffffffffffffffffffffffffffffffffffffffff16905060008260000160009054906101000a900473ffffffffffffffffffffffffffffffffffffffff16905060026000610eaf87876115a9565b8152602001908152602001600020600080820160006101000a81549073ffffffffffffffffffffffffffffffffffffffff02191690556001820160006101000a81549073ffffffffffffffffffffffffffffffffffffffff02191690556002820160006101000a8154906fffffffffffffffffffffffffffffffff02191690556002820160106101000a8154906fffffffffffffffffffffffffffffffff02191690556003820160006101000a81549067ffffffffffffffff02191690556003820160086101000a81549067ffffffffffffffff021916905550508073ffffffffffffffffffffffffffffffffffffffff166323b872dd3084876040518463ffffffff1660e01b8152600401610fc793929190611e40565b600060405180830381600087803b158015610fe157600080fd5b505af1158015610ff5573d6000803e3d6000fd5b50505050838573ffffffffffffffffffffffffffffffffffffffff167f018b64b6242d32aa550e95d78985b938d71af5b3f10827b0683f55da1639304860405160405180910390a35050506000600360006101000a81548160ff0219169083151502179055505050565b60008054906101000a900473ffffffffffffffffffffffffffffffffffffffff1681565b61019081565b600360009054906101000a900460ff16156110d9576040517f08c379a00000000000000000000000000000000000000000000000000000000081526004016110d090611c43565b60405180910390fd5b6001600360006101000a81548160ff0219169083151502179055503373ffffffffffffffffffffffffffffffffffffffff168573ffffffffffffffffffffffffffffffffffffffff16636352211e866040518263ffffffff1660e01b815260040161114491906118b9565b602060405180830381865afa158015611161573d6000803e3d6000fd5b505050506040513d601f19601f820116820180604052508101906111859190611ff2565b73ffffffffffffffffffffffffffffffffffffffff16146111db576040517f08c379a00000000000000000000000000000000000000000000000000000000081526004016111d29061206b565b60405180910390fd5b603c8167ffffffffffffffff1610158015611203575062278d008167ffffffffffffffff1611155b611242576040517f08c379a0000000000000000000000000000000000000000000000000000000008152600401611239906120d7565b60405180910390fd5b816fffffffffffffffffffffffffffffffff16836fffffffffffffffffffffffffffffffff1610156112a9576040517f08c379a00000000000000000000000000000000000000000000000000000000081526004016112a090612143565b60405180910390fd5b8473ffffffffffffffffffffffffffffffffffffffff166323b872dd3330876040518463ffffffff1660e01b81526004016112e693929190611e40565b600060405180830381600087803b15801561130057600080fd5b505af1158015611314573d6000803e3d6000fd5b505050506040518060c001604052808673ffffffffffffffffffffffffffffffffffffffff1681526020013373ffffffffffffffffffffffffffffffffffffffff168152602001846fffffffffffffffffffffffffffffffff168152602001836fffffffffffffffffffffffffffffffff1681526020018267ffffffffffffffff1681526020014267ffffffffffffffff16815250600260006113b788886115a9565b815260200190815260200160002060008201518160000160006101000a81548173ffffffffffffffffffffffffffffffffffffffff021916908373ffffffffffffffffffffffffffffffffffffffff16021790555060208201518160010160006101000a81548173ffffffffffffffffffffffffffffffffffffffff021916908373ffffffffffffffffffffffffffffffffffffffff16021790555060408201518160020160006101000a8154816fffffffffffffffffffffffffffffffff02191690836fffffffffffffffffffffffffffffffff16021790555060608201518160020160106101000a8154816fffffffffffffffffffffffffffffffff02191690836fffffffffffffffffffffffffffffffff16021790555060808201518160030160006101000a81548167ffffffffffffffff021916908367ffffffffffffffff16021790555060a08201518160030160086101000a81548167ffffffffffffffff021916908367ffffffffffffffff160217905550905050838573ffffffffffffffffffffffffffffffffffffffff167f8c4ccdae66f6bd029aa7def8df304854941c4067ad2f54516a5418fcee42f9513386868660405161157f9493929190612163565b60405180910390a36000600360006101000a81548160ff0219169083151502179055505050505050565b600082826040516020016115be929190612211565b60405160208183030381529060405280519060200120905092915050565b6040518060c00160405280600073ffffffffffffffffffffffffffffffffffffffff168152602001600073ffffffffffffffffffffffffffffffffffffffff16815260200160006fffffffffffffffffffffffffffffffff16815260200160006fffffffffffffffffffffffffffffffff168152602001600067ffffffffffffffff168152602001600067ffffffffffffffff1681525090565b600080fd5b600080fd5b600073ffffffffffffffffffffffffffffffffffffffff82169050919050565b60006116ab82611680565b9050919050565b6116bb816116a0565b81146116c657600080fd5b50565b6000813590506116d8816116b2565b92915050565b6000819050919050565b6116f1816116de565b81146116fc57600080fd5b50565b60008135905061170e816116e8565b92915050565b60008060006060848603121561172d5761172c611676565b5b600061173b868287016116c9565b935050602061174c868287016116ff565b925050604061175d868287016116ff565b9150509250925092565b600080fd5b600080fd5b600080fd5b60008083601f84011261178c5761178b611767565b5b8235905067ffffffffffffffff8111156117a9576117a861176c565b5b6020830191508360018202830111156117c5576117c4611771565b5b9250929050565b6000806000806000608086880312156117e8576117e7611676565b5b60006117f6888289016116c9565b9550506020611807888289016116c9565b9450506040611818888289016116ff565b935050606086013567ffffffffffffffff8111156118395761183861167b565b5b61184588828901611776565b92509250509295509295909350565b60007fffffffff0000000000000000000000000000000000000000000000000000000082169050919050565b61188981611854565b82525050565b60006020820190506118a46000830184611880565b92915050565b6118b3816116de565b82525050565b60006020820190506118ce60008301846118aa565b92915050565b600080604083850312156118eb576118ea611676565b5b60006118f9858286016116c9565b925050602061190a858286016116ff565b9150509250929050565b6000819050919050565b61192781611914565b811461193257600080fd5b50565b6000813590506119448161191e565b92915050565b6000602082840312156119605761195f611676565b5b600061196e84828501611935565b91505092915050565b611980816116a0565b82525050565b60006fffffffffffffffffffffffffffffffff82169050919050565b6119ab81611986565b82525050565b600067ffffffffffffffff82169050919050565b6119ce816119b1565b82525050565b600060c0820190506119e96000830189611977565b6119f66020830188611977565b611a0360408301876119a2565b611a1060608301866119a2565b611a1d60808301856119c5565b611a2a60a08301846119c5565b979650505050505050565b611a3e816116a0565b82525050565b611a4d81611986565b82525050565b611a5c816119b1565b82525050565b60c082016000820151611a786000850182611a35565b506020820151611a8b6020850182611a35565b506040820151611a9e6040850182611a44565b506060820151611ab16060850182611a44565b506080820151611ac46080850182611a53565b5060a0820151611ad760a0850182611a53565b50505050565b600060c082019050611af26000830184611a62565b92915050565b6000602082019050611b0d6000830184611977565b92915050565b611b1c81611986565b8114611b2757600080fd5b50565b600081359050611b3981611b13565b92915050565b611b48816119b1565b8114611b5357600080fd5b50565b600081359050611b6581611b3f565b92915050565b600080600080600060a08688031215611b8757611b86611676565b5b6000611b95888289016116c9565b9550506020611ba6888289016116ff565b9450506040611bb788828901611b2a565b9350506060611bc888828901611b2a565b9250506080611bd988828901611b56565b9150509295509295909350565b600082825260208201905092915050565b7f7265656e7472616e740000000000000000000000000000000000000000000000600082015250565b6000611c2d600983611be6565b9150611c3882611bf7565b602082019050919050565b60006020820190508181036000830152611c5c81611c20565b9050919050565b7f6e6f2061756374696f6e00000000000000000000000000000000000000000000600082015250565b6000611c99600a83611be6565b9150611ca482611c63565b602082019050919050565b60006020820190508181036000830152611cc881611c8c565b9050919050565b7f746f6f206c6f7700000000000000000000000000000000000000000000000000600082015250565b6000611d05600783611be6565b9150611d1082611ccf565b602082019050919050565b60006020820190508181036000830152611d3481611cf8565b9050919050565b7f4e487b7100000000000000000000000000000000000000000000000000000000600052601160045260246000fd5b6000611d75826116de565b9150611d80836116de565b9250828202611d8e816116de565b91508282048414831517611da557611da4611d3b565b5b5092915050565b7f4e487b7100000000000000000000000000000000000000000000000000000000600052601260045260246000fd5b6000611de6826116de565b9150611df1836116de565b925082611e0157611e00611dac565b5b828204905092915050565b6000611e17826116de565b9150611e22836116de565b9250828203905081811115611e3a57611e39611d3b565b5b92915050565b6000606082019050611e556000830186611977565b611e626020830185611977565b611e6f60408301846118aa565b949350505050565b60008115159050919050565b611e8c81611e77565b8114611e9757600080fd5b50565b600081519050611ea981611e83565b92915050565b600060208284031215611ec557611ec4611676565b5b6000611ed384828501611e9a565b91505092915050565b7f72696e6700000000000000000000000000000000000000000000000000000000600082015250565b6000611f12600483611be6565b9150611f1d82611edc565b602082019050919050565b60006020820190508181036000830152611f4181611f05565b9050919050565b6000604082019050611f5d6000830185611977565b611f6a60208301846118aa565b9392505050565b7f2161757468000000000000000000000000000000000000000000000000000000600082015250565b6000611fa7600583611be6565b9150611fb282611f71565b602082019050919050565b60006020820190508181036000830152611fd681611f9a565b9050919050565b600081519050611fec816116b2565b92915050565b60006020828403121561200857612007611676565b5b600061201684828501611fdd565b91505092915050565b7f216f776e65720000000000000000000000000000000000000000000000000000600082015250565b6000612055600683611be6565b91506120608261201f565b602082019050919050565b6000602082019050818103600083015261208481612048565b9050919050565b7f6261642064757200000000000000000000000000000000000000000000000000600082015250565b60006120c1600783611be6565b91506120cc8261208b565b602082019050919050565b600060208201905081810360008301526120f0816120b4565b9050919050565b7f73703c6570000000000000000000000000000000000000000000000000000000600082015250565b600061212d600583611be6565b9150612138826120f7565b602082019050919050565b6000602082019050818103600083015261215c81612120565b9050919050565b60006080820190506121786000830187611977565b61218560208301866119a2565b61219260408301856119a2565b61219f60608301846119c5565b95945050505050565b60008160601b9050919050565b60006121c0826121a8565b9050919050565b60006121d2826121b5565b9050919050565b6121ea6121e5826116a0565b6121c7565b82525050565b6000819050919050565b61220b612206826116de565b6121f0565b82525050565b600061221d82856121d9565b60148201915061222d82846121fa565b602082019150819050939250505056fea2646970667358221220c5464090c9fff7646d7a329651830d26e7347566bdc895bdbdc0f1e54df5a2a064736f6c63430008140033",
  "linkReferences": {},
  "deployedLinkReferences": {}
}